:020000040800F2
:10000000F017002029020008D10500089905000812
:100010009D05000859040008A5090008000000001B
:10002000000000000000000000000000E1060008E1
:10003000F104000800000000D3050008D107000803
:10004000430200084302000843020008430200087C
:1000500043020008430200084D050008430200085F
:100060005F0500084302000843020008430200083D
:10007000430200084302000843020008430200084C
:10008000430200084302000843020008430200083C
:10009000430200084302000843020008430200082C
:1000A000430200084302000843020008430200081C
:1000B0003D080008550800084302000843020008F4
:1000C00043020008430200084302000843020008FC
:1000D0004302000843020008AD080008F5080008C4
:1000E00043020008430200084302000843020008DC
:1000F00043020008430200084302000843020008CC
:1001000043020008430200084302000843020008BB
:10011000430200086D08000843020008430200087B
:10012000430200084302000843020008430200089B
:10013000430200084302000843020008430200088B
:10014000430200084302000843020008430200087B
:10015000430200084302000843020008430200086B
:10016000430200084302000843020008430200085B
:10017000430200084302000843020008430200084B
:10018000430200084302000800F002F800F03CF8C7
:100190000AA090E8000C82448344AAF10107DA45E2
:1001A00001D100F031F8AFF2090EBAE80F0013F0F8
:1001B000010F18BFFB1A43F0010318472008000085
:1001C00040080000103A24BF78C878C1FAD8520716
:1001D00024BF30C830C144BF04680C6070470000C1
:1001E0000023002400250026103A28BF78C1FBD840
:1001F000520728BF30C148BF0B6070471FB500F0E1
:10020000D7FB1FBD10B510BD00F0F8F81146FFF781
:10021000F5FF00F0CBFB00F016F903B4FFF7F2FF97
:1002200003BC00F0C1FB00000948804709480047B3
:10023000FEE7FEE7FEE7FEE7FEE7FEE7FEE7FEE796
:10024000FEE7FEE704480549054A064B70470000F3
:10025000D507000889010008F0110020F0170020E0
:10026000F0130020F01300207047032A40F2308082
:1002700010F0030C00F0158011F8013BBCF1020FE7
:10028000624498BF11F801CB00F8013B38BF11F868
:10029000013BA2F1040298BF00F801CB38BF00F87F
:1002A000013B11F0030300F07280083AC0F00880AF
:1002B00051F8043B083A51F804CBA0E80810F5E7E0
:1002C000121D5CBF51F8043B40F8043BAFF30080C3
:1002D000D20724BF11F8013B11F801CB48BF11F838
:1002E000012B24BF00F8013B00F801CB48BF00F808
:1002F000012B70474FF000020429C0F0128010F06B
:10030000030C00F01B80CCF1040CBCF1020F18BFF1
:1003100000F8012BA8BF20F8022BA1EB0C0100F084
:100320000DB85FEAC17C24BF00F8012B00F8012B57
:1003300048BF00F8012B70474FF0000200B513468C
:1003400094469646203922BFA0E80C50A0E80C50F5
:10035000B1F12001BFF4F7AF090728BFA0E80C50A6
:1003600048BF0CC05DF804EB890028BF40F8042B9F
:1003700008BF704748BF20F8022B11F0804F18BF0C
:1003800000F8012B7047704770477047704710B5F1
:10039000203AC0F00B80B1E81850203AA0E818507D
:1003A000B1E81850A0E81850BFF4F5AF5FEA027C3E
:1003B00024BFB1E81850A0E8185044BF18C918C0AD
:1003C000BDE810405FEA827C24BF51F8043B40F84E
:1003D000043B08BF7047D20728BF31F8023B48BF33
:1003E00011F8012B28BF20F8023B48BF00F8012B71
:1003F00070470000004870478C1100207546FFF7D9
:10040000F9FFAE4605006946534620F007008546D1
:1004100018B020B5FFF716FFBDE820404FF00006EA
:100420004FF000074FF000084FF0000B21F00701DC
:10043000AC46ACE8C009ACE8C009ACE8C009ACE81F
:10044000C0098D46704710B50446AFF300802046C2
:10045000BDE81040FFF7E1BE00BFFEE710B504465F
:10046000242C0CD101201D4908701D481D49097814
:1004700044541C480078401C1A4908702CE0174866
:10048000007800B910BD164816490978445415483B
:100490000078401C13490870232C10D100200F490C
:1004A00008701049087064220D490F48FFF7DDFEFF
:1004B00001200E49087064210948FFF71BFF094815
:1004C0000078642808DB002004490870054908709A
:1004D00064210348FFF70EFF00BFD3E7A800002008
:1004E000C4100020A9000020281100209F00002037
:1004F0007047000010B50446114801880088401C70
:100500000F4A10800F48445410460088401E0D4981
:10051000085C0A2813D110460088801E085C0D284C
:100520000DD10020114608804FF4FA6205490648B3
:10053000FFF79BFE4FF4FA610248FFF7DBFE10BDA8
:1005400090000020DC000020AC08002010B5012045
:1005500000F016F8012801D100F00CF810BD10B51C
:10056000042000F00DF8012802D1042000F002F868
:1005700010BD00000149086070470000143C0140B4
:1005800001460020034A12680A400AB1012000E037
:1005900000207047143C014000BFFEE700BFFEE7AB
:1005A00030B502460B464FF6FF7008E012F8014BDB
:1005B0004440E1B20012054C34F8114060401C1E6A
:1005C000A3F10105ABB2F1D130BD0000BA090008BA
:1005D0007047704770B507212F48FFF7E1FF0446C9
:1005E0002D48C0792C49097A40EA0125AC424DD109
:1005F0002A4800882A2827D005DC50B1082811D0C5
:1006000012283DD117E0362827D0B0F5807F37D1AA
:100610002DE000F04FF8224880ED000A08201F4925
:1006200008802EE000F046F81D4880ED010A1220F7
:100630001A49088025E000F03DF8194880ED030ACA
:100640002A20164908801CE000F034F8144880ED98
:10065000050A36201149088013E000F02BF81048F5
:1006600080ED020A4FF480700C49088009E000F028
:1006700021F80B4880ED040A00200849088000E0BA
:1006800000BF00BF00200649087602E001200449AF
:10069000087600F007F870BD7C1000209A0000205A
:1006A0008810002010B509210148FFF745FE10BD54
:1006B0007C1000200948C07800060849097940EA02
:1006C00001400649497940EA0120044989790843F3
:1006D00000EE900AB0EE600A704700007C10002027
:1006E000704700000CB5002001900090344800686D
:1006F00040F480303249086000BF3148006800F49F
:10070000003000900198401C0190009818B90198A1
:10071000B0F5A04FF1D12A48006800F4003010B1C4
:100720000120009001E0002000900098012846D1AF
:1007300023484030006840F0805021494031086033
:100740002048006840F440401E4908601C480830BA
:1007500000681B49083108600846006840F4004002
:1007600008600846006840F4A05008601648091F59
:100770000860081F006840F08070091F086000BF13
:100780000F48006800F000700028F9D040F20570B2
:100790000E4908600A480830006820F00300084944
:1007A000083108600846006840F00200086000BF99
:1007B00003480830006800F00C000828F8D10CBD90
:1007C000003802400070004019544007003C0240CD
:1007D0007047000010B51548006840F470001349D8
:1007E00008601348006840F00100114908600020CB
:1007F0000F49083108600E4800680E4908400C494E
:1008000008600D48091D0860081F006820F480205A
:10081000091F0860002006490C310860FFF762FFDD
:100820004FF0006001498039086010BD88ED00E09C
:1008300000380240FFFFF6FE103000244FF08040E9
:10084000008A4FF08040008A20F001004FF0804184
:1008500008827047044800880348008820F001009F
:1008600001490880704700001004004010B540F2B4
:1008700025510C4800F063F890B10B480068B0F5C2
:100880007A7F01DA002010BD064800F082F8C4B279
:100890002046FFF7E3FD40F22551024800F040F802
:1008A0000020F0E700500040AC00002010B540F2FE
:1008B00025510D4800F043F8A0B10B4800F069F84D
:1008C000C1B20A4802780078401C084B18700848EA
:1008D000815418460078092804DB00201946087066
:1008E000FFF778FE10BD0000004400409E0000208D
:1008F0007C10002010B540F22551084800F01FF888
:1009000058B1064800F045F8C4B22046FFF7F2FDA2
:100910002146024800F042F800BF10BD00480040E8
:1009200010B50022002340F66A14A14200D100BF96
:100930000A1201249440A3B2DC43048010BD70B5B8
:100940000246002400230025002040F66A16B1422A
:1009500000D100BFC1F3421501F01F03012606FAC2
:1009600003F3012D02D19689334006E0022D02D116
:10097000168A334001E0968A33400C12012606FAAB
:1009800004F41688344013B10CB1012000E00020BB
:1009900070BD01468888C0F308007047C1F30802A3
:1009A0008280704700BFFEE700BF704700BFFEE7D0
:1009B0004FF04070E1EE100A70470000C1C081C1E5
:1009C000400101C3C003800241C201C6C0068007C6
:1009D00041C70005C1C581C440040000FC090008EE
:1009E00000000020DC000000C4010008D80A000854
:1009F000DC00002014170000E00100080041542B27
:100A00005253540D0A0041542B43574D4F44453D1A
:100A1000310D0A0041542B43574A41503D223222A6
:100A20002C223132333435363738220D0A00415406
:100A30002B4349504D55583D300D0A0041542B432E
:100A4000495053544152543D22544350222C223198
:100A500039322E3136382E3231342E3230222C3883
:100A60003233340D0A0041542B4349504D4F444515
:100A70003D310D0A002B2B2B0041542B4349505381
:100A8000454E440D0A0054797065000000000104D1
:100A90000000000200000000FFFF00000000000056
:100AA0000000000000000000000000000000000046
:100AB0000000000000000000000000000000000036
:100AC0000000000000000000000000000000000026
:080AD00000000000000000001E
:040000050800018965
:00000001FF
