:020000040800F2
:10000000601F002071020008911100085D100008B7
:100010005D110008DD06000827240008000000002C
:10002000000000000000000000000000F9150008BA
:100030000908000800000000211200083917000814
:100040008B0200088B0200088B0200088B0200085C
:100050008B0200088B020008990900088B02000837
:10006000AB0900088B0200088B0200088B02000815
:100070008B0200088B0200088B0200088B0200082C
:100080008B0200088B0200088B0200088B0200081C
:100090008B0200088B0200088B0200088B0200080C
:1000A0008B0200088B0200088B0200088B020008FC
:1000B000C7180008E11800088B0200088B0200082E
:1000C0008B0200088B0200088B0200088B020008DC
:1000D0008B0200088B0200088D210008D521000842
:1000E0008B0200088B0200088B0200088B020008BC
:1000F0008B0200088B0200088B0200088B020008AC
:100100008B0200088B0200088B0200088B0200089B
:100110008B0200084D2100088B020008DD19000841
:100120008B0200088B0200088B0200088B0200087B
:100130008B0200088B0200088B0200088B0200086B
:100140008B0200088B0200088B0200088B0200085B
:100150008B0200088B0200088B0200088B0200084B
:100160008B0200088B0200088B0200088B0200083B
:100170008B0200088B0200088B0200088B0200082B
:100180008B0200088B02000800F002F800F061F812
:100190000AA090E8000C82448344AAF10107DA45E2
:1001A00001D100F056F8AFF2090EBAE80F0013F0D3
:1001B000010F18BFFB1A43F001031847702D000010
:1001C000902D00000A444FF0000C10F8013B13F092
:1001D000070408BF10F8014B1D1108BF10F8015BA0
:1001E000641E05D010F8016B641E01F8016BF9D193
:1001F00013F0080F1EBF10F8014BAD1C0C1B09D1EA
:100200006D1E58BF01F801CBFAD505E014F8016B5B
:1002100001F8016B6D1EF9D59142D6D370470000ED
:100220000023002400250026103A28BF78C1FBD8FF
:10023000520728BF30C148BF0B607047732900F0D8
:100240007081002070471FB502F0BBFD1FBD10B5C7
:1002500010BD00F0D3F91146FFF7F5FF02F050FB97
:1002600000F0F1F903B4FFF7F2FF03BC02F016FB54
:100270000948804709480047FEE7FEE7FEE7FEE73A
:10028000FEE7FEE7FEE7FEE7FEE7FEE70448054976
:10029000054A064B704700003D1700088901000819
:1002A00060190020601F0020601B0020601B0020E0
:1002B000704700000FB4044910B503AA029800F07B
:1002C00035F910BC5DF814FBBC0000202DE9F041AD
:1002D0000E460446002020622046E168884730B37D
:1002E000252805D0D4E901219047206A401CF2E777
:1002F000E168204600278847050018D0A5F1410095
:10030000192802D820354FF4006732462946204686
:100310002760FFF793FF40B1012804D0F61D26F0B7
:1003200007060836D8E7361DD6E72846DAE7206AFA
:10033000BDE8F08170B50C460546012A05D0287845
:10034000800600D5EA69002302E0012305E05B1C7A
:10035000934202D2E05C0028F9D1A869E618C01ADD
:10036000A861286A184428622846AFF3008004E098
:10037000D5E9012114F8010B9047B442F8D328467F
:10038000AFF3008070BD10B5431C02E010F8011BF4
:1003900071B18107FAD14FF0013202C88C1A8C4337
:1003A00014EAC211F9D0C01A0A0603D0C01E10BD4B
:1003B000C01A10BD0A0401D0801E10BD0902FCD075
:1003C000401E10BD032A40F2308010F0030C00F0F4
:1003D000158011F8013BBCF1020F624498BF11F87F
:1003E00001CB00F8013B38BF11F8013BA2F1040238
:1003F00098BF00F801CB38BF00F8013B11F00303B0
:1004000000F0A680083AC0F0088051F8043B083A92
:1004100051F804CBA0E80810F5E7121D5CBF51F8B5
:10042000043B40F8043BAFF30080D20724BF11F82F
:10043000013B11F801CB48BF11F8012B24BF00F894
:10044000013B00F801CB48BF00F8012B70474FF08B
:1004500000020429C0F0128010F0030C00F01B8091
:10046000CCF1040CBCF1020F18BF00F8012BA8BF9F
:1004700020F8022BA1EB0C0100F00DB85FEAC17C63
:1004800024BF00F8012B00F8012B48BF00F8012B16
:1004900070474FF0000200B5134694469646203947
:1004A00022BFA0E80C50A0E80C50B1F12001BFF42D
:1004B000F7AF090728BFA0E80C5048BF0CC05DF893
:1004C00004EB890028BF40F8042B08BF704748BFE1
:1004D00020F8022B11F0804F18BF00F8012B704755
:1004E000704770477047704710B500F063F80068B8
:1004F00010BD10B5044600F05DF8046010BD10B5E5
:10050000436913B1AFF3008001E0FFF713FF01204F
:1005100010BD127800F124010A7000224A700122F5
:10052000EDE711684FF0FF32E9E70000074B70B5C7
:100530000D467B4400F047F80446284600F056F884
:1005400010B14FF0FF3070BD204670BDAF230000EA
:1005500010B5203AC0F00B80B1E81850203AA0E85E
:100560001850B1E81850A0E81850BFF4F5AF5FEA92
:10057000027C24BFB1E81850A0E8185044BF18C945
:1005800018C0BDE810405FEA827C24BF51F8043BEC
:1005900040F8043B08BF7047D20728BF31F8023B40
:1005A00048BF11F8012B28BF20F8023B48BF00F8D4
:1005B000012B7047004870470019002001694A1C50
:1005C00002610878704700B58FB0CDE90131002194
:1005D000059105497944CDE9031011466846FFF7B6
:1005E00075FE0FB000BD0000E5FFFFFF007B00F0CF
:1005F0008000704700487047001900207546FFF7DB
:10060000F9FFAE4605006946534620F007008546CF
:1006100018B020B5FFF73AFEBDE820404FF00006C5
:100620004FF000074FF000084FF0000B21F00701DA
:10063000AC46ACE8C009ACE8C009ACE8C009ACE81D
:10064000C0098D46704710B50446AFF300802046C0
:10065000BDE81040FFF706BE10B500F0B3FC184827
:1006600090ED010A174880ED000A154890ED020A46
:10067000154880ED000A90ED001ADFED140A1148CC
:1006800090ED000A00F0C2F8114890ED091AF0EE62
:10069000410A90ED081AB0EE410A00F0E1FC00EECC
:1006A000100AB8EEC00A0A4880ED060A9FED090A52
:1006B000094880ED060A322000F024FD10BD00003C
:1006C000F4170020080100201001002000000000A5
:1006D0001C180020000048C24418002000BFFEE79C
:1006E0009FED120AF0EE400A002000210FE0104AB0
:1006F000525C012A0AD10F4A02EB810292ED000AF4
:1007000030EE200AF0EE400A421CD0B2491C082903
:10071000EDDB002806DD00EE100AB8EE401A80EE90
:10072000810A7047B2EE040AFBE7000000000000F7
:10073000B0000020EC2E000810B50446242C0CD18B
:1007400001201D4908701D481D49097844541C4862
:100750000078401C1A4908702CE01748007800B94E
:1007600010BD164816490978445415480078401CB5
:1007700013490870232C10D100200F49087010492C
:10078000087064220D490F48FFF71CFE01200E4936
:10079000087064210948FFF75AFE09480078642868
:1007A00008DB0020044908700549087064210348EB
:1007B000FFF74DFE00BFD3E7B80000208C110020EA
:1007C000B9000020F0110020AF00002010B500207B
:1007D00009E000EB8001891D084A515C3039084A64
:1007E0001154411CC8B20828F3DB002005490870E9
:1007F00064210248FFF72BFE10BD0000F01100201D
:10080000B0000020AF0000207047000000B5B0EE3F
:10081000402AF0EE603AF0EE412AB0EE0C0AB0EE5B
:10082000403A23480078042841D1224890ED000A3C
:100830002148D0ED000A30EE200A60EE220AB0EE28
:10084000001A80EE810A32EE400A1C4880ED090A47
:10085000184890ED000A1848D0ED000A30EE200A42
:1008600060EE220AB0EE001A80EE810A30EE020A33
:10087000134880ED090A1148D0ED090AB0EE600A6C
:10088000B0EE431AF1EE430A02F05EF80B4880ED39
:10089000090A0B48D0ED090AB0EE600AB0EE431A1F
:1008A000F1EE430A02F050F8054880ED090A00BD58
:1008B000FC000020280100202C0100201C18002032
:1008C0004418002070B504462046FFF75CFD05463D
:1008D000204601F0A5FC4FF4FA7001F0E1FF21463B
:1008E00001A0FFF7E7FC70BD2573000010B54FF4C1
:1008F000E13002F097F80B48FFF7E4FF0A48FFF7F2
:10090000E1FF0A48FFF7DEFF0948FFF7DBFF094870
:10091000FFF7D8FF0848FFF7D5FF0848FFF7D2FFD9
:1009200010BD0000110000201A0000202800002047
:1009300042000020500000207A0000208D0000209E
:1009400010B50446114801880088401C0F4A1080E9
:100950000F48445410460088401E0D49085C0A2880
:1009600013D110460088801E085C0D280DD1002090
:10097000114608804FF4FA6205490648FFF722FD48
:100980004FF4FA610248FFF762FD10BDA00000209D
:10099000A40100207409002010B5012000F016F811
:1009A000012801D100F00CF810BD10B5042000F0B2
:1009B0000DF8012802D1042000F002F810BD00005B
:1009C0000149086070470000143C014001460020C6
:1009D000034A12680A400AB1012000E00020704773
:1009E000143C014000B589B00121084600F09AFC92
:1009F0000121032000F086FC4FF400400190032009
:100A00008DF8090002208DF8080001208DF80A00F9
:100A10008DF80B0001A92B4800F068FA082001901E
:100A200003208DF8090002208DF8080001208DF8C0
:100A30000A008DF80B0001A9234800F057FA0122A3
:100A40000F21204800F09AFA012203211E4800F0ED
:100A500095FA06A801F03EFB0020ADF818004FF60D
:100A6000FF7007900020ADF82000ADF81A0006A92D
:100A70004FF0804001F0ECFA00231A4603214FF0BA
:100A8000804001F0E1F803A801F047F90020ADF83B
:100A9000140003A94FF0804001F008F901218807F4
:100AA00001F0B1F801221146900701F03FF9002151
:100AB0004FF0804001F09DFA0121880701F0A9F86C
:100AC00009B000BD000002400004024000B589B03A
:100AD0000121022000F026FC0121022000F012FC7E
:100AE0003020019003208DF8090002208DF80800C5
:100AF00001208DF80A008DF80B0001A9204800F0B4
:100B0000F5F9022204211E4800F038FA02220521DC
:100B10001B4800F033FA06A801F0DCFA0020ADF81B
:100B200018004FF6FF7007900020ADF82000ADF8D8
:100B30001A0006A9134801F08BFA00231A46032174
:100B4000104801F081F803A801F0E7F80020ADF8A3
:100B5000140003A90B4801F0A9F80121094801F08C
:100B600052F801221146074801F0E0F8002105483B
:100B700001F03FFA0121034801F04BF809B000BD34
:100B8000000402400004004010B50848D0ED060AF9
:100B9000B0EE600A00F038F80548D0ED060AB0EE75
:100BA000600A00F031F800F09FFD10BD1C18002015
:100BB0004418002010B52DED028B002417E000EE44
:100BC000104AB8EEC00ADFED0D0A20EE200ADFED74
:100BD0000C0A80EE201AB0EE418AB0EE480A01F00D
:100BE000D7FC084800EB840080ED000A641CB4F5D3
:100BF000B47FE4DBBDEC028B10BD0000DA0F49408E
:100C000000003443541200202DE9F0472DED0C8BE9
:100C10000646F0EE408AF5EEC08AF1EE10FA01DAEF
:100C2000012000E00020307700BFB0EEE80ADFEDE1
:100C3000A60A20EE209AA548864201D1A44800E0E9
:100C4000A4480546307F30B995ED000A30EE090A18
:100C500085ED000A05E095ED000A30EE490A85EDC4
:100C6000000AD5ED000AB0EE600ADFED9B0A01F044
:100C700037FC85ED000A95ED000AB5EEC00AF1EEED
:100C800010FA07D295ED000ADFED930A30EE200A44
:100C900085ED000A95ED008A307F10B9B7EE000AA5
:100CA00001E0BFEE000AF0EE409ADFED8B0AB0EEF5
:100CB000480A01F015FCB0EE40AABDEECA0A10EEDB
:100CC000104A601C4FF4B47190FBF1F201FB120763
:100CD00000EE104AB8EEC00A3AEE400AF0EE40AA22
:100CE0007E4800EB870090ED000A7C4800EB840012
:100CF000D0ED000A70EE600A784800EB840090EDB9
:100D0000000A0AEEA00A20EE290AB0EE40BADFED92
:100D1000740A78EE200AB0EE600ADFED6F0A01F087
:100D2000DFFBBDEEC00A10EE104A601C4FF4B47138
:100D300090FBF1F201FB12079FED690A78EE000AC1
:100D400000EE104AB8EEC00A30EEC00AF0EE40AA3B
:100D5000624800EB870090ED000A604800EB8400D9
:100D6000D0ED000A70EE600A5C4800EB840090ED64
:100D7000000A0AEEA00A20EE290AF0EE40BADFEDE2
:100D8000590A78EE200AB0EE600ADFED530A01F04E
:100D9000A7FBBDEEC00A10EE104A601C4FF4B47100
:100DA00090FBF1F201FB12079FED4E0A78EE000A6C
:100DB00000EE104AB8EEC00A30EEC00AF0EE40AACB
:100DC000464800EB870090ED000A444800EB8400A1
:100DD000D0ED000A70EE600A404800EB840090ED10
:100DE000000A0AEEA00A20EE290AB0EE40CAF6EE8A
:100DF00000CAF7EE000AB0EE4B0A01F04DFBB0EE70
:100E000040DAF0EE4D0ABFEE000A01F021FBB0EE31
:100E100040BAF7EE000AB0EE6B0A01F03DFBB0EE0F
:100E200040DAF0EE4D0ABFEE000A01F011FBF0EEE1
:100E300040BAF7EE000AB0EE4C0A01F02DFBB0EE1E
:100E400040DAF0EE4D0ABFEE000A01F001FBB0EE11
:100E500040CAF6EE000AB6EE000A0BEE200ADFEDFD
:100E6000220A20EE200ABCEEC00A10EE100A1FFA79
:100E700080F8F6EE000AB6EE000A0BEEA00ADFEDEF
:100E80001A0A20EE200ABCEEC00A10EE100A1FFA61
:100E900080F9F6EE000AB6EE000A0CEE200ADFED4D
:100EA000120A20EE200ABCEEC00A10EE100A1FFA49
:100EB00080FAA6F81080A6F81290A6F814A0BDEC4F
:100EC0000C8BBDE8F0870000EC51B83E1C180020E8
:100ED000D4000020D80000200000B44354120020A9
:100EE0000000F0420000704300400346F0B50A469F
:100EF00000210023002400BF3DE0012505FA01F395
:100F0000156805EA03049C4234D105684F000326A6
:100F1000BE40B543056015794E00B54006683543BF
:100F200005601579012D02D01579022D16D185683D
:100F30004F000326BE40B543856055794E00B5404D
:100F4000866835438560456801268E40B543456017
:100F5000456896798E40B6B235434560C5684F0006
:100F60000326BE40B543C560D5794E00B540C6687E
:100F70003543C560491C1029BFD3F0BDF0B500232F
:100F800000244D07ED0E02FA05F3CE1000F1200506
:100F900055F826504E07F70E0F26BE40B543CF102A
:100FA00000F1200646F82750CE1000F1200555F834
:100FB000265045EA0304CE1000F1200545F82640EE
:100FC000F0BD000010B52DED028B022000F03EFABE
:100FD0001C490860032000F039FA1A4948600846A5
:100FE00090ED000AB8EEC00AB0EE408A90ED010A1A
:100FF000B8EEC00AF0EE408A9FED130A28EE000A10
:101000001248D0ED000A20EE200A1148D0ED000A67
:1010100080EE201A0F4880ED081A9FED0B0A28EE8B
:10102000800A0A48D0ED000A20EE200A0848D0EDD8
:10103000000A80EE201A084880ED081ABDEC028BE9
:1010400010BD0000001800200000C842240100204C
:10105000200100201C1800204418002000BFFEE7DB
:1010600030EEC01AF1EE0C1A21EE211A1E48D0ED16
:10107000001A81EE212A1D4880ED002A90ED001A09
:101080001B48D0ED001A31EE611A1A48D0ED001A53
:1010900021EE211A1848D0ED001A144890ED002ACC
:1010A00001EE821AD0ED001A114890ED002A71EE7F
:1010B000C21A124890ED002A02EE211A1048D0ED13
:1010C000001A31EE211A80ED001A084890ED001A3E
:1010D000074880ED001A0A4890ED001ABDEEC11ACB
:1010E00011EE100A7047000024010020DC000020EF
:1010F000E400002014010020180100201C01002041
:10110000E000002000B51349D1ED060AB0EE600AF8
:1011100000EE900AB8EEE01A414200EE901AF8EEA6
:10112000E00A01F011FC0B4981ED060A0A49D1EDF4
:10113000060AB0EE600A00EE900AB8EEE01A4142EC
:1011400000EE901AF8EEE00A01F0FEFB024981ED94
:10115000060A00BD1C1800204418002000BFFEE74E
:1011600030B502460B464FF6FF7008E012F8014B0F
:101170004440E1B20012054C34F8114060401C1E9E
:10118000A3F10105ABB2F1D130BD0000CA2E0008B9
:101190007047000070B5002100230F22C4781CB3F3
:1011A000174C246804F4E064C4F5E064C4F3072138
:1011B000C1F10404E3B20A4144789C40E1B284786E
:1011C000144021430C07210E0E4C0578615504781C
:1011D00004F01F050124AC4005786D11AD0005F148
:1011E000E025C5F8004109E0047804F01F0501245A
:1011F000AC40054D0678761145F8264070BD0000DC
:101200000CED00E000E400E080E100E00249014371
:10121000024A1160704700000000FA050CED00E082
:101220007047000070B507212F48FFF799FF04466B
:101230002D48C0792C49097A40EA0125AC424DD1AC
:101240002A4800882A2827D005DC50B1082811D068
:1012500012283DD117E0362827D0B0F5807F37D14E
:101260002DE000F00FF9224880ED000A08201F4908
:1012700008802EE000F006F91D4880ED010A1220DA
:101280001A49088025E000F0FDF8194880ED030AAE
:101290002A20164908801CE000F0F4F8144880ED7C
:1012A000050A36201149088013E000F0EBF81048D9
:1012B00080ED020A4FF480700C49088009E000F0CC
:1012C000E1F80B4880ED040A00200849088000E09E
:1012D00000BF00BF00200649087602E00120044953
:1012E000087600F007F870BD44110020AA00002025
:1012F0005011002010B509210148FFF7CAF810BDB0
:101300004411002029B1064A12680243044B1A60B6
:1013100004E0034A12688243014B1A6070470000E0
:101320003038024029B1064A12680243044B1A6061
:1013300004E0034A12688243014B1A6070470000C0
:101340004038024029B1064A12680243044B1A6031
:1013500004E0034A12688243014B1A6070470000A0
:1013600044380240F0B50021002200240225002666
:101370000223324F3F6807F00C0121B1042905D048
:10138000082937D105E02E4F076036E02D4F076062
:1013900033E02A4F3F1F3F68C7F38056274F3F1F58
:1013A0003F6807F03F036EB1264FB7FBF3F7DFF856
:1013B0008CC0ACF1040CDCF800C0CCF3881C07FB3B
:1013C0000CF40CE01E4FB7FBF3F7DFF870C0ACF184
:1013D000040CDCF800C0CCF3881C07FB0CF4174F9E
:1013E0003F1F3F68C7F301477F1C7D00B4FBF5F743
:1013F000076002E0124F076000BF00BF0F4F3F6859
:1014000007F0F0010909104F7A5C0768D740476080
:101410000A4F3F6807F4E051890A0B4F7A5C47682E
:10142000D7408760054F3F6807F46041490B064F7E
:101430007A5C4768D740C760F0BD000008380240BA
:101440000024F40000127A00000000200146022966
:1014500002D0032910D108E04FF08042526A10B246
:1014600000224FF080435A6208E0054A126810B229
:101470000022034B1A6001E0002000BF00BF70474C
:10148000240400400948C07800060849097940EA68
:1014900001400649497940EA012004498979084315
:1014A00000EE900AB0EE600A704700004411002080
:1014B00010B52DED088BB0EE40BAF0EE60BAB0EE8C
:1014C000418AF0EE618AB0EE429AF0EE629AB0EE96
:1014D00043AA51EC1B0B01F079FB1D49086008463B
:1014E00080ED018AC0ED058ABDEEC90A80ED020AD1
:1014F000BDEEE90A80ED030A80ED04AAC068800011
:101500008968484300EE100AB8EEC00A114880ED21
:10151000000A0F4890ED040ADFED0F0A20EE200AC2
:101520000E4880ED000A0A4890ED000A0C4880ED54
:10153000000A074890ED010A0A4880ED000A0448B5
:1015400090ED050A084880ED000ABDEC088B10BD3F
:10155000E818002020010020560E494024010020F8
:10156000280100202C0100203001002010B50420AB
:101570001749087008460078052801DD0520087025
:1015800013480078022802D004281ED10EE09FEDF7
:10159000113ADFED112AB7EE002ADFED101A9FEDA8
:1015A000101A9FED100BFFF783FF0EE09FED093A35
:1015B000DFED092AB7EE002ADFED081A9FED0B1ABE
:1015C0009FED0B0BFFF774FF00BF00BF10BD0000C5
:1015D000FC0000208FC2753D000080440000000028
:1015E000BC74133E000000806ABCC43FE7FB293E88
:1015F000000000C07268C13F704700000CB50020B9
:10160000019000903448006840F48030324908600E
:1016100000BF3148006800F4003000900198401C81
:101620000190009818B90198B0F5A04FF1D12A485F
:10163000006800F4003010B10120009001E00020AB
:1016400000900098012846D123484030006840F0BF
:1016500080502149403108602048006840F44040F3
:101660001E4908601C48083000681B4908310860A2
:101670000846006840F4004008600846006840F4EE
:10168000A05008601648091F0860081F006840F055
:101690008070091F086000BF0F48006800F00070EC
:1016A0000028F9D040F205700E4908600A48083059
:1016B000006820F003000849083108600846006807
:1016C00040F00200086000BF03480830006800F0E6
:1016D0000C000828F8D10CBD003802400070004012
:1016E00019544007003C024010B50F48018A0F48CA
:1016F00000F077FC0C48418A0C4800F074FC0A4862
:10170000818A0B4800F073FC0A48018A084800F0FF
:1017100068FC0848418A064800F065FC0548818A53
:10172000034800F062FC10BD1C18002000080040B7
:1017300000040140441800207047000010B515480F
:10174000006840F47000134908601348006840F0D6
:1017500001001149086000200F49083108600E4857
:1017600000680E4908400C4908600D48091D0860D2
:10177000081F006820F48020091F08600020064927
:101780000C310860FFF73AFF4FF0006001498039E3
:10179000086010BD88ED00E000380240FFFFF6FE53
:1017A00010300024F0B50C46154600210022068CAE
:1017B0004FF6FE773E400684018B028C4FF60C7686
:1017C00031407E1C06EA03162E4331434FF6F57670
:1017D000324044F00106324301830284F0BDF0B58B
:1017E0000C461546002100220026078C4FF6EF7CA0
:1017F00007EA0C070784018B028C4FF6FF7707EA94
:10180000041640F6FF4739404FF6FF7707EA0337E3
:1018100039434FF6FF7707EA052739434FF65F77DD
:101820003A4046F010073A4301830284F0BDF0B518
:101830000C461546002100220026078C4FF6FF6C4F
:1018400007EA0C070784818B028C4FF6FF7707EAC3
:1018500004264FF60C7739404FF6FF7707EA031757
:101860002F4339434FF2FF573A4046F480773A43CB
:1018700081830284F0BDF0B50C461546002100229C
:101880000026078C4EF6FF7C07EA0C070784818B45
:10189000028C4FF6FF7707EA043640F6FF473940DF
:1018A0004FF6FF7707EA052739434FF6FF7707EA38
:1018B0000337394345F6FF773A4046F480573A43B9
:1018C00081830284F0BD4FF08040008A4FF0804059
:1018D000008A20F001004FF080410882704700002C
:1018E000044800880348008820F00100014908806E
:1018F000704700001004004000B58BB001210420A7
:10190000FFF710FD01210220FFF7FCFCC020019031
:1019100002208DF8080003208DF8090000208DF8C2
:101920000A008DF80B0001A92A48FFF7DFFA02220E
:1019300006212848FFF722FB022207212548FFF74E
:101940001DFB254800F0FBF90020ADF82000202009
:10195000ADF8220042F2CF0009900020ADF8280037
:101960008DF82A0008A91C4800F072FB6020ADF831
:101970000C000120ADF80E000420ADF8100000208E
:101980000590ADF81800ADF81A004FF48070ADF86E
:101990001C000020ADF81E0003A90F4800F0D6F986
:1019A00003A90D4800F01AFA08210B4800F00CFAC0
:1019B0000821094800F064FA0121074800F0FEF808
:1019C0000121054800F031F90121034800F021F917
:1019D0000BB000BD000402400008004010B501211A
:1019E000054800F052F9012805D1FFF7CDF8012193
:1019F000014800F00BF910BD001400401FB5012193
:101A00002020FFF78FFC01A800F064FB184800F0CD
:101A100096F95320ADF8040040F2E7300290002020
:101A2000ADF80C00ADF8060001A9114800F010FB5C
:101A300001210F4800F0E7F8012211460C4800F0A0
:101A400075F937208DF8000001208DF803008DF81E
:101A5000010000208DF802006846FFF79BFB002183
:101A6000034800F0C6FA0121014800F0D2F81FBD7A
:101A70000014004000B58FB001210220FFF762FC86
:101A800001210420FFF73EFC4FF470700590022006
:101A90008DF8180003208DF8190000208DF81A0029
:101AA0008DF81B0005A94348FFF720FA0322062101
:101AB0004048FFF763FA032207213E48FFF75EFA2A
:101AC000032208213B48FFF759FA0322092139482C
:101AD000FFF754FA384800F032F90020ADF8300032
:101AE0002020ADF8320042F2CF000D900020ADF87A
:101AF00038008DF83A000CA92F4800F0A9FA6020B0
:101B0000ADF81C000120ADF81E000420ADF8200047
:101B100000200990ADF82800ADF82A004FF480703D
:101B2000ADF82C000020ADF82E0001A800F062F8FE
:101B30001F20ADF80A004FF40060ADF8040040101B
:101B4000ADF806008010ADF808000020ADF80C00DC
:101B500001A9194800F03EF807A9174800F0F6F867
:101B600007A9154800F03AF907A9134800F096F9BB
:101B700007A9114800F0ECF908210F4800F024F9FA
:101B800008210D4800F07CF908210B4800F0D6F937
:101B90000821094800F018FA0121074800F00EF862
:101BA0000121054800F041F80121034800F031F817
:101BB0000FB000BD000802400004014021B10288BE
:101BC00042F08002028004E002884FF67F731A40E0
:101BD000028070470A884B881A438B881A43CB8847
:101BE0001A430B891A434B891A438B891A43A0F86D
:101BF000442070470021018041808180C1800181A3
:101C0000418181817047CA4302827047CA43028280
:101C1000704721B1028842F00102028004E002888C
:101C20004FF6FE731A400280704731B1B0F844207D
:101C300042F40042A0F8442005E0B0F84420C2F38A
:101C40000E02A0F844207047F0B50C4615461E461B
:101C50000021002200230189028B038C4FF6F877C4
:101C6000394021434FF6FC473A4040F201173A43CE
:101C70004FF6DD773B404FF6FF7707EA06172F4315
:101C80003B43018102830384F0BD30B5024600204E
:101C900000230024158A05EA0103958905EA010459
:101CA00013B10CB1012000E0002030BD70B5054635
:101CB0000C46208850B92389A28861882846FFF7FE
:101CC00071FDE188284600F096F925E02088042877
:101CD0000AD12389A28861882846FFF780FDE18820
:101CE000284600F091F917E0208808280AD12389B6
:101CF000A28861882846FFF79AFDE188284600F00F
:101D000090F909E02389A28861882846FFF7B3FD8E
:101D1000E188284600F08EF970BD002101804180E5
:101D2000012181800021C180018170471AB183891E
:101D30000B43838102E083898B4383817047018950
:101D40004FF6F872114001817047000070B5002411
:101D500000220023058C4FF6FE7635400584028C68
:101D60008388048B4FF68F752C40B51E2C400D8850
:101D70002C43751E2A408D892A434D882A43104DD5
:101D8000A84202D00F4DA84213D14FF6F7752A4052
:101D9000CD892A434FF6FB752A408D882A434FF69A
:101DA000FF652B404FF6FF552B400D8A2B434D8A84
:101DB0002B43838004838D684563028470BD0000DB
:101DC00000000140000401400A460021018B4FF64B
:101DD000F7731940114301837047000070B5002468
:101DE00000220023058C4FF6EF7635400584028CE7
:101DF0008388048B48F6FF752C404FF6FF452C4036
:101E00000D884FF6FF7606EA05252C434FF6DF7561
:101E10002A408D8906EA05152A434D8806EA0515EC
:101E20002A43154DA84202D0144DA8421DD14FF6A9
:101E30007F752A40CD894FF6FF7606EA05152A43BD
:101E40004FF6BF752A408D8806EA05152A434FF6DE
:101E5000FF352B404FF2FF752B400D8A06EA8505B2
:101E60002B434D8A06EA85052B43838004838D68C6
:101E70008563028470BD0000000001400004014041
:101E80000A460021018B4FF2FF7319404FF6FF7392
:101E900003EA0223194301837047000070B5002450
:101EA00000220023058C4FF6FF6635400584028C26
:101EB0008388848B4FF68F752C404FF6FC752C4031
:101EC0000D882C434FF6FF552A408D894FF6FF763B
:101ED00006EA05252A434D8806EA05252A43154DBD
:101EE000A84202D0144DA8421DD14FF2FF752A40DE
:101EF000CD894FF6FF7606EA05252A434FF6FF35D2
:101F00002A408D8806EA05252A434EF6FF752B40A8
:101F10004DF6FF752B400D8A06EA05152B434D8AB9
:101F200006EA05152B43838084838D68C56302848C
:101F300070BD000000000140000401400A4600217D
:101F4000818B4FF6F773194011438183704700006E
:101F500070B5002200230024058C4EF6FF76354034
:101F60000584038C8488828B48F6FF752A404FF6DF
:101F7000FF452A400D884FF6FF7606EA05252A43DD
:101F80004DF6FF752B408D8906EA05352B434D88AC
:101F900006EA05352B430A4DA84202D0094DA84256
:101FA00008D14BF6FF752C400D8A4FF6FF7606EAF6
:101FB00085152C43848082838D680564038470BDFD
:101FC00000000140000401400A460021818B4FF2CD
:101FD000FF7319404FF6FF7303EA0223194381830D
:101FE00070474163704781637047C1637047016404
:101FF000704741627047028B4FF6F3731A400283B9
:10200000028B0A4302837047028B4FF2FF331A4060
:102010000283028B4FF6FF7303EA01231A43028304
:102020007047828B4FF6F3731A408283828B0A4388
:1020300082837047828B4FF2FF331A408283828BF8
:102040004FF6FF7303EA01231A43828370470000AF
:1020500000220288184B98420ED0184B98420BD0A1
:10206000B0F1804F08D0164B984205D0154B9842DE
:1020700002D0154B984204D14FF68F731A404B880B
:102080001A43124B984207D0114B984204D04FF696
:10209000FF431A400B891A4302804B68C3620B88C6
:1020A0000385054B984202D0044B984201D18B7AAC
:1020B0000386012383827047000001400004014031
:1020C0000004004000080040000C004000100040E8
:1020D000001400404FF0FF31416000210180018178
:1020E00041808172704700001CB54FF4E13000F070
:1020F000F1FC06A103C9CDE900016846FEF743F9EA
:1021000084B22146684600F096F81CBD24302C307D
:102110002C31230010B52DED028BFEF757FBFEF797
:10212000DFFAB0EE408A084880ED008AB6EE000A79
:1021300080ED010AB3EE040A28EE000A80ED020ADF
:10214000BDEC028B10BD0000F417002010B540F26A
:1021500025510C4800F0A5F890B10B480068B0F587
:102160007A7F01DA002010BD064800F053F9C4B2AE
:102170002046FEF7E1FA40F22551024800F069F8E6
:102180000020F0E700500040C400002010B540F2ED
:1021900025510D4800F085F8A0B10B4800F03AF940
:1021A000C1B20A4802780078401C084B18700848F1
:1021B000815418460078092804DB0020194608706D
:1021C000FFF730F810BD000000440040AE000020D2
:1021D0004411002010B540F22551084800F061F884
:1021E00058B1064800F016F9C4B22046FEF7A8FB25
:1021F0002146024800F013F900BF10BD004800401E
:1022000010B5044600BF8021044800F03DF80028C6
:10221000F9D02146014800F002F910BD0048004005
:1022200010B5044603E014F8010BFFF7E9FF20782E
:102230000028F8D110BD10B503460C46002200BF9F
:1022400004E0985C00F0B6FC501C82B2A242F8DBBD
:1022500010BD10B50022002340F66A14A14200D13F
:1022600000BF0A1201249440A3B2DC43048010BDD5
:1022700021B1828942F40052828104E082894DF6C4
:10228000FF731A408281704702460020B1F5007F3B
:1022900000D100BF13880B400BB1012000E00020EB
:1022A000704770B50246002400230025002040F648
:1022B0006A16B14200D100BFC1F3421501F01F03FD
:1022C000012606FA03F3012D02D19689334006E078
:1022D000022D02D1168A334001E0968A33400C1257
:1022E000012606FA04F41688344013B10CB101201B
:1022F00000E0002070BDF0B5034600240026002554
:10230000002040F66A17B94200D100BF1846C1F359
:10231000421401F01F06012707FA06F5012C01D12E
:102320000C3004E0022C01D1103000E014301AB15E
:1023300007682F43076002E00768AF430760F0BDFE
:102340002DE9FF4705460E460024A14600BFA046E2
:10235000B08900B100BF2C8A24F44054F0880443B3
:102360002C82AC8941F20C608443B08831890843E7
:10237000718908430443AC81AC8A24F44074B08969
:102380000443AC826846FEF7EDFF2048854202D048
:102390001F48854202D1DDF80C9001E0DDF808907D
:1023A000A88900F4004040B109EBC90000EB091016
:1023B00031684900B0FBF1F707E009EBC90000EB19
:1023C000091031688900B0FBF1F76420B7FBF0F029
:1023D00004012009642101FB1078A88900F4004061
:1023E00040B1322000EBC800B0FBF1F000F0070074
:1023F000044308E0322000EB08106421B0FBF1F048
:1024000000F00F0004432C81BDE8FF87001001405D
:102410000014014001468888C0F308007047C1F3EA
:1024200008028280704700BFFEE74100080218BF23
:1024300004200A0E18BF40F001004FF07F4232EA3C
:10244000010108BF40F00200012808BF05207047C5
:1024500010B52DED028BB0EE608AF0EE408A18EEDA
:10246000101A18EE900A00F03DFC00F07040B0F138
:10247000005F0CD018EE100A20F00040C0F1FF40C1
:10248000C00F02BFB0EE480ABDEC028B10BDB0EE2B
:10249000680ABDEC028B10BD10B52DED028BB0EEBD
:1024A000608AF0EE408A18EE101A18EE900A00F0DA
:1024B00019FC00F07040B0F1004F0CD018EE100A7B
:1024C00020F00040C0F1FF40C00F02BFB0EE480A4C
:1024D000BDEC028B10BDB0EE680ABDEC028B10BDE6
:1024E00010B52DED028BF0EE408A18EE900AB0EE9A
:1024F000608A20F00040C0F1FF40C00F07D118EE05
:10250000100A20F00040C0F1FF40C00F2BD018EEA1
:10251000101A18EE900A00F059FC00EE100A10EEA6
:10252000100A6FEAD05010F0FF0F04BFBDEC028B11
:1025300010BD18EE900A00F0004110EE100A00F0F5
:102540000040814204BFBDEC028B10BD18EE101A92
:1025500010EE100ABDEC028B61F31E0000EE900A33
:1025600030EE600A10BD18EE900A4FF07F41B1EBDB
:10257000400F1CBF18EE100A5FEA4000C7D10120CF
:10258000FDF7B7FFBDEC028BBDE8104000F0CCB802
:1025900000B510EE101A2DED028B81B0524A68463C
:1025A000B2EB410F2ED94FF0E640B0EB410F94BF94
:1025B00000204FF0FF3000900098B0EE408A0028D5
:1025C0006ADB10F0010F4BD068EE080A9FED471A46
:1025D0009FED470A00EE810A9FED461A10F0020FA8
:1025E00000EE801AB7EE000A00EE810A02BF01B0C9
:1025F000BDEC028B00BD00BF01B0B1EE400ABDECE6
:10260000028B00BD3C4B21F00042934241D911F0B6
:10261000004FDFED3A0A20EE201ADFED390A19BF2C
:1026200031EE601A71EE200A31EE201A71EE600A66
:10263000BDEEE01A11EE100A9FED321A00F0030011
:1026400000EEC10A9FED301A009000EEC10A9FED26
:102650002F1A00EEC10A9FED2E1A00EEC10AABE759
:1026600028EE080A9FED2B1ADFED2B0A10F0020F5F
:1026700040EE410A9FED291A00EE201A61EE000A91
:10268000B0EE480A08EE200AB6D101B0BDEC028BCC
:1026900000BD00F059F88FE718EE100A4000B0F1C5
:1026A0007F4F0DD218EE100AFFF7BFFE042808BFB7
:1026B00000F042F8B0EE480A01B0BDEC028B00BD5C
:1026C00009D10120FDF715FF01B0BDEC028B5DF8CB
:1026D00004EB00F029B801B0B0EE480ABDEC028B63
:1026E0005DF804EB00F01CB8B61F927EB93AB2BA9E
:1026F000CA9F2A3DDDFFFFBE490E494683F9223FAE
:102700000000004B0000C93F00A0FD390020A233AB
:102710001A61342C336D4C39DA82083CA0AA2ABEE7
:1027200030EE000A70470000DFED020A80EEA00ADA
:1027300070470000000000009FED020A20EE000A32
:1027400070470000000000102DE9F0014FF07F42BB
:10275000B2EB410F9FBF4FF0FF310160BDE8F001C8
:1027600070474FF0004242EA0123C1F3C752783A62
:10277000551112F01F0C434CCCF120067C44C1F3E0
:10278000C752A2F178024FEA621204EB820254F8B7
:10279000254008BFD2E9015612D0556804FA0CF45E
:1027A00025FA06F73C43976805FA0CF527FA06F870
:1027B000D26807FA0CFCF24045EA08054CEA02062A
:1027C000A4FB034CA5FB0352A6FB03631D449D42DF
:1027D00034BF012600261319334416B1934202D99F
:1027E00003E0934201D2012200E00022624402F1A0
:1027F000200C9206DC0C42EA443200EE102A5B0305
:10280000DFED210AF8EEC01A00EE103A4FEA9C1CE8
:1028100011F0004FB8EE400AC0F800C020EE201AB8
:1028200000EE105ADFED190AB8EE400A20EE200A39
:1028300071EE810A70EE800A10EE902A02F50062B5
:102840006FF30B0200EE902A70EEE11A31EEC11A1E
:10285000DFED101A30EE411A9FED0D0A20EE800ACE
:1028600001EE210A9FED0C1A00EE810A04BFBDE8BB
:10287000F0017047CCF180510160BDE8F001B1EE8C
:10288000400A70478C070000000000360000802CD2
:1028900022AAFD29DB0FC92F0000C92F00BF7047F6
:1028A00000B5034603E04FF47A7000F005F8181EF7
:1028B000A3F10103F7D100BDA82141434FF0E0226D
:1028C0005161002191610521116100BF4FF0E021AC
:1028D000096901F480310029F8D004214FF0E02289
:1028E0001161704700BF054A128802F04002002AB9
:1028F000F9D0C2B2014B1B1D1A8070470044004042
:1029000000F006F803E0FFF705FCFDF7A5FEFAE787
:1029100010B54FF44070FEF779FC4FF4165000F0FC
:1029200029F8FDF7E3FFFFF7DFFBFEF71FFEFEF7D9
:1029300059F8FEF7CBF8FEF73DF9FFF75FF8FEF721
:10294000DBFFFFF797F810BDF0EE401AF4EEE01A47
:10295000F1EE10FA02D2B0EE600A7047F4EEC11A3E
:10296000F1EE10FA02DDB0EE410AF6E7B0EE610AD0
:10297000F3E7000010B588B0044601210820FEF7F7
:10298000C1FC01214804FEF7CDFC072205212348A4
:10299000FEF7F4FA072206212048FEF7EFFA60203E
:1029A000069002208DF81C0000208DF81E000220E9
:1029B0008DF81D0001208DF81F0006A91748FEF7AD
:1029C00095FA26208DF8040001208DF805000020DE
:1029D0008DF8060001208DF8070001A8FEF7DAFB4C
:1029E00002940020ADF80C00ADF80E00ADF8100018
:1029F000ADF814000C20ADF8120002A90848FFF74A
:102A00009FFC012240F225510548FFF774FC01218B
:102A10000348FFF72DFC08B010BD0000000C024079
:102A20000044004010B588B0044601210820FEF79C
:102A300069FC01218804FEF775FC07220821234860
:102A4000FEF79CFA072209212048FEF797FA4FF477
:102A50004070069002208DF81C0000208DF81E00AA
:102A600002208DF81D0001208DF81F0006A91748CF
:102A7000FEF73CFA27208DF8040002208DF80500AF
:102A800000208DF8060001208DF8070001A8FEF750
:102A900081FB02940020ADF80C00ADF80E00ADF8FB
:102AA0001000ADF814000C20ADF8120002A908487F
:102AB000FFF746FC012240F225510548FFF71BFCB9
:102AC00001210348FFF7D4FB08B010BD000C024001
:102AD0000048004010B588B0044601210420FEF7EC
:102AE00011FC01210820FEF70DFC01210805FEF76D
:102AF00019FC08220C212C48FEF740FA082202217A
:102B00002A48FEF73BFA4FF48050069002208DF8D9
:102B10001C0000208DF81E0002208DF81D000120F1
:102B20008DF81F0006A92048FEF7E0F90420069062
:102B300002208DF81C0000208DF81E0002208DF868
:102B40001D0001208DF81F0006A91848FEF7CEF9D8
:102B500035208DF8040003208DF8050000208DF845
:102B6000060001208DF8070001A8FEF713FB029470
:102B70000020ADF80C00ADF80E00ADF81000ADF877
:102B800014000C20ADF8120002A90948FFF7D8FB89
:102B9000012240F225510648FFF7ADFB0121044810
:102BA000FFF766FB08B010BD00080240000C0240B1
:102BB000005000400449888000BF0349098801F0A3
:102BC00040010029F9D070470050004021F0004238
:102BD000A2F16052B2F5801F01F0004328BFD2F18C
:102BE0007F6C0BD95FEA001C43EAC20242EB5070D3
:102BF00018BF704728BF20F001007047B2F5801F52
:102C0000BCBF184670474FEA410C1CF5001F02D2AA
:102C1000084600F055B970B500F009F800000089C9
:102C2000FFF7F6BF4FF00040A0F5800070470EF1AF
:102C3000020E2EF0030E5EF8046B364205D4012A14
:102C400043EB030515F5001F12D8012841EB010CD9
:102C50001CF5001F0CD80ED14FEAD17C15F5001FD2
:102C60000CEB4C0C0CF1020C08BF4CEBD37C04E0D9
:102C70004FF0080C01E04FEAD37C0CEB4C0526FA30
:102C800005F606F00706B6F1040C06D20EEB860C2C
:102C9000BDE870404CF0010C6047DFE80CF0090B18
:102CA00002024FF000414FF00000A1F5002170BD7D
:102CB00019461046012851EB010418BFD4F5001441
:102CC00084BF002001F0004170BD000000EE100A3A
:102CD00000EE901AB4EE600AF1EE10FA78BF704779
:102CE00000F00DB810B5FFF7F1FFEFF3008020F012
:102CF000104038BF40F0004080F3008810BDBDE8B0
:102D0000104010B500F017F80000000900F007B8F7
:102D10004FF0404010F1004FEFF30080704740103B
:102D200058BFC0F14040491058BFC1F140418142F5
:102D3000EFF3008070470EF1020E2EF0030E5EF8E6
:102D4000044B244204D44FEA4102B2F17F4F11D820
:102D50004FEA4003B3F17F4F0CD80ED14FEAD07C3D
:102D6000B2F17F4F0CEB4C0C0CF1020C08BF4CEB9A
:102D7000D17C04E04FF0080C01E04FEAD17C0CEB71
:102D80004C0324FA03F404F00704B4F1040C06D253
:102D90000EEB840CBDE810404CF0010C6047DFE8FE
:102DA0000CF0070802024FF00040A0F5800010BDB3
:102DB0000846420018BFD2F1807288BF00F0004080
:102DC00010BD4FF04070E1EE100A70474FF07F4C9D
:102DD0003CEA410318BF3CEA400200F062804FF435
:102DE0007F0C10F0004F0CEAD11318BF43F005031D
:102DF0001CEAD01218BF13EA0C0F00F057804FF0F6
:102E0000004C4CEA00204CEA0121A3F580339A42A1
:102E100010DDB0F1004F23F0020306D3401A43F057
:102E20000203BCBF404283F001034FEA4000A2F519
:102E30008032ECE74FEA224CBCEB234F08DB8842A0
:102E400006D31CD0A0EB4100C0F1000083F00103C9
:102E500040001DD217D40DD0B0FA80FC0CF1010C4B
:102E600000FA0CF0A2EB0C42D2F1000C12DB4FEA9C
:102E7000C37070474FEA437000F00040704713F092
:102E8000020FE5D0DEE7B2F580324FEA4000EBDD1D
:102E9000002AE9DD4FEAC21242EA502040EAC3703C
:102EA000704710B5FFF747FFEDFFFF3E1CEAD11F4B
:102EB00002D000F000407047004870470000C07F1B
:102EC000FF2141EAD050C00570470000C1C081C158
:102ED000400101C3C003800241C201C6C006800791
:102EE00041C70005C1C581C440040000000060C0A6
:102EF000000020C00000C0BF000000BF0000003F75
:102F00000000C03F000020400000604000000000C2
:102F10006E83F9A22915444ED15727FCC0DD34F544
:102F2000999562DB4190433CAB6351FE4C2F000806
:102F300000000020A4010000C4010008E82F0008E0
:102F4000A4010020BC1D000020020008412D010248
:102F50000304041506070809280941542B52535449
:102F60000D0A09680943574D4F44453D310E58132A
:102F70004A41503D2232222C223132333435363709
:102F800038221A780849504D55583D300E280B53B9
:102F9000544152543D225443502D181139322E3190
:102FA00036382E3231342E3230222C383D89386971
:102FB000616C2B2B2B3D1C454E44113D54797065A3
:102FC0009E320442020346FFFF021101E3FA438BE3
:102FD00040400401521AF4811A2C0429086910098E
:082FE0001204211205239F4198
:040000050800018965
:00000001FF
