:020000040800F2
:100000006023002015030008492D0008E529000899
:10001000152D0008B91E0008C344000800000000A8
:100020000000000000000000000000004D36000845
:10003000E51F000800000000E7310008CD37000888
:100040002F0300082F0300082F0300082F030008C8
:100050002F0300082F030008312200082F03000897
:100060007D2200082F0300082F0300082F0300083B
:100070002F0300082F0300082F0300082F03000898
:100080002F0300082F0300082F0300082F03000888
:100090002F0300082F0300082F0300082F03000878
:1000A0002F0300082F0300082F0300082F03000868
:1000B0005B390008753900082F0300082F0300087A
:1000C0002F0300082F0300082F0300082F03000848
:1000D0002F0300082F030008254200086D42000886
:1000E000452200082F0300082F0300082F030008F3
:1000F0002F0300082F0300082F0300082F03000818
:100100002F0300082F0300082F0300082F03000807
:100110002F030008E54100082F030008713A00088A
:100120002F0300082F0300082F0300082F030008E7
:100130002F0300082F0300082F0300082F030008D7
:100140002F0300082F0300082F0300082F030008C7
:100150002F0300082F0300082F0300082F030008B7
:100160002F0300082F0300082F0300082F030008A7
:100170002F0300082F0300082F0300082F03000897
:100180002F0300082F03000800F002F800F0B2F877
:100190000AA090E8000C82448344AAF10107DA45E2
:1001A00001D100F0A7F8AFF2090EBAE80F0013F082
:1001B000010F18BFFB1A43F0010318471456000043
:1001C000345600000A444FF0000C10F8013B13F0C5
:1001D000070408BF10F8014B1D1108BF10F8015BA0
:1001E000641E05D010F8016B641E01F8016BF9D193
:1001F00013F0080F1EBF10F8014BAD1C0C1B09D1EA
:100200006D1E58BF01F801CBFAD505E014F8016B5B
:1002100001F8016B6D1EF9D59142D6D370470000ED
:100220000023002400250026103A28BF78C1FBD8FF
:10023000520728BF30C148BF0B6070476E2900F0DD
:100240000983702900F08386662904F014876529E4
:1002500004F01187672904F00E87612904F00D87E7
:1002600003681B0A28BF41F08001692900F0B682AB
:10027000642900F0B382752900F0B0826F2900F084
:100280001086782900F04F86E92900F0AB85E42933
:1002900000F0A885F52900F0A585EF2900F00D866E
:1002A000F82900F04E860368DB0928BF41F0800181
:1002B000632900F01A85732900F01F85E32901F0F6
:1002C000F180F32901F0F680002070471FB504F09B
:1002D0004EFE00F079FE04000020002104F004FD31
:1002E000401C60600020002104F0E8FCE0601FBDBD
:1002F00010B510BD01F07CF91146FFF7E7FF04F0DF
:100300006DFB01F0A3F903B4FFF7F2FF03BC04F0A7
:1003100032FB00000948804709480047FEE7FEE736
:10032000FEE7FEE7FEE7FEE7FEE7FEE7FEE7FEE7A5
:1003300004480549054A064B70470000D1370008BC
:1003400089010008601D002060230020601F00203C
:10035000601F0020704700001CB50C46064B7B4414
:1003600069460090204600F09EFC04460020694645
:1003700000F0ACFC20461CBD6B0900000FB4044922
:1003800010B503AA029800F0BDFC10BC5DF814FB88
:10039000BC00002070B50C460546012A05D028781F
:1003A000800600D5EA69002302E0012305E05B1C1A
:1003B000934202D2E05C0028F9D1A869E618C01A7D
:1003C000A861286A18442862284600F0CEF904E0A3
:1003D000D5E9012114F8010B9047B442F8D328461F
:1003E00000F0D9F970BD00002DE9F05F89460446A0
:1003F0004FF0000ADFF874B1FB44C0F820A020469B
:10040000E1688847002874D0252806D0D4E9012166
:100410009047206A401C2062F1E700265F46204694
:10042000E16888472028054607DB312D05D2781979
:1004300010F8200C08B10643F1E7B00701D526F00B
:100440000406C4F81CA00027C4F818A02A2D09D05F
:10045000284604F089FA38B304EB8708303DC8F821
:10046000185019E059F8041B204604EB87029161EB
:10047000E1688847012F054618D1E069002820DA95
:1004800026F020061DE0D8F8180000EB800005EBF0
:1004900040003038C8F818002046E1688847054613
:1004A00004F062FA0028EED1012F0AD02E2D08D1D7
:1004B0002046E16888477F1C0546022F46F020064B
:1004C000C4DBA069002803DA404246F00106A061BF
:1004D000F00701D026F010066C2D0BD0682D09D046
:1004E0004C2D39D06A2D35D0742D35D07A2D33D09E
:1004F00016E038E0E1682F4620468847B8420546B6
:1005000009D16C2F26D04FF48060E1680643204665
:100510008847054604E06C2F1AD04FF480700643DC
:100520000DB3A5F14100192802D8203546F4006624
:100530004A462946204626604E46FFF77FFE80B198
:1005400001280BD0F61D26F0070000F1080956E738
:100550004020E4E78020D8E70020D6E706F1040930
:100560004DE7284652E7206ABDE8F09FB4520000EC
:1005700010B5431C02E010F8011B71B18107FAD1DC
:100580004FF0013202C88C1A8C4314EAC211F9D020
:10059000C01A0A0603D0C01E10BDC01A10BD0A043E
:1005A00001D0801E10BD0902FCD0401E10BD032AE0
:1005B00040F2308010F0030C00F0158011F8013B80
:1005C000BCF1020F624498BF11F801CB00F8013B67
:1005D00038BF11F8013BA2F1040298BF00F801CB2B
:1005E00038BF00F8013B11F0030300F0BB84083A68
:1005F000C0F0088051F8043B083A51F804CBA0E859
:100600000810F5E7121D5CBF51F8043B40F8043BAD
:10061000AFF30080D20724BF11F8013B11F801CBE2
:1006200048BF11F8012B24BF00F8013B00F801CBB3
:1006300048BF00F8012B70474FF000020429C0F0BA
:10064000128010F0030C00F01B80CCF1040CBCF104
:10065000020F18BF00F8012BA8BF20F8022BA1EB56
:100660000C0100F00DB85FEAC17C24BF00F8012B3B
:1006700000F8012B48BF00F8012B70474FF0000233
:1006800000B5134694469646203922BFA0E80C5088
:10069000A0E80C50B1F12001BFF4F7AF090728BF63
:1006A000A0E80C5048BF0CC05DF804EB890028BFDF
:1006B00040F8042B08BF704748BF20F8022B11F008
:1006C000804F18BF00F8012B704700004FF0013C2D
:1006D00050F8042B51F8043B9A4221D1A2EB0C03B1
:1006E000934313EACC1317D150F8042B51F8043B71
:1006F0009A4215D1A2EB0C03934313EACC130BD10E
:1007000050F8042B51F8043B9A4209D1A2EB0C0398
:10071000934313EACC13DBD04FF00000704700BFC7
:10072000D01A01BAB1FA81F101F0180122FA01F0F0
:10073000CB40C1F12001DBB2C0B2C01A2CFA01F3E8
:10074000D11A914311EAC311E6D17047704770473F
:100750007047704710B500F03BFC006810BD10B545
:10076000044600F035FC046010BD70B50446856990
:100770000068C10601D5302600E02026C00707D05A
:1007800070BDD4E9012130469047206A401C2062A8
:100790006D1EF6D570BD70B5044685690078C0073A
:1007A00007D170BDD4E9012120209047206A401C68
:1007B00020626D1EF6D570BD09684A0501D540B2AC
:1007C0007047C905FCD500B2704709684A0501D5D4
:1007D000C0B27047C905FCD580B270472DE9F04121
:1007E0000646002410687529314616A510D0FFF77B
:1007F000E3FF002802DA404213A507E031688A07C8
:1008000001D512A502E0490704D511A5012401E094
:10081000FFF7DBFF00210A2206F1240709E0B0FB05
:10082000F2FCB0FBF2F302FB1C00303078541846A7
:10083000491C0028F3D123462A463046BDE8F04142
:1008400000F00FBC000000002D0000002B00000095
:100850002000000011680268006A530501D5087085
:100860000AE0D30501D5088006E0130603D5C217B8
:10087000C1E9000200E008600120704770472DE9DF
:10088000FF4F0C461E464FF0FF378BB0D2E90001F8
:10089000DDF860800A908A46C1F30A5505B93D46E5
:1008A000002108464FF00000BAF1000F00F44000AC
:1008B00005DA00EB80004FF4400101EA50004FEAF6
:1008C0009059B9F1010F00DDB9460A9850EA4A0083
:1008D0000ED044F61050A5F2FF3545432F14B8F161
:1008E000000F1ED07542291E1EDDC9F100021CE05A
:1008F000B8F1010F4FF0000001D0302103E0F243C6
:1009000005E02154401CB042FBDB304600220021B0
:1009100021540B99C1F80880C1E900200FB0BDE84F
:10092000F08FBD1B6D1CDEE74A4600DA694206A85F
:1009300000F0C4FD06AB93E8070003AB83E80700B3
:1009400050460A9900F08BFE8DE80700A0F5005094
:100950001F3800900398002D0ADD42F21F014A461D
:100960000844002303A90390684601F0F4F809E065
:10097000A0F500504A461F38002303A9039068469B
:1009800001F0FEF88DE807000004000C03D04FF0E2
:10099000FF30410800E01046B8F1000F03D00022FC
:1009A000009215461EE0751E05D400F015FB30328E
:1009B00062556D1EF9D5B3460122084302D00022CC
:1009C0007F1C04E02078302801D100227F1E002AFD
:1009D000099784D01DE0112D07DA00F0FDFA3032BE
:1009E00062556D1C50EA0102F5D1084302D000980F
:1009F000C8B10EE00021681E05E0235C625C635410
:100A00002254401E491C8142F7DBAB46A81B401E06
:100A10000990002004F80B000B98099AC0F8088090
:100A2000C0E9002B7AE711264FF0000857E72DE9BF
:100A3000F04F88460446D21D22F0070191B0D1E95B
:100A40000001CDE90A0103F03EFD02460B98C00FFC
:100A500001D02D2007E02068810701D52B2002E07E
:100A6000202101EAC000032A099001D0072A05DBF2
:100A700003464146204600F0CBFC0BE1207880067F
:100A800001D5E06900E00620B8F1650F814606D087
:100A9000B8F1660F18D0B8F1670F70D131E00020BF
:100AA000B9F1110F009001DB112301E009F10103FD
:100AB0000AAA01A90CA8FFF7E2FEDDE90C700026E6
:100AC00009F10105834647E001204B4600904FF0B5
:100AD00000470AAA01A90CA8FFF7D1FEDDE90DB075
:100AE0000C995D46002610B909F101000D18B9EB0B
:100AF000050003D4C0F1FF3609F10105A5EB09009B
:100B00002BE0B9F1010F01DA4FF001090020B9F132
:100B1000110F0090484601DD112300E003460AAAA8
:100B200001A90CA8FFF7ABFEDDE90C704D460026CD
:100B30008346207800070AD4AB4500DA5D4601A859
:100B4000012D04DD411911F8011C302907D04F4552
:100B500002DA17F1040F04DA012082460FE06D1E5D
:100B6000EEE7002F02DCED1B3E4403E0781CA842B8
:100B700000DD7D1CB81B00F1010A4FF00047207812
:100B8000000703D4AA4501DB4FF0FF3A0021B7F17B
:100B9000004F0DF143088DF8431024D002202B2381
:100BA000002F01DA7F422D230A21021EA0F101004D
:100BB00000DC5FB197FBF1FC97FBF1F201FB1C7CC1
:100BC00017460CF1300C08F801CDEEE7A8F1010052
:100BD00003702188090501D5452100E06521A0F1B8
:100BE000010800F8011C09980FA9A1EB0807FF1DD7
:100BF00000B10120411901EBEA70A1693844081ADB
:100C0000401EA0612078C00602D42046FFF7ADFD4B
:100C1000099828B1D4E901219047206A401C20623C
:100C20002078C00622D52046FFF79FFD1EE0002E4B
:100C300004DBB34502DD01A8805D00E03020D4E98B
:100C400001219047206A401C2062761CAAF1010015
:100C50005FEA000A0AD100F0B7F9C0680168405C99
:100C6000D4E901219047206A401C2062281EA5F18A
:100C70000105DCDC07E0D4E9012118F8010B9047FD
:100C8000206A401C2062381EA7F10107F3DC2046D1
:100C9000FFF781FD032011B041E6000001694A1C05
:100CA00002610878704700B58FB0CDE901310021AD
:100CB000059105497944CDE9031011466846FFF7CF
:100CC00093FB0FB000BD0000E5FFFFFF0A6802F8CC
:100CD000010B0A60704710B5436913B1AFF3008090
:100CE00001E0FFF757FB012010BD127800F124014D
:100CF0000A7000224A700122EDE711684FF0FF32BE
:100D0000E9E70000074B70B50D467B44FFF7CBFFCA
:100D10000446284600F044FC10B14FF0FF3070BD8F
:100D2000204670BDB33C00002DE9FF5F15468A46A2
:100D30000446DFF8AC80F8440027D8E900103E46AE
:100D4000CDE9001010E03AF816106A4602A800F04B
:100D50002BFC411C07D02178890603D5E26939189C
:100D600091420DD80744761C2078800602D5E069B0
:100D7000B84205DDAE42E6DB3AF816000028E2D1C3
:100D8000A069C01BA0612046FFF7EFFCD8E9001066
:100D9000CDE90010002017E03AF818106A4602A8C2
:100DA00000F002FCB0F1FF3F81460BD000250DF1B1
:100DB000080B05E0D4E901211BF8050090476D1CE4
:100DC0004D45F7D308F10100B0428046E4DB206ACC
:100DD000384420622046FFF7DEFCBDE8FF9F00009C
:100DE0008A4900002DE9F0418046D21D22F0070219
:100DF0000025D2E90002F52915A614D0011E72F1D2
:100E0000000106DA0023D0EB030063EB020211A617
:100E100008E0D8F800108B0701D50FA602E04907BB
:100E200001D50EA601251146002408F1240704E08F
:100E300000F0D2F830323A55641C50EA0102F7D182
:100E40002B46324621464046BDE8F04100F009B944
:100E5000000000002D0000002B000000200000001A
:100E600030B4002100F1240408E002F00705D208A4
:100E7000303542EA4372DB086554491C52EA0305E7
:100E8000F3D10468002310A2250707D5A40600D4D7
:100E900021B1C46901230DA2641EC46130BC00F0FD
:100EA000E0B810B5044621461068FFF78EFC0246F4
:100EB0002046BDE810400023D2E7D21D22F00701F2
:100EC000D1E90023CCE70000000000003000000062
:100ED000F0B40D460188090502D5214C7C4402E09E
:100EE0001F4C7C440E34002100F1240608E002F07F
:100EF0000F071209E75D42EA03721B097754491C88
:100F000052EA0307F3D102780023120704D5702DAB
:100F100006D009B1022311342246F0BC00F0A1B87A
:100F200001231034F8E770B504460D4621461068D9
:100F3000FFF74BFC024629462046BDE870400023DF
:100F4000C6E7D21D22F00703D3E90023C0E70368F8
:100F5000126843F0200303600823C3610023B7E74E
:100F6000EC47000010B5203AC0F00B80B1E81850F3
:100F7000203AA0E81850B1E81850A0E81850BFF483
:100F8000F5AF5FEA027C24BFB1E81850A0E8185022
:100F900044BF18C918C0BDE810405FEA827C24BF76
:100FA00051F8043B40F8043B08BF7047D20728BF04
:100FB00031F8023B48BF11F8012B28BF20F8023B53
:100FC00048BF00F8012B704700487047201D0020E3
:100FD00000487047001D002030B5B0F10A024FEA0A
:100FE000900E71F100034EEA817EB0EB0E0061EBD2
:100FF00091014FEA101E4EEA017E10EB0E0041EB0C
:1010000011114FEA102E4EEA016E10EB0E0041EB6B
:1010100011214FEA104E4EEA014E10EB0E0041EB4B
:101020001141401841F100014FEAD00040EA4170FF
:101030004FEAD10110EB80054FEA810444EA907435
:1010400044EB01046D1944EB0404521BA3414FF01F
:10105000000348BF0A3200D530BD401C41F10001F9
:1010600030BD2DE9F0470D4699469246044600F101
:1010700024080168880604D5E06921F01001216088
:1010800000E00120A84201DD471B00E00027A16924
:101090007A1902EB0900081AA0612078C00602D470
:1010A0002046FFF762FB002608E0D4E901211AF888
:1010B00006009047206A401C761C20624E45F4DBF7
:1010C0002078C0060AD52046FFF74FFB06E0D4E99A
:1010D000012130209047206A401C2062381EA7F171
:1010E0000107F4DC07E0D4E9012118F80500904776
:1010F000206A401C2062281EA5F10105F3DC204671
:10110000FFF749FB2078000602D50220BDE8F087F2
:101110000120FBE72DE9F04F04460D46D21D22F0D9
:10112000070089B0D0E900974846394603F0CBF96B
:101130000246F80F01D02D2307E02068810701D572
:101140002B2302E0202101EAC0038DF820300BB1EF
:10115000012000E00020032A824601D0072A04DB98
:101160002946204600F054F93FE12078800601D45A
:101170000D2500E0E569C7F30A560D2D49DA002177
:101180004FEA175B08464FF00000002F00F44000C4
:1011900007DA00EB80004FF4400100EBD07001EA69
:1011A00060008115012901DD4FF0FF3100224FEA77
:1011B000850CBCF1180F06D31346ACF118004FF0A4
:1011C0008052C24003E04FF4801323FA0CF30CF179
:1011D0000C0CBCF1200F04D3ACF1200C09FA0CF07C
:1011E00001E007FA0CF000294FF0004801DD18B9C2
:1011F0000FE00ED140450CD319EB02095F4121B934
:10120000404502D19F4329EA0209BBEB175F00D09A
:10121000761C2088000502D57B48784402E07A4895
:101220007844193808AA302302F80A30037C0AF1FE
:101230000101002E0AF1020A53546A4602DC4FF003
:10124000300101E04FF031014FF001088DF800103E
:1012500002D0A6F2FF3603E059EA470100D06B4EF8
:10126000002D02DC2178090704D54FF002082E2159
:101270008DF80110C44600210BE0C7F303433F0182
:10128000C35C491C6D1E02F80830052908F10108ED
:1012900001DA002DF1DC00210CE000EB1973491C90
:1012A0001B786D1E082902F808304FEA091908F169
:1012B000010801DA002DF0DC21688B0602D516E06A
:1012C000A8F10108E04505DD02EB080313F8013C35
:1012D000302BF5D0B8F1000F09DD02EB080313F84D
:1012E000013C2E2B03D1090701D4A8F10108002DE0
:1012F00005DD3E2102F808106D1E08F10108407C52
:10130000002E02F8080008F1010804DA2D207642C8
:1013100002F8080002E02B2002F808000A214FF42E
:101320007A70864208F101080BDB96FBF0F330334C
:1013300002F8083096FBF0F308F1010800FB136691
:1013400001E0642E0CDB642096FBF0F3303302F8EE
:10135000083096FBF0F308F1010800FB136601E08A
:101360000A2E06DB96FBF1F0303002F8080008F197
:10137000010896FBF1F001FB1060303002F8080024
:10138000A16908F1010808EB050202EB0A00081A3E
:10139000A0612078C00602D42046FFF7E6F9216A52
:1013A00008AE01EB0A00206204E0D4E9012116F83E
:1013B000010B9047BAF1010AF7D22078C00602D596
:1013C0002046FFF7D2F96E4609E016F8010B3E28D9
:1013D0000FD0D4E901219047206A401C2062B8F167
:1013E0000108F2D22046FFF7D6F909B00320BDE884
:1013F000F08F206A2844206203E0D4E901213020E4
:1014000090476D1EEBD3F8E70945000002FCFFFF93
:101410002DE9F0411F46044603260168072A01F41E
:10142000006004DB08B116A505E016A503E008B1CD
:1014300015A500E015A521F010002060A069C01ED0
:10144000A0610FB1401EA0612046FFF78EF94FB199
:10145000D4E9012138469047206A401C2062C01C14
:10146000206206E0206AFAE7D4E9012115F8010BB1
:101470009047761EF8D22046FFF78DF9BDE8F0813F
:101480004E414E006E616E00494E4600696E660028
:1014900010B5436913B1AFF3008001E0FFF744FCDE
:1014A000012010BD128800F1240182840022C28430
:1014B0000122EDE711684FF0FF32E9E72DE9F0472F
:1014C000814616468AB0354878440DC88DE80D002F
:1014D00032487844801C03AC0DC884E80D0041F606
:1014E0009B300844372190FBF1F290FBF1F5A5F118
:1014F000800501FB12041B3C02D56442012000E080
:101500000020DFF898A080460027FA44AAF1BE0A1E
:101510000EE0E0070AD03246684607EB4701012398
:101520000AEB810100F02CFB8DE8070064107F1CA2
:10153000002CEED1194F7F44AE3F19E0E80715D0DB
:1015400007EB04100DF1180A90E80E008AE80E006F
:10155000C068F04201D1981908903246012306A9CB
:1015600003A800F00DFB03AB83E807006D10641CBB
:10157000002DE3D14FF0010332466946B8F1000F68
:1015800003A802D000F0E7FA01E000F0F9FAC9E997
:101590000001C9F808200AB0BDE8F087EC4200005D
:1015A000007B00F08000704770B516460C4605467B
:1015B00000F044F8036893F80101012806D0FF2CDD
:1015C0000FD8185D68B101202C7070BDD3F80701E9
:1015D0003246214603F2071303442846BDE8704013
:1015E00018474FF0FF3070BD00487047001D0020C5
:1015F0007546FFF7F9FFAE4605006946534620F0F1
:101600000700854618B020B5FEF792FEBDE82040E1
:101610004FF000064FF000074FF000084FF0000BAE
:1016200021F00701AC46ACE8C009ACE8C009ACE861
:10163000C009ACE8C0098D467047000010B5FFF73F
:10164000C3FC001D10BD00BFA136000010B504464C
:10165000AFF300802046BDE81040FEF754BE5FEABD
:10166000400C08BF91F0000F4FEA8C234FEAC122D3
:1016700043EA51514FEA1C5018BF00F5F0404FEAC1
:10168000300018BF41F000415FEA6C5C00F0298037
:10169000BCF1FF3F08BF40F080407047130C06BF0D
:1016A00012044FF0100C4FF0000C130E04BF120286
:1016B0000CF1080C130F04BF12010CF1040C930F72
:1016C00004BF92000CF1020CD30F04BF52000CF1C6
:1016D000010C11464FF00002A0F11F00A0EB0C001E
:1016E000704711F0004F08BF704731F000413FF4E0
:1016F000D5AF0B0C06BF09044FF0100C4FF0000CD7
:101700000B0E04BF09020CF1080C0B0F04BF0901FA
:101710000CF1040C8B0F04BF89000CF1020CCB0FF1
:1017200004BF49000CF1010CCCF12003A0EB0C002C
:1017300022FA03F302FA0CF241EA030100F101007C
:10174000704720F07F4C80EA030023F07F47ACEB2A
:10175000070303F57C5300F0004003F1FF032DE97C
:1017600080494FEA154B09B44FEA144325EA0B4E62
:1017700024EA03480FF2042606EB132749083E78B3
:101780005FEA320203FB0667C7F5000707FB06F6B0
:101790004FEA54374FEAD64606F1020607FB066CBD
:1017A000CCF1005C4FEA1C472CEA074C07FB06F41F
:1017B0000CFB06F504EB15464FEA961634BF0020E5
:1017C0004FF000404FEAD13706FB07FC4FEA1C4CB4
:1017D0000CFB0BF7D21B03FB0CF761EB07010CFBB7
:1017E0000EF7B0EB074072EB17420CFB08F734BF63
:1017F000A2EB0742B2EB074261EB17414FEA0C4400
:101800004FEA910706FB07FC4FEA1C4C0CFB0BF759
:10181000B0EBC74072EB573203FB0CF734BFA2EBBF
:10182000C742B2EBC74261EB57310CFB0EF7B0EB8E
:10183000C70072EB57720CFB08F734BFA2EBC7026C
:10184000B2EBC70261EB5771039F4FEA816141EA36
:10185000921104EBCC044FEAD1374FEA826206FBC7
:1018600007FC42EA90124FEA80604FEA1C4C0CFBE6
:101870000BF7D21B03FB0CF761EB07010CFB0EF718
:10188000B0EB074072EB17420CFB08F734BFA2EB3A
:101890000742B2EB074261EB17414FEA8C554FEA22
:1018A000910704EB9C2406FB07FC4FEA1C4C0CFB45
:1018B0000BF7B0EBC74072EB573203FB0CF734BFAA
:1018C000A2EBC742B2EBC74261EB57310CFB0EF7FC
:1018D000B0EBC70072EB57720CFB08F734BFA2EBFA
:1018E000C702B2EBC70261EB577115EB4C254FEA0B
:1018F000816141EA92114FEA82624FEAD13742EAAE
:10190000901206FB07FC44F100044FEA80604FEAA6
:101910001C4C0CFB0BF7D21B03FB0CF761EB070114
:101920000CFB0EF7B0EB074072EB17420CFB08F70D
:1019300034BFA2EB0742B2EB074261EB174115EB54
:101940001C154FEA813141EA92414FEA823242EA64
:1019500090424FEA80304FEA0C7644F1000448EAA6
:1019600003434EEA0B484FF0000EB2EB080C71EB4C
:10197000030724BF624639464EEB0E0E4FF0000BB4
:101980000018524149414BEB0B0BB2EB080C71EBC9
:1019900003077BF1000B24BF624639464EEB0E0E67
:1019A0004FF0000B0018524149414BEB0B0BB2EBCF
:1019B000080C71EB03077BF1000B24BF624639462C
:1019C0004EEB0E0E51EA020718BF46F0010616EB69
:1019D0000E7655F1000254F1000103D5BDE88901EE
:1019E000BDE80088BDE88901BDE80048B61952414C
:1019F00041EB0101A3F10103704780807F7E7D7C74
:101A00007B7A7978777676757473727171706F6E90
:101A10006E6D6C6C6B6A6A6968686766666564643B
:101A2000636362616160605F5F5E5E5D5D5C5C5BC5
:101A30005B5A5A5959585857575656555555545434
:101A4000535352525251515050504F4F4F4E4E4D92
:101A50004D4D4C4C4C4B4B4B4A4A4A4949494848DE
:101A6000484747474746464645454544444444431E
:101A700043434342424242414141002B9C4630D4C1
:101A800077002BD01CB54FEA370703B44FF0100096
:101A90004FF01001BAF1000F06D0BCF1000FDCBF0F
:101AA00040F0080040F008014FF000000FBCBDE816
:101AB00010400BF1010BBBF1010F08BF5FEA1707E4
:101AC00022BF12F1010211F101014FF0004143F177
:101AD000000300F0004043EA00007047F9D35708C4
:101AE000D0E746EA064613F1400F4FEA16461FDDDF
:101AF00013F1200FDFBF16430A46002120335B425B
:101B0000BED0C3F1200746EA064602FA07F74FEABD
:101B1000164646EA0706C3F1200722FA03F201FA45
:101B200007F721FA03F14FF0000342EA0702A7E7A3
:101B300046EA020646EA06464FEA164646EA010625
:101B4000BCBF46EA0646360C4FF000034FF00002D9
:101B50004FF0000194E72DE9804C9A46934670B40B
:101B600091E8380007C831EA400C48BF34EA430C1A
:101B700003D5FFF7E6FDFFF780FFF0BCBDE8008C62
:101B80002DE9804C9A46934670B491E8380007C816
:101B900010F0804F08BF13F0804F03D100F005F81C
:101BA000FFF76BFFF0BCBDE8008C20F07F4780EAB8
:101BB000030023F07F4C07EB0C03A3F57C5300F0EC
:101BC0000040A3F1FE0392F0000F00F0B38095F007
:101BD000000F00F077802DE901494FEA11404FEAEC
:101BE000144621EA004800FB06FC24EA064708FBED
:101BF00006F607FB08F800FB07F718EB06484CEB66
:101C0000164C4FEA124B18EB07484FEA15464CEBBF
:101C1000174022EA0B4E0BFB06FC25EA06470EFB9B
:101C200006F607FB0EFE0BFB07F71EEB064E4CEB12
:101C3000164C4FF000061EEB074E4CEB174B18EB03
:101C40000B0840F1000018EB0E0B58EB000840F1B8
:101C500000008F1A4FF000013CBFC943661B14BF40
:101C6000B5EB040C00213CBFC943F61B4FEA1744F7
:101C70004EEA8E0E27EA04454FEA1C4704FB076232
:101C80002CEA074C05FB07F70CFB05F604FB0CFCE4
:101C900016EB074642EB174216EB0C4642EB1C4292
:101CA0001BEB060658EB0202414146EA9E0601D5AF
:101CB000BDE80189B619524141EB0101A3F10103CD
:101CC000BDE801894FEA14454FEA114724EA054669
:101CD00021EA074C05FB07F406FB07F70CFB06F1AE
:101CE00005FB0CFC11EB074144EB17444FEA12478C
:101CF00011EB0C4144EB1C4422EA074C05FB07F2B4
:101D000006FB07F70CFB06F605FB0CFC16EB07467B
:101D100042EB174216EB0C4642EB1C456A1854F195
:101D2000000148BF7047B619524141EB0101A3F1D0
:101D30000103704795F0000F37D04FEA11424FEA88
:101D4000144721EA024624EA074C02FB07F106FB8E
:101D500007F70CFB06F402FB0CFC14EB074441EB09
:101D600017414FEA154714EB0C4441EB1C4125EA9F
:101D7000074C02FB07F506FB07F70CFB06F602FB18
:101D80000CFC16EB074645EB174516EB0C4645EBEE
:101D90001C42121951F1000148BF7047B619524157
:101DA00041EB0101A3F1010370474FEA14454FEAEB
:101DB000114724EA054621EA074C05FB07F106FB1B
:101DC00007F70CFB06F24FF0000605FB0CFC12EBCC
:101DD000074241EB174112EB0C4251EB1C4148BF4B
:101DE0007047921841EB0101A3F101037047000015
:101DF00000B52DED048B87B0234890ED010A2348F0
:101E000080ED000A204890ED020A214880ED000A8A
:101E100090ED001ADFED1F0A1C4890ED000A00F05B
:101E2000E3F8B3EE090A1C4880ED060AB3EE090A8E
:101E30001A4880ED060A90ED080A10EE101A0846BE
:101E400002F0EEFF41EC180B134890ED080A10EE7B
:101E5000101A084602F0E4FF41EC190B9FED100B3D
:101E60008DED040B8DED028B9FED0D0B8DED000BB9
:101E700053EC192B0CA0FEF781FA322000F01EFF64
:101E800007B0BDEC048B00BDF41700200801002052
:101E900010010020000000001C1800204418002041
:101EA000000000000000394025662C25662C2566C0
:101EB0002C25660A0000000000BFFEE79FED120A15
:101EC000F0EE400A002000210FE0104A525C012A87
:101ED0000AD10F4A02EB810292ED000A30EE200A8D
:101EE000F0EE400A421CD0B2491C0829EDDB002864
:101EF00006DD00EE100AB8EE401A80EE810A704747
:101F0000B2EE040AFBE7000000000000B20000206F
:101F1000A050000810B50446242C0CD101201D4906
:101F200008701D481D49097844541C480078401C1D
:101F30001A4908702CE01748007800B910BD1648FF
:101F400016490978445415480078401C1349087014
:101F5000232C10D100200F4908701049087064220A
:101F60000D490F48FEF723FB01200E49087064213C
:101F70000948FEF761FB09480078642808DB002067
:101F8000044908700549087064210348FEF754FBB2
:101F900000BFD3E7BA0000208C110020BB00002056
:101FA000F0110020B100002010B5002009E000EB86
:101FB0008001891D084A515C3039084A1154411C7E
:101FC000C8B20828F3DB00200549087064210248E4
:101FD000FEF732FB10BD0000F0110020B20000201F
:101FE000B10000207047000000B5B0EE402AF0EECE
:101FF000603AF0EE412AB0EE0C0AB0EE403A2348C7
:102000000078042841D1224890ED000A2148D0ED03
:10201000000A30EE200A60EE220AB0EE001A80EECE
:10202000810A32EE400A1C4880ED090A184890EDFA
:10203000000A1848D0ED000A30EE200A60EE220AAD
:10204000B0EE001A80EE810A30EE020A134880EDED
:10205000090A1148D0ED090AB0EE600AB0EE431A41
:10206000F1EE430A02F0E8FC0B4880ED090A0B4848
:10207000D0ED090AB0EE600AB0EE431AF1EE430A61
:1020800002F0DAFC054880ED090A00BDFC000020E2
:10209000280100202C0100201C18002044180020DA
:1020A00070B504462046FEF763FA0546204602F066
:1020B00005F94FF47A7002F060FC214601A0FEF7AA
:1020C0005DF970BD2573000010B50B48FFF7E8FF00
:1020D0000A48FFF7E5FF0A48FFF7E2FF0948FFF764
:1020E000DFFF0948FFF7DCFF0848FFF7D9FF084882
:1020F000FFF7D6FF10BD0000110000201A000020DD
:102100002800002042000020500000207A0000201B
:102110008D00002010B50446134801880088401C3B
:10212000114A10801148445410460088401E0F493F
:10213000085C0A2816D110460088801E085C0D280D
:1021400010D10020114608800120094908704FF481
:10215000FA6206490748FEF72AFA4FF4FA61034883
:10216000FEF76AFA10BD0000A2000020A4010020C2
:10217000A00000207409002010B51C48007800B9A8
:1021800010BD1B4802F09AF81AA11948FEF79EFAF2
:1021900050B9002001F066F900F01EFE16A20121E0
:1021A000084600F039FE19E017A11148FEF78EFA33
:1021B00050B9012001F056F900F00EFE13A20121E2
:1021C000084600F029FE09E0022001F04BF900F07A
:1021D00003FE12A20121084600F01EFE00F010FFCF
:1021E00000200249087000BFCAE70000A0000020DC
:1021F00074090020410D0A004D6F646275735F54CD
:102200007970655F41000000420D0A004D6F646205
:1022100075735F547970655F420000004F746865A4
:102220007254797065732F4552524F52000000006E
:1022300010B5012000F032F8012801D100F028F893
:1022400010BD000010B54FF4806000F027F80128A1
:1022500010D100BF4FF48061074800F064FB0028F4
:10226000F8D0142002F089FBFFF72EFF4FF48060B6
:1022700000F00EF810BD0000000C024010B5042064
:1022800000F00CF8012802D1042000F001F810BD84
:102290000149086070470000143C014001460020DD
:1022A000034A12680A400AB1012000E0002070478A
:1022B000143C0140002123498279002A3AD00A4681
:1022C000126803689A430B461A600A1D1268036875
:1022D0009A430B1D1A60027911440A6803681A4375
:1022E0000A60184A0832126803689A43154B08338B
:1022F0001A601A1D126803689A43124B0C331A6055
:102300004279102A0ED11A1F126803681A430D4B26
:1023100008331A601A1D126803681A43094B0C33FC
:102320001A600DE00749427911440A6803681A43AC
:102330000A6005E0027911440A6803689A430A605A
:1023400070470000003C014000B589B001210846FB
:1023500000F0CAFF0121032000F0B6FF4FF4004057
:10236000019003208DF8090002208DF8080001205B
:102370008DF80A008DF80B0001A92B4800F068FACF
:102380000820019003208DF8090002208DF8080034
:1023900001208DF80A008DF80B0001A9234800F0F8
:1023A00057FA01220F21204800F09AFA0122032156
:1023B0001E4800F095FA06A801F0D8FE0020ADF8FE
:1023C00018004FF6FF7007900020ADF82000ADF820
:1023D0001A0006A94FF0804001F086FE00231A463D
:1023E00003214FF0804001F07BFC03A801F0E1FCE9
:1023F000FF20ADF8140003A94FF0804001F0A2FCCB
:102400000121880701F04BFC01221146900701F0E1
:10241000D9FC00214FF0804001F037FE01218807F0
:1024200001F043FC09B000BD00000240000402407E
:1024300000B589B00121022000F056FF01210220E1
:1024400000F042FF3020019003208DF809000220A7
:102450008DF8080001208DF80A008DF80B0001A905
:10246000204800F0F5F9022204211E4800F038FA55
:10247000022205211B4800F033FA06A801F076FE7F
:102480000020ADF818004FF6FF7007900020ADF85F
:102490002000ADF81A0006A9134801F025FE00231C
:1024A0001A460321104801F01BFC03A801F081FC2F
:1024B0000020ADF8140003A90B4801F043FC0121F2
:1024C000094801F0ECFB01221146074801F07AFCB3
:1024D0000021054801F0D9FD0121034801F0E5FB89
:1024E00009B000BD000402400004004010B50848D7
:1024F000D0ED060AB0EE600A00F038F80548D0EDDD
:10250000060AB0EE600A00F031F801F037F910BDAC
:102510001C1800204418002010B52DED028B00245B
:1025200017E000EE104AB8EEC00ADFED0D0A20EE0B
:10253000200ADFED0C0A80EE201AB0EE418AB0EEE0
:10254000480A02F08BF8084800EB840080ED000A8E
:10255000641CB4F5B47FE4DBBDEC028B10BD00005D
:10256000DA0F494000003443541200202DE9F047AF
:102570002DED0C8B0646F0EE408AF5EEC08AF1EEAA
:1025800010FA01DA012000E00020307700BFB0EE41
:10259000E80ADFEDA60A20EE209AA548864201D17E
:1025A000A44800E0A4480546307F30B995ED000A04
:1025B00030EE090A85ED000A05E095ED000A30EEDF
:1025C000490A85ED000AD5ED000AB0EE600ADFED9C
:1025D0009B0A01F0EBFF85ED000A95ED000AB5EED0
:1025E000C00AF1EE10FA07D295ED000ADFED930A6A
:1025F00030EE200A85ED000A95ED008A307F10B993
:10260000B7EE000A01E0BFEE000AF0EE409ADFEDFF
:102610008B0AB0EE480A01F0C9FFB0EE40AABDEE49
:10262000CA0A10EE104A601C4FF4B47190FBF1F22C
:1026300001FB120700EE104AB8EEC00A3AEE400A5B
:10264000F0EE40AA7E4800EB870090ED000A7C483F
:1026500000EB8400D0ED000A70EE600A784800EBD1
:10266000840090ED000A0AEEA00A20EE290AB0EEDE
:1026700040BADFED740A78EE200AB0EE600ADFEDB2
:102680006F0A01F093FFBDEEC00A10EE104A601C05
:102690004FF4B47190FBF1F201FB12079FED690A50
:1026A00078EE000A00EE104AB8EEC00A30EEC00A1A
:1026B000F0EE40AA624800EB870090ED000A604807
:1026C00000EB8400D0ED000A70EE600A5C4800EB7D
:1026D000840090ED000A0AEEA00A20EE290AF0EE2E
:1026E00040BADFED590A78EE200AB0EE600ADFED5D
:1026F000530A01F05BFFBDEEC00A10EE104A601CE9
:102700004FF4B47190FBF1F201FB12079FED4E0AFA
:1027100078EE000A00EE104AB8EEC00A30EEC00AA9
:10272000F0EE40AA464800EB870090ED000A4448CE
:1027300000EB8400D0ED000A70EE600A404800EB28
:10274000840090ED000A0AEEA00A20EE290AB0EEFD
:1027500040CAF6EE00CAF7EE000AB0EE4B0A01F0EE
:1027600001FFB0EE40DAF0EE4D0ABFEE000A01F0D4
:10277000D5FEB0EE40BAF7EE000AB0EE6B0A01F0FB
:10278000F1FEB0EE40DAF0EE4D0ABFEE000A01F0C5
:10279000C5FEF0EE40BAF7EE000AB0EE4C0A01F0CA
:1027A000E1FEB0EE40DAF0EE4D0ABFEE000A01F0B5
:1027B000B5FEB0EE40CAF6EE000AB6EE000A0BEE29
:1027C000200ADFED220A20EE200ABCEEC00A10EE3D
:1027D000100A1FFA80F8F6EE000AB6EE000A0BEEB9
:1027E000A00ADFED1A0A20EE200ABCEEC00A10EEA5
:1027F000100A1FFA80F9F6EE000AB6EE000A0CEE97
:10280000200ADFED120A20EE200ABCEEC00A10EE0C
:10281000100A1FFA80FAA6F81080A6F81290A6F8FF
:1028200014A0BDEC0C8BBDE8F0870000EC51B83E65
:102830001C180020D4000020D80000200000B44361
:10284000541200200000F042000070430040834515
:10285000F0B50A4600210023002400BF3DE0012519
:1028600005FA01F3156805EA03049C4234D10568B2
:102870004F000326BE40B543056015794E00B540B4
:102880000668354305601579012D02D01579022DB2
:1028900016D185684F000326BE40B5438560557943
:1028A0004E00B540866835438560456801268E40F8
:1028B000B5434560456896798E40B6B2354345606C
:1028C000C5684F000326BE40B543C560D5794E00AC
:1028D000B540C6683543C560491C1029BFD3F0BD5B
:1028E000F0B5002300244D07ED0E02FA05F3CE10DB
:1028F00000F1200555F826504E07F70E0F26BE4072
:10290000B543CF1000F1200646F82750CE1000F155
:10291000200555F8265045EA0304CE1000F12005A5
:1029200045F82640F0BD0246002013690B400BB16C
:10293000012000E0002070470A0482617047816135
:102940007047000010B52DED028B022000F0A6FDAF
:102950001F490860032000F0A1FD1D49486008469A
:102960000068A0F5FE40FF3800EE100AB8EEC00A7D
:10297000B0EE408A08464068A0F5FE40FF3800EE01
:10298000100AB8EEC00AF0EE408A9FED120A28EE57
:10299000000A114890ED001AC0EE010AB1EE0C0ACF
:1029A00020EE800A0D4880ED080A9FED0A0A68EEC5
:1029B000800A094890ED001A80EE810AF1EE0C0AB7
:1029C00020EE200A064880ED080ABDEC028B10BDFF
:1029D0000018002000007A44200100201C1800206C
:1029E0004418002000BFFEE770B502460025002312
:1029F00000240026938A03F0020010B923F010008F
:102A000008B1148B01E0002070BD240443EA0400E7
:102A100020F07F4505EA0100884201D1012600E04F
:102A200000263046F0E721B1028842F00102028020
:102A300004E002884FF6FE731A400280704721B10D
:102A4000028842F48072028004E002884FF6FF633D
:102A50001A400280704721B1028842F4007202805D
:102A600004E002884FF6FF531A40028070470CB50D
:102A70000246002000230193009300920B0F019364
:102A800021F07F41019B1BB1009B1433009303E0B5
:102A9000090C009B18330093009B1B680B400BB183
:102AA000012000E000200CBD2DE9FF4704460D4643
:102AB0000026B1460427DFF8CC80A6884FF6C07008
:102AC0000640684600F030FCDDF808802E48B8FB70
:102AD000F0F01FFA80F946EA0906A68020884FF632
:102AE000FE710840208000262849286888420CD8BA
:102AF00028684000B8FBF0F087B2042F00DA042702
:102B00003E4309F10100208427E0E8884BF6FF717D
:102B1000884206D1286800EB4000B8FBF0F087B28D
:102B200009E0286800EBC00101EB0010B8FBF0F0F1
:102B300087B247F48047C7F30B0008B947F0010795
:102B400047F4004006434FF4967009FB00F04FF441
:102B50007A7190FBF1F0401C2084A683208840F01D
:102B60000100208026884FF6F5300640A888698944
:102B7000084306432680A889298908432081BDE8A7
:102B8000FF87000000127A0040420F00A08601007B
:102B900012B141F0010101E001F0FE010182704734
:102BA0000182704700B587B00121022000F08CFB44
:102BB0000121880500F098FB02208DF81800002004
:102BC0008DF81B0001208DF81A004FF4406005902D
:102BD00002208DF8190005A91448FFF739FE0422D8
:102BE0000A211248FFF77CFE04220B210F48FFF751
:102BF00077FE4FF48060ADF80E000001ADF81000D4
:102C00000B4801904BF6FF70ADF80A000020ADF8BC
:102C10000800ADF80C0001A90648FFF745FF0121A7
:102C20000448FFF700FF07B000BD000000040240A9
:102C3000A08601000058004000B585B001210820A1
:102C400000F042FB0121880300F05EFB00208DF8BC
:102C500010008DF812004FF48060039001208DF871
:102C6000130002208DF8110003A91348FFF7F0FDAF
:102C70000A21032000F0ECFC4FF480600190012059
:102C80008DF80A0000208DF8080008208DF8090052
:102C900001A8FFF70FFB28208DF8000001208DF818
:102CA000030002208DF8010000208DF80200684624
:102CB00000F04CF805B000BD000C024000B513490F
:102CC000D1ED060AB0EE600A00EE900AB8EEE01A06
:102CD000414200EE901AF8EEE00A01F0ADFE0B4919
:102CE00081ED060A0A49D1ED060AB0EE600A00EE4F
:102CF000900AB8EEE01A414200EE901AF8EEE00AAF
:102D000001F09AFE024981ED060A00BD1C18002060
:102D10004418002000BFFEE730B502460B464FF6D0
:102D2000FF7008E012F8014B4440E1B20012054C7C
:102D300034F8114060401C1EA3F10105ABB2F1D183
:102D400030BD00007E5000087047000070B50021C3
:102D500000230F22C4781CB3174C246804F4E064E9
:102D6000C4F5E064C4F30721C1F10404E3B20A41ED
:102D700044789C40E1B28478144021430C07210E32
:102D80000E4C05786155047804F01F050124AC4011
:102D900005786D11AD0005F1E025C5F8004109E0A9
:102DA000047804F01F050124AC40054D0678761127
:102DB00045F8264070BD00000CED00E000E400E0A6
:102DC00080E100E002490143024A116070470000BF
:102DD0000000FA050CED00E010B50AA2012108463A
:102DE00000F01AF807A20121022000F015F805A250
:102DF0000121032000F010F802A20121042000F0BC
:102E00000BF810BD20202020202020202020202072
:102E100020202020000000000FB430B5C1B00446CF
:102E20000D464FF4807101A8FDF728FC47A80090DB
:102E300001A8009A4699FDF78FFA0020009001AA98
:102E40002946204600F0C6F841B030BC5DF814FBBE
:102E500070B504460D4604F00F0000F031F90F2163
:102E600001EA241141F0100000F02AF945F0B00009
:102E700000F026F970BD00002DE9F0470346144626
:102E80000846CA1701EB5272C2F3C705CA1701EB15
:102E90005272D210A1EBC202D6B2002090E0C71746
:102EA00000EB5777FF107FBB484F07EB04173F5CE1
:102EB000B74002464FEAE07C00EB5C7C4FEAEC0C4A
:102EC000A0EBCC0C9C44DFF8088108EBC51808F88F
:102ED0000C703E4F07EB04173F5CC6F1080C47FA35
:102EE0000CF74FEAE07C00EB5C7C4FEAEC0CA0EBCB
:102EF000CC0C0CEB0308DFF8D89005F1010C09EBC2
:102F0000CC1C0CF8087059E0FFE7C71700EB5777A7
:102F10004FF0010CBCEBE70F50D102464FEAE07CCA
:102F200000EB5C7C4FEAEC0CA0EBCC0C0CEB030848
:102F3000DFF89C9005F1010C09EBCC1C1CF808C0D3
:102F4000C6F108094FF0FF0848FA09F80CEA080C26
:102F5000DFF8788008EB041818F8008008FA06F803
:102F60004CEA080C07464FEAE07800EB58784FEA45
:102F7000E808A0EBC80808EB0309DFF854A005F146
:102F800001080AEBC81808F809C0104F07EB04172E
:102F90003F5CC6F1080C47FA0CF74FEAE07C00EB07
:102FA0005C7C4FEAEC0CA0EBCC0C0CEB0308D1469C
:102FB00005F1020C09EBCC1C0CF80870421CD0B2D5
:102FC0001028FFF66CAFBDE8F0870000C050000885
:102FD00000190020F0B505460F46164634460AE0B3
:102FE0002078A0F1200239462846FFF745FF641CEF
:102FF00005F1080005B220780028F1D1F0BD0000ED
:1030000070B5002451E021460020FFF721FF012187
:103010002748FFF714FD00BF26492548FFF7E4FCC9
:103020000128F9D1002278212148FFF7B1FD00BF26
:1030300021491F48FFF7D8FC0128F9D140211C483D
:10304000FFF7AEFD00BF1C49891E1948FFF7CCFCF5
:103050000128F8D1002510E0184800EBC410415DAC
:103060001348FFF79DFD00BF1349891E1048FFF765
:10307000BBFC0128F8D1681CC5B27F2DECDB0F48E2
:1030800000EBC41090F87F100948FFF789FD00BFDE
:103090000949891C0648FFF7A7FC0128F8D101213E
:1030A0000348FFF7D8FC601CC4B2082CABDB70BD32
:1030B00000580040010003008200070000190020B2
:1030C00010B5044600BF4FF400311C48FFF7CFFC99
:1030D0000128F8D001211948FFF7B1FC00BF1849B9
:1030E0001648FFF781FC0128F9D100227821134806
:1030F000FFF74EFD00BF13491048FFF775FC01288C
:10310000F9D100210D48FFF74BFD00BF0D49891E85
:103110000A48FFF769FC0128F8D121460748FFF764
:103120003FFD00BF0749891C0448FFF75DFC0128EB
:10313000F8D101210148FFF78EFC10BD0058004076
:10314000010003008200070010B5FFF72BFD64208B
:1031500001F013FCAE20FFF7B3FFD520FFF7B0FF5F
:103160008020FFF7ADFFA820FFF7AAFF3F20FFF761
:10317000A7FFD320FFF7A4FF0020FFF7A1FF402007
:10318000FFF79EFFA120FFF79BFFC820FFF798FFE6
:10319000DA20FFF795FF1220FFF792FF8120FFF75B
:1031A0008FFFCF20FFF78CFFD920FFF789FFF12099
:1031B000FFF786FFDB20FFF783FF3020FFF780FF5C
:1031C000A420FFF77DFFA620FFF77AFF8D20FFF7F1
:1031D00077FF1420FFF774FFAF20FFF771FF642023
:1031E00001F0CBFB10BD704770B507212F48FFF7EA
:1031F00093FD04462D48C0792C49097A40EA0125FF
:10320000AC424DD12A4800882A2827D005DC50B18D
:10321000082811D012283DD117E0362827D0B0F564
:10322000807F37D12DE000F057F9224880ED000A69
:1032300008201F4908802EE000F04EF91D4880ED5F
:10324000010A12201A49088025E000F045F91948C2
:1032500080ED030A2A20164908801CE000F03CF9A2
:10326000144880ED050A36201149088013E000F06B
:1032700033F9104880ED020A4FF480700C49088041
:1032800009E000F029F90B4880ED040A0020084904
:10329000088000E000BF00BF00200649087602E079
:1032A00001200449087600F007F870BD44110020A1
:1032B000AC0000205011002010B509210148FDF795
:1032C000DDF910BD4411002029B1064A12680243FD
:1032D000044B1A6004E0034A12688243014B1A60EF
:1032E000704700003038024029B1064A1268024394
:1032F000044B1A6004E0034A12688243014B1A60CF
:10330000704700004038024029B1064A1268024363
:10331000044B1A6004E0034A12688243014B1A60AE
:103320007047000044380240F0B50021002200241C
:10333000022500260223324F3F6807F00C0121B11D
:10334000042905D0082937D105E02E4F076036E063
:103350002D4F076033E02A4F3F1F3F68C7F3805669
:10336000274F3F1F3F6807F03F036EB1264FB7FB63
:10337000F3F7DFF88CC0ACF1040CDCF800C0CCF340
:10338000881C07FB0CF40CE01E4FB7FBF3F7DFF8CB
:1033900070C0ACF1040CDCF800C0CCF3881C07FB57
:1033A0000CF4174F3F1F3F68C7F301477F1C7D0098
:1033B000B4FBF5F7076002E0124F076000BF00BFE3
:1033C0000F4F3F6807F0F0010909104F7A5C07685A
:1033D000D74047600A4F3F6807F4E051890A0B4F16
:1033E0007A5C4768D7408760054F3F6807F46041C3
:1033F000490B064F7A5C4768D740C760F0BD0000B4
:10340000083802400024F40000127A000000002076
:1034100010B504210548FFF792FA08210348FFF789
:103420008BFA10210148FFF787FA10BD0010024007
:103430001CB501211020FFF747FF01208DF8040083
:1034400000208DF806001C20009002208DF8070057
:103450008DF8050069460248FFF7FAF91CBD000027
:103460000010024010B5044614B1012C0ED106E044
:10347000FFF7CEFF08210848FFF761FA09E0FFF7E0
:10348000C7FF10210448FFF75AFA02E0FFF7C0FF18
:1034900000BF00BF10BD000000100240014602291D
:1034A00002D0032912D109E04FF08042526A90B253
:1034B00047F6FF724FF080435A6209E0054A1268EE
:1034C00090B247F6FF72034B1A6001E0002000BF84
:1034D00000BF7047240400400948C078000608492E
:1034E000097940EA01400649497940EA0120044946
:1034F0008979084300EE900AB0EE600A7047000038
:103500004411002010B52DED088BB0EE40BAF0EE5E
:1035100060BAB0EE418AF0EE618AB0EE429AF0EE07
:10352000629AB0EE43AA51EC1B0B01F0F3FB1D496C
:103530000860084680ED018AC0ED058ABDEEC90A23
:1035400080ED020ABDEEE90A80ED030A80ED04AACF
:10355000C06880008968484300EE100AB8EEC00ACF
:10356000114880ED000A0F4890ED040ADFED0F0AC4
:1035700020EE200A0E4880ED000A0A4890ED000A6D
:103580000C4880ED000A074890ED010A0A4880EDDA
:10359000000A044890ED050A084880ED000ABDECD9
:1035A000088B10BDE818002020010020560E49406D
:1035B00024010020280100202C01002030010020DF
:1035C00010B504201749087008460078052801DD69
:1035D0000520087013480078022802D004281ED164
:1035E0000EE09FED113ADFED112AB7EE002ADFED74
:1035F000101A9FED101A9FED100BFFF783FF0EE0DE
:103600009FED093ADFED092AB7EE002ADFED081A2F
:103610009FED0B1A9FED0B0BFFF774FF00BF00BF70
:1036200010BD0000FC0000208FC2753D00008044EA
:1036300000000000BC74133E000000806ABCC43F60
:10364000E7FB293E000000C07268C13F70470000E0
:1036500030B500228B071C0F0F2303FA04F20B4B2B
:103660008C1053F824309343084C8D1044F82530C7
:1036700023468C1053F824308C07240F00FA04F4EE
:103680002343024C8D1044F8253030BD08380140EA
:103690000CB50020019000903448006840F4803060
:1036A0003249086000BF3148006800F400300090E3
:1036B0000198401C0190009818B90198B0F5A04FEE
:1036C000F1D12A48006800F4003010B101200090C8
:1036D00001E0002000900098012846D123484030A6
:1036E000006840F08050214940310860204800685F
:1036F00040F440401E4908601C48083000681B49DF
:10370000083108600846006840F400400860084638
:10371000006840F4A05008601648091F0860081FA0
:10372000006840F08070091F086000BF0F48006803
:1037300000F000700028F9D040F205700E490860D2
:103740000A480830006820F0030008490831086082
:103750000846006840F00200086000BF03480830D7
:10376000006800F00C000828F8D10CBD00380240B9
:103770000070004019544007003C024010B50F484B
:10378000018A0F4800F079FC0C48418A0C4800F08F
:1037900076FC0A48818A0B4800F075FC0A48018AC9
:1037A000084800F06AFC0848418A064800F067FCB7
:1037B0000548818A034800F064FC10BD1C180020F5
:1037C0000008004000040140441800207047000039
:1037D00010B51548006840F470001349086013489C
:1037E000006840F001001149086000200F490831CD
:1037F00008600E4800680E4908400C4908600D48F2
:10380000091D0860081F006820F48020091F086057
:10381000002006490C310860FFF73AFF4FF00060C6
:1038200001498039086010BD88ED00E00038024091
:10383000FFFFF6FE10300024F0B50C4615460021BF
:103840000022068C4FF6FE773E400684018B028CE8
:103850004FF60C7631407E1C06EA03162E433143A8
:103860004FF6F576324044F001063243018302847C
:10387000F0BDF0B50C461546002100220026078C4D
:103880004FF6EF7C07EA0C070784018B028C4FF69A
:10389000FF7707EA041640F6FF4739404FF6FF77F7
:1038A00007EA033739434FF6FF7707EA052739431D
:1038B0004FF65F773A4046F010073A43018302849F
:1038C000F0BDF0B50C461546002100220026078CFD
:1038D0004FF6FF6C07EA0C070784818B028C4FF6CA
:1038E000FF7707EA04264FF60C7739404FF6FF774B
:1038F00007EA03172F4339434FF2FF573A4046F484
:1039000080773A4381830284F0BDF0B50C461546BA
:10391000002100220026078C4EF6FF7C07EA0C07E8
:103920000784818B028C4FF6FF7707EA043640F656
:10393000FF4739404FF6FF7707EA052739434FF62F
:10394000FF7707EA0337394345F6FF773A4046F4F5
:1039500080573A4381830284F0BD4FF08040008A53
:103960004FF08040008A20F001004FF08041088233
:1039700070470000044800880348008820F00100D8
:1039800001490880704700001004004000B58BB06A
:1039900001210420FFF7A8FC01210220FFF794FC7D
:1039A000C020019002208DF8080003208DF8090046
:1039B00000208DF80A008DF80B0001A92A48FEF7B7
:1039C00047FF022206212848FEF78AFF022207212C
:1039D0002548FEF785FF254800F0FDF90020ADF8E9
:1039E00020002020ADF8220041F26700099000205D
:1039F000ADF828008DF82A0008A91C4800F074FBD7
:103A00006020ADF80C000120ADF80E000420ADF8E8
:103A1000100000200590ADF81800ADF81A004FF422
:103A20008070ADF81C000020ADF81E0003A90F48FF
:103A300000F0D8F903A90D4800F01CFA08210B4842
:103A400000F00EFA0821094800F066FA0121074843
:103A500000F000F90121054800F033F90121034885
:103A600000F023F90BB000BD000402400008004044
:103A700010B50121064800F054F9012807D1FEF7DE
:103A800061FFFEF733FD0121014800F00BF910BD85
:103A9000001400401FB501212020FFF725FC01A8DC
:103AA00000F064FB184800F096F95320ADF80400CC
:103AB00040F2E73002900020ADF80C00ADF80600AF
:103AC00001A9114800F010FB01210F4800F0E7F8B0
:103AD000012211460C4800F075F937208DF80000DE
:103AE00001208DF803008DF8010000208DF8020000
:103AF0006846FFF72BF90021034800F0C6FA0121C0
:103B0000014800F0D2F81FBD0014004000B58FB08E
:103B100001210220FFF7F8FB01210420FFF7D4FB6D
:103B20004FF47070059002208DF8180003208DF876
:103B3000190000208DF81A008DF81B0005A94348D4
:103B4000FEF786FE032206214048FEF7C9FE032247
:103B500007213E48FEF7C4FE032208213B48FEF73A
:103B6000BFFE032209213948FEF7BAFE384800F0AB
:103B700032F90020ADF830002020ADF8320041F2DB
:103B800067000D900020ADF838008DF83A000CA9C0
:103B90002F4800F0A9FA6020ADF81C000120ADF814
:103BA0001E000420ADF8200000200990ADF8280088
:103BB000ADF82A004FF48070ADF82C000020ADF86D
:103BC0002E0001A800F062F81F20ADF80A004FF4A3
:103BD0000060ADF804004010ADF806008010ADF8AC
:103BE00008000020ADF80C0001A9194800F03EF8CB
:103BF00007A9174800F0F6F807A9154800F03AF9A8
:103C000007A9134800F096F907A9114800F0ECF94C
:103C100008210F4800F024F908210D4800F07CF934
:103C200008210B4800F0D6F90821094800F018FADD
:103C30000121074800F00EF80121054800F041F885
:103C40000121034800F031F80FB000BD0008024028
:103C50000004014021B1028842F08002028004E0A9
:103C600002884FF67F731A40028070470A884B889B
:103C70001A438B881A43CB881A430B891A434B8902
:103C80001A438B891A43A0F8442070470021018011
:103C900041808180C1800181418181817047CA4317
:103CA00002827047CA430282704721B1028842F003
:103CB0000102028004E002884FF6FE731A4002807F
:103CC000704731B1B0F8442042F40042A0F84420DB
:103CD00005E0B0F84420C2F30E02A0F8442070477B
:103CE000F0B50C4615461E4600210022002301892E
:103CF000028B038C4FF6F877394021434FF6FC478F
:103D00003A4040F201173A434FF6DD773B404FF619
:103D1000FF7707EA06172F433B43018102830384A1
:103D2000F0BD30B50246002000230024158A05EAC4
:103D30000103958905EA010413B10CB1012000E0EB
:103D4000002030BD70B505460C46208850B9238947
:103D5000A28861882846FFF76FFDE188284600F0B9
:103D600096F925E0208804280AD12389A288618851
:103D70002846FFF77EFDE188284600F091F917E01C
:103D8000208808280AD12389A28861882846FFF75D
:103D900098FDE188284600F090F909E02389A2887F
:103DA00061882846FFF7B1FDE188284600F08EF9CA
:103DB00070BD002101804180012181800021C180EE
:103DC000018170471AB183890B43838102E08389A3
:103DD0008B438381704701894FF6F872114001814E
:103DE0007047000070B5002400220023058C4FF6B8
:103DF000FE7635400584028C8388048B4FF68F75E0
:103E00002C40B51E2C400D882C43751E2A408D89F0
:103E10002A434D882A43104DA84202D00F4DA84294
:103E200013D14FF6F7752A40CD892A434FF6FB751B
:103E30002A408D882A434FF6FF652B404FF6FF55E9
:103E40002B400D8A2B434D8A2B43838004838D683E
:103E50004563028470BD0000000001400004014081
:103E60000A460021018B4FF6F77319401143018375
:103E70007047000070B5002400220023058C4FF627
:103E8000EF7635400584028C8388048B48F6FF75F5
:103E90002C404FF6FF452C400D884FF6FF7606EA82
:103EA00005252C434FF6DF752A408D8906EA051556
:103EB0002A434D8806EA05152A43154DA84202D02B
:103EC000144DA8421DD14FF67F752A40CD894FF67B
:103ED000FF7606EA05152A434FF6BF752A408D88FE
:103EE00006EA05152A434FF6FF352B404FF2FF75C2
:103EF0002B400D8A06EA85052B434D8A06EA850587
:103F00002B43838004838D688563028470BD000029
:103F100000000140000401400A460021018B4FF2DD
:103F2000FF7319404FF6FF7303EA0223194301831D
:103F30007047000070B5002400220023058C4FF666
:103F4000FF6635400584028C8388848B4FF68F751D
:103F50002C404FF6FC752C400D882C434FF6FF5536
:103F60002A408D894FF6FF7606EA05252A434D88BB
:103F700006EA05252A43154DA84202D0144DA84251
:103F80001DD14FF2FF752A40CD894FF6FF7606EA24
:103F900005252A434FF6FF352A408D8806EA052578
:103FA0002A434EF6FF752B404DF6FF752B400D8AC8
:103FB00006EA05152B434D8A06EA05152B43838037
:103FC00084838D68C563028470BD000000000140D9
:103FD000000401400A460021818B4FF6F773194017
:103FE000114381837047000070B500220023002434
:103FF000058C4EF6FF7635400584038C8488828BD1
:1040000048F6FF752A404FF6FF452A400D884FF6C7
:10401000FF7606EA05252A434DF6FF752B408D896C
:1040200006EA05352B434D8806EA05352B430A4D34
:10403000A84202D0094DA84208D14BF6FF752C408A
:104040000D8A4FF6FF7606EA85152C43848082831D
:104050008D680564038470BD0000014000040140C8
:104060000A460021818B4FF2FF7319404FF6FF7310
:1040700003EA0223194381837047416370478163D8
:104080007047C16370470164704741627047028B9B
:104090004FF6F3731A400283028B0A430283704780
:1040A000028B4FF2FF331A400283028B4FF6FF73ED
:1040B00003EA01231A4302837047828B4FF6F3739E
:1040C0001A408283828B0A4382837047828B4FF22D
:1040D000FF331A408283828B4FF6FF7303EA01237A
:1040E0001A4382837047000000220288184B9842CE
:1040F0000ED0184B98420BD0B0F1804F08D0164B21
:10410000984205D0154B984202D0154B984204D1E5
:104110004FF68F731A404B881A43124B984207D0C0
:10412000114B984204D04FF6FF431A400B891A43B3
:1041300002804B68C3620B880385054B984202D00E
:10414000044B984201D18B7A038601238382704706
:10415000000001400004014000040040000800404D
:10416000000C004000100040001400404FF0FF31F0
:10417000416000210180018141808172704700000F
:104180001CB54FF4E13000F01DFD06A103C9CDE9D7
:1041900000016846FCF7ECF984B22146684600F05D
:1041A00098F81CBD24302C302C31230010B52DED97
:1041B000028BFDF7F9FEFDF781FEB0EE408A08485C
:1041C00080ED008AB6EE000A80ED010AB3EE040A23
:1041D00028EE000A80ED020ABDEC028B10BD000043
:1041E000F417002010B540F225510C4800F0A7F854
:1041F00090B10B480068B0F57A7F01DA002010BD5D
:10420000064800F055F9C4B22046FDF783FE40F29F
:104210002551024800F06BF80020F0E70050004004
:10422000C400002010B540F225510D4800F087F879
:10423000A0B10B4800F03CF9C1B20A4802780078FE
:10424000401C084B1870084881541846007809280B
:1042500004DB002019460870FEF7C6FF10BD000001
:1042600000440040B00000204411002010B540F28E
:104270002551094800F063F860B1074800F018F9CB
:10428000C4B22046FDF746FF40F22551024800F037
:104290002EF800BF10BD00000048004010B50446D5
:1042A00000BF8021044800F03DF80028F9D02146E5
:1042B000014800F002F910BD0048004010B5044666
:1042C00003E014F8010BFFF7E9FF20780028F8D18C
:1042D00010BD10B503460C46002200BF04E0985CF8
:1042E00000F0E0FC501C82B2A242F8DB10BD10B519
:1042F0000022002340F66A14A14200D100BF0A1236
:1043000001249440A3B2DC43048010BD21B1828912
:1043100042F40052828104E082894DF6FF731A4014
:104320008281704702460020B1F5007F00D100BFB6
:1043300013880B400BB1012000E00020704770B5DE
:104340000246002400230025002040F66A16B142F0
:1043500000D100BFC1F3421501F01F03012606FA88
:1043600003F3012D02D19689334006E0022D02D1DC
:10437000168A334001E0968A33400C12012606FA71
:1043800004F41688344013B10CB1012000E0002081
:1043900070BDF0B50346002400260025002040F63D
:1043A0006A17B94200D100BF1846C1F3421401F0A8
:1043B0001F06012707FA06F5012C01D10C3004E095
:1043C000022C01D1103000E014301AB107682F43DD
:1043D000076002E00768AF430760F0BD2DE9FF47C3
:1043E00005460E460024A14600BFA046B08900B194
:1043F00000BF2C8A24F44054F08804432C82AC89FA
:1044000041F20C608443B0883189084371890843C4
:104410000443AC81AC8A24F44074B0890443AC8278
:104420006846FEF781FF2048854202D01F4885423A
:1044300002D1DDF80C9001E0DDF80890A88900F4C5
:10444000004040B109EBC90000EB09103168490098
:10445000B0FBF1F707E009EBC90000EB0910316888
:104460008900B0FBF1F76420B7FBF0F004012009EC
:10447000642101FB1078A88900F4004040B132208B
:1044800000EBC800B0FBF1F000F00700044308E0C7
:10449000322000EB08106421B0FBF1F000F00F00B7
:1044A00004432C81BDE8FF87001001400014014047
:1044B00001468888C0F308007047C1F30802828073
:1044C000704700BFFEE703B401984100009850EA2E
:1044D000C12018BF04204A0D18BF40F0010040F26F
:1044E000FF72B2EB515F08BF40F00200012808BF25
:1044F000052002B070474100080218BF04200A0ED0
:1045000018BF40F001004FF07F4232EA010108BFBE
:1045100040F00200012808BF0520704710B52DEDBE
:10452000028BB0EE608AF0EE408A18EE101A18EE98
:10453000900A00F0ADFC00F07040B0F1005F0CD0CC
:1045400018EE100A20F00040C0F1FF40C00F02BF7B
:10455000B0EE480ABDEC028B10BDB0EE680ABDECAF
:10456000028B10BD10B52DED028BB0EE608AF0EE1F
:10457000408A18EE101A18EE900A00F089FC00F03C
:104580007040B0F1004F0CD018EE100A20F000403F
:10459000C0F1FF40C00F02BFB0EE480ABDEC028B75
:1045A00010BDB0EE680ABDEC028B10BD10B52DED4C
:1045B000028BF0EE408A18EE900AB0EE608A20F08E
:1045C0000040C0F1FF40C00F07D118EE100A20F0E4
:1045D0000040C0F1FF40C00F2BD018EE101A18EEAB
:1045E000900A00F0C9FC00EE100A10EE100A6FEA03
:1045F000D05010F0FF0F04BFBDEC028B10BD18EEC1
:10460000900A00F0004110EE100A00F000408142D4
:1046100004BFBDEC028B10BD18EE101A10EE100A8C
:10462000BDEC028B61F31E0000EE900A30EE600AD2
:1046300010BD18EE900A4FF07F41B1EB400F1CBF48
:1046400018EE100A5FEA4000C7D10120FCF787F896
:10465000BDEC028BBDE8104000F0CCB800B510EE08
:10466000101A2DED028B81B0524A6846B2EB410F11
:104670002ED94FF0E640B0EB410F94BF00204FF031
:10468000FF3000900098B0EE408A00286ADB10F0FE
:10469000010F4BD068EE080A9FED471A9FED470ABD
:1046A00000EE810A9FED461A10F0020F00EE801A0C
:1046B000B7EE000A00EE810A02BF01B0BDEC028B2A
:1046C00000BD00BF01B0B1EE400ABDEC028B00BDE1
:1046D0003C4B21F00042934241D911F0004FDFEDF5
:1046E0003A0A20EE201ADFED390A19BF31EE601ABE
:1046F00071EE200A31EE201A71EE600ABDEEE01A6A
:1047000011EE100A9FED321A00F0030000EEC10A0C
:104710009FED301A009000EEC10A9FED2F1A00EEB7
:10472000C10A9FED2E1A00EEC10AABE728EE080A77
:104730009FED2B1ADFED2B0A10F0020F40EE410A1D
:104740009FED291A00EE201A61EE000AB0EE480A29
:1047500008EE200AB6D101B0BDEC028B00BD00F01E
:1047600059F88FE718EE100A4000B0F17F4F0DD2D4
:1047700018EE100AFFF7BFFE042808BF00F042F849
:10478000B0EE480A01B0BDEC028B00BD09D101209A
:10479000FBF7E5FF01B0BDEC028B5DF804EB00F028
:1047A00029B801B0B0EE480ABDEC028B5DF804EB0D
:1047B00000F01CB8B61F927EB93AB2BACA9F2A3D21
:1047C000DDFFFFBE490E494683F9223F0000004B42
:1047D0000000C93F00A0FD390020A2331A61342C2B
:1047E000336D4C39DA82083CA0AA2ABE30EE000AAA
:1047F00070470000DFED020A80EEA00A704700005B
:10480000000000009FED020A20EE000A7047000041
:10481000000000102DE9F0014FF07F42B2EB410F94
:104820009FBF4FF0FF310160BDE8F00170474FF0CE
:10483000004242EA0123C1F3C752783A551112F0FF
:104840001F0C434CCCF120067C44C1F3C752A2F1AB
:1048500078024FEA621204EB820254F8254008BF46
:10486000D2E9015612D0556804FA0CF425FA06F77D
:104870003C43976805FA0CF527FA06F8D26807FA60
:104880000CFCF24045EA08054CEA0206A4FB034C86
:10489000A5FB0352A6FB03631D449D4234BF0126C2
:1048A00000261319334416B1934202D903E0934210
:1048B00001D2012200E00022624402F1200C9206A3
:1048C000DC0C42EA443200EE102A5B03DFED210AE1
:1048D000F8EEC01A00EE103A4FEA9C1C11F0004F9F
:1048E000B8EE400AC0F800C020EE201A00EE105AC0
:1048F000DFED190AB8EE400A20EE200A71EE810AB7
:1049000070EE800A10EE902A02F500626FF30B023F
:1049100000EE902A70EEE11A31EEC11ADFED101AA6
:1049200030EE411A9FED0D0A20EE800A01EE210AB9
:104930009FED0C1A00EE810A04BFBDE8F00170473C
:10494000CCF180510160BDE8F001B1EE400A704742
:10495000A80E0000000000360000802C22AAFD29CD
:10496000DB0FC92F0000C92F30380A2801D20120DF
:1049700070470020704700BF704700B5034603E052
:104980004FF47A7000F005F8181EA3F10103F7D177
:1049900000BDA82141434FF0E02251610021916107
:1049A0000521116100BF4FF0E021096901F4803158
:1049B0000029F8D004214FF0E02211617047000077
:1049C00000BF054A128802F04002002AF9D0C2B2A4
:1049D000014B1B1D1A8070470044004000F008F88E
:1049E00005E0FFF7E3FBFDF703FAFDF7C5FBF8E78A
:1049F00010B54FF44070FEF7E5F9FEF719FDFEF72C
:104A00001BF94FF4165000F02DF84FF4E13000F090
:104A100081F8FEF799FBFFF7B3FBFEF7D1FDFDF739
:104A200093FCFDF705FDFDF777FDFFF733F8FEF783
:104A3000ADFFFFF76BF810BDF0EE401AF4EEE01A90
:104A4000F1EE10FA02D2B0EE600A7047F4EEC11A2D
:104A5000F1EE10FA02DDB0EE410AF6E7B0EE610ABF
:104A6000F3E7000010B588B0044601210820FEF7E6
:104A70002BFC01214804FEF737FC072205212348BF
:104A8000FDF72EFF072206212048FDF729FF6020B1
:104A9000069002208DF81C0000208DF81E000220D8
:104AA0008DF81D0001208DF81F0006A91748FDF79D
:104AB000CFFE26208DF8040001208DF8050000208F
:104AC0008DF8060001208DF8070001A8FEF73EF9D9
:104AD00002940020ADF80C00ADF80E00ADF8100007
:104AE000ADF814000C20ADF8120002A90848FFF739
:104AF00075FC012240F225510548FFF74AFC0121CF
:104B00000348FFF703FC08B010BD0000000C024092
:104B10000044004010B588B0044601210820FEF78B
:104B2000D3FB01218804FEF7DFFB0722082123487D
:104B3000FDF7D6FE072209212048FDF7D1FE4FF4EC
:104B40004070069002208DF81C0000208DF81E0099
:104B500002208DF81D0001208DF81F0006A91748BE
:104B6000FDF776FE27208DF8040003208DF8050060
:104B700000208DF8060001208DF8070001A8FEF73F
:104B8000E5F802940020ADF80C00ADF80E00ADF889
:104B90001000ADF814000C20ADF8120002A908486E
:104BA000FFF71CFC012240F225510548FFF7F1FBFD
:104BB00001210348FFF7AAFB08B010BD000C02401A
:104BC0000048004010B588B0044601210420FEF7DB
:104BD0007BFB01210820FEF777FB01210805FEF78A
:104BE00083FB08220C212C48FDF77AFE08220221C3
:104BF0002A48FDF775FE4FF48050069002208DF88C
:104C00001C0000208DF81E0002208DF81D000120E0
:104C10008DF81F0006A92048FDF71AFE0420069013
:104C200002208DF81C0000208DF81E0002208DF857
:104C30001D0001208DF81F0006A91848FDF708FE89
:104C400035208DF8040004208DF8050000208DF833
:104C5000060001208DF8070001A8FEF777F80294FE
:104C60000020ADF80C00ADF80E00ADF81000ADF866
:104C700014000C20ADF8120002A90948FFF7AEFBA2
:104C8000012240F225510648FFF783FB0121044829
:104C9000FFF73CFB08B010BD00080240000C0240CA
:104CA000005000400449888000BF0349098801F092
:104CB00040010029F9D070470050004010B500298C
:104CC0000AD00878002807D005487844FBF7FEFC96
:104CD000002801D0002010BD0248784410BD00001B
:104CE000260B00001E0B000010B500290AD0087822
:104CF000002807D005487844FBF7E8FC002801D0DD
:104D0000002010BD0248784410BD0000160B0000C2
:104D10000E0B000021F00042A2F16052B2F5801F9C
:104D200001F0004328BFD2F17F6C0BD95FEA001C71
:104D300043EAC20242EB507018BF704728BF20F010
:104D400001007047B2F5801FBCBF184670474FEA9C
:104D5000410C1CF5001F02D2084600F087B970B55F
:104D600000F009F800000089FFF7F6BF4FF000409F
:104D7000A0F5800070470EF1020E2EF0030E5EF8D3
:104D8000046B364205D4012A43EB030515F5001FD9
:104D900012D8012841EB010C1CF5001F0CD80ED1D4
:104DA0004FEAD17C15F5001F0CEB4C0C0CF1020CFA
:104DB00008BF4CEBD37C04E04FF0080C01E04FEA55
:104DC000D37C0CEB4C0526FA05F606F00706B6F187
:104DD000040C06D20EEB860CBDE870404CF0010CC2
:104DE0006047DFE80CF0090B02024FF000414FF082
:104DF0000000A1F5002170BD19461046012851EBB5
:104E0000010418BFD4F5001484BF002001F0004154
:104E100070BD0808A0F500114FEA3101704700008D
:104E200043004FEAD30C4FEA3C0C43401FBF4007FE
:104E30000CF1605113F0FE4F70471CF0006F03D16E
:104E400000200CF0004170470CF0004343EA507022
:104E500010B540EACC0000F044F800BF000000921A
:104E60004FEA0001FFF7D5BF4FF000414FF00000BF
:104E7000A1F500217047000000EE100A00EE901A24
:104E8000B4EE600AF1EE10FA78BF704700F00DB88A
:104E900010B5FFF7F1FFEFF3008020F0104038BFAE
:104EA00040F0004080F3008810BDBDE8104010B510
:104EB00000F017F80000000900F007B84FF040407C
:104EC00010F1004FEFF300807047401058BFC0F161
:104ED0004040491058BFC1F140418142EFF300808A
:104EE00070470EF1020E2EF0030E5EF8044B2442C2
:104EF00004D44FEA4102B2F17F4F11D84FEA400388
:104F0000B3F17F4F0CD80ED14FEAD07CB2F17F4F76
:104F10000CEB4C0C0CF1020C08BF4CEBD17C04E008
:104F20004FF0080C01E04FEAD17C0CEB4C0324FA63
:104F300003F404F00704B4F1040C06D20EEB840C65
:104F4000BDE810404CF0010C6047DFE80CF00708AA
:104F500002024FF00040A0F5800010BD084642005C
:104F600018BFD2F1807288BF00F0004010BD4FF032
:104F70004070E1EE100A70474FF07F4C3CEA41036D
:104F800018BF3CEA400200F062804FF47F0C10F042
:104F9000004F0CEAD11318BF43F005031CEAD012EE
:104FA00018BF13EA0C0F00F057804FF0004C4CEA8A
:104FB00000204CEA0121A3F580339A4210DDB0F1C4
:104FC000004F23F0020306D3401A43F00203BCBF94
:104FD000404283F001034FEA4000A2F58032ECE743
:104FE0004FEA224CBCEB234F08DB884206D31CD08F
:104FF000A0EB4100C0F1000083F0010340001DD28E
:1050000017D40DD0B0FA80FC0CF1010C00FA0CF0B2
:10501000A2EB0C42D2F1000C12DB4FEAC3707047D6
:105020004FEA437000F00040704713F0020FE5D0E4
:10503000DEE7B2F580324FEA4000EBDD002AE9DD21
:105040004FEAC21242EA502040EAC370704710B5DE
:10505000FFF747FFEDFFFF3E1CEAD11F02D000F033
:1050600000407047004870470000C07FFF2141EAC0
:10507000D050C0057047FBF7DABCFCF74BB8000016
:10508000C1C081C1400101C3C003800241C201C649
:10509000C006800741C70005C1C581C440040000A7
:1050A000000060C0000020C00000C0BF000000BFC2
:1050B0000000003F0000C03F0000204000006040B2
:1050C00000000000000000000000000000000000E0
:1050D000000000F800000000000000333000000075
:1050E00000160E00160E0000000000000000000078
:1050F00040C07840C0784000043F04043F040400EE
:10510000007088FC08300000001820FF211E0000FD
:10511000F008F000E018000000211C031E211E0012
:1051200000F00888700000001E2123241927211098
:10513000000000160E00000000000000000000004B
:10514000000000E0180402000000000718204000E2
:1051500000020418E00000000040201807000000D2
:10516000404080F0804040000202010F0102020036
:10517000000000F0000000000101011F010101001A
:10518000000000000000000000B0700000000000FF
:105190000000000000000000000101010101010108
:1051A000000000000000000000303000000000009F
:1051B0000000000080601804006018060100000074
:1051C00000E010080810E000000F102020100F0071
:1051D000001010F8000000000020203F20200000F8
:1051E0000070080808887000003028242221300050
:1051F00000300888884830000018202020110E0058
:105200000000C02010F8000000070424243F240000
:1052100000F80888880808000019212020110E00D5
:1052200000E0108888180000000F112020110E00E7
:1052300000380808C83808000000003F00000000DF
:105240000070880808887000001C222121221C00A0
:1052500000E010080810E0000000312222110F00C9
:10526000000000C0C000000000000030300000005E
:10527000000000C0C0000000000080B0700000000E
:1052800000008040201008000001020408102000E7
:105290004040404040404000040404040404040032
:1052A00000081020408000000020100804020100C7
:1052B000007048080808F0000000003036010000C7
:1052C000C030C828E810E0000718272423140B007A
:1052D0000000C038E0000000203C230202273820F4
:1052E00008F8888888700000203F202020110E00D8
:1052F000C0300808080838000718202020100800CF
:1053000008F808080810E000203F202020100F00B7
:1053100008F88888E8081000203F20202320180083
:1053200008F88888E8081000203F200003000000EB
:10533000C03008080838000007182020221E02008C
:1053400008F808000008F808203F210101213F204B
:10535000000808F8080800000020203F2020000076
:1053600000000808F8080800C08080807F00000066
:1053700008F888C028180800203F2001263820009F
:1053800008F8080000000000203F20202020300006
:1053900008F8F800F8F80800203F003F003F200020
:1053A00008F830C00008F808203F200007183F0028
:1053B000E01008080810E0000F10202020100F0057
:1053C00008F808080808F000203F2101010100004A
:1053D000E01008080810E0000F18242438504F008F
:1053E00008F8888888887000203F2000030C30204F
:1053F00000708808080838000038202121221C008D
:10540000180808F8080818000000203F20000000D5
:1054100008F808000008F808001F202020201F00BE
:105420000878880000C83808000007380E0100001E
:10543000F80800F80008F800033C0700073C0300E8
:10544000081868808068180820302C03032C30204E
:105450000838C800C83808000000203F20000000BD
:1054600010080808C8380800203826212020180015
:10547000000000FE020202000000007F40404000E9
:10548000000C30C000000000000000010638C00021
:1054900000020202FE000000004040407F000000C9
:1054A0000020100804081020000000000000000088
:1054B00000000000000000008080808080808080EC
:1054C00000020408000000000000000000000000CE
:1054D00000008080808000000019242222223F20CA
:1054E00008F8008080000000003F112020110E000D
:1054F0000000008080800000000E1120202011009C
:10550000000000808088F800000E112020103F204D
:105510000000808080800000001F222222221300D1
:10552000008080F0888888180020203F202000001C
:105530000000808080808000006B949494936000D1
:1055400008F8008080800000203F210000203F20DC
:1055500000809898000000000020203F20200000DC
:10556000000000809898000000C08080807F0000CC
:1055700008F8000080808000203F24022D302000A9
:10558000000808F8000000000020203F2020000054
:105590008080808080808000203F20003F20003F6E
:1055A000008080008080000000203F2100203F20FC
:1055B0000000808080800000001F202020201F002D
:1055C000808000808000000080FFA12020110E005C
:1055D0000000008080808000000E112020A0FF804D
:1055E000808080008080800020203F2120000100FA
:1055F000000080808080800000332424242419004F
:10560000008080E0808000000000001F202000005B
:105610008080000000808000001F202020103F209C
:10562000808080000080808000010E30080601002C
:1056300080800080008080800F300C030C300F00D1
:1056400000808000808080000020312E0E312000FC
:10565000808080000080808080818E70180601002C
:1056600000808080808080000021302C222130004A
:1056700000000000807C020200000000003F40406B
:1056800000000000FF00000000000000FF0000001C
:105690000002027C800000000040403F000000004B
:1056A00000804040800000800000000000010100F8
:1056B00004000008000000000000000200010000DB
:1056C0001000000000000000000000003031323304
:1056D0003435363738394142434445464030580026
:1056E0003031323334353637383961626364656658
:1056F00040307800000000006E83F9A22915444E66
:10570000D15727FCC0DD34F5999562DB4190433CCD
:10571000AB6351FE3031323334353637383961625C
:10572000636465667870003031323334353637382B
:1057300039414243444546585000000002400000B1
:10574000000000A00000000005400000000000C8AC
:10575000000000000C4000000000409C0000000021
:10576000194000000020BCBE0000000034400000D2
:10577000BFC91B8E00000004B5400000504BCFD0C5
:105780006607E2CF010000006C4100003E8251AA92
:10579000DFEEA73401000000D9420000DCB5A0E232
:1057A0003A301F97FFFFFFFFB4450000FD25A0C85A
:1057B000E9A3C14FFFFFFFFFFF3F00000000008093
:1057C00000000000FF3F000000000080000000001B
:1057D0001C59000800000020A4010000C4010008BA
:1057E000C0590008A4010020BC21000020020008CC
:1057F0001C00000043000000F8FFFFFF0C00000049
:105800000E0000000F0000002E000000100100003C
:1058100043000000F8FFFFFF004040404040404090
:105820004040414141414140404040404040404073
:105830004040404040404040400502020202020217
:105840000202020202020202022020202020202066
:10585000202020020202020202029090909090907A
:105860001010101010101010101010101010101038
:1058700010101010020202020202888888888888AC
:105880000808080808080808080808080808080898
:1058900008080808020202024000000000000000A0
:1058A00000000000000000000000000000000000F8
:1058B00000000000000000000000000000000000E8
:1058C00000000000000000000000000000000000D8
:1058D00000000000000000000000000000000000C8
:1058E00000000000000000000000000000000000B8
:1058F00000000000000000000000000000000000A8
:105900000000000000000000000000000000000097
:10591000000000000000000000000000412D010216
:105920000304041506070809280941542B5253544F
:105930000D0A09680943574D4F44453D310E581330
:105940004A41503D2232222C22313233343536370F
:1059500038221A780849504D55583D300E280B53BF
:10596000544152543D225443502D181139322E3196
:1059700036382E3231342E3230222C383D89386977
:10598000616C2B2B2B3D1C454E4411655479706581
:1059900033010442020344FFFF021101E3FA430012
:1059A0000B54C03F8FC2753DCDCC4C3E1AF4811ACA
:1059B0002C0429086910091204211205239F4100B3
:040000050800018965
:00000001FF
