:020000040800F2
:100000008067002031030008191C00080F15000844
:10001000171C00082D0B0008A13700080000000085
:10002000000000000000000000000000790200084D
:10003000650F000800000000CD02000855240008EC
:100040004B0300084B0300084B0300084B03000858
:100050004B0300084B030008E90F00084B0300089E
:100060000D1000084B0300084B0300084B03000869
:100070004B0300084B0300084B0300084B03000828
:100080004B0300084B0300084B0300084B03000818
:10009000FD0C00084B0300084B0300084B0300084D
:1000A0004B0300084B0300084B0300084B030008F8
:1000B000F9250008092600084B0300084B03000837
:1000C0004B0300084B0300084B0300084B030008D8
:1000D0004B0300088D3100089532000811350008E7
:1000E0004B0300084B0300084B0300084B030008B8
:1000F000D92B00084B030008FD2600084B0300081D
:100100004B0300084B0300084B0300084B03000897
:100110004B030008513100084B0300084B03000853
:100120004B0300084B0300084B0300084B03000877
:100130004B0300084B0300084B0300084B03000867
:100140004B0300084B0300084B0300084B03000857
:100150004B0300084B0300084B0300084B03000847
:100160004B0300084B0300084B0300084B03000837
:100170004B0300084B0300084B0300084B03000827
:100180004B0300084B03000800F002F800F064F88D
:100190000AA090E8000C82448344AAF10107DA45E2
:1001A00001D100F059F8AFF2090EBAE80F0013F0D0
:1001B000010F18BFFB1A43F0010318476C7D0000C4
:1001C0008C7D00000A444FF0000C10F8013B13F046
:1001D000070408BF10F8014B1D1108BF10F8015BA0
:1001E000641E05D010F8016B641E01F8016BF9D193
:1001F00013F0080F1EBF10F8014BAD1C0C1B09D1EA
:100200006D1E58BF01F801CBFAD505E014F8016B5B
:1002100001F8016B6D1EF9D59142D6D370470000ED
:100220000023002400250026103A28BF78C1FBD8FF
:10023000520728BF30C148BF0B607047642900F0E7
:100240000381732900F05C82002070471FB507F01E
:1002500044FD1FBD10B510BD00F0CEFA1146FFF7EA
:10026000F5FF04F00BFE00F0ECFA03B4FFF7F2FF29
:1002700003BC04F037FD00002A4B19680868B0E899
:10028000F04F80F30988BFF36F8F4FF0000080F3C9
:10029000118870470000000006480068006880F37D
:1002A000088862B661B6BFF34F8FBFF36F8F00DF70
:1002B00000BF00BF08ED00E0DFF80C00016841F46A
:1002C00070010160704700BF88ED00E0EFF3098026
:1002D000BFF36F8F134B1A681EF0100F08BF20ED8D
:1002E000108A20E9F04F106008B44FF0500080F3FE
:1002F0001188BFF34F8FBFF36F8F06F0B1F84FF047
:10030000000080F3118808BC19680868B0E8F04F55
:100310001EF0100F08BFB0EC108A80F30988BFF3FD
:100320006F8F704710000020EFF3058070470000CA
:100330000948804709480047FEE7FEE7FEE7FEE779
:10034000FEE7FEE7FEE7FEE7FEE7FEE704480549B5
:10035000054A064B7047000069240008890100081F
:10036000806100208067002080630020806300207F
:10037000704700000FB4044910B503AA029800F0BA
:10038000C3F910BC5DF814FB8C0000202DE9F0418E
:100390000E460446002020622046E168884730B3BC
:1003A000252805D0D4E901219047206A401CF2E7B6
:1003B000E168204600278847050018D0A5F14100D4
:1003C000192802D820354FF40067324629462046C6
:1003D0002760FFF733FF40B1012804D0F61D26F057
:1003E00007060836D8E7361DD6E72846DAE7206A3A
:1003F000BDE8F08170B50C460546012A05D0287885
:10040000800600D5EA69002302E0012305E05B1CB9
:10041000934202D2E05C0028F9D1A869E618C01A1C
:10042000A861286A184428622846AFF3008004E0D7
:10043000D5E9012114F8010B9047B442F8D32846BE
:10044000AFF3008070BD00002DE9F04106460024A6
:1004500010687529314616A510D0AFF3008000282A
:1004600002DA404213A507E031688A0701D512A5D8
:1004700002E0490704D511A5012401E0AFF3008093
:1004800000210A2206F1240709E0B0FBF2FCB0FBD0
:10049000F2F302FB1C00303078541846491C002847
:1004A000F3D123462A463046BDE8F04100F0A5B816
:1004B000000000002D0000002B00000020000000C4
:1004C00010B5431C02E010F8011B71B18107FAD18D
:1004D0004FF0013202C88C1A8C4314EAC211F9D0D1
:1004E000C01A0A0603D0C01E10BDC01A10BD0A04EF
:1004F00001D0801E10BD0902FCD0401E10BD032A91
:1005000040F2308010F0030C00F0158011F8013B30
:10051000BCF1020F624498BF11F801CB00F8013B17
:1005200038BF11F8013BA2F1040298BF00F801CBDB
:1005300038BF00F8013B11F0030300F0F780083AE0
:10054000C0F0088051F8043B083A51F804CBA0E809
:100550000810F5E7121D5CBF51F8043B40F8043B5E
:10056000AFF30080D20724BF11F8013B11F801CB93
:1005700048BF11F8012B24BF00F8013B00F801CB64
:1005800048BF00F8012B704702F0FF0343EA032243
:1005900042EA024200F002B84FF000020429C0F023
:1005A000128010F0030C00F0F580CCF1040CBCF1CB
:1005B000020F18BF00F8012BA8BF20F8022BA1EBF7
:1005C0000C0100F0E7B85FEAC17C24BF00F8012B02
:1005D00000F8012B48BF00F8012B704770477047A7
:1005E0007047704710B500F0FBF8006810BD10B5FB
:1005F000044600F0F5F8046010BD2DE9F0470D4603
:1006000099469246044600F124080168880604D5FC
:10061000E06921F01001216000E00120A84201DD25
:10062000471B00E00027A1697A1902EB0900081AAC
:10063000A0612078C00602D42046AFF300800026D7
:1006400008E0D4E901211AF806009047206A401C0E
:10065000761C20624E45F4DB2078C0060AD5204681
:10066000AFF3008006E0D4E9012130209047206AF2
:10067000401C2062381EA7F10107F4DC07E0D4E932
:10068000012118F805009047206A401C2062281EAE
:10069000A5F10105F3DC2046AFF3008020780006C9
:1006A00002D50220BDE8F0870120FBE701694A1C62
:1006B00002610878704700B58FB0CDE901310021A3
:1006C000059105497944CDE9031011466846FFF7C5
:1006D0005DFE0FB000BD0000E5FFFFFF10B54369F0
:1006E00013B1AFF3008001E0FFF784FE012010BDDD
:1006F000127800F124010A7000224A700122EDE70D
:1007000011684FF0FF32E9E7074B70B50D467B44A7
:10071000FFF7D1FF0446284600F066F810B14FF00D
:10072000FF3070BD204670BD3747000010B5203A3D
:10073000C0F00B80B1E81850203AA0E81850B1E89A
:100740001850A0E81850BFF4F5AF5FEA027C24BF50
:10075000B1E81850A0E8185044BF18C918C0BDE847
:1007600010405FEA827C24BF51F8043B40F8043B10
:1007700008BF7047D20728BF31F8023B48BF11F8C5
:10078000012B28BF20F8023B48BF00F8012B70471F
:100790004FF0000200B5134694469646203922BF1A
:1007A000A0E80C50A0E80C50B1F12001BFF4F7AF65
:1007B000090728BFA0E80C5048BF0CC05DF804EB47
:1007C000890028BF40F8042B08BF704748BF20F8B5
:1007D000022B11F0804F18BF00F8012B704700006A
:1007E000004870471C610020007B00F080007047CB
:1007F000004870471C6100207546FFF7F9FFAE46C0
:1008000005006946534620F00700854618B020B51C
:10081000FFF79CFDBDE820404FF000064FF00007B9
:100820004FF000084FF0000B21F00701AC46ACE898
:10083000C009ACE8C009ACE8C009ACE8C0098D4605
:10084000704710B50446AFF300802046BDE8104065
:10085000FFF70BBD0029816802D041F0010101E0E2
:1008600021F0010181607047084B10B5D3F80423D3
:1008700007490A40D0E900142143D0E9024004436B
:1008800021431143C3F8041310BD000000200140B0
:10089000E030FCFFC06C80B2704702460020126856
:1008A0000A4200D00120704730B542680F4B0C79E6
:1008B0001A400B6842EA04221343436082680C4BDF
:1008C0004D791A40D1E9034323438C6844EA450437
:1008D000234313438360C26A097D22F47002491ED8
:1008E000C9B242EA0151C16230BD0000FFFEFFFC07
:1008F000FDF7FFC070B5072609290AD9C568A1F11F
:100900000A0404EB4404A640B543A3401D43C5605C
:1009100007E0056901EB4104A640B543A3401D4330
:1009200005611F23072A09D2446B521E02EB820283
:1009300093409C4391400C43446370BD0D2A09D2FF
:10094000046BD21F02EB820293409C4391400C4304
:10095000046370BDC46A0D3A02EB820293409C436B
:1009600091400C43C46270BD816841F08041816058
:100970007047000030B58DB00121022001F0AAFBC4
:1009800001210D02284601F0BDFB032002218DF854
:100990002C000A9100248DF82F400AA9134800F07A
:1009A000FFFC0121284601F0B9FB0021284601F097
:1009B000B5FB069468020994CDE9070406A8FFF781
:1009C00053FF8DF8044000948DF805400294049480
:1009D0000120074C8DF8140069462046FFF764FF9C
:1009E00001212046FFF736FF0DB030BD0004024064
:1009F0000020014070B58CB00121022001F06AFB9B
:100A000001214E02304601F07DFB03208DF82C00C1
:100A1000012500240A958DF82F400AA9134800F0FB
:100A2000BFFC0121304601F079FB0021304601F086
:100A300075FB069468040994CDE9070406A8FFF73E
:100A400013FF8DF8044000948DF80540029404943F
:100A5000074C8DF8145069462046FFF725FF012109
:100A60002046FFF7F7FE0CB070BD00000004024006
:100A70000021014008B504F0F3F9244C244E40F65F
:100A8000B83500900A21684605F018FB2068A84296
:100A900001DA401C20606068401C606000F0E6FCE9
:100AA00000F07CFF30680028ECD11A4890ED001A65
:100AB0001948D0ED000A194890ED000A00F054FAE8
:100AC000174890ED000ABDEEC00A10EE100A02F0C1
:100AD00021FB0028D6D1134BD3ED080A93ED070A6A
:100AE00000F0B2FE00EE100AB8EEC00A83ED060A6E
:100AF0000D4BD3ED080A93ED070A00F0EFFE00EE70
:100B0000100AB8EEC00A83ED060ABBE7A401002074
:100B10004401002084010020800100207C0100208D
:100B200090000020C85A0020F45A0020FEE7000080
:100B30001CB50121084601F0CDFA4FF480700090F9
:100B400001208DF8040000218DF8061003218DF896
:100B500005108DF807006946014800F021FC1CBD16
:100B6000000002402DE9FE4F0024D8B3D1B3CAB330
:100B7000C3B3401E491EC7B2CEB2521E5B1E02F066
:100B8000FF099DB20121082001F0A4FA01214806C5
:100B900001F0ACFA02218DF804104FF0030B4FF076
:100BA00000088DF806808DF805B04FF0010ACDF8E9
:100BB00000B08DF807A069464D4800F0F1FB09220E
:100BC00000214B4800F028FC09220121484800F090
:100BD00023FC4848C0F80080016841F00101016031
:100BE000021D09E0FFE70120BDE8FE8F641CA4B2EE
:100BF000642C01D90220F7E71168C907F6D03D48F7
:100C0000016801600168016001680160016841F0EC
:100C100010010160016801600168016035494346C7
:100C20001C31C1F80080D1F80080DDF830C048EAFE
:100C30008C7CC1F800C0D1F800C04CEA07670F6097
:100C40000F6847EA06560E600F6847EA09460E60CD
:100C50000E682E430E60016821F0010101604FF61D
:100C6000F07005E0641CA4B2844201D90320BBE704
:100C70001168C907F6D12048016841F001010160FF
:100C80001D491C310A6822F001020A601A4A0C321E
:100C9000146844F001041460021D14681460164ABC
:100CA000143214681460144A40321360121D136029
:100CB0000A6842F001020A60016803600D481430BE
:100CC000016841F00201016014208DF808008DF8E0
:100CD00009A08DF80AB08DF80BA002A800F09EFFC5
:100CE00001220221034800F0CFF800207CE7000039
:100CF000000C0240006400400066004010B588B05F
:100D000002A907A8CDE9000106AB05AA04A90020A5
:100D100000F070F80498A0F5807181394BD1294911
:100D200001209FED2F1A087027490020304C0870D1
:100D30002649087026490870264908702649087017
:100D4000264908709DF809009DF8081000EB012065
:100D500000B200EE100A2348F8EEC00A80EE810AC5
:100D600080ED000A9DF80B009DF80A1000EB0120B1
:100D700000B200EE900A1C48F8EEE00AC0EE811ABC
:100D8000C0ED001A9DF80D009DF80C1000EB01203D
:100D900000B200EE900A1549F8EEE01A097802292F
:100DA000C1EE810A09D000EE100AB8EEC00AC0EE0A
:100DB000010AC4ED000A08B010BD02F0F3FC84ED96
:100DC000000AF8E73F0100203C0100203E0100201E
:100DD0003D0100209C0100209D010020E401002035
:100DE00000007A447C010020800100202D010020B9
:100DF00084010020F0B5224CDDE9057504EB0014F8
:100E0000D4F8B06516F004061670D4F8B02532D0C8
:100E1000D2080A60D4F8B01501F002011970D4F8B4
:100E2000B41501F00F013970D4F8B8152970D4F851
:100E3000B815090A6970D4F8B815090CA970D4F866
:100E4000B815090EE970D4F8BC152971D4F8BC1591
:100E5000090A6971D4F8BC15090CA971D4F8BC153C
:100E6000090EE97148B1012804D10648016841F032
:100E700020010160F0BD520DCBE70248001FF5E7ED
:100E80000060004010640040002A426901D00A431B
:100E900000E08A434261704730B5034600200129D3
:100EA00008D10022094C03E0A55C6840521CD2B274
:100EB0009A42F9D3002908D1044A323203E0545C43
:100EC0006040491CC9B29942F9D330BD96590020FF
:100ED00070B50125144A154C242814D061780029D6
:100EE00016D0A1785054491CC9B20022A170232801
:100EF0000FD064290CD36270A270BDE870406421E9
:100F00000948FFF749BB6570A1785054491CA1708E
:100F100070BD62700449A270642201F16400FFF7A1
:100F2000EEFA2570E9E70000E8590020F8000020FB
:100F30000A4B0B4A002000EB8001194489793039B3
:100F40001154401CC0B20828F5D305490020C91E21
:100F5000087064210148FFF71FBB00004C5A0020B5
:100F6000FB000020704700001A4800B50078F0EE42
:100F7000401AB0EE0C2A04282BD11748184990EDDE
:100F8000000A1648D0ED000A164830EE200A60EE3E
:100F9000010AB0EE610AB6EE001A00EEC10A40EE98
:100FA000811AB0EE421A81ED080AC0ED081AF8EE77
:100FB0000C1AF0EE610A04F039FD81ED080A90ED9B
:100FC000080AB0EE421AF0EE610A04F02FFD80ED3F
:100FD000080A00BD2D01002090010020940100208E
:100FE000C85A0020F45A002010B5012000F024F85F
:100FF000012808D10021044801F0F8FFBDE81040A5
:10100000012000F013B810BD0004004010B504200A
:1010100000F012F8012808D10021800701F0E6FF56
:10102000BDE81040042000F001B810BD014908607F
:1010300070470000143C0140034A0146002012683A
:101040000A4200D001207047143C01401CB5012128
:10105000082001F03FF80820009000208DF80400DF
:1010600003208DF8050001208DF80700694602482D
:1010700000F096F91CBD0000000C0240F0B5012103
:1010800089B0084601F032F80121032001F022F86E
:1010900003258DF8055002264FF400408DF80460BA
:1010A00001242B4F00908DF806408DF807406946CB
:1010B000384600F075F98DF805508DF804608DF80C
:1010C00006408DF807400820224C009069462046D3
:1010D00000F066F901220F21384600F09DF9012247
:1010E0000321204600F098F902A801F0E7FF002450
:1010F0004FF6FF70ADF8084003907507ADF810404B
:10110000ADF80A4002A9284601F09AFF00231A46CA
:101110000321284601F0A7FD05A801F027FEADF840
:101120001C4005A9284601F0CBFD0121284601F00D
:101130007FFD01221146284601F020FE00212846AD
:1011400001F054FF0121284601F078FD09B0F0BDFF
:10115000000002400004024030B589B001210220A5
:1011600000F0C4FF0121022000F0B4FF3020039002
:1011700003208DF8110002208DF8100001208DF859
:101180001200224C8DF8130003A9204600F008F944
:1011900002220421204600F03FF9022205212046C8
:1011A00000F03AF9684601F089FF00244FF6FF701D
:1011B000174DADF800400190ADF80840ADF8024081
:1011C0006946284601F03CFF00231A4603212846C1
:1011D00001F049FD05A801F0C9FDADF81C4005A9C5
:1011E000284601F06DFD0121284601F021FD012274
:1011F0001146284601F0C2FD0021284601F0F6FE06
:101200000121284601F01AFD09B030BD000402405A
:101210000004004008B503F023FE0A4C0A4D00907C
:101220000121684604F04AFF94ED060A054800F0E3
:1012300033F895ED060A044800F02EF801F0D6F8D0
:10124000EEE70000C85A0020F45A002070B5114D96
:1012500000242DED028B4FF4B4769FED0C8ADFED68
:101260000C8A00EE104AB8EEC00A60EE080A80EE62
:10127000A80A03F0D9FA05EB8400641C80ED000A8B
:10128000B442EEDBBDEC028B70BD0000DA0F4940CA
:1012900000003443545B0020394910B5CA684FF050
:1012A000E0229269D1ED020A9FED361A364C40EEEB
:1012B000010A10EE903AC1ED020AA34205DB9FED50
:1012C000330A30EEC00A81ED020ACA6091ED020ACB
:1012D0004FF4B4719FED2F1AFDEEC00A30EE011AE3
:1012E00010EE902A92FBF1F301FB1322284BBDEE86
:1012F000C11A03EB8202D2ED000A11EE102A9FED13
:10130000261A92FBF1F430EE010A01FB142203EBE2
:101310008202BDEEC00AD2ED001A10EE102AB7EE1E
:10132000000A92FBF1F401FB142103EB810130EE82
:10133000801A91ED002ADFED190A71EE801A32EE63
:10134000000A61EE202AB6EE001A61EEA01A20EE25
:10135000200A62EE812A61EE811A20EE010AFCEE7B
:10136000E22AFCEEE11ABCEEC00A12EE903A11EE4F
:10137000902A10EE101A03824282818210BD000072
:10138000A4010020EC51B83E0000B4430000B44377
:10139000545B00200000F042000070430040034610
:1013A000F0B5002201274FF0030C0B6807FA02F595
:1013B0002B40AB422CD1066853000CFA03F4A64331
:1013C00006600E79D0F800E09E4046EA0E06066000
:1013D0000E79012E01D0022E12D18668A6438660B6
:1013E0004E79D0F808E09E4046EA0E0686604668D0
:1013F000AE43466045688E799640B6B23543456047
:10140000C568A543C560CC799C40C3681C43C460D3
:10141000521C102AC9D3F0BD4B07DB0E9A40C908F5
:1014200010B500EB8100016A0F249C40A1430162CA
:10143000016A1143016210BD0183704710B50A4C67
:101440000146072301222046FFF754FA2046FFF702
:101450008BFA02212046FFF720FA0028F9D0204617
:10146000BDE81040FFF716BA0020014010B5022079
:1014700000F0B6FE144C2060032000F0B1FE606066
:1014800094ED000A00EE900ADFED101AB8EEC00AE3
:101490000F48B8EEE01A60EE210A90ED000A0D4800
:1014A00021EE211A20EE802AD0ED000A0A4821EE12
:1014B000000AC2EE202A80EE201AC0ED072A074853
:1014C00080ED071A10BD0000F46000200000C84243
:1014D0008C01002088010020C85A0020F45A002006
:1014E0002DE9F04100250E4607462C4608E0384617
:1014F000FFF7A4FF0544052003F05CFC641CE4B284
:10150000B442F4D3B5FBF6F080B2BDE8F081FEE75B
:1015100070B50D4C0025C4F8A8520C48016821F4A0
:1015200040010160016841F480010160C4F8AC52DF
:10153000012004F52A7403F059FC0120206003F017
:1015400055FC256070BD0000008040420004024050
:101550001CB50121022000F0BDFD4FF440600124C4
:1015600000908DF8044000208DF8060003208DF8CF
:1015700005008DF8074069460448FFF711FF04484D
:10158000C0F8A842C0F8AC421CBD000000040240F4
:101590000080404270B50D4C0026C4F8A8620C488B
:1015A000016821F440010160016841F4800101609B
:1015B0000125C4F8AC52284604F52A7403F016FC41
:1015C0002560012003F012FC266070BD00804042BF
:1015D000000402402DE9F0478146184800250168C3
:1015E00021F44001016001680160154E2C462F4630
:1015F0004FF00108C6F8A872012003F0F7FBC6F807
:10160000A8826806D6F82C12000E11B140F0010530
:1016100001E020F00105012003F0E8FB641CE4B2C6
:10162000082CE7D3B9F1000F04D0FFF7B3FF284629
:10163000BDE8F087FFF76CFFF9E700000004024007
:101640000080404270B50D46044600F01BF820466D
:1016500000F0B0F800F05EF8284600F0ABF800F0BB
:1016600059F800F00FF844F0010000F0A3F800F082
:1016700051F80120FFF7AEFF044600F02BF820469A
:1016800070BD000070B51148016821F4400101608F
:10169000016841F4800101600D4C0120C4F8AC02E6
:1016A000D4F82C1200290FD0C4F8A80203F09EFB36
:1016B0000025C4F8AC52D4F82C02002804D1012033
:1016C00003F094FBC4F8A85270BD0000000402406F
:1016D000008040420D4810B5016821F440010160CE
:1016E000016841F480010160094C0020C4F8A8029F
:1016F000C4F8AC02012004F52A7403F077FB012042
:1017000020606060BDE8104003F070BB0004024040
:101710000080404270B512480024016821F4400165
:101720000160016801600F4D0126C5F8AC623046CA
:1017300003F05CFBC5F8A86207E0641CE4B2322C3D
:1017400003D9FFF7C7FF002070BD012003F04EFB57
:10175000D5F82C020028F0D1C5F8A802012070BDF0
:1017600000040240008040422DE9F0411D4614462D
:101770000F468046069EFFF765FF621CFF21C4F1FD
:10178000080301FA02F22B445B1ED9400A43C5F15B
:1017900008018E40D2B2F1B2C4F10703D940104023
:1017A00040EA01023946404600F034F80120BDE825
:1017B000F08100002DE9F04105461448016821F44C
:1017C00040010160016841F480010160104E002772
:1017D000C6F8A8723C464FF00108E809C6F8AC020A
:1017E0006806050E012003F001FBC6F8A88201205F
:1017F00003F0FCFAC6F8A872012003F0F7FA641CA3
:10180000E4B2082CE9D3BDE8F081000000040240F6
:101810000080404270B515460E460446FFF732FF81
:101820002046FFF7C7FFFFF775FF3046FFF7C2FFFF
:10183000FFF770FF2846FFF7BDFFFFF76BFFFFF7CD
:1018400049FF012070BD000030EEC00AF1EE0C0A25
:101850001A481C4960EE200A90ED001A18481B4AED
:1018600080EE810AD0ED060A91ED001A164970EE5D
:10187000600A60EE810A91ED001A41EE000A90EDD7
:10188000051A70EE810A10EE901AC0ED050A914219
:1018900003DDDFED0F0AC0ED050A10EE901A0D4AC8
:1018A000914203D9DFED0C0AC0ED050A80ED060A6E
:1018B000BDEEE00A10EE100A704700008C01002017
:1018C000A4010020340100203801002000006943F9
:1018D00000006943000069C3000069C330EEC00A1C
:1018E000F1EE0C0A1A481C4960EE200A90ED001A2D
:1018F00018481B4A80EE810AD0ED090A91ED001AC2
:10190000164970EE600A60EE810A91ED001A41EE10
:10191000000A90ED081A70EE810A10EE901AC0EDE0
:10192000080A914203DDDFED0F0AC0ED080A10EE50
:10193000901A0D4A914203D9DFED0C0AC0ED080A56
:1019400080ED090ABDEEE00A10EE100A70470000B3
:101950008C010020A4010020340100203801002067
:101960000000694300006943000069C3000069C3C7
:101970001CB50121102000F0ADFB00218DF80410F2
:10198000032101208DF8051000908DF807006946AD
:101990000148FFF705FD1CBD001002402DE9F05F76
:1019A000322003F0A1F93D4D0446DFF8F4B0286879
:1019B0003C4E3D4F4FF000084FF496794FF4FA7AC1
:1019C00001282ED1012C30D19BF80000401CC0B260
:1019D0008BF8000015285FD1344AC5F800804046D6
:1019E000C2F8A082324A8BF800801E21C2F8009013
:1019F000304AC2F800A0C6F814A0C6F810A0C6F875
:101A00000CA0C6F808A0C6F804A0C6F800A0C7E954
:101A10000408F860B860786038600122264801F058
:101A2000ADF9286850B3012836D1022C34D11F49B2
:101A3000C5F800804046C1F8A0821D4A8BF800809E
:101A4000C2F800901B4AC2F800A0C6F814A0C6F85D
:101A500010A0C6F80CA0C6F808A0C6F804A0C6F8E6
:101A600000A0C7E90408F860B86078603860BDE895
:101A7000F05F01221E21104801F080B9022C0BD129
:101A80000F490E480A680260898881800E490D4816
:101A90000A68026089888180BDE8F09F44010020C7
:101AA000500100205C010020B05A0020000040429C
:101AB00054010020580100200004014014010020BE
:101AC0001A01002020010020260100207CB5012100
:101AD000084600F0FFFA01208DF8040000228DF87E
:101AE000062003218DF80510074D4FF480548DF822
:101AF0000700009469462846FFF752FC2146284615
:101B0000FFF79AFC7CBD000000000240BC2801D316
:101B1000012210E0622801D302220CE02A2801D31E
:101B2000032208E0142801D3042204E00A2801D388
:101B3000052200E006221A21D020FFF76BBE10B567
:101B400004464FF47A70844201D9044602E0042C22
:101B500000D20424B0FBF4F0401EC2B21921D02000
:101B6000FFF758FE6008BDE81040FFF7CFBF10B583
:101B700080226B21D020FFF74DFEC82003F01AF918
:101B800000226B21D020FFF745FE012000F03AF83B
:101B9000002000F02EF83220FFF7D1FF002238217C
:101BA000D020FFF737FE00226A21D020FFF732FE57
:101BB00000222321D020FFF72DFE80223721D020C4
:101BC000FFF728FE7521D020FFF73CFD682801D0E3
:101BD000012010BD01226B21D020FFF71BFE002247
:101BE0006C21D020FFF716FE3220FFF7A8FF00205F
:101BF00010BD08B50223009004221C21D020FFF75D
:101C0000B3FD08BD08B50223009004221B21D0209B
:101C1000FFF7AAFD08BDFEE77047000030B50F23AF
:101C2000C27801780125FAB1144A126801F1E02165
:101C300002F4E062C2F5E062C2F30722C2F10404DA
:101C4000D3404278A24084781C401443220181F89A
:101C50000024007800F01F018D404009800000F151
:101C6000E020C0F8005130BD01F01F008540480958
:101C7000800000F1E020C0F8805130BD0CED00E0A4
:101C80000249084302490860704700000000FA0555
:101C90000CED00E010B40021084B0A46002003EBD5
:101CA000C004401CC0B262548028F8D3491CC9B299
:101CB0000829F3D310BC00F09BB800004C5500205D
:101CC0007CB50121082000F005FA01268DF804609A
:101CD00000244FF4F0408DF8064000908DF8054048
:101CE0008DF8074069464048FFF75AFB0121080775
:101CF00000F0FCF9012000F0E7F9002000F062FAA2
:101D0000002000F0E1F9394DC5F8B042642005F536
:101D10002C7503F04FF82E600021AE2000F08CF8F7
:101D20000021D52000F088F80021502000F084F830
:101D30000021A82000F080F800213F2000F07CF86E
:101D40000021D32000F078F80021084600F074F854
:101D50000021402000F070F800218D2000F06CF888
:101D60000021142000F068F80021202000F064F821
:101D70000021022000F060F80021A12000F05CF8B2
:101D80000021C02000F058F80021DA2000F054F8BB
:101D90000021122000F050F80021812000F04CF8C2
:101DA0000021EF2000F048F80021D92000F044F88D
:101DB0000021F12000F040F80021DB2000F03CF889
:101DC0000021302000F038F80021A42000F034F881
:101DD0000021A62000F030F80021AF2000F02CF800
:101DE000FFF758FF7CBD0000000C0240008041421C
:101DF00070B5104E002505F1B000C0B2002100F012
:101E00001BF80021084600F017F80021102000F010
:101E100013F8002406EBC4000121405D00F00CF82B
:101E2000641CE4B2802CF5D36D1CEDB2082DE2D316
:101E300070BD00004C55002030B500230E4A01242F
:101E400011B1C2F8AC4201E0C2F8AC320021C2F8D4
:101E5000B832050602D5C2F8B44201E0C2F8B43285
:101E6000C2F8B8424006491C000EC9B20829EED398
:101E7000C2F8AC4230BD0000008041422DE9F84379
:101E800001250746ADF800501B4800264670ADF806
:101E900000501A4C80464FF6FF7924E0BDF8000050
:101EA000384202D0C4F8B05201E0C4F8B062C4F8BD
:101EB000A052052002F09AFFC4F8A062052002F0AB
:101EC00095FFC4F8A052D4F83C0230B198F8011044
:101ED000BDF80020114388F80110BDF8001009EA90
:101EE0004100ADF80000BDF80000FF28D6D9BDE8DC
:101EF000F843102002F07ABF4C5900200000424203
:101F000010B5154C0020C4F8A802102004F52A745E
:101F100002F06CFF0120FFF7B1FF4320FFF7AEFF97
:101F20000020FFF7ABFF0120FFF7A8FF0020FFF71D
:101F3000A5FF0020FFF7A2FF0020FFF79FFF002072
:101F4000FFF79CFF0020FFF799FF01202060BDE80C
:101F50001040102002F04ABF0000424210B5154C5C
:101F60000020C4F8A802102004F52A7402F03EFFF5
:101F70000120FFF783FF4320FFF780FF0020FFF7DA
:101F80007DFF0020FFF77AFF5A20FFF777FF5A20E6
:101F9000FFF774FF5A20FFF771FF5A20FFF76EFF1B
:101FA0005A20FFF76BFF01202060BDE81040102091
:101FB00002F01CBF000042427CB50121102000F05D
:101FC00089F84FF40040002400908DF8044003206D
:101FD0008DF805000C4E02258DF8075069463046F5
:101FE000FFF7DEF901218DF804108DF806404FF45B
:101FF000A8508DF8055000908DF8071069463046BE
:10200000FFF7CEF97CBD00000010024010B500F0D3
:102010000DF800F00BF800F009F8FFF771FF00F081
:1020200027F8BDE81040FFF799BF000010B50F4C2E
:102030000020C4F8A802102004F52A7402F0D6FE8D
:102040000120FFF71BFF4220FFF718FF0020FFF7DA
:1020500015FF0020FFF712FF0020FFF70FFF012000
:102060002060BDE81040102002F0C0BE00004242D7
:1020700010B5144C0020C4F8A802012004F52A74FD
:10208000FFF7FCFE4420FFF7F9FE0020FFF7F6FE05
:102090000120FFF7F3FE0320FFF7F0FE0020FFF71B
:1020A000EDFE0020FFF7EAFE0020FFF7E7FE00202C
:1020B000FFF7E4FE01202060BDE81040102002F090
:1020C00095BE0000000042420149086270470000CE
:1020D00000000E42044A0029116801D0014300E0CB
:1020E000814311607047000030380240044A0029E3
:1020F000116801D0014300E0814311607047000086
:1021000040380240044A0029116801D0014300E030
:10211000814311607047000044380240044A00299E
:10212000116801D0014300E0814311607047000055
:102130002438024070B5204B1968204C11F00C0176
:1021400004D06610042903D0082903D004601BE0E2
:10215000066019E0184A121F1168C1F38055116812
:1021600001F03F0115B1B6FBF1F101E0B4FBF1F173
:1021700014681268C4F388146143C2F30142521C0C
:102180005200B1FBF2F1016019680F2202EA11114D
:102190000B4A545C0168E14041601C68072505EA70
:1021A0009424145D21FA04F484601B6805EA533317
:1021B000D25CD140C16070BD083802400024F400F8
:1021C00000000020054900220A700A70012802D090
:1021D000042801D1052008707047000070380240C3
:1021E0000021022803D0032807D0002070474FF0B9
:1021F0008042506A516200B27047024A1068116012
:1022000000B270472404004010B551EC100B2DEDC6
:10221000068BB0EE439AF0EE629AB0EE42AAF0EE70
:10222000618AB0EE418A04F057FFBDEECA0A154933
:1022300010EE102ABDEEE90A086081ED018A10EE69
:10224000103AC1ED058AC1E9022381ED049A990093
:10225000514300EE101A0C49B8EEC00A81ED000A95
:102260009FED0A0A0A4929EE000A81ED000A094990
:102270000860094880ED008A0848C0ED008ABDEC7E
:10228000068B10BD0461002088010020DB0F49404F
:102290008C01002090010020940100209801002072
:1022A00070B51B4C4FF4AD700A2120600920FFF778
:1022B00017F92168174D90FBF1F004242C709FED65
:1022C000163ADFED162AB7EE002ADFED151A9FED5C
:1022D000151A9FED150BFFF797FF2D78082314486B
:1022E00014490722062D0ED2DFE805F003060E0E74
:1022F0000A0E03600E2005E0062202600A2001E0BB
:1023000003600B20086070BD04600A6070BD0000AF
:10231000780100202D0100208FC2753D000080440F
:1023200000000000E7FB293E000000C07268C13FCA
:10233000480100204C0100200CB5002227490092E2
:102340000192086840F4803008604FF4A0430868A8
:1023500000F4003001900098401C0090019810B9E2
:1023600000989842F3D10868800334D50120019089
:102370001A484030026842F08052026018480268F1
:1023800042F4404202601548083002680260026868
:1023900042F400420260026842F4A0520260031F4D
:1023A000104A1A600A6842F080720A600A68920154
:1023B000FCD50D4940F205720A60016821F0030165
:1023C0000160016841F0020101600168C1F381010F
:1023D0000229FAD10CBD01920CBD00000038024068
:1023E0000070004008544007003C024070B50F4C9C
:1023F0000F4D218A284600F0F1FD618A284600F041
:10240000EFFD0C4DA18A284600F0EEFD0A4C28464F
:10241000218A00F0E3FD618A284600F0E1FDA18AEF
:102420002846BDE8704000F0DDBD0000C85A00201D
:102430000008004000040140F45A00204FF0E02161
:102440000428086903D020F004000861704740F0B8
:102450000400FAE710B504F0D7FB012803D0BDE86B
:10246000104004F0C5B810BD124810B5016841F421
:10247000700101601048016841F0010101600E4ADD
:1024800000210832116002680C4B1A400260031DE3
:102490000B4A1A60026822F48022026006480C305F
:1024A0000160FFF749FF03494FF000608039086081
:1024B00010BD000088ED00E000380240FFFFF6FE8E
:1024C0001030002470B5048C24F001040484058BC2
:1024D000048C4FF6FF7606EA0313134325F0F30549
:1024E0002B4324F00A020A4342F0010103830184D2
:1024F00070BDF0B5048C24F010040484078B068CA6
:102500004FF6FF7404EA011527F4734704EA033118
:10251000394304EA02220A4326F0A001294341F08C
:10252000100102830184F0BD2DE9F0418846064682
:102530008AB001214020FFF7D9FD01210220FFF7D9
:10254000C9FD02208DF818004FF44040059003208B
:102550008DF819000024264F8DF81A4001258DF8BA
:102560001B5005A93846FEF71BFF09220E213846ED
:10257000FEF752FF09220F213846FEF74DFF08965D
:102580001C4EADF81C80ADF82440ADF81E4007A9E4
:10259000304600F055FD6020ADF80000ADF8025067
:1025A0000294ADF80C40ADF810406946304600F09A
:1025B000F3FB6946304600F02BFC0821304600F062
:1025C00021FC0821304600F06DFC0121304600F06E
:1025D0003FFB0121304600F031FB064940F2DC5060
:1025E00038310860091F08600AB0BDE8F0810000BA
:1025F00000040240001800404FF08040018A018A28
:1026000021F001010182704703480188018821F00F
:1026100001010180704700001004004030B58BB00C
:1026200001210420FFF762FD01210220FFF752FD86
:10263000C020089002208DF8240003208DF825008A
:1026400000242C4D8DF826408DF8274008A92846F7
:10265000FEF7A6FE022206212846FEF7DDFE022234
:1026600007212846FEF7D8FE234D284600F08EFBB2
:10267000ADF814402020ADF8160042F2CF000690CD
:10268000ADF81C408DF81E4005A9284600F0D8FC86
:102690006020ADF800000120ADF802000420ADF884
:1026A00004008001ADF81000ADF80C400294ADF8C4
:1026B0000E40ADF812406946284600F06DFB6946B1
:1026C000284600F0A5FB0821284600F09BFB0821C6
:1026D000284600F0E7FB0121284600F085FA012199
:1026E000284600F0B5FA0121284600F0A7FA0BB001
:1026F00030BD000000040240000800402DE9F04712
:102700008E4800248169B1F5C86F13DD8C490A78C1
:1027100082B98C4A1268B2F57A7F0BDB01220A700B
:1027200089490C7089490C7089490C7089490C7071
:1027300089490C7080460078884D000642F20F7679
:102740004FF4FA772DD40221284600F0ADFA40B3B9
:102750000221284600F06FFA98F80000400628464B
:102760003DD500F099FA80B2A8F80600B8F8041038
:102770004246884201D2566300E05463401A516BCE
:1027800008445061516A401A00D54042B84200DD09
:1027900051615069506288F800400021284600F0DD
:1027A0002BFB98F8010000063AD40421284600F0DB
:1027B0007BFAA8B30421284600F03DFA98F80100FE
:1027C000400628464AD500F069FA80B2A8F80A0007
:1027D000B8F80810424688420ED296630DE000F029
:1027E0005BFA0146A8F8041098F8001041F0400187
:1027F00088F800100221D1E79463401A916B0844D5
:102800009061916A401A00D54042B84200DD916162
:102810009069906288F801400021284600F038FB5A
:1028200098F8020000063AD40821284600F03CFA45
:10283000A8B30821284600F0FEF998F802004006E7
:1028400028464BD500F02CFA80B2A8F80E00B8F854
:102850000C10424688420ED2D6630DE000F01EFAFC
:102860000146A8F8081098F8011041F0400188F8D6
:1028700001100221D1E7D463401AD16B0844D06122
:10288000D16A401A00D54042B84200DDD161D0691A
:10289000D06288F802400021284600F04BFB98F8EF
:1028A0000300C146000647D41021284600F0FCF979
:1028B000002841D01021A846284600F0BCF999F81C
:1028C00003004D4640062BD5404600F0EBF980B2A0
:1028D0006882298A88420ED22E640DE000F0E0F969
:1028E0000146A8F80C1098F8021041F0400188F851
:1028F00002100221D0E72C64401A296C0844286297
:10290000296B401A00D54042B84200DD2962286A8E
:102910002863EC7000214046BDE8F04700F04ABB58
:102920004446404600F0BEF92882E878022140F093
:102930004000E8702046EFE7BDE8F087A8000020DF
:102940003E010020040100203D0100203C01002048
:102950003F0100209C0100209D0100200004014057
:102960002DE9F041884605468AB001210220FFF793
:10297000C9FB01210420FFF7ADFB4FF47070022664
:1029800003908DF8106003208DF811000024414F52
:102990008DF812408DF8136003A93846FEF700FD4C
:1029A000032206213846FEF737FD03220721384669
:1029B000FEF732FD032208213846FEF72DFD0322E3
:1029C00009213846FEF728FD334FADF814800695EF
:1029D000ADF81C40ADF8164005A9384600F030FBB4
:1029E00001250F20ADF80040ADF80450ADF8080007
:1029F000ADF80240ADF806406946384600F060F98F
:102A00000420ADF80000ADF80450ADF80240ADF878
:102A10000640ADF808406946384600F051F90820F4
:102A2000ADF80000ADF80450ADF80240ADF8064036
:102A3000ADF808406946384600F042F90C20ADF880
:102A40000000ADF80450ADF80240ADF80640ADF816
:102A500008406946384600F033F92E208DF82000F2
:102A60008DF821608DF822608DF8235008A8FFF7BB
:102A7000D5F801221E21384600F080F901213846A0
:102A800000F0E6F80121384600F0D8F80AB0BDE8B9
:102A9000F0810000000802400004014070B58EB0D3
:102AA00001210220FFF72EFB01210420FFF712FB7A
:102AB0004FF470700C9002208DF8340003208DF8D4
:102AC00035000024424D8DF836408DF837400CA972
:102AD0002846FEF765FC032206212846FEF79CFCEB
:102AE000032207212846FEF797FC032208212846E7
:102AF000FEF792FC032209212846FEF78DFC354E95
:102B0000304600F043F9ADF824402020ADF826000F
:102B100042F2CF000A90ADF82C408DF82E4009A962
:102B2000304600F08DFA6020ADF800000120ADF8CD
:102B3000020004208501ADF80400ADF80C40ADF8AA
:102B400010500294ADF80E40ADF8124005A800F008
:102B500066F81F20ADF81A00E800ADF81400401028
:102B6000ADF81600ADF81850ADF81C4005A9304678
:102B700000F044F86946304600F00EF969463046E8
:102B800000F046F96946304600F096F9694630464D
:102B900000F0E0F90821304600F034F90821304611
:102BA00000F080F90821304600F0CEF908213046C7
:102BB00000F00AFA0121304600F016F801213046F3
:102BC00000F046F80121304600F038F80EB070BD34
:102BD00000080240000401400248018821F0010180
:102BE00001807047100401400029018802D041F0A3
:102BF000800101E021F080010180704710B50A8852
:102C00004B88CC881A438B8823431A430B891A4379
:102C10004B8989891A430A43A0F8442010BD00213A
:102C2000018041808180C180018141818181704723
:102C3000C94301827047C943018270470029018856
:102C400002D041F0010101E021F001010180704753
:102C5000002930F8441F02D041F4004101E0C1F3E3
:102C60000E010180704770B50589048B068C25F034
:102C700007050D434FF6FC410C4040F201110C4397
:102C80004FF6FF7101EA031126F02206114331438A
:102C900005810483018470BD406B7047806B704771
:102CA000C06B7047006C704702460020138A9289FF
:102CB0000B4202EA010202D0002A00D00120704734
:102CC0002DE9F0410C460E884988A28823890546E3
:102CD00016B3042E28D0082E2E8C4FF6FF702BD062
:102CE00026F480562E84AF8B2E8C00EA022200EA56
:102CF000013127F473473A4300EA0330104326F4C6
:102D000020420A4342F48051A8832984E18828465E
:102D1000BDE8F04100F088B9FFF7D4FBE188284610
:102D2000BDE8F04100F064B9FFF7E3FBE188284615
:102D3000BDE8F04100F064B926F480762E84AF8BB4
:102D40002E8C00EA012100EA0310104327F0F3075C
:102D5000384326F420620A4342F48071A883298410
:102D6000E1882846BDE8F04100F056B90021018015
:102D7000418001228280C18001817047002A8289BE
:102D800001D00A4300E08A4382817047018921F023
:102D9000070101817047000030B5028C22F001026A
:102DA0000284028C8388048B22F0020224F07305D3
:102DB0000C882C438D8915434A882A430C4DA84220
:102DC00002D00C4DA8420DD122F00805CA8923F487
:102DD00040732A4322F004058A882A430D8A1D4342
:102DE0004B8A2B438380048389684163028430BD0E
:102DF0000000014000040140028C22F002020A435C
:102E000002847047028B22F008020A430283704753
:102E100070B5028C22F010020284028C8388048B2D
:102E20000D8824F4E6464FF6FF7404EA0525354381
:102E30008E8922F0200204EA061616434A8804EA24
:102E400002123243104EB04202D0104EB04215D1A1
:102E500022F08006CA8923F4406304EA0212324356
:102E600022F040068A8804EA021232430E8A04EAFB
:102E700086061E434B8A04EA83033343838005831B
:102E800089688163028470BD000001400004014034
:102E9000028C4FF6FF7322F0200203EA0111114366
:102EA00001847047028B4FF6FF7322F4006203EA3D
:102EB000012111430183704770B5028C22F48072A6
:102EC0000284028C8388848B0D8824F0730425434C
:102ED0008E894FF6FF7422F4007204EA0626164328
:102EE0004A8804EA02223243104EB04202D0104E09
:102EF000B04215D122F40066CA8923F4405304EA93
:102F00000222324322F480668A8804EA0222324393
:102F10000E8A04EA06161E434B8A04EA031333435F
:102F2000838085838968C163028470BD000001408D
:102F300000040140028C4FF6FF7322F4007203EA92
:102F40000121114301847047828B22F008020A4359
:102F50008283704770B5028C22F480520284058C03
:102F60008288838B0C8823F4E6464FF6FF7303EACE
:102F70000424344325F400568D8903EA053535438E
:102F80004E8803EA06362E43084DA84202D0084D6B
:102F9000A84205D122F480450A8A03EA82122A4314
:102FA0008280848389680164068470BD00000140CA
:102FB00000040140028C4FF6FF7322F4005203EA32
:102FC0000131114301847047828B4FF6FF7322F465
:102FD000006203EA01211143818370474163704716
:102FE00081637047C16370470164704741627047F5
:102FF000028B22F00C020283028B0A430283704789
:10300000028B22F440620283028B4FF6FF7303EAC5
:1030100001210A4302837047828B22F00C028283D3
:10302000828B0A4382837047828B22F440628283C0
:10303000828B4FF6FF7303EA01210A4382837047B4
:1030400030B50288164C174DA0420DD0A8420BD0C7
:10305000B0F1804F08D0144B984205D0134B9842E2
:1030600002D0134B984203D122F070034A881A43CE
:10307000104B984206D0104B984203D022F4407374
:103080000A891A4302804A68C2620A880285A042FD
:1030900001D0A84201D1897A01860121818230BD07
:1030A000000001400004014000040040000800400E
:1030B000000C004000100040001400404FF0FF31B1
:1030C00041600021018001814180817270470000D0
:1030D0001CB54FF4E13002F0BBFD06A0D0E90010B2
:1030E000CDE900106846FDF7EBF981B2684600F0C3
:1030F000A9FA1CBD24302C302C31230008B501F076
:10310000AFFE00900521684602F0D8FFFDF710FFE2
:10311000F8E700000A2805DB0A480078012801D0FA
:1031200000207047084A012000211160121D116023
:10313000064A1160121D1160121D1160121D1160EE
:10314000704700002C010020340800403404014086
:1031500070B50C4D40F225542146284600F08FFAF8
:1031600070B109480068B0F57A7F09DB284600F0A5
:1031700013FBC0B2FDF7ACFE2146284600F06FFA03
:10318000002070BD00500040A401002070B5334DF8
:1031900040F22551284600F072FA002856D000244B
:1031A0000126284600F0F8FAC1B22D480068B0F5B3
:1031B0007A7F4BDB2C4B2B4D002218787B2929542E
:1031C00000D028B1401CC0B218700B2802D03DE0DE
:1031D0001A703BE01A70A87A7D2837D10020295C4C
:1031E000401C4C400928FADB687AA04200D06EBB34
:1031F0001E48017849B9012101701D4802701D481F
:1032000002701D4802701D4802701D480270297925
:10321000E87800F01DFB1B4C84ED000AA979687961
:1032200000F016FB184880ED000A297AE87900F0D2
:103230000FFB1648164EF0EE400A0078022807D021
:10324000297AE87900F004FB86ED000A002070BDC1
:1032500094ED000A00F0A6FAF6E700000010014025
:10326000A401002058590020EC0000209C010020FF
:103270003D0100203C0100203E0100203F010020D4
:10328000E40100207C010020800100202D010020AD
:10329000840100202DE9F04140F225512DED048BF1
:1032A000834800F0ECF900280FD08148001D008809
:1032B00080490968B1F57A7F07DB7F494FF0020842
:1032C0000A68012112B1012A70D0EBE000247B4D85
:1032D000412810D12A79412A0DD1794A137853B95E
:1032E000784B1C70784B1C701170784A1470784AB7
:1032F0001470784A1470C3B2774A784FDFF8E0C18F
:10330000784E2B714B2808D0492808D04A2806D07F
:1033100036782EB1012E0BD01EE031700CE03470E7
:10332000A0F14106072E26D9082814DC137013E0FB
:10333000432809D047280BD03C708CF80040412826
:1033400019D0452817D006E03C708CF8001002E038
:1033500039708CF8004014709FED630A634A9FED4A
:10336000649A644E58280AD059280DD07B2817D06B
:103370007D281CD00EE0A0F140061670ECE7D6EDDB
:10338000000A30EE800A03E0D6ED000A30EEC00AF3
:1033900086ED000A6878012803D0022809D060E091
:1033A0006970A8781354401CA8705AE063E085F84F
:1033B0000180D078502806D05078232848D0A878AB
:1033C000E87090462AE04C48017041E0A978081A5C
:1033D00004F0C8F841EC110B9FED480B00F0FCFB2A
:1033E000EF78B0EE408A08EB0700F0EE608A10F844
:1033F000010C303804F0B6F853EC182B04F006F941
:1034000041EC180BA86804F0F7FB53EC182B03F001
:1034100095FE03F061FE7F1EA860EF70E878042837
:10342000D4D298F801003038032811D2DFE800F038
:1034300002070B0095ED020A86ED000A08E095ED03
:10344000020A304802E095ED020A2F4880ED000A9A
:103450006C70AC70EC7085ED029A32212348FDF758
:103460009BF896ED000AB5EEC00AF1EE10FA19D2FB
:1034700086ED009A16E0254A412808D0432808D056
:10348000452809D0472809D05A2809D00AE01170E8
:1034900008E082F8008005E0032002E0042000E05C
:1034A000052010700020BDEC048BBDE8F081000009
:1034B000004400400401002044010020EC000020F2
:1034C0003D0100203C0100203E0100203F01002082
:1034D0009C0100209D010020400100209E01002051
:1034E0009F010020A00100200000C8426359002075
:1034F0000000000030010020A101002000000000B9
:103500000000244034010020380100207501002013
:1035100070B5394C40F22551204600F0B0F8002833
:1035200068D0204600F038F93449C0B20968B1F5D6
:103530007A7F5FDB32490024096811B101294DD03F
:1035400058E0314A2F4D7B285179685400D029B179
:10355000491CC8B250710B2802D04BE0547149E0AD
:103560005471A87A7D2845D100210920FDF794FCEB
:10357000697A88423ED12548047025480470254860
:1035800004702548047025480470254804702548B7
:1035900004702979E87800F05BF9234C84ED000A87
:1035A000A979687900F054F9204880ED000A297A59
:1035B000E87900F04DF91E481E4EF0EE400A007802
:1035C000022806D0297AE87900F042F986ED000A4F
:1035D00010E094ED000A00F0E5F8F7E7174A164B03
:1035E00023281178585403D15C54154B01201870CE
:1035F000491C1170002070BD00480040A40100204B
:1036000044010020C8590020EC0000203C010020AB
:103610003E0100203D0100203F0100209C010020D0
:103620009D010020E40100207C0100208001002099
:103630002D01002084010020205B00207401002067
:10364000A201002010B50C460346002204E0985C5D
:1036500002F06CFB521C92B2A242F8D310BD0A0ACF
:1036600001219140C943018070470029818902D01E
:1036700041F4005101E021F400518181704770B59F
:1036800001F01F0501260024C1F3421306FA05F2DA
:10369000012B0FD0022B0FD0838A4FEA1121008813
:1036A000134206FA01F600EA060001D000B1012437
:1036B000204670BD8389F0E7038AEEE710B5C1F3B9
:1036C000421301F01F040121A140012B07D0022B5E
:1036D00007D01430002A026805D00A4304E00C30F9
:1036E000F8E71030F6E78A43026010BD7FB5044664
:1036F000008A0D46C98820F4405001432182A089E8
:1037000041F20C618843A9882A8911436A890243DE
:103710001143A181A08A20F44071A8890843A082A6
:103720006846FEF707FD1A48844202D019488442D1
:1037300001D1039800E00298A189090400EBC001BF
:1037400001EB0010296801D5490000E08900B0FBB9
:10375000F1F06422B0FBF2F109010B096FF01805DA
:103760006B4300EB8300A3891D044FF0320306D5A1
:1037700003EBC000B0FBF2F000F0070005E003EB44
:103780000010B0FBF2F000F00F00084320817FBD75
:1037900000100140001401408088C0F30800704709
:1037A000FEE7000010B52DED048BB0EE608AB0EEA0
:1037B000409ADFED238AB5EEC08AF1EE10FA3CD0D4
:1037C000B5EEC09AF1EE10FA37D089EE080A01F092
:1037D00033FBB4EEE80AF1EE10FA0FD8B5EEC08A6A
:1037E000F1EE10FAB0EE490A02DD01F025FB03E02C
:1037F00001F022FBB1EE400A80EE288A1148B6EEB5
:10380000001A90ED000A1048C9EE080A40EE010ABD
:1038100090ED001A81EE200A10EE100A04F0ECF987
:1038200041EC100B00F06CF851EC100B03F054FC61
:1038300000EE100ABDEC048B10BD9FED040AF9E701
:103840003333B33E900100209401002000000000BB
:1038500070B501EB002004B24FF47A7594FBF5F0DB
:1038600005FB10402DED028B03F07CFE9FED0B1B42
:1038700053EC112B03F0CAFE41EC180B94FBF5F04E
:1038800003F070FE53EC182B03F058FC03F024FCFB
:10389000BDEC028B00EE100A70BD0000FCA9F1D255
:1038A0004D62503F03B401984100009850EAC12096
:1038B00018BF04204A0D18BF40F0010040F2FF720B
:1038C000B2EB515F08BF40F00200012808BF05209D
:1038D00002B070474100080218BF04200A0E18BF4A
:1038E00040F001004FF07F4232EA010108BF40F092
:1038F0000200012808BF05207047000000000000FA
:1039000070B59B482DED020B2DED068B079D25F024
:103910000044A04218DC9748844202DC0AD1069891
:1039200040B19DED060BBDEC068B02B0BDE87040CA
:1039300001F0D6B8002DCCBF9FED8F0B9FED900B03
:10394000BDEC068B02B070BD8F48A04215DD8F48DC
:10395000A042D8BF4FF0FF3458DD9DED060B51EC6F
:10396000100BFFF79FFF042808BF01F0EDF89DED55
:10397000060BBDEC068B02B070BD9DED060B51EC45
:10398000100B01F04DFACDE9060181489FED828BC5
:10399000A0423CDD8248A0421FDD00249FED82ABA7
:1039A0009DED060B53EC1A2B51EC100B03F0C6FBEC
:1039B0009DED060B41EC190B53EC1A2B51EC100B3F
:1039C00003F024FE53EC182B04F02CF853EC192BC5
:1039D00003F070FCCDE9060149E09DED060B0124E2
:1039E00053EC182B51EC100B03F0A8FB9DED060BCC
:1039F00041EC190B53EC182B51EC100B04F012F89E
:103A000053EC192B03F056FCCDE906012FE0684872
:103A1000A0421FDD02249FED689B9DED060B53EC39
:103A2000192B51EC100B03F0F1FD53EC182B03F0A4
:103A300085FB9DED060B41EC180B53EC192B51EC5B
:103A4000100B03F0EFFF53EC182B03F033FCCDE920
:103A500006010CE09DED060B032453EC102B9FEDAB
:103A6000580B51EC100B03F025FCCDE906019DED40
:103A7000060B53EC102B51EC100B03F0C7FD41EC7F
:103A8000180B53EC182B03F0C1FD41EC190B4E48F9
:103A90000621B0EE490AF0EE690A784400F08CFF86
:103AA00053EC182B51EC100B03F0B0FD41EC180B4C
:103AB0004648B0EE490AF0EE690A0521784400F064
:103AC0007BFF53EC192B51EC100B03F09FFD41ECE5
:103AD000100B51EC180B53EC102B002C0EDA03F0EA
:103AE0002DFB9DED061B53EC112B03F08FFD9DED7F
:103AF000061B53EC112B03F0BDFE35E003F01EFB5B
:103B00009DED061B53EC112B03F080FD41EC100BD7
:103B10002F48784400EBC40090ED001B51EC100BD3
:103B200053EC112B03F07EFF9DED061B53EC112B84
:103B300003F078FF41EC100B2648784400EBC400FA
:103B400090ED001B51EC100B53EC112B03F092FE87
:103B500041EC100B002DA2BFBDEC068B02B070BD76
:103B600051EC100B03F0ACFA41EC100B01E7000034
:103B7000000010440000F07F182D4454FB21F93F51
:103B8000182D4454FB21F9BF0000DC3F0000203E0B
:103B90000000F33F00000000000000000000F03FC4
:103BA0000000E63F000000000000000000000040B0
:103BB0000080034000000000000000000000F83F0B
:103BC000000000000000F0BFAA43000060430000B6
:103BD000EA420000A24200002DE9F04D2DED040B59
:103BE0002DED0E8B96B0DDE92550279CDDF890A0D9
:103BF00025F0004624F00048BAF1000F14BF01215F
:103C0000002101EB4502FC4953184A1093422AD384
:103C1000002814BF0123002303EB44030B44F7499E
:103C20008B4220D358EA00019FEDF59B76D0DFF858
:103C3000D8B35D4503D1BAF1000F05D188E0BAF1E0
:103C4000000F08BF002100D0012101EB450111F553
:103C5000001F08D8002814BF0121002101EB4401F6
:103C600011F5001F0BD99DED261B9DED240B16B001
:103C7000BDEC0E8B04B0BDE8F04D00F03BBF00275B
:103C8000002DBCBFE149884521DAE1498845A8BF3C
:103C900002271CDAC3451ADCDE4901EB285114293E
:103CA00008DDC1F1340220FA02F101FA02F2824287
:103CB0000DD108E058B9C1F1140228FA02F101FA55
:103CC00002F2424503D101F00101C1F1020756EAB7
:103CD0000A0124D1002C22DA002D18BF022F01D0B6
:103CE000012F0AD00220FCF782FC16B0BDEC0E8B2F
:103CF00004B0BDE8F04D00F0DBBE0220FCF777FC1D
:103D000000F0D6FE51EC100B03F0DAF941EC100B89
:103D100016B0BDEC0E8B04B0BDE8F08D18E09FED41
:103D2000BEAB9FEDBF8B002871D1B848804522D132
:103D300005F1804010F5801008BFBAF1000F07D0E0
:103D4000B3450ADC002CA8BF9DED260BE0DA0DE0A0
:103D5000B0EE490AF0EE690ADAE7002C06DA9DEDCA
:103D6000260B51EC100B03F0ABF96FE0AE48784432
:103D700090ED000BCCE7D8454DD1002C48DA2EB1A0
:103D800086423AD1BAF1000F42D126E0BAF1000FD3
:103D900013D00220FCF72BFC00F0C6FE8DED020BC9
:103DA0009DED240B8DED000B10EE900A039961F34D
:103DB0001E0003909DED020BAAE78DED02AB9DED79
:103DC000240B1AEE901A10EE900A8DED000B61F3A1
:103DD0001E0003909DED020B9AE78DED028B9DED89
:103DE000240B18EE901A10EE900A8DED000B61F383
:103DF0001E0003909DED020B8AE709DA9DED240B6E
:103E000051EC190B53EC102B03F054FA1EE020E098
:103E10009DED240B7CE786421BDAB4F1804F0DD078
:103E2000A4F10050B0F1FF5013D1002D11DB9DED36
:103E3000240B51EC100B01F01BFD07E09DED240B52
:103E400053EC102B51EC100B00F0C2BC41EC100BEA
:103E50005EE79DED240B51EC100B00F0E1FFBAF191
:103E6000000FCDE90E0142D19FED710B46B3A6F1D3
:103E7000E040B0F17F600CD05E4538D1002D00DA13
:103E8000A7B3022F0CBF01204FF0FF3003F06AFBF5
:103E9000DCE7002D01DD002C0DDA002D01DD002C0A
:103EA0001FDB002D16DA002C14DB012F08BF9FED5D
:103EB000620B3FF42DAFB0EE4A0AF0EE6A0A27E734
:103EC000022F18BF002D0CD0012F0AD1002DFFF6B4
:103ED0001FAF06E0002DB8BF002C08DA012F3FF419
:103EE00017AFB0EE480AF0EE680A11E71BE00120B8
:103EF00000EBE57050EA070115D0791EB0EE498A53
:103F0000F0EE698A084308BF9FED4D8B4E480025AF
:103F1000804570DD4D494E48884514DDB0420DDBCB
:103F2000002C19DB2FE00120FCF761FB16B0BDEC83
:103F30000E8B04B0BDE8F04D00F0E6BDB34502DCE9
:103F4000002C09DC1FE0864202DA002C1BDA03E0B9
:103F50005E452BDD002C16DD0220FCF748FB00F04F
:103F6000E3FD8DED020B53EC1A2B51EC180B03F013
:103F70004DFBCDE900010399019861F31E00039008
:103F80009DED020BC4E60220FCF731FB00F0DCFDE6
:103F900010EE901A18EE900A8DED020B8DED008B4D
:103FA00061F31E0003909DED020BB1E69DED0E0B3B
:103FB00053EC192B51EC100B03F034FD9FED260B45
:103FC000CDE9080153EC102B9DED080B51EC100BC3
:103FD00003F01CFB9FED221B53EC112B03F04AFC5A
:103FE0009DED081B53EC112B03F010FB9FED1E1BE6
:103FF00053EC112B3CE08CE0FFFF1F00FFFF0F0094
:10400000000000000000F03F0000F03F0000F07FE3
:104010000000404301FCFFFF000000000000F07FB3
:1040200000000000000000008E41000000000000C1
:104030000000000000000080000000000000F0FF11
:10404000000000000000F0BF0000E0410000F0436D
:10405000FFFFEF3F00000000000000000000D03F25
:10406000555555555555D53F000000000000E03F1F
:1040700003F000FC9DED080B41EC1A0B53EC102BE8
:1040800051EC100B03F0C2FA53EC1A2B03F0BEFAFA
:1040900041EC1A0B9FEDFE0B53EC102B9DED080B22
:1040A00051EC100B03F0B2FA41EC1B0B9FEDFA0B35
:1040B00051EC1A0B53EC102B03F0A8FA41EC1A0B3D
:1040C0009FEDF70B53EC102B9DED080B51EC100BF3
:1040D00003F09CFA53EC1A2B03F0A4FC41EC1A0BEE
:1040E00051EC1B0B53EC1A2B03F028F80690CDE98A
:1040F00006519DED060B53EC1B2B51EC100B03F0FE
:1041000091FC53EC1A2B03F0B5FB41EC100B00F0C3
:10411000A1B90020B6F5801F0EDA9FEDE30B53EC3A
:10412000102B9DED0E0B51EC100B03F06FFACDE947
:104130000E016FF034000E4600EB2650A0F2FF3760
:10414000C6F31300DA4940F07F6646F040568842D5
:10415000D8BF002408DDD7498142C8BF012403DC51
:104160000024A6F580167F1CD348784400EBC400D9
:104170000F9690ED00CB9DED0E0B53EC1C2B51ECEC
:10418000100B03F04FFC9DED0E0B41EC1B0B53ECA1
:104190001C2B51EC100B02F0D1FF41EC100B51EC39
:1041A000190B53EC102B03F085F841EC1D0B51EC6F
:1041B0001B0B53EC1D2B03F029FA41EC1A0BBF48E3
:1041C0008DED10AB7844109590ED000B4FF0005042
:1041D00040EA660000EB84408DED080B00F50020FE
:1041E00009909DED080B53EC1C2B51EC100B03F0C8
:1041F00019FC9DED0E1B53EC112B03F03BFB41EC26
:10420000100B53EC102B9DED100B51EC100B03F029
:10421000FDF99DED080B41EC1C0B53EC102B9DEDB3
:10422000100B51EC100B03F0F1F953EC1B2B03F0C6
:1042300021FB53EC1C2B03F0F5FB53EC1D2B03F07F
:10424000E5F941EC1C0B53EC1A2B51EC1A0B03F063
:10425000DDF941EC1B0B9A480621B0EE4B0AF0EE5B
:104260006B0A784400F0A8FBB0EE401AF0EE601A3A
:10427000B0EE41DAF0EE61DA53EC1B2B51EC1B0B84
:1042800003F0C4F953EC1D2B03F0C0F99DED100BA6
:1042900041EC1B0B53EC1A2B51EC100B02F04EFFB0
:1042A00053EC1C2B03F0B2F953EC1B2B02F046FF2E
:1042B0009DED100B41EC1B0B53EC102B51EC100B34
:1042C00003F0A4F941EC1D0B9FED7FEB53EC1E2B8B
:1042D00002F034FF53EC1B2B02F030FF0890CDE9C5
:1042E00008519DED080B53EC1E2B51EC100B03F005
:1042F00099FB53EC1D2B03F095FB53EC1B2B03F0A8
:10430000B9FA9DED080B41EC1D0B53EC102B9DED04
:10431000100B51EC100B03F079F941EC1B0B53EC33
:104320001A2B51EC1D0B03F071F99DED080B41ECBC
:104330001A0B53EC102B51EC1C0B03F067F953ECE8
:104340001A2B02F0FBFE41EC1A0B51EC1B0B53EC49
:104350001A2B02F0F3FE0C90CDE90C519DED0C0BE5
:1043600053EC1B2B51EC100B03F05CFB53EC1A2BA2
:1043700003F080FA41EC1B0B9FED550B53EC102B17
:104380009DED0C0B51EC100B03F040F941EC1A0BB6
:104390009FED510B51EC1B0B53EC102B03F036F936
:1043A00041EC1B0B9FED4E0B53EC102B9DED0C0BBA
:1043B00051EC100B03F02AF953EC1B2B02F0BEFE5C
:1043C00041EC100B4848784400EBC40090ED001B12
:1043D00051EC100B53EC112B02F0B0FE41EC1B0B17
:1043E000384603F0BFF8CDE9080153EC1B2B51EC24
:1043F0001A0B02F0A3FE41EC100B3C48784400EB92
:10440000C40090ED00CB51EC100B53EC1C2B02F0D0
:1044100095FE9DED081B53EC112B02F08FFE0690CC
:10442000CDE906519DED080B53EC102B9DED060BCD
:1044300051EC100B03F0F6FA53EC1C2B03F0F2FADC
:1044400053EC1A2B03F0EEFA53EC1B2B03F012FA89
:1044500041EC100B9DED261B53EC102B8DED001B3A
:1044600000959DED260B51EC100B03F0CFF89DED60
:10447000000B41EC1A0B53EC102B9DED260B51EC6D
:10448000100B03F0CFFA9DED061B53EC112B2FE020
:10449000000000604715F73FFE822B654715F73F88
:1044A00044DF5DF80BAE543E0000000000004043C6
:1044B0008E9803007AB60B000A3D0000383D0000DC
:1044C000423C000000000000000000000000084026
:1044D000000000E009C7EE3FFD033ADC09C7EE3FEC
:1044E000F5015B14E02F3EBECE3A0000883A000092
:1044F00003F08CF853EC1A2B02F020FE9DED060B16
:1045000041EC1A0B53EC102B9DED000B51EC100BF2
:1045100003F07CF8CDE90C019DED0C0B51EC1A0B6E
:1045200053EC102B02F00AFECDE902010C46AA4919
:104530008C422FDB611A084318D19DED0C0B53EC14
:10454000102B9DED020B51EC100B03F06BFA41ECBC
:104550001B0B9FEDA30B51EC1A0B53EC102B02F02D
:10456000EDFD53EC1B2B03F04FF92DD20220FCF78D
:104570003EF800F0D9FA10EE901A18EE900A8DED80
:10458000020B8DED008B61F31E0003909DED020B7D
:10459000FFF7BEBB944A24F00041914214D39349E3
:1045A000214408437FF4EFAC9DED0C0B53EC102B32
:1045B0009DED020B51EC100B03F034FA53EC1A2B67
:1045C00003F022F97FF6DFAC24F000408849894AE5
:1045D000002601EB205182422BDA481C4FF4801157
:1045E00021FA00F02044844AC0F30A517A44A1F22F
:1045F000FF3192ED000B814A8DED080BCA4020EA95
:104600000202C0F3130040F48010C1F1140120FA3B
:1046100001F60992002CB8BF76429DED080B53ECD1
:10462000102B9DED0C0B51EC100B03F0FBF9CDE9B9
:104630000C019DED0C0B51EC1A0B53EC102B02F0FE
:104640007DFD9FED6F0B0890CDE9085153EC102BC9
:104650009DED080B51EC100B02F0D8FF41EC1B0B49
:104660009FED690B53EC102B9DED080B51EC100BDB
:1046700002F0CCFF9DED0C0B41EC1C0B53EC102B0E
:104680009DED080B51EC100B03F0CCF953EC1A2BF9
:1046900003F0F0F89FED5E1B53EC112B02F0B6FF18
:1046A00053EC1C2B02F04AFD41EC1A0B51EC1B0B96
:1046B00053EC1A2B02F042FDCDE902019DED020BF5
:1046C00053EC1B2B51EC100B03F0ACF953EC1A2BF1
:1046D00003F0D0F89DED020B41EC1A0B53EC102BBC
:1046E00051EC100B02F092FFCDE908014A489DED14
:1046F000080B0521784400F05FF99DED081B51EC93
:10470000100B53EC112B02F081FF9DED021B53ECBB
:10471000112B03F0AFF8CDE906019DED020B53EC30
:104720001A2B51EC100B02F071FF53EC1A2B02F014
:1047300005FD9FED3B0B41EC1A0B53EC102B9DED4F
:10474000060B51EC100B03F06DF99DED060B41ECDF
:104750001B0B53EC102B9DED020B51EC100B02F0D8
:1047600055FF53EC1B2B02F0A5FD53EC1A2B03F065
:1047700059F99DED021B53EC112B03F053F953EC47
:10478000192B03F077F8CDE9020101EB0650011572
:104790000029C8BF039015DC9DED020B324651EC99
:1047A000100B03F0D6FAFFF77DF8042808BF00F0DD
:1047B000CBF932469DED020B51EC100B03F0C9FA18
:1047C000CDE902019DED020B51EC180B53EC102BBF
:1047D00002F01CFFFFF73ABB000090400000000011
:1047E000FE822B654715973C00CC904000346F3F0C
:1047F00001FCFFFF0000E03F10390000FFFF0F0049
:1048000000000000432EE63F396CA80C615C20BE1E
:10481000EF39FAFE422EE63FE037000000000000CC
:10482000000000000000004000B510EE101A2DED51
:10483000028B81B0524A6846B2EB410F2ED94FF03D
:10484000E640B0EB410F94BF00204FF0FF300090E6
:104850000098B0EE408A00286ADB10F0010F4BD0C0
:1048600068EE080A9FED471A9FED470A00EE810A9D
:104870009FED461A10F0020F00EE801AB7EE000A04
:1048800000EE810A02BF01B0BDEC028B00BD00BF8B
:1048900001B0B1EE400ABDEC028B00BD3C4B21F0F3
:1048A0000042934241D911F0004FDFED3A0A20EE69
:1048B000201ADFED390A19BF31EE601A71EE200AB5
:1048C00031EE201A71EE600ABDEEE01A11EE100A08
:1048D0009FED321A00F0030000EEC10A9FED301A7E
:1048E000009000EEC10A9FED2F1A00EEC10A9FED65
:1048F0002E1A00EEC10AABE728EE080A9FED2B1A2C
:10490000DFED2B0A10F0020F40EE410A9FED291A4D
:1049100000EE201A61EE000AB0EE480A08EE200A06
:10492000B6D101B0BDEC028B00BD00F031F98FE7CC
:1049300018EE100A4000B0F17F4F0DD218EE100AA9
:10494000FEF7C8FF042808BF00F01AF9B0EE480AC5
:1049500001B0BDEC028B00BD09D10120FBF747FE81
:1049600001B0BDEC028B5DF804EB00F001B901B0C1
:10497000B0EE480ABDEC028B5DF804EB00F0F4B831
:10498000B61F927EB93AB2BACA9F2A3DDDFFFFBE7A
:10499000490E494683F9223F0000004B0000C93F01
:1049A00000A0FD390020A2331A61342C336D4C393C
:1049B000DA82083CA0AA2ABE70B504462DED028B0F
:1049C0004D1E00EBC500B0EE408AF0EE608A90ED1F
:1049D000000B35F0060017D053EC182B51EC100BE0
:1049E00002F014FE41EC100B6D1E04EBC50090EDBF
:1049F000001B51EC100B53EC112B02F09FFB41EC10
:104A0000100B35F00600E7D1022D36D0042D1CD056
:104A1000062D1CBFBDEC028B70BD53EC182B51EC66
:104A2000100B02F0F3FD94ED0A1B53EC112B02F076
:104A300085FB53EC182B02F0E9FD94ED081B53ECB9
:104A4000112B02F07BFB41EC100B53EC182B51ECBB
:104A5000100B02F0DBFD94ED061B53EC112B02F062
:104A60006DFB53EC182B02F0D1FD94ED040B53ECCD
:104A7000102B02F063FB41EC100B53EC182B51ECA4
:104A8000100B02F0C3FD94ED021B53EC112B02F04E
:104A900055FB53EC182B02F0B9FD94ED001B53ECC1
:104AA000112B02F04BFBBDEC028B41EC100B70BDE7
:104AB0009FED070B10B553EC102B9FED070B51EC3E
:104AC000100B02F0F7FB41EC100B10BD00000000D2
:104AD0000000000000000000000000000000F03FA7
:104AE00010B553EC102B51EC100B02F027FB41ECEE
:104AF000100B10BD10B553EC112B51EC100B02F044
:104B00001DFB41EC100B10BD9FED050B10B553ECD8
:104B1000102B51EC100B02F0CDFB41EC100B10BD33
:104B200000000000000000009FED050B10B553ECE5
:104B3000102B51EC100B02F069FD41EC100B10BD75
:104B400000000000000000709FED050B10B553EC55
:104B5000102B51EC100B02F059FD41EC100B10BD65
:104B6000000000000000001030EE000A7047000056
:104B7000DFED020A80EEA00A70470000000000008E
:104B80009FED020A20EE000A7047000000000010AE
:104B90002DE9F0014FF07F42B2EB410F9FBF4FF084
:104BA000FF310160BDE8F00170474FF0004242EA7A
:104BB0000123C1F3C752783A551112F01F0C434C30
:104BC000CCF120067C44C1F3C752A2F178024FEA2F
:104BD000621204EB820254F8254008BFD2E9015664
:104BE00012D0556804FA0CF425FA06F73C4397688E
:104BF00005FA0CF527FA06F8D26807FA0CFCF24021
:104C000045EA08054CEA0206A4FB034CA5FB035247
:104C1000A6FB03631D449D4234BF012600261319E1
:104C2000334416B1934202D903E0934201D20122E8
:104C300000E00022624402F1200C9206DC0C42EA01
:104C4000443200EE102A5B03DFED210AF8EEC01AB1
:104C500000EE103A4FEA9C1C11F0004FB8EE400AEB
:104C6000C0F800C020EE201A00EE105ADFED190A3D
:104C7000B8EE400A20EE200A71EE810A70EE800A3A
:104C800010EE902A02F500626FF30B0200EE902AFC
:104C900070EEE11A31EEC11ADFED101A30EE411A52
:104CA0009FED0D0A20EE800A01EE210A9FED0C1AFD
:104CB00000EE810A04BFBDE8F0017047CCF18051DD
:104CC0000160BDE8F001B1EE400A704740330000DA
:104CD000000000360000802C22AAFD29DB0FC92F1E
:104CE0000000C92F7047000030B5224AD2F80042B8
:104CF000214B00212CB1D981D2F80052012425B1D9
:104D000006E0DC89641CDC81F6E71D7905B91C71BD
:104D10005D794DB91D79012D03D19D796D1C9D7172
:104D20005C719C79022C04D0D2F80022012A04D0B4
:104D300005E099719981022030BD197159719A79F4
:104D4000012A14D19A89521C92B29A81824206D9C0
:104D5000DA89824203D299719981012030BDD889C4
:104D6000B0F5FA7F03D999719981032030BD0020F5
:104D700030BD0000000042429400002010B50446FF
:104D80000420FDF75BFB0A484FF47A71047014FBB2
:104D900001F1012242804FF0E020026942F002025C
:104DA00002614161016941F00101016110BD000032
:104DB0008400002070B5044601F026FF01280CD0C5
:104DC000094D6888844203D3B4FBF0F001F040F948
:104DD0006888B4FBF0F100FB11444FF47A70604333
:104DE000BDE8704000F002B88400002070B54FF0BC
:104DF000E02500216C69094AAB6912785043AA6921
:104E00009A42FCD002D2A3EB020302E0A4EB02061A
:104E10003344194413468142F1D370BD840000200D
:104E200082B0CDE9000121F0004001909DED000B22
:104E300002B051EC100B7047B5EEC00AF1EE10FA5B
:104E400001DAB1EE400A704704490A885206FCD5DF
:104E5000024AC1B2121D1180704700000044004098
:104E600010B501F0D1FE012803D0BDE8104001F0DB
:104E7000D9BE0148406810BD840000201CB500F078
:104E800077FD07490120CDE900010202002305A1B9
:104E9000074801F08DFE01F091FA00201CBD0000D2
:104EA000E801002073746172745F7461736B0000B9
:104EB000E15800082DE9F041184E0F460446F56808
:104EC0003068001D00F03AFF38B9306890F82C10B7
:104ED00001208840316981433161601C07D137B1BD
:104EE0003168BDE8F0410E48091D00F05FBF306831
:104EF0002C44AC424460316805D2B06BBDE8F0414F
:104F0000091D00F03BBF706B091D00F037FFB06A50
:104F1000844200D2B462BDE8F0810000100000209D
:104F2000100500202DE9F041054600F04BFF2D4E05
:104F3000B068401CB06030682B4F10B1706930B35E
:104F40002BE03560B068012827D1002404EB8400F1
:104F500007EB800000F004FF641C202CF6D32348EC
:104F600000F0FEFE2148143000F0FAFE1F48283001
:104F700000F0F6FE1D483C3000F0F2FE1B485030B9
:104F800000F0EEFE194870631430B06305E030683D
:104F9000E96AC06A884200D83560706A0121401C05
:104FA00070626864E86A326981401143316100EBE4
:104FB000800007EB8000291D00F0F8FE00F03EFFA6
:104FC000706900280CD03068E96AC06A884207D24C
:104FD00007494FF080500860BFF34F8FBFF36F8FCA
:104FE000BDE8F0811000002040020020C004002035
:104FF00004ED00E010B500F0E5FE0E4C2068A0B90D
:105000000D4800F0ADFE0C48143000F0A9FE0A482F
:10501000E0601430206100221021052001F0FEFA2A
:10502000206010B105A100F0DFFFBDE8104000F0E6
:1050300005BF00004C00002024050020546D725173
:105040000000000070B5124E124D1CE001F000FA95
:10505000306820B1002401F005FFA4B901E001246B
:10506000F9E700F0AFFEF068C468201D00F066FEAE
:10507000A868401EA8606868401E686000F0DEFEF8
:10508000204600F052F868680028DFD170BD0000AB
:10509000FC0400201000002030B4026C0B46002AF3
:1050A0000BD0C1681144C1604468A14201D30168BA
:1050B000C16030BC1846FBF722BA30BC70472DE9FE
:1050C000F041856B174604460026026C82B1C7B1D9
:1050D000E068FBF714FAE168206C091AE1602268C5
:1050E000914202D26168081AE060022F16D017E0E0
:1050F0002068A8B9606801F00FFE064600206060D5
:105100000EE0A068FBF7FBF9216CA0680844A060E2
:105110006168884204D32068A06001E005B16D1E7B
:105120006D1CA5633046BDE8F08110B50446006BE8
:1051300000F0B6FE2046BDE8104000F0B1BE000011
:1051400010484FF4A041420706D0C01D0D4920F081
:105150000700411AC1F5A0410B4A00230144C2E9EE
:1051600000030839103A21F0070111604B600B6011
:105170000B1AC0E9001393604FF000405360D060F9
:10518000704700004C0500207C000020074E4FF0C7
:105190008054074DFFF756FF30680128FAD92C607C
:1051A000BFF34F8FBFF36F8FF4E700004002002082
:1051B00004ED00E02DE9F047DDE909840E461746CD
:1051C000824691009946089DA522206BFBF7DCF9E9
:1051D0006FF00301206B01EB8701084420F0070703
:1051E000780705D040F22B3219A11EA0FBF7C2F8B8
:1051F00000202218315C82F83410315C11B1401C5F
:105200001028F6D3002684F84360202D00D31F25F4
:10521000E562C4E91356201D00F0ADFD04F118004D
:1052200000F0A9FD2461C5F120006462A0616665FB
:1052300084F858604A465146384600F003FB206027
:10524000B8F1000F01D0C8F80040BDE8F0870000B9
:105250002E2E5C4672656552544F535C7461736BBD
:10526000732E63004572726F723A25732C25640D9C
:105270000A00000030B5114900E011460A68824278
:10528000FBD34B685C18844203D1406818444860E3
:10529000084643681C18944209D1084C103C246805
:1052A000A24209D052681A4442600A681268026039
:1052B000814200D0086030BD0460F9E77C00002026
:1052C00070B5002441600B4D0061914206D8D11A9F
:1052D0008269914206D2011D286907E09A4203D2F1
:1052E000994201D3012403E0011DE86800F046FD66
:1052F000204670BD4C00002010B5044600F062FD51
:10530000A06B20B1002400F099FD204610BD0124BF
:10531000F9E700002DE9F34100980F460026846C60
:105320002CB940F6CE1216A11AA0FBF723F8A06BF9
:10533000E16B884205D340F6CF1211A115A0FBF70F
:1053400019F8A06BE16B88420CD294F945503A46AB
:1053500069462046FFF7B3FE0646681C05D06D1C63
:1053600084F845503046BDE8FC81606A0028F9D0D9
:1053700004F1240001F02AFD0028F3D00126F1E712
:105380002E2E5C4672656552544F535C717565757F
:10539000652E63004572726F723A25732C25640D79
:1053A0000A000000F8B5054614480E46C068C068FB
:1053B000C468201D00F0C2FCE069012817D1A06973
:1053C0002B46411932462046FFF77AFF78B100207C
:1053D0000346014600902A46204601F029FE30B9D6
:1053E00007494FF4027201F11800FAF7C3FF616A2E
:1053F00001B02046BDE8F040084700004C00002006
:10540000946F000870B586B02F4E53E001980028C5
:1054100006DADDE90301029A90470198002849DB8A
:10542000039C606910B1201D00F088FC05A800F005
:10543000A7F8054601980A283CD2DFE800F00505E8
:10544000053B273805053B270298A169034601441F
:105450002A462046FFF734FF00282BD0616A2046F9
:105460008847E069012825D1002000900298A169B1
:10547000002342181946204601F0DAFDD0B940F267
:10548000213212A117A0FAF775FF13E00298A0616C
:1054900028B94FF44E720DA112A0FAF76BFFA06964
:1054A0002B4641191A462046FFF70AFF02E0204624
:1054B00000F0F6FC00231A4601A9306801F0EAF872
:1054C0000028A3D106B070BD4C0000202E2E5C46F3
:1054D00072656552544F535C74696D6572732E63C7
:1054E000000000004572726F723A25732C25640D1E
:1054F0000A000000F8B50D46064600F0A9FF684610
:1055000000F03EF80446009810B101F0ABFCF8BD85
:105510001148ADB101690968D9B10025311B2A468E
:10552000006800F073FD01F09DFC0028EFD10B49ED
:105530004FF080500860BFF34F8FBFF36F8FF8BDFF
:10554000A642EBD801F08EFC21463046FFF72AFF39
:10555000F8BD0125E2E700004C00002004ED00E06A
:105560000648416B096829B1416BC968C968496837
:10557000816270474FF0FF31FAE700001000002011
:1055800070B5054601F04EFB064E0446B0688442F5
:1055900003D200F009F8012000E000202860204636
:1055A000B46070BD4C000020F8B5184E26E0C0680D
:1055B000C4680568201D00F0C1FB616A2046884769
:1055C000E06901281AD1A0692844A84206D92461BB
:1055D0006060211DF06800F0D1FB0FE00020034661
:1055E000014600902A46204601F022FD30B90849C4
:1055F00040F2923201F11800FAF7BCFEF06801683F
:105600000029D4D13169C6E90310F8BD4C0000204F
:10561000946F000808484068401C05D040F20F1203
:1056200006A111A0FAF7A6FE502080F31188BFF35F
:105630004F8FBFF36F8FFEE7600000202E2E5C4679
:1056400072656552544F535C706F727461626C6521
:105650005C525644535C41524D5F434D34465C703E
:105660006F72742E630000004572726F723A257378
:105670002C25640D0A000000084CE068016839B16F
:10568000002139B10020FFF735FFFFF7BBFEF4E73B
:105690000121F6E7C0680068F5E700004C00002033
:1056A0002DE9F041044600F08DFB94F9455004F1DA
:1056B000240610E0A06C20B100212046FFF72AFE4E
:1056C00004E0606A48B1304601F080FB08B100F0A8
:1056D000B1FD6D1E6DB2002DECDC4FF0FF3684F88D
:1056E000456000F0ABFB00F06DFB94F9445004F111
:1056F000100709E0206948B1384601F067FB08B19E
:1057000000F098FD6D1E6DB2002DF3DC84F844604E
:10571000BDE8F04100F092BB2DE9F04105460026BE
:1057200000F096FE324F386808B9FFF709FDF868B7
:1057300005424FD1002D4DD0083568070BD005F03C
:105740000700C0F108000544680704D0BF2229A162
:1057500032A0FAF70FFE002D3CD07868854239D888
:10576000234910310846046801E021460446606878
:10577000A84202D220680028F7D13868B84684428F
:1057800028D00E682068086060680836401B102822
:105790000ED96719780704D0EC2216A11FA0FAF7DA
:1057A000E9FD6068401B786038466560FFF762FD80
:1057B0006168D8F804004246401AC8F80400D8F8D6
:1057C0000830984200D29060D8F80C0001430020C5
:1057D000C4E9000101F046FB700705D04FF4967252
:1057E00004A10EA0FAF7C6FD3046BDE8F081000026
:1057F0006C0000202E2E5C4672656552544F535C3F
:10580000706F727461626C655C4D656D4D616E6741
:105810005C686561705F342E630000004572726FD2
:10582000723A25732C25640D0A00000004490868AB
:1058300018B10868026D521C0265086870470000C4
:105840001000002010B5031F4FF080741C601B1F58
:1058500021F001011960191F044B0B6014390A6013
:10586000091F6FF0020244380A6010BD1556000887
:1058700000B52DED048B83B041EC190B02F006F856
:1058800041EC180B18EE100A18EE901A8DED008BF3
:10589000002818BF0120084320F00040C0F17F60BD
:1058A00000F1E040C00F14D019EE101A19EE900A62
:1058B0008DED009B002918BF0121084320F0004016
:1058C000C0F17F6000F1E040C00F04BF0120FAF793
:1058D0008EFE51EC180B03B0BDEC048B00BD000034
:1058E0007CB500F06FFA00240425CDE9005423466E
:1058F000EA010FA1124801F05BF90320CDE9000491
:10590000AE01002332460FA1124801F051F9CDE952
:1059100000540023324610A1134801F049F91348FE
:10592000006800F021FCBDE87C4000F087BA000070
:1059300042616C616E63655F7461736B00000000AF
:10594000750A0008547261636B696E675F746173F6
:105950006B000000FD300008464F434C6F6F705FD6
:105960007461736B0000000015120008E80100204C
:1059700038B54FF44070FCF783F9A820FFF7FEF923
:10598000FCF7A4F8FBF7D4F8FBF760FBFCF798F9F9
:10599000FBF7EEFF2348D0F800222349002422B170
:1059A000D0F80002012803D003E00120086000E0E5
:1059B0000C604FF4E135284600F048F84FF41650DB
:1059C00000F09AF8284600F0EBF8FDF781FBFAF7B3
:1059D000D1FFFBF70FF803230622072101200094D3
:1059E000FBF7C0F8FCF75CFCFBF748FBFBF7B4FBEC
:1059F00042F20F7453212046FCF796FDA721204662
:105A0000FCF7AEFFFBF722FCFCF708FEFDF746F8BB
:105A1000FBF79EFDFCF7ABF8FCF7CEFABDE838408B
:105A2000FCF7F4BA0000424244010020B4EEE00A60
:105A3000F1EE10FA02D2B0EE600A7047B4EEC10A7D
:105A4000F1EE10FAF9DDB0EE410A7047F0B5074605
:105A5000012187B00846FCF73DFB01211020FCF72F
:105A600051FB234E072209213046FBF7D5FC0722C4
:105A70000A213046FBF7D0FC4FF4C06004900220AE
:105A80008DF8140000248DF816408DF815000125BE
:105A90008DF8175004A93046FBF782FC25208DF8BD
:105AA00018008DF819508DF81A408DF81B5006A873
:105AB000FCF7B4F8ADF80440ADF80640ADF8084086
:105AC000ADF80C400C200B4CADF80A00009769466D
:105AD0002046FDF70BFE012240F225512046FDF73E
