:020000040800F2
:1000000008710020590200084D1000084510000832
:1000100049100008D508000833230008000000003C
:10002000000000000000000000000000A101000826
:100030006D09000800000000F50100082516000801
:1000400073020008730200087302000873020008BC
:100050007302000873020008FD0A0008730200081A
:100060000F0B0008730200087302000873020008F7
:10007000730200087302000873020008730200088C
:10008000730200087302000873020008730200087C
:10009000730200087302000873020008730200086C
:1000A000730200087302000873020008730200085C
:1000B000BF170008D9170008730200087302000870
:1000C000730200087302000873020008730200083C
:1000D000730200088D1F000873020008E120000869
:1000E000730200087302000873020008730200081C
:1000F000730200087302000873020008730200080C
:1001000073020008730200087302000873020008FB
:10011000730200084D1F00087302000873020008F4
:1001200073020008730200087302000873020008DB
:1001300073020008730200087302000873020008CB
:1001400073020008730200087302000873020008BB
:1001500073020008730200087302000873020008AB
:10016000730200087302000873020008730200089B
:10017000730200087302000873020008730200088B
:100180007302000873020008DFF810D000F034FB9F
:1001900000480047312F0008AFF3008008710020AD
:1001A0002A4B19680868B0E8F04F80F30988BFF35C
:1001B0006F8F4FF0000080F311887047000000003F
:1001C00006480068006880F3088862B661B6BFF32D
:1001D0004F8FBFF36F8F00DF00BF00BF08ED00E05F
:1001E000DFF80C00016841F470010160704700BF46
:1001F00088ED00E0EFF30980BFF36F8F134B1A68AF
:100200001EF0100F08BF20ED108A20E9F04F10609B
:1002100008B44FF0500080F31188BFF34F8FBFF345
:100220006F8F04F049FA4FF0000080F3118808BC8A
:1002300019680868B0E8F04F1EF0100F08BFB0EC66
:10024000108A80F30988BFF36F8F7047DC000020AD
:10025000EFF30580704700000648804706480047D6
:10026000FEE7FEE7FEE7FEE7FEE7FEE7FEE7FEE766
:10027000FEE7FEE7351600088901000840EA0103A1
:100280009B0703D009E008C9121F08C0042AFAD24C
:1002900003E011F8013B00F8013B521EF9D2704710
:1002A000D2B201E000F8012B491EFBD270470022B8
:1002B000F6E710B513460A4604461946FFF7F0FF65
:1002C000204610BD421C10F8011B0029FBD1801AEA
:1002D00070472DE9FE4F804681EA0300C00F0C46AF
:1002E000009021F0004123F00045B8EB0200A94145
:1002F00005D24046214690461C460B46024623F056
:100300000040104347D0270DC7F30A00C3F30A513A
:100310000290401A019040286BDAC3F3130040F4B6
:10032000801B0098924620B10023D2EB030A63EBB6
:100330000B0B01985946C0F14002504600F038F9C5
:1003400006460D4650465946019A00F040F910EB1A
:1003500008006141002487EA115284EAE7731A43D6
:1003600040D0009A62B3019A012A4FEA075215DC85
:10037000001B61EB02014FF0004202EA0752CDE997
:100380000042001C41F5801132462B4600F077F9FF
:1003900003B0BDE8F08F40462146F9E7001B61EB52
:1003A0000201001C41F5801300185B412018A2F5E2
:1003B000001747EB030140EAD570B6196D4111E013
:1003C0006D084FEA360645EAC0754FEA0752001B32
:1003D00061EB0201001C41F5801149084FEA300031
:1003E0000019514132462B4603B0BDE8F04F00F0F2
:1003F00037B90098012240000023D0EB020263EBE2
:10040000E073009821464FEAE074B8EB000061EB1E
:100410000401E9E783F000435BE781F0004158E71E
:100420002DE9FE4F81EA030404F0004421F000416D
:1004300000944FF0000B23F0004350EA01045ED01B
:1004400052EA03045BD0C3F30A54C1F30A552C44A7
:10045000A4F2F3340194A0FB0254C1F3130141F45C
:100460008011C3F3130343F4801301FB024400FB28
:10047000034E840A970A44EA815447EA8357A4FB4F
:10048000076802958D0A05FB07854FEA932C04FB4C
:100490000C542705029D4FEA065847EA1637B5EB7C
:1004A00008056EEB070C870E920E47EA811742EAA9
:1004B0008312A7FB0201B6EB0B0164EB00042B0DCA
:1004C00043EA0C335E1844EB1C50DA465146E7FB16
:1004D0000201C5F313044FEA0B3343EA14534FEA06
:1004E0000432019C43EA0603A4F10C040294009C2C
:1004F000CDE900B400F0C3F803B0BDE8F08F0020F0
:100500000146F9E70EB5C10F80EAE0700844CA075A
:10051000002140F233438DE80E000A460B4600F0FE
:10052000AEF803B000BD00F0004230F000400AD049
:10053000C10D01F56071C0F3160042EA0151C20815
:1005400040071143704700200146704701F0004307
:1005500030B421F0004150EA010206D00A0DA2F5A4
:100560006072C1F31301002A02DC30BC0020704726
:10057000440F44EAC104C100E01830BC00EBC25093
:1005800000F037B830B50B46014600202022012488
:1005900009E021FA02F59D4205D303FA02F5491B51
:1005A00004FA02F52844151EA2F10102F1DC30BD67
:1005B000202A04DB203A00FA02F100207047914023
:1005C000C2F1200320FA03F3194390407047202A18
:1005D00006DBCB17203A41FA02F043EAE07306E06B
:1005E00041FA02F3D040C2F120029140084319467B
:1005F00070470029A8BF7047401C490008BF20F081
:100600000100704710B4B0FA80FC00FA0CF050EA18
:10061000010404BF10BC704749B1CCF1200421FA99
:1006200004F411FA0CF118BF012121430843A3EB94
:100630000C01CB1D4FEA00614FEA102042BF0020A1
:1006400010BC704700EBC35010440029A4BF10BC7D
:100650007047401C490008BF20F0010010BC7047E3
:1006600010B5141E73F1000408DA401C41F10001BA
:1006700092185B411A4301D120F0010010BD2DE911
:10068000F04D92469B4611B1B1FA81F202E0B0FA08
:1006900080F220329046FFF78BFF04460F4640EA77
:1006A0000A0041EA0B0153465A46084313D011464B
:1006B00053EA010019D0C8F14002504600F0AEF8EC
:1006C00005460E46504659464246FFF771FF08431D
:1006D00005D0012004E020463946BDE8F08D002019
:1006E000054346EAE0762C4337430A986305E40A5B
:1006F000A0EB08000022FD0A44EA47540A3002D564
:1007000000200146E9E7010510196941DDE90845C6
:1007100000196941BDE8F04DA2E72DE9F04D81EAED
:10072000030404F0004B21F0004514464FF0000A8A
:1007300023F0004150EA050220D054EA01021DD006
:10074000C5F30A570246C5F31303C1F31300C1F3FF
:100750000A5640F4801543F48013A7EB0608101BDB
:10076000D64608F2FD3873EB050002D308F1010804
:1007700001E092185B41B8F1000F03DA0020014656
:10078000BDE8F08D00204FF48011064684460EE04F
:10079000171B73EB050705D3121B63EB0503064319
:1007A0004CEA010C49084FEA300092185B4150EACC
:1007B0000107EDD152EA030012D082EA040083EA75
:1007C0000501084305D0101BAB4106D201220023CE
:1007D00006E000224FF0004302E06FF001025310E8
:1007E0001AEB06004CEB085110EB0A0041EB0B0131
:1007F000BDE8F04DFFF734BF064C074D06E0E0685A
:1008000040F0010394E8070098471034AC42F6D357
:10081000FFF7BEFCB8550008D8550008202A04DBB5
:10082000203A21FA02F00021704721FA02F3D04069
:10083000C2F12002914008431946704770B58C18E8
:1008400010F8015B15F0070301D110F8013B2A11E4
:1008500006D110F8012B03E010F8016B01F8016BD1
:100860005B1EF9D12B0705D40023521E0DD401F8CD
:10087000013BFAE710F8013BCB1A921C03E013F896
:10088000015B01F8015B521EF9D5A142D8D30020CB
:1008900070BD000010B52DED028B9FED0B0AB0EE80
:1008A000408A00F083FB094890ED001ADFED060A4C
:1008B000B7EE000A00F05CF8B2EE0E0A044880EDD4
:1008C000060ABDEC028B10BD000000006C01002088
:1008D0009866002000BFFEE710B50446242C0CD11A
:1008E00001201D4908701D481D49097844541C48C1
:1008F0000078401C1A4908702CE01748007800B9AD
:1009000010BD164816490978445415480078401C13
:1009100013490870232C10D100200F49087010498A
:10092000087064220D490F48FFF7A8FC01200E490A
:10093000087064210948FFF7BAFC09480078642868
:1009400008DB002004490870054908706421034849
:10095000FFF7ADFC00BFD3E725000020AF02002069
:1009600026000020130300201C0000207047000018
:1009700000B5B0EE402AF0EE603AF0EE412AB0EE5B
:100980000C0AB0EE403A23480078042841D12248AE
:1009900090ED000A2148D0ED000A30EE200A60EE0A
:1009A000220AB0EE001A80EE810A32EE400A1C489C
:1009B00080ED090A184890ED000A1848D0ED000AA9
:1009C00030EE200A60EE220AB0EE001A80EE810AB4
:1009D00030EE020A134880ED090A1148D0ED090AE9
:1009E000B0EE600AB0EE431AF1EE430A03F02BF9C1
:1009F0000B4880ED090A0B48D0ED090AB0EE600AF9
:100A0000B0EE431AF1EE430A03F01DF9054880EDFC
:100A1000090A00BD5801002084010020880100203F
:100A2000706600209866002070B504462046FFF7E7
:100A300049FC0546204601F079FB4FF4FA6002F0CC
:100A4000FDF9214601A001F01FFD70BD25730000D6
:100A500010B54FF4E13003F0BBF90B48FFF7E4FFAA
:100A60000A48FFF7E1FF0A48FFF7DEFF0948FFF7F2
:100A7000DBFF0948FFF7D8FF0848FFF7D5FF084814
:100A8000FFF7D2FF10BD0000290000203200002037
:100A9000400000205A000020680000209200002042
:100AA000A500002010B50446114801880088401CAC
:100AB0000F4A10800F48445410460088401E0D49CC
:100AC000085C0A2813D110460088801E085C0D2897
:100AD0000DD10020114608804FF4FA6205490648FE
:100AE000FFF7CCFB4FF4FA610248FFF7E0FB10BDC3
:100AF000B800002077030020470B002010B501202C
:100B000000F016F8012801D100F00CF810BD10B566
:100B1000042000F00DF8012802D1042000F002F8B2
:100B200010BD00000149086070470000143C0140FE
:100B300001460020034A12680A400AB1012000E081
:100B400000207047143C014000B589B001210846DF
:100B500000F0D4FA0121032000F0C0FA4FF4004065
:100B6000019003208DF8090002208DF80800012073
:100B70008DF80A008DF80B0001A92B4800F0AAF9A6
:100B80000820019003208DF8090002208DF808004C
:100B900001208DF80A008DF80B0001A9234800F010
:100BA00099F901220F21204800F0DCF901220321EC
:100BB0001E4800F0D7F906A801F0A8F90020ADF80A
:100BC00018004FF6FF7007900020ADF82000ADF838
:100BD0001A0006A94FF0804001F056F900231A468A
:100BE00003214FF0804000F05CFF03A800F0B1FF4C
:100BF0000020ADF8140003A94FF0804000F072FF10
:100C00000121880700F02FFF01221146900700F014
:100C1000A9FF00214FF0804001F007F9012188076A
:100C200000F024FF09B000BD0000024000040240B3
:100C300000B589B00121022000F060FA01210220F4
:100C400000F04CFA3020019003208DF809000220BA
:100C50008DF8080001208DF80A008DF80B0001A91D
:100C6000204800F037F9022204211E4800F07AF9EA
:100C7000022205211B4800F075F906A801F046F98B
:100C80000020ADF818004FF6FF7007900020ADF877
:100C90002000ADF81A0006A9134801F0F5F800236A
:100CA0001A460321104800F0FCFE03A800F051FF93
:100CB0000020ADF8140003A90B4800F013FF012138
:100CC000094800F0D0FE01221146074800F04AFF13
:100CD0000021054801F0A9F80121034800F0C6FEF3
:100CE00009B000BD000402400004004008B502F055
:100CF00011F9009013E00121684603F035FB084824
:100D0000D0ED060AB0EE600A00F038F80548D0EDE4
:100D1000060AB0EE600A00F031F800F047FCEAE79E
:100D2000706600209866002010B52DED028B00241F
:100D300017E000EE104AB8EEC00ADFED0D0A20EE13
:100D4000200ADFED0C0A80EE201AB0EE418AB0EEE8
:100D5000480A01F041FD084800EB840080ED000ADC
:100D6000641CB4F5B47FE4DBBDEC028B10BD000065
:100D7000DA0F4940000034433C670020F0B50446D8
:100D80004B4D2D684FF0E025AB694A4D95ED002A9B
:100D9000DFED492A02EE802A85ED002A95ED002A32
:100DA000DFED462AB4EEE22AF1EE10FA07DB95ED0C
:100DB000002ADFED422A32EE622A85ED002A3C4D00
:100DC0002B603C4D95ED002ABDEEC22A12EE105A62
:100DD0004FF4B47695FBF6F706FB1755384E06EB45
:100DE0008505D5ED000A334D95ED002ADFED352A56
:100DF00032EE222ABDEEC22A12EE105A4FF4B47619
:100E000095FBF6F706FB17552D4E06EB850595ED80
:100E1000001A284D95ED002ADFED2B2A32EE222A0A
:100E2000BDEEC22A12EE105A4FF4B47695FBF6F7D7
:100E300006FB1755224E06EB8505D5ED001AB7EED9
:100E4000002A30EE822ADFED212A22EE222AF0EE5D
:100E5000002A82EE223ABCEEC32A12EE105AA8B241
:100E6000B7EE002A31EE022ADFED182A22EE222AFE
:100E7000F0EE002A82EE223ABCEEC32A12EE105A9D
:100E8000A9B2B7EE002A31EE822ADFED102A22EE57
:100E9000222AF0EE002A82EE223ABCEEC32A12EE9B
:100EA000105AAAB20A4D28826982AA82F0BD0000B7
:100EB0001002002014020020EC51B83E0000B443A0
:100EC0003C6700200000F0420000704300400346F1
:100ED00098660020F0B50A4600210023002400BFD8
:100EE0003DE0012505FA01F3156805EA03049C427B
:100EF00034D105684F000326BE40B543056015791F
:100F00004E00B5400668354305601579012D02D0C5
:100F10001579022D16D185684F000326BE40B543D2
:100F2000856055794E00B5408668354385604568D3
:100F300001268E40B5434560456896798E40B6B22D
:100F400035434560C5684F000326BE40B543C560C4
:100F5000D5794E00B540C6683543C560491C102997
:100F6000BFD3F0BDF0B5002300244D07ED0E02FA0B
:100F700005F3CE1000F1200555F826504E07F70E68
:100F80000F26BE40B543CF1000F1200646F827508B
:100F9000CE1000F1200555F8265045EA0304CE1086
:100FA00000F1200545F82640F0BD000010B52DEDFC
:100FB000028B022000F036F91C490860032000F083
:100FC00031F91A494860084690ED000AB8EEC00AA7
:100FD000B0EE408A90ED010AB8EEC00AF0EE408A09
:100FE0009FED130A28EE000A1248D0ED000A20EE09
:100FF000200A1148D0ED000A80EE201A0F4880ED3B
:10100000081A9FED0B0A28EE800A0A48D0ED000A64
:1010100020EE200A0848D0ED000A80EE201A084889
:1010200080ED081ABDEC028B10BD0000DC6C0020C6
:101030000000C842800100207C0100207066002072
:101040009866002000BFFEE700BFFEE77047000083
:1010500070B5002100230F22C4781CB3174C2468FC
:1010600004F4E064C4F5E064C4F30721C1F10404AE
:10107000E3B20A4144789C40E1B2847814402143B1
:101080000C07210E0E4C05786155047804F01F05FD
:101090000124AC4005786D11AD0005F1E025C5F8DF
:1010A000004109E0047804F01F050124AC40054D1F
:1010B0000678761145F8264070BD00000CED00E082
:1010C00000E400E080E100E002490143024A1160CF
:1010D000704700000000FA050CED00E029B1064A57
:1010E00012680243044B1A6004E0034A1268824308
:1010F000014B1A60704700003038024029B1064A9F
:1011000012680243044B1A6004E0034A12688243E7
:10111000014B1A60704700004038024029B1064A6E
:1011200012680243044B1A6004E0034A12688243C7
:10113000014B1A607047000044380240F0B50021AE
:1011400000220024022500260223324F3F6807F0C8
:101150000C0121B1042905D0082937D105E02E4F13
:10116000076036E02D4F076033E02A4F3F1F3F688E
:10117000C7F38056274F3F1F3F6807F03F036EB10C
:10118000264FB7FBF3F7DFF88CC0ACF1040CDCF8AA
:1011900000C0CCF3881C07FB0CF40CE01E4FB7FB1F
:1011A000F3F7DFF870C0ACF1040CDCF800C0CCF34E
:1011B000881C07FB0CF4174F3F1F3F68C7F301471C
:1011C0007F1C7D00B4FBF5F7076002E0124F07605B
:1011D00000BF00BF0F4F3F6807F0F0010909104F33
:1011E0007A5C0768D74047600A4F3F6807F4E051D0
:1011F000890A0B4F7A5C4768D7408760054F3F6884
:1012000007F46041490B064F7A5C4768D740C760D6
:10121000F0BD0000083802400024F40000127A00FB
:10122000CA0000200146022902D0032910D108E09B
:101230004FF08042526A10B200224FF080435A624F
:1012400008E0054A126810B20022034B1A6001E060
:10125000002000BF00BF70472404004010B52DEDF2
:10126000088BB0EE40BAF0EE60BAB0EE418AF0EE14
:10127000618AB0EE429AF0EE629AB0EE43AA51EC67
:101280001B0BFFF763F91D490860084680ED018AD2
:10129000C0ED058ABDEEC90A80ED020ABDEEE90A7D
:1012A00080ED030A80ED04AAC06880008968484385
:1012B00000EE100AB8EEC00A114880ED000A0F488F
:1012C00090ED040ADFED0F0A20EE200A0E4880EDB3
:1012D000000A0A4890ED000A0C4880ED000A074811
:1012E00090ED010A0A4880ED000A044890ED050AD5
:1012F000084880ED000ABDEC088B10BDEC6C0020A6
:101300007C010020DB0F4940800100208401002087
:10131000880100208C01002010B50420504908707D
:1013200008460078052801DD052008704C48007843
:1013300006285ED2DFE800F0031221303F4E9FED19
:10134000493ADFED492AB7EE002ADFED481A9FED52
:10135000481A9FED480BFFF781FF4AE09FED473A9F
:10136000DFED412AB7EE002ADFED451A9FED3F1A67
:101370009FED440BFFF772FF3BE09FED403ADFED3E
:101380003A2AB7EE002ADFED391A9FED401A9FED99
:10139000400BFFF763FF2CE09FED383ADFED322A78
:1013A000B7EE002ADFED311A9FED301A9FED3A0BB0
:1013B000FFF754FF1DE09FED313ADFED2B2AB7EE2A
:1013C000002ADFED2A1A9FED361A9FED360BFFF744
:1013D00045FF0EE09FED353ADFED232AB7EE002AF8
:1013E000DFED221A9FED211A9FED310BFFF736FF3B
:1013F00000BF00BF1A48007806282ED2DFE800F0B0
:10140000030A11181F2608202B4908600E202B49BB
:10141000086022E00620284908600A202749086061
:101420001BE004202449086007202449086014E0D8
:101430000420214908600720204908600DE00820A9
:101440001D4908600B201D49086006E004201A4968
:10145000086007201949086000BF00BF10BD0000E8
:10146000580100209A99993D000080440000000036
:101470007B14AE3D022B8716D9CEB73F8FC2753D88
:10148000643BDF3D0000000000000000BC74133E20
:10149000000000806ABCC43F000000A0EFA7C63F68
:1014A000E7FB293E000000C07268C13FC520303D07
:1014B000000000E07A14CE3FC0010020C4010020EB
:1014C0000CB50020019000903448006840F4803052
:1014D0003249086000BF3148006800F400300090D5
:1014E0000198401C0190009818B90198B0F5A04FE0
:1014F000F1D12A48006800F4003010B101200090BA
:1015000001E0002000900098012846D12348403097
:10151000006840F080502149403108602048006850
:1015200040F440401E4908601C48083000681B49D0
:10153000083108600846006840F40040086008462A
:10154000006840F4A05008601648091F0860081F92
:10155000006840F08070091F086000BF0F480068F5
:1015600000F000700028F9D040F205700E490860C4
:101570000A480830006820F0030008490831086074
:101580000846006840F00200086000BF03480830C9
:10159000006800F00C000828F8D10CBD00380240AB
:1015A0000070004008544007003C024010B50F484E
:1015B000018A0F4800F031FC0C48418A0C4800F0C9
:1015C0002EFC0A48818A0B4800F02DFC0A48018A4B
:1015D000084800F022FC0848418A064800F01FFC39
:1015E0000548818A034800F01CFC10BD706600208D
:1015F000000800400004014098660020042808D13B
:101600004FF0E021096941F004014FF0E02211613F
:1016100007E04FF0E021096921F004014FF0E022DA
:101620001161704710B503F0C3FC012801D003F02D
:1016300045F910BD10B51548006840F47000134915
:1016400008601348006840F001001149086000205C
:101650000F49083108600E4800680E4908400C49DF
:1016600008600D48091D0860081F006820F48020EC
:10167000091F0860002006490C310860FFF720FFB1
:101680004FF0006001498039086010BD88ED00E02E
:1016900000380240FFFFF6FE10300024F0B50C4683
:1016A000154600210022068C4FF6FE773E40068448
:1016B000018B028C4FF60C7631407E1C06EA031635
:1016C0002E4331434FF6F576324044F00106324363
:1016D00001830284F0BDF0B50C46154600210022BE
:1016E0000026078C4FF6EF7C07EA0C070784018B76
:1016F000028C4FF6FF7707EA041640F6FF473940A1
:101700004FF6FF7707EA033739434FF6FF7707EACB
:10171000052739434FF65F773A4046F010073A43C2
:1017200001830284F0BDF0B50C461546002100226D
:101730000026078C4FF6FF6C07EA0C070784818BA5
:10174000028C4FF6FF7707EA04264FF60C773940F4
:101750004FF6FF7707EA03172F4339434FF2FF573E
:101760003A4046F480773A4381830284F0BDF0B575
:101770000C461546002100220026078C4EF6FF7C01
:1017800007EA0C070784818B028C4FF6FF7707EA84
:10179000043640F6FF4739404FF6FF7707EA052742
:1017A00039434FF6FF7707EA0337394345F6FF77AA
:1017B0003A4046F480573A4381830284F0BD4FF0AB
:1017C0008040008A4FF08040008A20F001004FF0F6
:1017D0008041088270470000044800880348008860
:1017E00020F001000149088070470000100400400B
:1017F00000B58BB001210420FFF780FC01210220FD
:10180000FFF76CFCC020019002208DF80800032037
:101810008DF8090000208DF80A008DF80B0001A951
:101820002A48FFF757FB022206212848FFF79AFBB8
:10183000022207212548FFF795FB254800F09BF978
:101840000020ADF820002020ADF8220042F2CF00A9
:1018500009900020ADF828008DF82A0008A91C483E
:1018600000F012FB6020ADF80C000120ADF80E0076
:101870000420ADF8100000200590ADF81800ADF878
:101880001A004FF48070ADF81C000020ADF81E0067
:1018900003A90F4800F076F903A90D4800F0BAF942
:1018A00008210B4800F0ACF90821094800F004FABF
:1018B0000121074800F0B2F80121054800F0E2F8E4
:1018C0000121034800F0D2F80BB000BD0004024033
:1018D0000008004000B58FB001210220FFF71EFC78
:1018E00001210420FFF7FAFB4FF4707005900220ED
:1018F0008DF8180003208DF8190000208DF81A00CB
:101900008DF81B0005A94348FFF7E4FA03220621DE
:101910004048FFF727FB032207213E48FFF722FB41
:10192000032208213B48FFF71DFB03220921394808
:10193000FFF718FB384800F01EF90020ADF8300022
:101940002020ADF8320042F2CF000D900020ADF81B
:1019500038008DF83A000CA92F4800F095FA602065
:10196000ADF81C000120ADF81E000420ADF82000E9
:1019700000200990ADF82800ADF82A004FF48070DF
:10198000ADF82C000020ADF82E0001A800F062F8A0
:101990001F20ADF80A004FF40060ADF804004010BD
:1019A000ADF806008010ADF808000020ADF80C007E
:1019B00001A9194800F03EF807A9174800F0E2F81D
:1019C00007A9154800F026F907A9134800F082F985
:1019D00007A9114800F0D8F908210F4800F010F9C4
:1019E00008210D4800F068F908210B4800F0C2F901
:1019F0000821094800F004FA0121074800F00EF818
:101A00000121054800F03EF80121034800F02EF8BE
:101A10000FB000BD000802400004014021B102885F
:101A200042F08002028004E002884FF67F731A4081
:101A3000028070470A884B881A438B881A43CB88E8
:101A40001A430B891A434B891A438B891A43A0F80E
:101A5000442070470021018041808180C180018144
:101A6000418181817047CA430282704721B1028857
:101A700042F00102028004E002884FF6FE731A4031
:101A80000280704731B1B0F8442042F40042A0F81F
:101A9000442005E0B0F84420C2F30E02A0F8442030
:101AA0007047F0B50C4615461E4600210022002363
:101AB0000189028B038C4FF6F877394021434FF6AA
:101AC000FC473A4040F201173A434FF6DD773B407E
:101AD0004FF6FF7707EA06172F433B430181028346
:101AE0000384F0BD70B505460C46208850B92389A3
:101AF000A28861882846FFF7D1FDE188284600F0DA
:101B000096F925E0208804280AD12389A2886188D3
:101B10002846FFF7E0FDE188284600F091F917E03C
:101B2000208808280AD12389A28861882846FFF7DF
:101B3000FAFDE188284600F090F909E02389A2889F
:101B400061882846FFF713FEE188284600F08EF9E9
:101B500070BD002101804180012181800021C18070
:101B6000018170471AB183890B43838102E0838925
:101B70008B438381704701894FF6F87211400181D0
:101B80007047000070B5002400220023058C4FF63A
:101B9000FE7635400584028C8388048B4FF68F7562
:101BA0002C40B51E2C400D882C43751E2A408D8973
:101BB0002A434D882A43104DA84202D00F4DA84217
:101BC00013D14FF6F7752A40CD892A434FF6FB759E
:101BD0002A408D882A434FF6FF652B404FF6FF556C
:101BE0002B400D8A2B434D8A2B43838004838D68C1
:101BF0004563028470BD0000000001400004014004
:101C00000A460021018B4FF6F773194011430183F7
:101C10007047000070B5002400220023058C4FF6A9
:101C2000EF7635400584028C8388048B48F6FF7577
:101C30002C404FF6FF452C400D884FF6FF7606EA04
:101C400005252C434FF6DF752A408D8906EA0515D8
:101C50002A434D8806EA05152A43154DA84202D0AD
:101C6000144DA8421DD14FF67F752A40CD894FF6FD
:101C7000FF7606EA05152A434FF6BF752A408D8880
:101C800006EA05152A434FF6FF352B404FF2FF7544
:101C90002B400D8A06EA85052B434D8A06EA850509
:101CA0002B43838004838D688563028470BD0000AC
:101CB00000000140000401400A460021018B4FF260
:101CC000FF7319404FF6FF7303EA022319430183A0
:101CD0007047000070B5002400220023058C4FF6E9
:101CE000FF6635400584028C8388848B4FF68F75A0
:101CF0002C404FF6FC752C400D882C434FF6FF55B9
:101D00002A408D894FF6FF7606EA05252A434D883D
:101D100006EA05252A43154DA84202D0144DA842D3
:101D20001DD14FF2FF752A40CD894FF6FF7606EAA6
:101D300005252A434FF6FF352A408D8806EA0525FA
:101D40002A434EF6FF752B404DF6FF752B400D8A4A
:101D500006EA05152B434D8A06EA05152B438380B9
:101D600084838D68C563028470BD0000000001405B
:101D7000000401400A460021818B4FF6F773194099
:101D8000114381837047000070B5002200230024B6
:101D9000058C4EF6FF7635400584038C8488828B53
:101DA00048F6FF752A404FF6FF452A400D884FF64A
:101DB000FF7606EA05252A434DF6FF752B408D89EF
:101DC00006EA05352B434D8806EA05352B430A4DB7
:101DD000A84202D0094DA84208D14BF6FF752C400D
:101DE0000D8A4FF6FF7606EA85152C4384808283A0
:101DF0008D680564038470BD00000140000401404B
:101E00000A460021818B4FF2FF7319404FF6FF7392
:101E100003EA02231943818370474163704781635A
:101E20007047C16370470164704741627047028B1D
:101E30004FF6F3731A400283028B0A430283704702
:101E4000028B4FF2FF331A400283028B4FF6FF736F
:101E500003EA01231A4302837047828B4FF6F37320
:101E60001A408283828B0A4382837047828B4FF2AF
:101E7000FF331A408283828B4FF6FF7303EA0123FC
:101E80001A4382837047000000220288184B984250
:101E90000ED0184B98420BD0B0F1804F08D0164BA3
:101EA000984205D0154B984202D0154B984204D168
:101EB0004FF68F731A404B881A43124B984207D043
:101EC000114B984204D04FF6FF431A400B891A4336
:101ED00002804B68C3620B880385054B984202D091
:101EE000044B984201D18B7A038601238382704789
:101EF00000000140000401400004004000080040D0
:101F0000000C004000100040001400404FF0FF3172
:101F10004160002101800181418081727047000091
:101F20001CB54FF4E13001F0ABFF06A103C9CDE9C8
:101F300000016846FEF7C6F984B22146684600F003
:101F400000F91CBD24302C302C31230010B540F298
:101F500025510C4800F02BF990B10B480068B0F502
:101F60007A7F01DA002010BD064800F0D9F9C4B22A
:101F70002046FEF7B1FC40F22551024800F0EFF890
:101F80000020F0E700500040000200202DE9F04161
:101F90002DED028B40F22551434800F008F900284E
:101FA0007FD000260127404800F0BAF9C5B23F486B
:101FB0000068B0F57A7F04DA0020BDEC028BBDE842
:101FC000F0813B483B49097845547B2D03D0394883
:101FD0000078002805DD37480078401C3549087036
:101FE00002E0002033490870324800780B2857D1AE
:101FF0000020304908702E48807A7D2850D1002476
:1020000003E02B48005D4640641C092CF9DB28489E
:10201000407AB04200D10027002F41D126480078F5
:1020200058B9012024490870002024490870244927
:10203000087024490870244908700020234908705A
:102040001B4A1179D07800F0E7F9214880ED000AA9
:10205000174A9179507900F0DFF91E4880ED000AA7
:10206000134A117AD07900F0D7F9B0EE408A1A48B5
:10207000007802280BD1F0EE480A154890ED000ACE
:1020800000F05AF9154880ED000A08E009E0084A16
:10209000117AD07900F0C0F9104880ED000A00BF35
:1020A00000BF002089E7000000100140000200206E
:1020B000A4020020140000209401002091010020BF
:1020C0009001002092010020930100200E020020C8
:1020D0006401002068010020580100206C010020EC
:1020E00010B540F22551084800F061F858B1064893
:1020F00000F016F9C4B22046FEF7D4FC214602488F
:1021000000F013F900BF10BD0048004010B50446B0
:1021100000BF8021044800F03DF80028F9D0214696
:10212000014800F002F910BD0048004010B5044617
:1021300003E014F8010BFFF7E9FF20780028F8D13D
:1021400010BD10B503460C46002200BF04E0985CA9
:1021500001F006FF501C82B2A242F8DB10BD10B5A0
:102160000022002340F66A14A14200D100BF0A12E7
:1021700001249440A3B2DC43048010BD21B18289C4
:1021800042F40052828104E082894DF6FF731A40C6
:102190008281704702460020B1F5007F00D100BF68
:1021A00013880B400BB1012000E00020704770B590
:1021B0000246002400230025002040F66A16B142A2
:1021C00000D100BFC1F3421501F01F03012606FA3A
:1021D00003F3012D02D19689334006E0022D02D18E
:1021E000168A334001E0968A33400C12012606FA23
:1021F00004F41688344013B10CB1012000E0002033
:1022000070BDF0B50346002400260025002040F6EE
:102210006A17B94200D100BF1846C1F3421401F059
:102220001F06012707FA06F5012C01D10C3004E046
:10223000022C01D1103000E014301AB107682F438E
:10224000076002E00768AF430760F0BD2DE9FF4774
:1022500005460E460024A14600BFA046B08900B145
:1022600000BF2C8A24F44054F08804432C82AC89AB
:1022700041F20C608443B088318908437189084376
:102280000443AC81AC8A24F44074B0890443AC822A
:102290006846FEF753FF2048854202D01F4885421A
:1022A00002D1DDF80C9001E0DDF80890A88900F477
:1022B000004040B109EBC90000EB0910316849004A
:1022C000B0FBF1F707E009EBC90000EB091031683A
:1022D0008900B0FBF1F76420B7FBF0F0040120099E
:1022E000642101FB1078A88900F4004040B132203D
:1022F00000EBC800B0FBF1F000F00700044308E079
:10230000322000EB08106421B0FBF1F000F00F0068
:1023100004432C81BDE8FF870010014000140140F8
:1023200001468888C0F308007047C1F30802828024
:10233000704700BFFEE7000010B52DED0A8BF0EEF0
:10234000408AB0EE608A9FED300AF0EE409AB5EE1A
:10235000C08AF1EE10FA4FD0F5EEC08AF1EE10FA15
:102360004AD088EE880AF0EE40AA00F0B7FDB4EE3D
:10237000E90AF1EE10FA17D8B5EEC08AF1EE10FABC
:1023800008DDB0EE680A00F0A9FDC0EE290AB0EE43
:10239000608A09E0B0EE680A00F0A0FDB1EE400AE4
:1023A000C0EE290AB0EE608A88EE88AA1748D0ED00
:1023B000000AB6EE001AB0EE4A0A01EE200A1448EE
:1023C000D0ED000A80EE801A11EE104A2046FEF78A
:1023D000AAF841EC1C0BB0EE4C0AF0EE6C0A00F0CF
:1023E0008FF8B0EE40BAF0EE60BA51EC1B0BFEF77E
:1023F000ADF809EE100A01E09FED069AB0EE490A29
:10240000BDEC0A8B10BD00003333B33E84010020C5
:1024100088010020000000002DE9F0412DED088B1F
:1024200004460D4605EB042006B24FF47A7096FB85
:10243000F0F100FB11673846FEF764F841EC1B0B26
:102440009FED0F0B53EC102BFDF7EAFF41EC190B3E
:102450004FF47A7096FBF0F73846FEF753F841ECEC
:102460001A0B53EC192BFDF734FF41EC180BFEF758
:102470006DF800EE100ABDEC088BBDE8F08100009D
:10248000FCA9F1D24D62503F0FB4054B10B503A922
:10249000044A029800F0D4FB10BC5DF814FB000065
:1024A000F92E0008C400002003B4019841000098F0
:1024B00050EAC12018BF04204A0D18BF40F00100A7
:1024C00040F2FF72B2EB515F08BF40F002000128FA
:1024D00008BF052002B070474100080218BF042061
:1024E0000A0E18BF40F001004FF07F4232EA0101AE
:1024F00008BF40F00200012808BF05207047000017
:1025000070B59B482DED020B2DED068B079D25F038
:102510000044A04218DC9748844202DC0AD10698A5
:1025200040B19DED060BBDEC068B02B0BDE87040DE
:1025300000F096BA002DCCBF9FED8F0B9FED900B56
:10254000BDEC068B02B070BD8F48A04215DD8F48F0
:10255000A042D8BF4FF0FF3458DD9DED060B51EC83
:10256000100BFFF7A1FF042808BF00F085FA9DEDCE
:10257000060BBDEC068B02B070BD9DED060B51EC59
:10258000100B00F09FFCCDE9060181489FED828B86
:10259000A0423CDD8248A0421FDD00249FED82ABBB
:1025A0009DED060B53EC1A2B51EC100BFDF791FE31
:1025B0009DED060B41EC190B53EC1A2B51EC100B53
:1025C000FDF72EFF53EC182BFDF724FF53EC192BCE
:1025D000FEF7A3F8CDE9060149E09DED060B0124C5
:1025E00053EC182B51EC100BFDF773FE9DED060B11
:1025F00041EC190B53EC182B51EC100BFDF70AFFB3
:1026000053EC192BFEF789F8CDE906012FE0684855
:10261000A0421FDD02249FED689B9DED060B53EC4D
:10262000192B51EC100BFDF7FBFE53EC182BFDF7AB
:1026300050FE9DED060B41EC180B53EC192B51ECA1
:10264000100BFDF7E7FE53EC182BFEF766F8CDE90B
:1026500006010CE09DED060B032453EC102B9FEDBF
:10266000580B51EC100BFEF758F8CDE906019DED23
:10267000060B53EC102B51EC100BFDF7D1FE41EC87
:10268000180B53EC182BFDF7CBFE41EC190B4E4801
:102690000621B0EE490AF0EE690A784400F064F9C8
:1026A00053EC182B51EC100BFDF7BAFE41EC180B54
:1026B0004648B0EE490AF0EE690A0521784400F078
:1026C00053F953EC192B51EC100BFDF7A9FE41EC1B
:1026D000100B51EC180B53EC102B002C0EDAFDF7FD
:1026E000F8FD9DED061B53EC112BFDF799FE9DEDBA
:1026F000061B53EC112BFDF790FE35E0FDF7E9FDCD
:102700009DED061B53EC112BFDF78AFE41EC100BDF
:102710002F48784400EBC40090ED001B51EC100BE7
:1027200053EC112BFDF776FE9DED061B53EC112BA0
:10273000FDF770FE41EC100B2648784400EBC40016
:1027400090ED001B51EC100B53EC112BFDF765FEC7
:1027500041EC100B002DA2BFBDEC068B02B070BD8A
:1027600051EC100B81F0004141EC100B01E700002F
:10277000000010440000F07F182D4454FB21F93F65
:10278000182D4454FB21F9BF0000DC3F0000203E1F
:102790000000F33F00000000000000000000F03FD8
:1027A0000000E63F000000000000000000000040C4
:1027B0000080034000000000000000000000F83F1F
:1027C000000000000000F0BFCA2E0000802E0000B4
:1027D0000A2E0000C22D000000B510EE101A2DEDDB
:1027E000028B81B0524A6846B2EB410F2ED94FF0AE
:1027F000E640B0EB410F94BF00204FF0FF30009057
:102800000098B0EE408A00286ADB10F0010F4BD030
:1028100068EE080A9FED471A9FED470A00EE810A0D
:102820009FED461A10F0020F00EE801AB7EE000A74
:1028300000EE810A02BF01B0BDEC028B00BD00BFFB
:1028400001B0B1EE400ABDEC028B00BD3C4B21F063
:102850000042934241D911F0004FDFED3A0A20EED9
:10286000201ADFED390A19BF31EE601A71EE200A25
:1028700031EE201A71EE600ABDEEE01A11EE100A78
:102880009FED321A00F0030000EEC10A9FED301AEE
:10289000009000EEC10A9FED2F1A00EEC10A9FEDD5
:1028A0002E1A00EEC10AABE728EE080A9FED2B1A9C
:1028B000DFED2B0A10F0020F40EE410A9FED291ABE
:1028C00000EE201A61EE000AB0EE480A08EE200A77
:1028D000B6D101B0BDEC028B00BD00F0F1F88FE77E
:1028E00018EE100A4000B0F17F4F0DD218EE100A1A
:1028F000FFF7F2FD042808BF00F0DAF8B0EE480A4E
:1029000001B0BDEC028B00BD09D1012000F092F9AD
:1029100001B0BDEC028B5DF804EB00F0C1B801B072
:10292000B0EE480ABDEC028B5DF804EB00F0B4B8E1
:10293000B61F927EB93AB2BACA9F2A3DDDFFFFBEEA
:10294000490E494683F9223F0000004B0000C93F71
:1029500000A0FD390020A2331A61342C336D4C39AC
:10296000DA82083CA0AA2ABE70B504462DED028B7F
:102970004D1E00EBC500B0EE408AF0EE608A90ED8F
:10298000000B35F0060017D053EC182B51EC100B50
:10299000FDF746FD41EC100B6D1E04EBC50090EDFC
:1029A000001B51EC100B53EC112BFDF792FC41EC8A
:1029B000100B35F00600E7D1022D36D0042D1CD0C7
:1029C000062D1CBFBDEC028B70BD53EC182B51ECD7
:1029D000100BFDF725FD94ED0A1B53EC112BFDF7B1
:1029E00078FC53EC182BFDF71BFD94ED081B53EC02
:1029F000112BFDF76EFC41EC100B53EC182B51EC36
:102A0000100BFDF70DFD94ED061B53EC112BFDF79C
:102A100060FC53EC182BFDF703FD94ED040B53EC15
:102A2000102BFDF756FC41EC100B53EC182B51EC1E
:102A3000100BFDF7F5FC94ED021B53EC112BFDF789
:102A400048FC53EC182BFDF7EBFC94ED001B53EC0A
:102A5000112BFDF73EFCBDEC028B41EC100B70BD61
:102A600010B553EC102B51EC100BFDF732FC41EC80
:102A7000100B10BD000000009FED050B10B553ECCE
:102A8000102B51EC100BFDF7CBFC41EC100B10BDE3
:102A9000000000000000001030EE000A7047000047
:102AA000DFED020A80EEA00A70470000000000007F
:102AB0009FED020A20EE000A70470000000000109F
:102AC0002DE9F0014FF07F42B2EB410F9FBF4FF075
:102AD000FF310160BDE8F00170474FF0004242EA6B
:102AE0000123C1F3C752783A551112F01F0C434C21
:102AF000CCF120067C44C1F3C752A2F178024FEA20
:102B0000621204EB820254F8254008BFD2E9015654
:102B100012D0556804FA0CF425FA06F73C4397687E
:102B200005FA0CF527FA06F8D26807FA0CFCF24011
:102B300045EA08054CEA0206A4FB034CA5FB035238
:102B4000A6FB03631D449D4234BF012600261319D2
:102B5000334416B1934202D903E0934201D20122D9
:102B600000E00022624402F1200C9206DC0C42EAF2
:102B7000443200EE102A5B03DFED210AF8EEC01AA2
:102B800000EE103A4FEA9C1C11F0004FB8EE400ADC
:102B9000C0F800C020EE201A00EE105ADFED190A2E
:102BA000B8EE400A20EE200A71EE810A70EE800A2B
:102BB00010EE902A02F500626FF30B0200EE902AED
:102BC00070EEE11A31EEC11ADFED101A30EE411A43
:102BD0009FED0D0A20EE800A01EE210A9FED0C1AEE
:102BE00000EE810A04BFBDE8F0017047CCF18051CE
:102BF0000160BDE8F001B1EE400A7047A02A000074
:102C0000000000360000802C22AAFD29DB0FC92F0E
:102C10000000C92F02E008C8121F08C1002AFAD11B
:102C200070477047002001E001C1121F002AFBD14C
:102C30007047000001490860704700005002002002
:102C40002DE9FF4F8BB09A460F460546002606E059
:102C500025280BD052460D9990476D1C761C28787C
:102C60000028F5D10FB03046BDE8F08F0024A04613
:102C70000122604900E0044315F8013F203B02FABD
:102C800003F00842F7D128782E2817D115F8010F44
:102C900044F004042A280ED06FF02F022878A0F107
:102CA000300109290AD808EB880102EB410100EB49
:102CB00001086D1CF2E757F8048B6D1C2878692811
:102CC0003ED006DC0028CDD063280BD0642804D188
:102CD00036E0732810D075284BD052460D99904796
:102CE000761C85E017F8040B8DF8000000208DF8A5
:102CF0000100E946012003E057F8049B4FF0FF3044
:102D000061074FF0000401D40AE0641C44450DDA69
:102D10008442FADB19F804100029F6D106E0641C9D
:102D20008442FCDB19F804100029F8D1264404E0A1
:102D300019F8010B52460D999047641EF8D257E0DE
:102D400001CF4FF00A0B002802DA40422D2102E0A9
:102D5000210504D52B218DF82410012103E0E10782
:102D600005D02021F7E70DF1200908910CE00021A2
:102D7000F9E701CF4FF00A0BF9E75946FDF702FCDE
:102D800001F1300209F8012D0028F6D1ADEB090060
:102D900000F1200B600701D44FF00108D84502DD97
:102DA000A8EB0B0000E000208046002406E009A804
:102DB0005246005D0D999047641C761C0898844229
:102DC000F5DB04E0302052460D999047761CB8F1AF
:102DD0000001A8F10108F5DC05E019F8010B5246E5
:102DE0000D999047761CBBF10001ABF1010BF4DCAF
:102DF0006D1C34E70928010070B504460420FEF775
:102E0000FDFB0C48047025464FF47A7045430120C1
:102E1000094908804FF0E020006940F002004FF0BF
:102E2000E021086108464561006940F00100086141
:102E300070BD0000BC000020BE00002070B504463C
:102E400002F0B6F8012810D00B480088844206D35F
:102E500009480088B4FBF0F5284601F04BFA064813
:102E60000088B4FBF0F100FB11444FF47A7104FBCD
:102E700001F000F003F870BDBE00002070B50346FD
:102E800000224FF0E02675690D4E367803FB06F4FC
:102E90004FF0E026B16910E04FF0E026B0698842BB
:102EA0000BD0884202D20E1A324402E02E1A0E448F
:102EB00032440146A24200D300E0EDE700BF70BDFE
:102EC000BC00002082B0CDE9000121F0004001905B
:102ED0009DED000B02B051EC100B7047F0EE400A74
:102EE000F5EEC00AF1EE10FA02DBB0EE600A7047B0
:102EF000B1EE600AFBE7000000BF054A128802F04D
:102F00004002002AF9D0C2B2014B1B1D1A80704743
:102F10000044004010B502F04BF8012802D002F046
:102F200057F810BD01480068FBE70000C000002012
:102F30001CB500F067FE002002210346CA01CDE95E
:102F4000001005A1084802F003F801F057FB01E06A
:102F5000FDF7A0FCFCE70000464F434C6F6F705F2D
:102F60007461736B00000000ED0C00082DE9F04166
:102F700005460E461C4807681C480068001D00F006
:102F8000FBFF50B91948006890F82C1001208840C8
:102F900017490968814316480160681C38B936B181
:102FA00012480168091D134801F024F81AE07C1941
:102FB0000E4800684460BC4207D20C480168091DF5
:102FC0000D48006800F0FCFF0CE008480168091D8E
:102FD0000A48006800F0F4FF09480068844201D202
:102FE00007480460BDE8F081F0000020DC0000200C
:102FF000F400002028160020E4000020E00000205B
:103000000C01002010B5044601F000F824480068C7
:10301000401C234908602348006840B921480460E7
:103020000846006801280DD100F0EEF90AE01E48BC
:10303000006838B91B480068C06AE16A884201D854
:103040001848046019480068401C18490860084680
:103050000068606494F82C100120884014490968C5
:10306000084313490860E16A01EB8101114A02EB50
:103070008100211D00F0BEFF01F00CF80A48006835
:1030800068B108480068C06AE16A884207D24FF018
:10309000805009490860BFF34F8FBFF36F8F10BD99
:1030A000EC000020DC000020F800002008010020D7
:1030B000F40000205813002004ED00E010B500F0EB
:1030C000A5FF10480068D0B90F4800F069FF0F480D
:1030D00000F066FF0C480E4908600C480D49086076
:1030E00000221021052001F003FC06490860084673
:1030F000006820B108A10348006801F0BFF800F0A3
:10310000C9FF10BD200100203C16002050160020F1
:10311000180100201C010020546D725100000000B5
:1031200070B523E001F0C0FA1348006808B9012027
:1031300000E00020054602F0C7F8BDB900F066FFC8
:103140000D48C068C468201D00F016FF0B480068D9
:10315000401E0A4908600A480068401E0849086085
:1031600000F098FF204600F060F800BF04480068B7
:103170000028D7D170BD000014160020EC000020FC
:10318000E800002070B504460D46206C70B1216C3B
:10319000E0680844E0606168E068884201D3206824
:1031A000E0602846226CE168FDF768F870BD2DE903
:1031B000F04104460F4615464FF00008A66B206C00
:1031C00040B9206860BB606801F0B8FF804600200D
:1031D000606025E07DB93946226CA068FDF74EF8A5
:1031E000216CA0680844A060D4E90110884217D37C
:1031F0002068A06014E03946226CE068FDF73EF8D4
:10320000216CE068401AE0602168E068884203D2DF
:10321000216C6068401AE060022D01D106B1761E73
:10322000701CA0634046BDE8F08110B50446206BD9
:1032300000F068FF204600F065FF10BD0146084A17
:10324000126812680AB9012200E000220A600A68C6
:1032500022B9034A1268D268106800E00020704763
:103260001801002030B54FF4A043174800F00704C0
:103270002CB1C01D20F00700134C041B1B1B024681
:10328000124C22600024114D6C60D018083820F0D8
:1032900007000F4C206000240D4D2D686C600C4D14
:1032A0002D682C601146441A4C60094C24680C604F
:1032B000084D4C682C60084D4C682C604FF0004461
:1032C000064D2C6030BD000064160020380100203F
:1032D0004001002048010020440100204C01002052
:1032E00000BFFFF71DFF064800680128F9D94FF01D
:1032F000805004490860BFF34F8FBFF36F8FF0E732
:103300005813002004ED00E02DE9F04106460D467B
:1033100017469846069C0DB9246000E02760E663D6
:1033200025640121204601F001FC84F85080002032
:10333000A064BDE8F08100002DE9F05F82460F46F1
:1033400090469B460A9E0C9C4FEA8801A522206B62
:10335000FCF7A6FFA8F10100216B01EB800929F021
:10336000070909F0070008B9012000E0002028B98A
:1033700040F22B321BA120A0FFF786F8002507E0C2
:10338000795D04F134004155785D00B902E06D1CAF
:10339000102DF5D300BF002143200155202E00D36E
:1033A0001F26E662E66400202065201D00F005FE71
:1033B00004F1180000F001FE2461C6F12000A061B4
:1033C00064620020606584F858005A4651464846B9
:1033D00000F002FC20600B9808B10B980460BDE877
:1033E000F09F00002E2E5C4672656552544F535C70
:1033F0007461736B732E63004572726F723A25733A
:103400002C25640D0A00000010B5002407E004EB31
:1034100084010F4A02EB810000F0C2FD641C202CE5
:10342000F5D30C4800F0BCFD0B4800F0B9FD0B488B
:1034300000F0B6FD0A4800F0B3FD0A4800F0B0FD08
:1034400004480949086004480849086010BD0000A4
:1034500058130020D8150020EC150020001600207D
:103460001416002028160020E0000020E4000020B0
:1034700010B50146164800E0006803688B42FBD394
:103480000246436813448B4204D143684C6823448A
:10349000436001460A464B6813440468A34211D1B5
:1034A0000C4C03682468A34208D04B680468646825
:1034B00023444B6003681B680B6005E0054B1B68E9
:1034C0000B6001E003680B60884200D0016010BD12
:1034D00038010020400100202DE9F04104460D464E
:1034E00016461F464FF0000865602461B5420CD8AF
:1034F000F01BA169884202D34FF0010811E0211DA1
:103500000948006800F05CFD0BE0BE4204D2BD42F9
:1035100002D34FF0010804E0211D0448006800F0C8
:103520004FFD4046BDE8F0811C010020180100203D
:1035300070B5054600F06AFDA86B08B9012400E0EB
:10354000002400F0A7FD204670BD70B5054600F0D0
:103550005DFDA86BE96B884201D1012400E00024E5
:1035600000F098FD204670BD2DE9F3410D4600980E
:10357000846C00272CB940F6CE121AA11EA0FEF7CB
:1035800083FFA06BE16B884201D2012000E00020A4
:1035900028B940F6CF1213A117A0FEF775FFA06B54
:1035A000E16B88421BD294F945602A466946204661
:1035B000FFF7FDFD0746701C60B9606A08B901207D
:1035C00000E0002050B904F1240001F023FE28B1EE
:1035D000012703E0701C40B284F8450000BF384664
:1035E000BDE8FC812E2E5C4672656552544F535CDB
:1035F00071756575652E63004572726F723A257339
:103600002C25640D0A000000F8B505460F46134846
:103610000068C068C468201D00F0AEFCE0690128A5
:1036200018D1A06941192B463A462046FFF754FFAE
:1036300080B1002003462A4601460090204601F052
:103640000DFF06462EB94FF4027205A10AA0FEF73F
:103650001BFF00BF2046616A8847F8BD18010020A3
:103660002E2E5C4672656552544F535C74696D65CD
:1036700072732E63000000004572726F723A2573F8
:103680002C25640D0A000000F0B587B070E00398A7
:1036900000280CDA04AE2EB940F2E7223AA140A08D
:1036A000FEF7F2FED6E90020B168904700BF03980C
:1036B00000285DDB059C606908B9012000E000205E
:1036C00010B9201D00F058FC02A800F0C7F805460C
:1036D00003980A284AD2DFE800F00905072C2E4596
:1036E00006082D2F00BF00BF00BF00BF0498A269CD
:1036F000811803462A462046FFF7EEFEC0B1204659
:10370000616A8847E069012812D10020009004987E
:10371000A169421800231946204601F09FFE074682
:103720002FB940F2213218A11DA0FEF7ADFE00BF57
:103730001DE000BF1BE000BF0498A061A06908B1B4
:10374000012000E0002028B94FF44E720EA114A011
:10375000FEF79AFEA06941192B462A462046FFF73C
:10376000BBFE04E0204600F0CDFC00E000BF00BF3F
:1037700000231A4603A90E48006801F0F3F8002858
:1037800085D107B0F0BD00002E2E5C4672656552F3
:10379000544F535C74696D6572732E6300000000B2
:1037A0004572726F723A25732C25640D0A00000071
:1037B00020010020F8B505460C4600F075FF68466C
:1037C00000F04CF80646009820BB44B9B54206D834
:1037D00001F07AFD31462846FFF716FF1CE03CB1A8
:1037E0000E480068006808B9012000E00020044687
:1037F000A91B22460A48006800F056FD01F064FD4E
:1038000050B94FF0805007490860BFF34F8FBFF3A6
:103810006F8F01E001F058FDF8BD00001C01002091
:103820002001002004ED00E00A490968096809B98F
:10383000012100E0002121B14FF0FF31064A116063
:1038400006E004490968C968C868034A416811600C
:1038500070470000E00000200C01002070B5044615
:1038600001F0B6FB054607480068854204D200F027
:103870000BF80120206001E0002020600148056075
:10388000284670BD280100202DE9F8432DE021488D
:103890000068C06805681F480068C068C468201DCB
:1038A00000F06AFB2046616A8847E06901281CD164
:1038B000A0694619AE4207D966602461211D1548EA
:1038C000006800F07DFB10E0002003462A46014618
:1038D0000090204601F0C2FD07462FB940F2923217
:1038E0000DA113A0FEF7D0FD00BF0A4800680068D4
:1038F00008B9012000E000200028C8D00548D0F811
:1039000000800F480068034908600D48C0F8008037
:10391000BDE8F883180100202E2E5C4672656552C2
:10392000544F535C74696D6572732E630000000020
:103930004572726F723A25732C25640D0A000000DF
:103940001C0100200C480068401C08B9012000E060
:10395000002028B940F20F1208A113A0FEF794FD31
:1039600000BF502080F31188BFF34F8FBFF36F8FDC
:1039700000BF00BFFEE700002C0100202E2E5C4699
:1039800072656552544F535C706F727461626C65FE
:103990005C525644535C41524D5F434D34465C701B
:1039A0006F72742E630000004572726F723A257355
:1039B0002C25640D0A00000008B500BF6846FFF71B
:1039C0003DFC044620460099FFF7F4FEFFF75CFE3D
:1039D000F4E770B5044600F019FB94F945501AE07D
:1039E000A06C38B100212046FFF7BEFD88B100F081
:1039F00029FD0EE0606A08B9012000E0002038B916
:103A000004F1240001F006FC18B100F01BFD00E0F9
:103A100003E0681E45B2002DE2DC00BFFF2084F801
:103A2000450000F037FB00F0F1FA94F9445010E043
:103A3000206908B9012000E0002048B904F1100015
:103A400001F0E8FB08B100F0FDFC681E45B200E0A3
:103A500001E0002DECDC00BFFF2084F8440000F002
:103A600019FB70BD2DE9F04104464FF0000800F04D
:103A70001BFE3E48006808B9FFF7F4FB3C480068AD
:103A8000204000285FD1A4B1083404F0070080B1C1
:103A900004F00700C0F10800044404F0070008B96E
:103AA000012000E0002020B9BF2232A13BA0FEF798
:103AB000EBFC002C47D03D480068844243D83C4E84
:103AC0003046056801E02E462D686868A04202D2A3
:103AD00028680028F7D125480068854233D030682F
:103AE00000F10808286830606868001B102813D9A6
:103AF0002F1907F0070008B9012000E0002020B9C5
:103B0000EC221CA125A0FEF7BFFC6868001B7860B2
:103B10006C603846FFF7ACFC244968680968081AED
:103B2000224908600846006822490968884203D291
:103B30001E4800681F4908600D4968680968084305
:103B400068600020286001F0BFFB08F0070008B99A
:103B5000012000E0002028B94FF4967205A10FA0C3
:103B6000FEF792FC4046BDE8F081000040010020D5
:103B70004C0100202E2E5C4672656552544F535CFA
:103B8000706F727461626C655C4D656D4D616E67DE
:103B90005C686561705F342E630000004572726F6F
:103BA000723A25732C25640D0A00000044010020A0
:103BB00038010020480100200648006830B105495E
:103BC000096801F15000096D491C01600148006855
:103BD00070470000DC000020001F4FF0807303607E
:103BE000001F21F001030360001F054B0360143820
:103BF0000260001F6FF0020303602038704700006E
:103C00004539000810B54FF44070FDF75DFAA82063
:103C1000FFF7F2F84FF4E13000F02AF84FF41650B5
:103C200000F07EF8FCF714FFFEF77AF9FDF774FB5D
:103C3000FCF78AFFFCF7FCFFFDF776F8FDF7D8FDEF
:103C4000FDF748FE10BDF0EE401AF4EEE01AF1EE7A
:103C500010FA02D2B0EE600A7047F4EEC11AF1EE2B
:103C600010FA02DDB0EE410AF6E7B0EE610AF3E7C2
:103C700010B588B0044601210846FDF72FFA01214E
:103C80001020FDF74BFA072209212348FDF76AF9B6
:103C900007220A212048FDF765F94FF4C06006901D
:103CA00002208DF81C0000208DF81E0002208DF8E7
:103CB0001D0001208DF81F0006A91748FDF70AF91D
:103CC00025208DF8040001208DF8050000208DF8D6
:103CD000060001208DF8070001A8FDF7B9F902944C
:103CE0000020ADF80C00ADF80E00ADF81000ADF8F6
:103CF00014000C20ADF8120002A90848FEF7A6FA3D
:103D0000012240F225510548FEF77BFA01210348C4
:103D1000FEF734FA08B010BD000002400010014068
:103D200010B588B0044601210820FDF7D7F901211C
:103D30004804FDF7E3F9072205212348FDF712F9AE
:103D4000072206212048FDF70DF960200690022089
:103D50008DF81C0000208DF81E0002208DF81D003B
:103D600001208DF81F0006A91748FDF7B3F826209B
:103D70008DF8040001208DF8050000208DF8060064
:103D800001208DF8070001A8FDF762F902940020D8
:103D9000ADF80C00ADF80E00ADF81000ADF8140051
:103DA0000C20ADF8120002A90848FEF74FFA0122D4
:103DB00040F225510548FEF724FA01210348FEF799
:103DC000DDF908B010BD0000000C024000440040C6
:103DD00010B588B0044601210820FDF77FF90121C4
:103DE0008804FDF78BF9072208212348FDF7BAF86C
:103DF000072209212048FDF7B5F84FF440700690DE
:103E000002208DF81C0000208DF81E0002208DF885
:103E10001D0001208DF81F0006A91748FDF75AF86C
:103E200027208DF8040002208DF8050000208DF871
:103E3000060001208DF8070001A8FDF709F902949A
:103E40000020ADF80C00ADF80E00ADF81000ADF894
:103E500014000C20ADF8120002A90848FEF7F6F98C
:103E6000012240F225510548FEF7CBF90121034814
:103E7000FEF784F908B010BD000C02400048004075
:103E800010B588B0044601210420FDF727F901216F
:103E90000820FDF723F901210805FDF72FF9082275
:103EA0000C212C48FDF75EF8082202212A48FDF774
:103EB00059F84FF48050069002208DF81C00002025
:103EC0008DF81E0002208DF81D0001208DF81F00C6
:103ED00006A92048FCF7FEFF0420069002208DF87A
:103EE0001C0000208DF81E0002208DF81D0001200E
:103EF0008DF81F0006A91848FCF7ECFF35208DF857
:103F0000040002208DF8050000208DF80600012035
:103F10008DF8070001A8FDF79BF802940020ADF88A
:103F20000C00ADF80E00ADF81000ADF814000C2038
:103F3000ADF8120002A90948FEF788F9012240F203
:103F400025510648FEF75DF901210448FEF716F9F0
:103F500008B010BD00080240000C024000500040B4
:103F60000449888000BF0349098801F04001002905
:103F7000F9D070470050004001460A69D1E901308C
:103F80009860D1E9010358605068884201D188687F
:103F90005060002008611068401E10601068704773
:103FA00000F1080141604FF0FF31816000F108012C
:103FB000C16001610021016070470021016170470B
:103FC00010B502460B685C1C0CB9106907E002F1E1
:103FD000080000E04068446824689C42FAD94468BC
:103FE0004C604C68A160886041600A611468641C80
:103FF000146010BD42684A6093688B609368596092
:104000009160086103685B1C0360704710B500BFD6
:10401000502080F31188BFF34F8FBFF36F8F00BF25
:104020000B480068401C0A490860084600680128DF
:104030000DD108480068C0B208B9012000E0002096
:1040400028B940F2B91204A10EA0FEF71DFA10BD66
:104050002C01002004ED00E02E2E5C4672656552B6
:10406000544F535C706F727461626C655C5256445D
:10407000535C41524D5F434D34465C706F72742EF9
:10408000630000004572726F723A25732C25640D2F
:104090000A00000010B50B48006828B94FF4E07220
:1040A00009A114A0FEF7F0F906480068401E054972
:1040B00008600846006820B9002080F3118800BF1E
:1040C00000BF10BD2C0100202E2E5C46726565528B
:1040D000544F535C706F727461626C655C525644ED
:1040E000535C41524D5F434D34465C706F72742E89
:1040F000630000004572726F723A25732C25640DBF
:104100000A00000070B506463546002E35D0083D41
:104110002C461A4960680968084008B1012000E08F
:10412000002028B94FF4A07215A11FA0FEF7ACF92A
:10413000206808B9012000E0002028B940F24112AF
:104140000FA119A0FEF7A0F90C49606809680840A2
:1041500098B1206888B90949606809688843606037
:1041600000F0A2FA1449606809680844124908601E
:104170002046FFF77DF901F0A7F870BD4C01002043
:104180002E2E5C4672656552544F535C706F72748C
:1041900061626C655C4D656D4D616E675C68656103
:1041A000705F342E630000004572726F723A25739F
:1041B0002C25640D0A000000440100200648006818
:1041C0004FF47A71B0FBF1F0401E4FF0E0214861EE
:1041D00007200861704700000000002070B5FCF760
:1041E00037F80546102D11D305F1E02090F8F04383
:1041F00010480078844201DB012000E0002028B94B
:104200004FF440720CA117A0FEF73EF91948006860
:1042100000F4E06018490968884201D8012000E0F4
:10422000002028B94FF4447203A10EA0FEF72CF928
:1042300070BD0000300100202E2E5C467265655274
:10424000544F535C706F727461626C655C5256447B
:10425000535C41524D5F434D34465C706F72742E17
:10426000630000004572726F723A25732C25640D4D
:104270000A0000000CED00E034010020024600209E
:104280000BE0084B53F8303033B9064B43F830108D
:1042900003EBC0035A6002E0401C0828F1D300BFC2
:1042A00070470000181300202DE9F04105460E4626
:1042B00017462C46FFF7AAFE94F94400401C10B99B
:1042C000002084F8440094F94500401C10B90020F7
:1042D00084F84500FFF7DEFEA06B28B93A46314668
:1042E00004F1240000F0DEF82046FFF772FBBDE881
:1042F000F081000070B504460025ACB10F4800689D
:1043000008B9012000E0002028B940F2CF420CA1FA
:1043100010A0FEF7B9F800F0C7F900212046FEF71B
:1043200025FE00F0D1FF05463DB94FF080500D4904
:104330000860BFF34F8FBFF36F8F70BD1401002073
:104340002E2E5C4672656552544F535C7461736BDC
:10435000732E63004572726F723A25732C25640DBB
:104360000A00000004ED00E02DE9F04704460F4686
:104370004FF000092CB940F2794226A12AA0FEF79D
:1043800083F80FB1012000E0002028B940F27A4202
:1043900020A125A0FEF778F82748006808B9012079
:1043A00000E0002028B940F27B421AA11EA0FEF7CF
:1043B0006BF800F079F9214806682068C519206873
:1043C000B04207D92068A8420BD9B54209D94FF0AD
:1043D000010906E02068A84201D8B54201D94FF092
:1043E00001092560B9F1000F03D0A81B0021FEF7D9
:1043F000BDFD00F069FF8046B8F1000F07D14FF016
:1044000080500F490860BFF34F8FBFF36F8FBDE837
:10441000F08700002E2E5C4672656552544F535C47
:104420007461736B732E63004572726F723A2573F9
:104430002C25640D0A00000014010020F00000206B
:1044400004ED00E0012001490860704700010020F0
:1044500070B504460D462CB940F6063207A10CA0F3
:10446000FEF712F80E48016818312046FFF7A8FD44
:1044700001212846FEF77AFD70BD00002E2E5C4615
:1044800072656552544F535C7461736B732E630095
:104490004572726F723A25732C25640D0A00000074
:1044A000DC00002070B505460E4614462DB940F6D6
:1044B000313209A10DA0FDF7E7FF1048016818315E
:1044C0002846FFF797FD0CB14FF0FF3621463046E6
:1044D000FEF74CFD70BD00002E2E5C4672656552E5
:1044E000544F535C7461736B732E63004572726F2B
:1044F000723A25732C25640D0A000000DC000020B0
:1045000070B505462C46002D4BD02649E06A096857
:10451000C96A884245D2A06900F0004028B9214804
:104520000068C06AC0F12000A061E16A01EB81016E
:104530001D4A02EB81016069884201D1012000E03F
:10454000002050B3201DFFF717FD78B9E06A00EB9B
:104550008000154951F8200040B994F82C10012032
:104560008840124909688143104801600D4800687D
:10457000C06AE06294F82C10012088400B49096859
:1045800008430A490860E16A01EB8101064A02EB2F
:104590008100211DFFF72EFD03E002480068C06A7C
:1045A000E06270BDDC00002058130020F400002001
:1045B00010B504462CB940F6C13205A109A0FDF79B
:1045C00063FF0C48006820600B480068606010BD05
:1045D0002E2E5C4672656552544F535C7461736B4A
:1045E000732E63004572726F723A25732C25640D29
:1045F0000A00000004010020F00000201CB51A4849
:1046000000210B468222CDE9001018A1194800F0C4
:104610009FFC0446012C02D100F0E6FE0446012C6A
:1046200015D100BF502080F31188BFF34F8FBFF327
:104630006F8F00BF4FF0FF300F49086001200F4916
:10464000086000200E49086000F08AF80BE0601C4A
:1046500008B1012000E0002028B940F2847209A1CD
:104660000DA0FDF711FF1CBD1001002049444C4571
:1046700000000000E13200080C010020F8000020DA
:10468000F00000202E2E5C4672656552544F535C3C
:104690007461736B732E63004572726F723A257387
:1046A0002C25640D0A00000002480068401C0149E6
:1046B000086070471401002010B51B48006818B14D
:1046C00001201A4908602DE00020184908601848A8
:1046D0000068B0FA80F0C0F11F0404EB84001549B3
:1046E00051F8200008B1012000E0002028B940F670
:1046F000F62211A115A0FDF7C7FE04EB84010D4AB7
:1047000002EB810041684968416000F1080142689C
:104710008A4202D14168496841604168C9680F4ACC
:10472000116000BF10BD0000140100200001002036
:10473000F4000020581300202E2E5C46726565524E
:10474000544F535C7461736B732E63004572726FC8
:10475000723A25732C25640D0A000000DC0000204D
:104760001CB5404800684049884201D0012000E063
:10477000002028B940F259123CA147A0FDF784FE61
:10478000384800683849491E884201D0012000E0BD
:10479000002028B94FF4AD7234A13FA0FDF774FE9C
:1047A000414C204600780190FF20214608700846C1
:1047B000007800909DF8000000F0F0009DF80010D7
:1047C000884201D1012000E0002028B940F2731294
:1047D00026A131A0FDF758FE9DF8000000F0500022
:1047E0003249087007203249086009E03048006803
:1047F000401E2F4908609DF800004006000E009002
:104800009DF8000000F080008028EFD02848006864
:104810000002274908600846008800F4E06008604C
:104820002149019808700F482030006840F470005A
:104830000C49203108600846006840F0704008606C
:10484000FFF7BCFC00201B490860FBF7C9FC1A48B5
:10485000006840F0404018490860FBF7B1FC0020B8
:104860001CBD000000ED00E071C20F412E2E5C4621
:1048700072656552544F535C706F727461626C65FF
:104880005C525644535C41524D5F434D34465C701C
:104890006F72742E630000004572726F723A257356
:1048A0002C25640D0A00000000E400E03001002027
:1048B000340100202C01002034EF00E010B500BFCF
:1048C000502080F31188BFF34F8FBFF36F8F00BF6D
:1048D00000F084FB18B14FF080500449086000BF1D
:1048E000002080F3118800BF10BD000004ED00E03F
:1048F0002DE9F84305460E4690460DB1012000E033
:10490000002028B94FF4C4720DA112A0FDF7BCFD20
:104910000EB9002701E005FB06F707F15400FFF789
:10492000A1F8044644B104F1540943464A463146CD
:1049300028460094FEF7E8FC2046BDE8F883000016
:104940002E2E5C4672656552544F535C71756575C9
:10495000652E63004572726F723A25732C25640DC3
:104960000A0000002DE9FF4782B005460E461F46AB
:104970004FF0000A2C462CB940F2DC4261A166A03F
:10498000FDF782FD0EB9206C08B9012000E000207F
:1049900028B940F2DD425BA15FA0FDF775FD00F094
:1049A00007FB08B9049808B9012000E0002028B9E5
:1049B0004FF49C6253A158A0FDF766FD00BFFFF7BE
:1049C00025FBD4F83890B9F1000F3DD0D4F80C8015
:1049D00031462046FEF7D6FBDFB9A9F10100A063FE
:1049E000206810B9FFF7E8F86060206908B9012075
:1049F00000E0002010BB04F1100000F00BFCE8B157
:104A00004FF0805048490860BFF34F8FBFF36F8F5E
:104A100014E0C4F80C80606A08B9012000E00020AE
:104A200060B904F1240000F0F5FB38B14FF080507C
:104A30003D490860BFF34F8FBFF36F8FFFF72AFB2D
:104A4000012006B0BDE8F087049818B9FFF722FBF3
:104A50000020F6E7BAF1000F04D16846FFF7A8FD81
:104A60004FF0010AFFF716FBFFF71EFEFFF7CEFA25
:104A700094F94400401C10B9002084F8440094F9D3
:104A80004500401C10B9002084F84500FFF702FBE8
:104A900004A9684600F00CFA40BB2046FEF748FD2A
:104AA000F0B1206830B9FFF7B1FA6068FFF728FD70
:104AB000FFF7F0FA04F124000499FFF7C9FC20463F
:104AC000FEF787FF00F000FC00287FF478AF4FF07E
:104AD000805015490860BFF34F8FBFF36F8F6EE7AB
:104AE0002046FEF776FF00F0EFFB68E72046FEF772
:104AF00070FF00F0E9FB2046FEF71AFD0028EED01B
:104B000000209EE72E2E5C4672656552544F535C22
:104B100071756575652E63004572726F723A257303
:104B20002C25640D0A00000004ED00E070B5054678
:104B30000E462C462CB940F21B121EA122A0FDF7F6
:104B4000A3FCFFF763FAD4E90F12206801FB02000F
:104B500060600020A0632068A060E06B401E226CB3
:104B6000216800FB0210E060FF2084F8440084F814
:104B700045009EB9206908B9012000E00020A8B9CD
:104B800004F1100000F046FB80B14FF08050124954
:104B90000860BFF34F8FBFF36F8F07E004F1100081
:104BA000FFF7FEF904F12400FFF7FAF9FFF772FAB4
:104BB000012070BD2E2E5C4672656552544F535CC9
:104BC00071756575652E63004572726F723A257353
:104BD0002C25640D0A00000004ED00E02DE9FF43E0
:104BE00083B0064688461D464FF0000934462CB96E
:104BF00040F2D92260A165A0FDF746FCB8F1000F94
:104C000001D1206C08B9012000E0002028B940F251
:104C1000DA2259A15DA0FDF737FC022D02D1E06B2D
:104C2000012801D1012000E0002028B940F2DB2258
:104C300051A156A0FDF728FC00F0BAF908B9059873
:104C400008B9012000E0002028B940F2DE224AA184
:104C50004EA0FDF719FC00BFFFF7D8F9A06BE16B80
:104C6000884201D3022D38D12A4641462046FEF71C
:104C70009EFA0746A06C68B129462046FEF774FCF0
:104C800028B34FF0805045490860BFF34F8FBFF302
:104C90006F8F1CE0606A08B9012000E0002068B94D
:104CA00004F1240000F0B6FA88B14FF080503B497F
:104CB0000860BFF34F8FBFF36F8F08E03FB14FF035
:104CC000805036490860BFF34F8FBFF36F8FFFF7F7
:104CD000E1F9012007B0BDE8F083059818B9FFF7A6
:104CE000D9F90020F6E7B9F1000F04D101A8FFF7C8
:104CF0005FFC4FF00109FFF7CDF9FFF7D5FCFFF797
:104D000085F994F94400401C10B9002084F844004F
:104D100094F94500401C10B9002084F84500FFF7C5
:104D2000B9F905A901A800F0C3F8F0B92046FEF7CB
:104D30000CFCA0B104F110000599FFF789FB204697
:104D4000FEF747FE00F0C0FA002885D14FF08050F2
:104D500012490860BFF34F8FBFF36F8F7CE7204687
:104D6000FEF737FE00F0B0FA76E72046FEF731FE98
:104D700000F0AAFA0020ADE72E2E5C46726565525F
:104D8000544F535C71756575652E63004572726F83
:104D9000723A25732C25640D0A00000004ED00E032
:104DA0002DE9F05F80468A4615461E4644462CB9DA
:104DB00040F29F3235A13AA0FDF766FBBAF1000F31
:104DC00001D1206C08B9012000E0002028B94FF47F
:104DD00068722EA132A0FDF757FB022E02D1E06BC4
:104DE000012801D1012000E0002028B940F2A132C1
:104DF00026A12BA0FDF748FBFFF7F0F900BF5021DB
:104E0000EFF3118081F31188BFF34F8FBFF36F8FE2
:104E100000BF0746A06BE16B884201D3022E2BD165
:104E200094F945B0324651462046FEF7C0F90BF1E1
:104E30000100C8B9A06C40B131462046FEF794FB92
:104E4000B8B1B5B10120286013E0606A08B901204B
:104E500000E0002068B904F1240000F0DBF940B163
:104E60003DB10120286004E00BF1010040B284F85C
:104E700045004FF0010901E04FF0000900BF87F342
:104E8000118800BF4846BDE8F09F00002E2E5C460A
:104E900072656552544F535C71756575652E63007C
:104EA0004572726F723A25732C25640D0A0000005A
:104EB0002DE9F04104460D462CB940F6CB3219A13C
:104EC0001DA0FDF7E1FA2DB940F6CC3215A11AA0CC
:104ED000FDF7DAFAFFF79AF81B4807682868401CC4
:104EE00008B9002619E0194920680968884204D0E9
:104EF0006068B84201D801260FE06068381A296856
:104F0000884209D228686168791A401A28602046C8
:104F1000FFF74EFB002600E00126FFF7BBF8304606
:104F2000BDE8F0812E2E5C4672656552544F535C8D
:104F30007461736B732E63004572726F723A2573DE
:104F40002C25640D0A000000F00000200401002060
:104F50002DE9FF4F85B0804689461746DDE912AB43
:104F6000B800FEF77FFD064656B15C20FEF77AFDDD
:104F700004460CB1266304E03046FFF7C3F800E0B6
:104F800000247CB10020CDE900ABCDE902403A46D7
:104F900049464046089BFEF7CFF92046FEF732F817
:104FA000012501E04FF0FF35284609B0BDE8F08F3C
:104FB0000549096809B9012005E00449096809B9EA
:104FC000022000E000207047F800002014010020BB
:104FD0000149086870470000F00000202DE9F04109
:104FE0004FF0000841480068002872D1404800682E
:104FF000451C3F480560EDB93E480068006808B9A7
:10500000012000E0002028B940F6D9123AA13FA0C3
:10501000FDF73AFA374807684048006835490860A4
:105020003E4807603E480068401C3D490860FEF766
:10503000FBFB00BF3B48006885423CD300BF2D48C6
:105040000068006808B9012000E0002020B14FF09E
:10505000FF30344908602DE026480068C068C46805
:105060006668B54202D22F48066023E0201DFEF795
:1050700083FFA06A18B104F11800FEF77DFF94F8D1
:105080002C100120884028490968084326490860F7
:10509000E16A01EB8101254A02EB8100211DFEF747
:1050A000A9FF2349E06A0968C96A8842C7D34FF05B
:1050B0000108C4E700BF1E480068C06A00EB80001A
:1050C0001A4951F82000012801D94FF0010805E0E4
:1050D000FFE718480068401C164908601648006839
:1050E00008B14FF001084046BDE8F08114010020EE
:1050F000F0000020E00000202E2E5C467265655214
:10510000544F535C7461736B732E63004572726FFE
:10511000723A25732C25640D0A000000E40000207B
:10512000040100200C010020F4000020581300208E
:10513000DC000020FC0000200001002070B50546C6
:105140002C460026002D4BD026480068844201D111
:10515000012000E0002028B940F6C76222A127A064
:10516000FDF792F9206D28B940F6C9621EA123A06F
:10517000FDF78AF9206D401E2065E16CE06A8842E7
:105180002ED0206D60BB201DFEF7F6FE78B9E06AD8
:1051900000EB80001D4951F8200040B994F82C1014
:1051A000012088401A490968814319480160E06C70
:1051B000E062E06AC0F12000A06194F82C100120A8
:1051C000884013490968084311490860E16A01EB06
:1051D00081010E4A02EB8100211DFEF70BFF012623
:1051E000304670BDDC0000202E2E5C467265655294
:1051F000544F535C7461736B732E63004572726F0E
:10520000723A25732C25640D0A0000005813002003
:10521000F400002070B50646F068C4682CB940F66A
:1052200061321AA11EA0FDF72FF904F11800FEF754
:10523000A3FE1F480068A8B9201DFEF79DFE94F844
:105240002C10012088401B4909680843194908604F
:10525000E16A01EB8101184A02EB8100211DFEF792
:10526000C9FE04E004F118011448FEF7C3FE144916
:10527000E06A0968C96A884204D9012501201149F8
:10528000086000E00025284670BD00002E2E5C4618
:1052900072656552544F535C7461736B732E630077
:1052A0004572726F723A25732C25640D0A00000056
:1052B00014010020F40000205813002000160020E4
:1052C000DC0000200001002070B5002400263448D6
:1052D000006828B94FF4FD6232A137A0FDF7D4F879
:1052E000FEF794FE2E480068401E2D4908600846CF
:1052F000006800284FD13448006800284BD024E0D3
:105300003248C068C46804F11800FEF735FE201D5D
:10531000FEF732FE94F82C10012088402C490968D1
:1053200008432B490860E16A01EB8101294A02EB3D
:105330008100211DFEF75EFE2749E06A0968C96AFF
:10534000884202D30120254908602048006808B936
:10535000012000E000200028D2D00CB1FEF764FA52
:105360001F48056865B100BFFFF738FE10B1012086
:105370001A4908606D1E002DF6D1002018490860FA
:105380001648006838B10126300716490860BFF397
:105390004F8FBFF36F8FFEF77DFE304670BD00006C
:1053A000140100202E2E5C4672656552544F535CEA
:1053B0007461736B732E63004572726F723A25735A
:1053C0002C25640D0A000000EC00002000160020CF
:1053D000F400002058130020DC0000200001002011
:1053E000FC00002004ED00E01CB50024FDF766FE83
:1053F0000B48006858B10B481F2100234FF48272FC
:10540000CDE9001008A10A48FFF7A2FD04462CB917
:1054100040F2331207A10DA0FDF736F820461CBD5F
:105420002001002024010020546D72205376630077
:10543000B93900082E2E5C4672656552544F535C94
:1054400074696D6572732E63000000004572726F9F
:10545000723A25732C25640D0A0000002DE9FF47E0
:1054600004460D4616461F46DDF830804FF0000911
:105470002CB94FF4D37217A11CA0FDF705F81F48F3
:10548000006810B3009501960294062D15DAFFF717
:105490008FFD022808D1002342466946174800685C
:1054A000FFF79CFB814610E000231A46694613482B
:1054B0000068FFF793FB814607E000233A46694600
:1054C0000E480068FFF76CFC8146484604B0BDE812
:1054D000F08700002E2E5C4672656552544F535C77
:1054E00074696D6572732E63000000004572726FFF
:1054F000723A25732C25640D0A000000200100205B
:105500004FBB610567ACDD3F182D4454FB21E93FDB
:105510009BF681D20B73EF3F182D4454FB21F93FCA
:10552000E2652F227F2B7A3C075C143326A6813C50
:10553000BDCBF07A8807703C075C143326A6913CFB
:10554000C4EB98999999C9BF711623FEC671BCBF67
:105550006D9A74AFF2B0B3BF9AFDDE522DDEADBFCF
:105560002F6C6A2C44B4A2BF0D5555555555D53FE7
:10557000FF8300922449C23F6E204CC5CD45B73F02
:10558000513DD0A0660DB13FEB0D76244B7BA93F7A
:1055900011DA22E33AAD903F000000006E83F9A2D9
:1055A0002915444ED15727FCC0DD34F5999562DBAF
:1055B0004190433CAB6351FED855000800000020E9
:1055C000540200003C0800088056000854020020E5
:1055D000B46E0000242C000811847A030A00091517
:1055E0000102030406070809280941542B525354A9
:1055F0000D0A09680943574D4F44453D310E581374
:105600004A41503D2232222C223132333435363752
:1056100038221A780849504D55583D300E280B5302
:10562000544152543D225443502D181139322E31D9
:1056300036382E3231342E3230222C383D893869BA
:10564000616C2B2B2B3D1C454E4411051854797071
:105650006529C2091BC6013D1AAA010120021101D8
:10566000E3FA438B40400401521AF4811A2C0429B6
:1056700008691009120421120503569F4100000019
:040000050800018965
:00000001FF
