:020000040800F2
:1000000048620020310300088F280008BD1E000848
:100010008D2800088D0F0008254A00080000000008
:10002000000000000000000000000000790200084D
:100030007915000800000000CD020008D135000845
:100040004B0300084B0300084B0300084B03000858
:100050004B0300084B0300081D1800084B03000861
:10006000411800084B0300084B0300084B0300082D
:100070004B0300084B0300084B0300084B03000828
:100080004B0300084B0300084B0300084B03000818
:100090005D1100084B0300084B0300084B030008E8
:1000A0004B0300084B0300084B0300084B030008F8
:1000B000B5390008C53900084B0300084B03000898
:1000C0004B0300084B0300084B0300084B030008D8
:1000D0004B030008A9430008CD4400084947000825
:1000E0004B0300084B0300084B0300084B030008B8
:1000F000793D00084B030008D93900084B0300087C
:100100004B0300084B0300084B0300084B03000897
:100110004B0300086D4300084B0300084B03000825
:100120004B0300084B0300084B0300084B03000877
:100130004B0300084B0300084B0300084B03000867
:100140004B0300084B0300084B0300084B03000857
:100150004B0300084B0300084B0300084B03000847
:100160004B0300084B0300084B0300084B03000837
:100170004B0300084B0300084B0300084B03000827
:100180004B0300084B03000800F002F800F064F88D
:100190000AA090E8000C82448344AAF10107DA45E2
:1001A00001D100F059F8AFF2090EBAE80F0013F0D0
:1001B000010F18BFFB1A43F001031847ACC8000039
:1001C000CCC800000A444FF0000C10F8013B13F0BB
:1001D000070408BF10F8014B1D1108BF10F8015BA0
:1001E000641E05D010F8016B641E01F8016BF9D193
:1001F00013F0080F1EBF10F8014BAD1C0C1B09D1EA
:100200006D1E58BF01F801CBFAD505E014F8016B5B
:1002100001F8016B6D1EF9D59142D6D370470000ED
:100220000023002400250026103A28BF78C1FBD8FF
:10023000520728BF30C148BF0B607047642900F0E7
:100240000381732900F05C82002070471FB50AF01B
:100250004CFD1FBD10B510BD00F0CEFA1146FFF7E2
:10026000F5FF06F06BFB00F0ECFA03B4FFF7F2FFCA
:1002700003BC06F021F900002A4B19680868B0E8B1
:10028000F04F80F30988BFF36F8F4FF0000080F3C9
:10029000118870470000000006480068006880F37D
:1002A000088862B661B6BFF34F8FBFF36F8F00DF70
:1002B00000BF00BF08ED00E0DFF80C00016841F46A
:1002C00070010160704700BF88ED00E0EFF3098026
:1002D000BFF36F8F134B1A681EF0100F08BF20ED8D
:1002E000108A20E9F04F106008B44FF0500080F3FE
:1002F0001188BFF34F8FBFF36F8F09F077F84FF07E
:10030000000080F3118808BC19680868B0E8F04F55
:100310001EF0100F08BFB0EC108A80F30988BFF3FD
:100320006F8F7047DC000020EFF3058070470000FE
:100330000948804709480047FEE7FEE7FEE7FEE779
:10034000FEE7FEE7FEE7FEE7FEE7FEE704480549B5
:10035000054A064B70470000E53500088901000892
:10036000485C002048620020485E0020485E002073
:10037000704700000FB4044910B503AA029800F0BA
:10038000C3F910BC5DF814FBC80000202DE9F04152
:100390000E460446002020622046E168884730B3BC
:1003A000252805D0D4E901219047206A401CF2E7B6
:1003B000E168204600278847050018D0A5F14100D4
:1003C000192802D820354FF40067324629462046C6
:1003D0002760FFF733FF40B1012804D0F61D26F057
:1003E00007060836D8E7361DD6E72846DAE7206A3A
:1003F000BDE8F08170B50C460546012A05D0287885
:10040000800600D5EA69002302E0012305E05B1CB9
:10041000934202D2E05C0028F9D1A869E618C01A1C
:10042000A861286A184428622846AFF3008004E0D7
:10043000D5E9012114F8010B9047B442F8D32846BE
:10044000AFF3008070BD00002DE9F04106460024A6
:1004500010687529314616A510D0AFF3008000282A
:1004600002DA404213A507E031688A0701D512A5D8
:1004700002E0490704D511A5012401E0AFF3008093
:1004800000210A2206F1240709E0B0FBF2FCB0FBD0
:10049000F2F302FB1C00303078541846491C002847
:1004A000F3D123462A463046BDE8F04100F0A5B816
:1004B000000000002D0000002B00000020000000C4
:1004C00010B5431C02E010F8011B71B18107FAD18D
:1004D0004FF0013202C88C1A8C4314EAC211F9D0D1
:1004E000C01A0A0603D0C01E10BDC01A10BD0A04EF
:1004F00001D0801E10BD0902FCD0401E10BD032A91
:1005000040F2308010F0030C00F0158011F8013B30
:10051000BCF1020F624498BF11F801CB00F8013B17
:1005200038BF11F8013BA2F1040298BF00F801CBDB
:1005300038BF00F8013B11F0030300F0F780083AE0
:10054000C0F0088051F8043B083A51F804CBA0E809
:100550000810F5E7121D5CBF51F8043B40F8043B5E
:10056000AFF30080D20724BF11F8013B11F801CB93
:1005700048BF11F8012B24BF00F8013B00F801CB64
:1005800048BF00F8012B704702F0FF0343EA032243
:1005900042EA024200F002B84FF000020429C0F023
:1005A000128010F0030C00F0F580CCF1040CBCF1CB
:1005B000020F18BF00F8012BA8BF20F8022BA1EBF7
:1005C0000C0100F0E7B85FEAC17C24BF00F8012B02
:1005D00000F8012B48BF00F8012B704770477047A7
:1005E0007047704710B500F0FBF8006810BD10B5FB
:1005F000044600F0F5F8046010BD2DE9F0470D4603
:1006000099469246044600F124080168880604D5FC
:10061000E06921F01001216000E00120A84201DD25
:10062000471B00E00027A1697A1902EB0900081AAC
:10063000A0612078C00602D42046AFF300800026D7
:1006400008E0D4E901211AF806009047206A401C0E
:10065000761C20624E45F4DB2078C0060AD5204681
:10066000AFF3008006E0D4E9012130209047206AF2
:10067000401C2062381EA7F10107F4DC07E0D4E932
:10068000012118F805009047206A401C2062281EAE
:10069000A5F10105F3DC2046AFF3008020780006C9
:1006A00002D50220BDE8F0870120FBE701694A1C62
:1006B00002610878704700B58FB0CDE901310021A3
:1006C000059105497944CDE9031011466846FFF7C5
:1006D0005DFE0FB000BD0000E5FFFFFF10B54369F0
:1006E00013B1AFF3008001E0FFF784FE012010BDDD
:1006F000127800F124010A7000224A700122EDE70D
:1007000011684FF0FF32E9E7074B70B50D467B44A7
:10071000FFF7D1FF0446284600F066F810B14FF00D
:10072000FF3070BD204670BDD761000010B5203A83
:10073000C0F00B80B1E81850203AA0E81850B1E89A
:100740001850A0E81850BFF4F5AF5FEA027C24BF50
:10075000B1E81850A0E8185044BF18C918C0BDE847
:1007600010405FEA827C24BF51F8043B40F8043B10
:1007700008BF7047D20728BF31F8023B48BF11F8C5
:10078000012B28BF20F8023B48BF00F8012B70471F
:100790004FF0000200B5134694469646203922BF1A
:1007A000A0E80C50A0E80C50B1F12001BFF4F7AF65
:1007B000090728BFA0E80C5048BF0CC05DF804EB47
:1007C000890028BF40F8042B08BF704748BF20F8B5
:1007D000022B11F0804F18BF00F8012B704700006A
:1007E00000487047E45B0020007B00F08000704709
:1007F00000487047E45B00207546FFF7F9FFAE46FE
:1008000005006946534620F00700854618B020B51C
:10081000FFF79CFDBDE820404FF000064FF00007B9
:100820004FF000084FF0000B21F00701AC46ACE898
:10083000C009ACE8C009ACE8C009ACE8C0098D4605
:10084000704710B50446AFF300802046BDE8104065
:10085000FFF70BBD0029816802D041F0010101E0E2
:1008600021F0010181607047084B10B5D3F80423D3
:1008700007490A40D0E900142143D0E9024004436B
:1008800021431143C3F8041310BD000000200140B0
:10089000E030FCFFC06C80B2704702460020126856
:1008A0000A4200D00120704730B542680F4B0C79E6
:1008B0001A400B6842EA04221343436082680C4BDF
:1008C0004D791A40D1E9034323438C6844EA450437
:1008D000234313438360C26A097D22F47002491ED8
:1008E000C9B242EA0151C16230BD0000FFFEFFFC07
:1008F000FDF7FFC070B5072609290AD9C568A1F11F
:100900000A0404EB4404A640B543A3401D43C5605C
:1009100007E0056901EB4104A640B543A3401D4330
:1009200005611F23072A09D2446B521E02EB820283
:1009300093409C4391400C43446370BD0D2A09D2FF
:10094000046BD21F02EB820293409C4391400C4304
:10095000046370BDC46A0D3A02EB820293409C436B
:1009600091400C43C46270BD816841F08041816058
:100970007047000038B535489FED351A9FED350AB0
:10098000D0ED000A10EE810AF3EE0B0A80EE201A79
:10099000BDEEC10A10EE103A642B00DD64232E4830
:1009A000DFED2E0A90ED000A20EE200ABDEEC00A0F
:1009B00010EE100A002800DA4042294991ED000AA1
:1009C00020EE200ABDEEC00A10EE101A002900DA4F
:1009D0004942244C2278A2B100222270224C257870
:1009E000012D10D0214DB5F904403AB3B5F90220DC
:1009F000B5F9001001B02346BDE830401CA0FFF758
:100A0000B9BC0122E9E71E4890ED000A1D48BDEE81
:100A1000C00A10EE103A90ED000A1B48BDEEC00A65
:100A200010EE102A90ED000A18A0BDEEC00A10EEDC
:100A3000101AFFF79FFC0020207038BDCAB2C1B267
:100A400016A00094FFF796FC38BD000018000020A7
:100A500000007A4400401C46385B00200000C84279
:100A60004C5B002030020020CD0100204C02002011
:100A70007B4225643A25643A25647D240000000009
:100A80005C01002058010020540100207B432564B4
:100A90003A25643A25647D24000000007B412564EA
:100AA0003A25643A25643A25647D240030B58DB03A
:100AB0000121022002F0F6FB01210D02284602F07E
:100AC00009FC032002218DF82C000A9100248DF8E6
:100AD0002F400AA9134800F0B7FF0121284602F071
:100AE00005FC0021284602F001FC069468020994E6
:100AF000CDE9070406A8FFF7B7FE8DF8044000947F
:100B00008DF80540029404940120074C8DF81400E0
:100B100069462046FFF7C8FE01212046FFF79AFEEE
:100B20000DB030BD000402400020014070B58CB013
:100B30000121022002F0B6FB01214E02304602F0F4
:100B4000C9FB03208DF82C00012500240A958DF89F
:100B50002F400AA9134800F077FF0121304602F028
:100B6000C5FB0021304602F0C1FB069468040994DD
:100B7000CDE9070406A8FFF777FE8DF8044000943E
:100B80008DF8054002940494074C8DF81450694682
:100B90002046FFF789FE01212046FFF75BFE0CB0DF
:100BA00070BD0000000402400021014008B505F0BE
:100BB000A7FEDFF884A3DE4EDE4C40F6C4174FF0EC
:100BC00002084FF4FA75AAF1040B00900A21684656
:100BD00008F03AFAD94940F6B8324868904201DA4A
:100BE000401C486089468968491CC9F8081001F012
:100BF0008DF801F00FFCD248006828B3D148007886
:100C0000032876D0072875D0082874D0092873D017
:100C10000A2872D00B2871D00C2870D00D286FD004
:100C20000E286ED00F286DD01328CFD1DFF818937F
:100C300099F800000128C9D103F020FEC349002023
:100C400089F800000870C1E7C148007810B100F0D1
:100C500079FF0AE0BF4890ED001ABF48D0ED000AC6
:100C6000BE4890ED000A00F089FCBD4890ED000AF6
:100C7000BDEEC00A10EE100A03F050FB0028A5D10B
:100C8000B84BD3ED020A93ED000A01F0B5FA00EE7D
:100C9000100AB8EEC00A83ED010AB34BD3ED020A85
:100CA00093ED000A01F0E6FA00EE100AB8EEC00A71
:100CB00083ED010AAD4BD3ED020A93ED000A01F07A
:100CC00017FB00EE100AB8EEC00A83ED010AA84B2C
:100CD000D3ED020A93ED000A01F048FB00EE100A82
:100CE00044F23C10B8EEC00A83ED010A01F04AFC60
:100CF0006CE708E01AE037E05AE07DE0A1E0C6E0EA
:100D0000ECE006E111E19B490868002804DD401E83
:100D1000086044F29F1106E097490868002892DDB8
:100D2000401E08609549964801604FE7306840B919
:100D30002068B84201DA401D2060B84201DB012082
:100D400030602068A84206DD3168012909D1401FC2
:100D50002060A84205DC3068012802D12560C6F871
:100D6000008050462168DFE73068022802D0256005
:100D7000CAF80050706840B96068B84201DA401D96
:100D80006060B84201DB012070606068A84206DD47
:100D90007168012909D1401F6060A84205DC7068B4
:100DA000012802D16560C6F8048058466168BBE737
:100DB0007068022802D06560CBF80050B06840B976
:100DC000A068B84201DA401DA060B84201DB0120F2
:100DD000B060A068A84206DDB168012909D1401FB2
:100DE000A060A84205DCB068012802D1A560C6F861
:100DF00008806448A16897E7B068022802D061487B
:100E0000A5600560F06840B9E068B84201DA401DAD
:100E1000E060B84201DB0120F060E068A84206DD36
:100E2000F168012909D1401FE060A84205DCF068A3
:100E3000012802D1E560C6F80C805248E168001F25
:100E400072E7F068022803D04E48E560001F056095
:100E5000306940B92069B84201DA401D2061B842CA
:100E600001DB012030612069A84206DD31690129DA
:100E700009D1401F2061A84205DC3069012802D158
:100E80002561C6F810803F48216908384CE7306971
:100E9000022803D03B48256108380560706940B9D5
:100EA0006069B84201DA401D6061B84201DB01208F
:100EB00070616069A84206DD7169012909D1401F8E
:100EC0006061A84205DC7069012802D16561C6F83D
:100ED00014802C4960690C39086077E60020706145
:100EE0003061F060B0607060306065612561E56020
:100EF0002448A56065600C3825600560001D05600C
:100F0000001D0560001D0560CBF80050CAF80050B8
:100F10005CE6D9F808006421B0FBF1F0C00704D00A
:100F200001201949C1F8A00250E60020F9E70000AD
:100F3000205B00208001002038180040EC010020D8
:100F40006801002074010020E801002098010020C1
:100F500061010020B0010020AC010020A8010020A8
:100F600018000020385B00204C5B0020605B0020F4
:100F7000745B0020780100207C01002061BEFFFF2F
:100F80009C0100204004014000004042FEE70000B8
:100F90001CB50121084602F085F94FF480700090DD
:100FA00001208DF8040000218DF8061003218DF832
:100FB00005108DF807006946014800F045FD1CBD8D
:100FC000000002402DE9FE4F0024D8B3D1B3CAB3CC
:100FD000C3B3401E491EC7B2CEB2521E5B1E02F002
:100FE000FF099DB20121082002F05CF901214806A9
:100FF00002F064F902218DF804104FF0030B4FF05A
:1010000000088DF806808DF805B04FF0010ACDF884
:1010100000B08DF807A069464D4800F015FD092283
:1010200000214B4800F04CFD09220121484800F006
:1010300047FD4848C0F80080016841F001010160A7
:10104000021D09E0FFE70120BDE8FE8F641CA4B289
:10105000642C01D90220F7E71168C907F6D03D4892
:10106000016801600168016001680160016841F088
:101070001001016001680160016801603549434663
:101080001C31C1F80080D1F80080DDF830C048EA9A
:101090008C7CC1F800C0D1F800C04CEA07670F6033
:1010A0000F6847EA06560E600F6847EA09460E6069
:1010B0000E682E430E60016821F0010101604FF6B9
:1010C000F07005E0641CA4B2844201D90320BBE7A0
:1010D0001168C907F6D12048016841F0010101609B
:1010E0001D491C310A6822F001020A601A4A0C32BA
:1010F000146844F001041460021D14681460164A58
:10110000143214681460144A40321360121D1360C4
:101110000A6842F001020A60016803600D48143059
:10112000016841F00201016014208DF808008DF87B
:1011300009A08DF80AB08DF80BA002A801F0A8FB59
:1011400001220221034800F07DF900207CE7000025
:10115000000C0240006400400066004010B588B0FA
:1011600002A907A8CDE9000106AB05AA04A9002041
:1011700000F070F80498A0F5807181394BD12949AD
:1011800001209FED2F1A087027490020304C08706D
:1011900026490870264908702649087026490870B3
:1011A000264908709DF809009DF8081000EB012001
:1011B00000B200EE100A2348F8EEC00A80EE810A61
:1011C00080ED000A9DF80B009DF80A1000EB01204D
:1011D00000B200EE900A1C48F8EEE00AC0EE811A58
:1011E000C0ED001A9DF80D009DF80C1000EB0120D9
:1011F00000B200EE900A1549F8EEE01A09780229CB
:10120000C1EE810A09D000EE100AB8EEC00AC0EEA5
:10121000010AC4ED000A08B010BD03F005FC84ED1E
:10122000000AF8E76301002060010020620100204D
:1012300061010020C8010020C90100202C0200200B
:1012400000007A44A8010020AC01002051010020D8
:10125000B0010020F0B5224CDDE9057504EB001467
:10126000D4F8B06516F004061670D4F8B02532D064
:10127000D2080A60D4F8B01501F002011970D4F850
:10128000B41501F00F013970D4F8B8152970D4F8ED
:10129000B815090A6970D4F8B815090CA970D4F802
:1012A000B815090EE970D4F8BC152971D4F8BC152D
:1012B000090A6971D4F8BC15090CA971D4F8BC15D8
:1012C000090EE97148B1012804D10648016841F0CE
:1012D00020010160F0BD520DCBE70248001FF5E789
:1012E000006000401064004038B5002400910823DD
:1012F0002246214600F014F8054640F6FF7301E04F
:10130000641CA4B2284600F06BF8072801D09C4268
:10131000F6D39C4201D3012038BD002038BD000027
:10132000F0B506462C48059D0468640101D50020EF
:1013300008E00468240101D5012003E00068C00032
:1013400046D50220254C002704EB0014C4F8807514
:10135000E9B3F600D4F880753743C4F88075D4F843
:10136000806546EA8101C4F88015D4F8801541EA09
:101370004201C4F88015D4F8842503F00F0122F04F
:101380000F02C4F88425D4F884250A43C4F88425C0
:101390002979EA796B7941EA0261AA79120442EA71
:1013A00003221143C4F88C152978EA786B7841EA56
:1013B0000261AA78120442EA03221143C4F8881594
:1013C000D4F8801541F00101C4F88015F0BD01E0AA
:1013D000FF20FBE77605BDE70864004000600040A1
:1013E000174928B1012810D002281BD005207047CA
:1013F00008680A6800F0010002F00202024308686F
:1014000000F0806042EA1060704708680A6800F0E7
:10141000010002F002020243086800F0006042EAA4
:101420005060704708680A6800F0010002F002028C
:101430000243086800F0805042EA90607047000064
:1014400008640040002A426901D00A4300E08A4350
:10145000426170477CB5144C00206D46215C2954D4
:10146000401CC0B20828F9D3294640F20110FFF70A
:101470003BFF00202118097A2954401CC0B20828DB
:10148000F8D369464FF48170FFF72EFF0020211832
:10149000097C2954401CC0B20828F8D3694640F2A0
:1014A0000310FFF721FF7CBDBA06002030B50346CC
:1014B0000020012908D10022094C03E0A55C684006
:1014C000521CD2B29A42F9D3002908D1044A3232CE
:1014D00003E0545C6040491CC9B29942F9D330BD65
:1014E000BA06002070B50125144A154C242814D0E2
:1014F0006178002916D0A1785054491CC9B2002245
:10150000A17023280FD064290CD36270A270BDE8AB
:10151000704064210948FFF73FB86570A1785054C6
:10152000491CA17070BD62700449A270642201F16F
:101530006400FEF7E4FF2570E9E700000C070020D7
:10154000B40000200A4B0B4A002000EB8001194434
:10155000897930391154401CC0B20828F5D30549A7
:101560000020C91E087064210148FFF715B800006B
:1015700070070020B7000020704700002DE9F047F9
:101580008D489149DFF834828D4E8E4F8F4D904CAF
:101590002DED0A8BB0EE408AB0EE0CCAF8EE0CBA14
:1015A000F6EE00CA007891ED000A02283FD0042828
:1015B00039D1D8ED000A30EE200A60EE010AB0EE13
:1015C000480AB0EE4C1A00EEEC0A00EEAC8AF0EEDF
:1015D0006B0A85ED020A84ED020A86ED028A87ED28
:1015E000028A07F0CFF985ED020A94ED020AB0EE07
:1015F0004C1AF0EE6B0A07F0C5F984ED020A96ED7D
:10160000020AB0EE4C1AF0EE6B0A07F0BBF986ED59
:10161000020A97ED020AB0EE4C1AF0EE6B0A07F0E0
:10162000B1F987ED020ABDEC0A8BBDE8F0879FEDAA
:1016300069BA20EE2C0AF0EE418A894610EE100AB3
:1016400009F0E2FA41EC190B18EE900A09F0DCFA05
:1016500041EC100B04F054FAB0EE40AAF0EE60AA90
:10166000D8F8000009F0D0FA53EC1A2B08F0E8FD86
:1016700053EC192B09F0DEF908F0F4FC01EE900AA6
:101680009FED551ADFED550AB0EE680A07F07AF9BA
:10169000B5EEC00AF0EE408AF1EE10FA16D099EDE0
:1016A000000AF0EE610A40EE6C0A60EE880A80EEF5
:1016B000A11AF0EE610A40EE2C0A60EE880A80EE74
:1016C000A10A85ED021A84ED020A03E085ED028A83
:1016D00084ED028A9FED420A28EE800A10EE100A7D
:1016E00009F092FA41EC1A0B18EE900A09F08CFA04
:1016F00041EC100B9FED3B1B03F09AFB9FED3B1B56
:1017000051EC100B53EC112B08F088FF41EC190B36
:1017100018EE900A09F078FA41EC100B9FED351B9A
:1017200003F086FB9FED351B51EC100B53EC112B96
:1017300008F074FF53EC192B08F0C6FC53EC1A2B7D
:1017400009F078F99FED2F1B53EC112B08F0BCFC2E
:1017500008F088FC00EE100ADFED2C0A2D4BB0EEED
:101760004C1A70EE600A9FED2A0A00EE8B0AF0EE2A
:101770006B0ABDEEC00A83ED000A95ED020A07F080
:1017800001F985ED020A94ED020AB0EE4C1AF0EE72
:101790006B0A07F0F7F884ED020A9FED1F0A40F686
:1017A000980286ED020A87ED020A4FF44871186824
:1017B00007F0F8F8186036E751010020C00100205A
:1017C000605B0020745B0020BC010020385B0020BF
:1017D0004C5B0020D7231F440AD7A33E48E1FABE42
:1017E000E5D0E23F000000000000004000000000E3
:1017F000D34DF43F000000000000084000000080CE
:101800009318E4BF00000000022BF93F4C37C93F9A
:101810000080BB44A40100200000000010B501209E
:1018200000F024F8012808D10021044802F0E2FC6D
:10183000BDE81040012000F013B810BD00040040C6
:1018400010B5042000F012F8012808D1002180070B
:1018500002F0D0FCBDE81040042000F001B810BD3B
:101860000149086070470000143C0140034A0146EA
:10187000002012680A4200D001207047143C014049
:101880001CB50121082001F00DFD0820009000206A
:101890008DF8040003208DF8050001208DF8070065
:1018A0006946024800F0D0F81CBD0000000C024060
:1018B000F0B5012189B0084601F000FD01210320A7
:1018C00001F0F0FC03258DF8055002264FF400408E
:1018D0008DF8046001242B4F00908DF806408DF8A0
:1018E00007406946384600F0AFF88DF805508DF88E
:1018F00004608DF806408DF807400820224C0090C7
:101900006946204600F0A0F801220F21384600F079
:10191000D7F801220321204600F0D2F802A802F0F5
:10192000D1FC00244FF6FF70ADF808400390750716
:10193000ADF81040ADF80A4002A9284602F084FC38
:1019400000231A460321284602F09FFA05A802F058
:101950001FFBADF81C4005A9284602F0C3FA01217F
:10196000284602F077FA01221146284602F018FBB9
:101970000021284602F03EFC0121284602F070FAC0
:1019800009B0F0BD000002400004024030B589B04B
:101990000121022001F092FC0121022001F082FCD1
:1019A0003020039003208DF8110002208DF81000E4
:1019B00001208DF81200224C8DF8130003A9204657
:1019C00000F042F802220421204600F079F80222B9
:1019D0000521204600F074F8684602F073FC0024EC
:1019E0004FF6FF70174DADF800400190ADF808407C
:1019F000ADF802406946284602F026FC00231A464C
:101A00000321284602F041FA05A802F0C1FAADF818
:101A10001C4005A9284602F065FA0121284602F07B
:101A200019FA01221146284602F0BAFA0021284686
:101A300002F0E0FB0121284602F012FA09B030BDA5
:101A40000004024000040040F0B5002201274FF0DE
:101A5000030C0B6807FA02F52B40AB422CD1066849
:101A600053000CFA03F4A64306600E79D0F800E0A8
:101A70009E4046EA0E0606600E79012E01D0022E27
:101A800012D18668A64386604E79D0F808E09E4061
:101A900046EA0E0686604668AE43466045688E7923
:101AA0009640B6B235434560C568A543C560CC795C
:101AB0009C40C3681C43C460521C102AC9D3F0BDAB
:101AC0004B07DB0E9A40C90810B500EB8100016A94
:101AD0000F249C40A1430162016A1143016210BDC1
:101AE0000183704710B50A4C0146072301222046A6
:101AF000FEF700FF2046FEF737FF02212046FEF7E3
:101B0000CCFE0028F9D02046BDE81040FEF7C2BE4A
:101B10000020014010B50A4C01460723012220464F
:101B2000FEF7E8FE2046FEF71FFF02212046FEF7E3
:101B3000B4FE0028F9D02046BDE81040FEF7AABE4A
:101B400000210140F0B464486449027864480E788A
:101B50000578644804789FED641A644BDFED642ACD
:101B6000DFED641A644F9FED652A654897ED000A22
:101B70006449F1EE400A52B1012A08D0092C66D21C
:101B8000DFE804F0654346494E5156596200092C7E
:101B900024D2DFE804F02305080B1013181B2000E3
:101BA00080ED000A0CE080ED000A01E080ED001AF3
:101BB000C3ED000A53E0C0ED000AF9E7C0ED000AEA
:101BC00083ED001A4BE0C0ED000A01E080ED001A41
:101BD00083ED000A43E080ED000AF9E780ED001A8A
:101BE00083ED001A012E04D0012D07D081ED001ADB
:101BF00035E0C0EE220A60EE820A03E0C0EE220A5F
:101C000060EEA10AC1ED000A29E080ED000A0CE0B7
:101C100080ED000A01E080ED001AC1ED001A0EE02F
:101C2000C0ED000AF9E7C0ED000A81ED001A06E0F8
:101C3000C0ED000A01E080ED001A81ED002A012EBE
:101C400008D0012D09D00AE080ED000AF5E780ED0B
:101C5000001AEAE781ED002A01E0C1ED001A022A2C
:101C600006D0032A11D0052A0FD0042A0DD01FE078
:101C700091ED000AF0EE000A20EE200AF2EE020AD0
:101C800080EE201A81ED001A12E0D0ED000AF5EE88
:101C9000C00AF1EE10FAD1ED000A03D2F1EE600AAB
:101CA000C1ED000A20EE800AC0EE220AC1ED000A52
:101CB000D0ED000A9FED141A80EE810A80ED000A33
:101CC000D3ED001AC1EE810AC3ED000A91ED001AAE
:101CD000F0BCFFF753BC000051010020CA010020F6
:101CE000CB0100206401002000000000AC010020B6
:101CF0000000FA43DB0FC9BF54010020DB0FC93FCE
:101D0000A8010020B001002000007A4410B5022094
:101D10002DED048B01F04CFB394C2060032001F0C9
:101D200047FB6060042001F043FBA060052001F048
:101D30003FFB3449E060097806291BD2DFE801F057
:101D40004903505049502168494200EE101A616819
:101D5000F8EEC09A494200EE101AA168B8EEC09A97
:101D6000494200EE101A4042F8EEC08A00EE100A16
:101D7000B8EEC08A9FED241A244869EE810A90EDDE
:101D8000000A234860EE801AD0ED000A214881EE57
:101D9000A02A69EE011A61EE801A80ED002A81EE18
:101DA000A02A68EE811A1C4828EE011A61EE801AFA
:101DB00021EE000A80EE201A80ED002A174881EEFD
:101DC000A02A80ED002A164880ED001ABDEC048B95
:101DD00010BD94ED000AF8EEC09A94ED010ABCE73C
:101DE00094ED000A6168F8EEC09A494200EE101ABC
:101DF000B8EEC09A94ED020AF8EEC08AB6E7000089
:101E0000BC5B0020510100200000C842B801002046
:101E1000B4010020385B00204C5B0020605B002098
:101E2000745B00202DE9F04100250E4607462C4644
:101E300008E03846FFF756FE0544052004F00AFD89
:101E4000641CE4B2B442F4D3B5FBF6F080B2BDE852
:101E5000F081000010B50820FFF75CFE08F08EFB53
:101E60009FED0E1B53EC112B08F0D8FB9FED0D1BC3
:101E700053EC112B08F0D2FB9FED0C1B53EC112BF4
:101E800008F0CCFB9FED0B1B53EC112B08F0C6FBAD
:101E900008F0E8F800EE100A10BD000066666666FD
:101EA00066660A4000000000000026400000008036
:101EB00014AEEF3F000000000000303FFEE70000DE
:101EC00070B50D4C0025C4F8A8520C48016821F4E7
:101ED00040010160016841F480010160C4F8AC5226
:101EE000012004F52A7404F0D1FC0120206004F0E4
:101EF000CDFC256070BD000000804042000402401F
:101F00001CB50121022001F0CDF94FF440600124FD
:101F100000908DF8044000208DF8060003208DF815
:101F200005008DF8074069460448FFF78DFD044819
:101F3000C0F8A842C0F8AC421CBD0000000402403A
:101F40000080404270B50D4C0026C4F8A8620C48D1
:101F5000016821F440010160016841F480010160E1
:101F60000125C4F8AC52284604F52A7404F08EFC0E
:101F70002560012004F08AFC266070BD008040428C
:101F8000000402402DE9F047814618480025016809
:101F900021F44001016001680160154E2C462F4676
:101FA0004FF00108C6F8A872012004F06FFCC6F8D3
:101FB000A8826806D6F82C12000E11B140F0010577
:101FC00001E020F00105012004F060FC641CE4B293
:101FD000082CE7D3B9F1000F04D0FFF7B3FF284670
:101FE000BDE8F087FFF76CFFF9E70000000402404E
:101FF0000080404270B50D46044600F01BF82046B4
:1020000000F0B0F800F05EF8284600F0ABF800F001
:1020100059F800F00FF844F0010000F0A3F800F0C8
:1020200051F80120FFF7AEFF044600F02BF82046E0
:1020300070BD000070B51148016821F440010160D5
:10204000016841F4800101600D4C0120C4F8AC022C
:10205000D4F82C1200290FD0C4F8A80204F016FC02
:102060000025C4F8AC52D4F82C02002804D1012079
:1020700004F00CFCC4F8A85270BD0000000402403B
:10208000008040420D4810B5016821F44001016014
:10209000016841F480010160094C0020C4F8A802E5
:1020A000C4F8AC02012004F52A7404F0EFFB01200F
:1020B00020606060BDE8104004F0E8BB000402400E
:1020C0000080404270B512480024016821F44001AC
:1020D0000160016801600F4D0126C5F8AC62304611
:1020E00004F0D4FBC5F8A86207E0641CE4B2322C0B
:1020F00003D9FFF7C7FF002070BD012004F0C6FB25
:10210000D5F82C020028F0D1C5F8A802012070BD36
:1021100000040240008040422DE9F0411D46144673
:102120000F468046069EFFF765FF621CFF21C4F143
:10213000080301FA02F22B445B1ED9400A43C5F1A1
:1021400008018E40D2B2F1B2C4F10703D940104069
:1021500040EA01023946404600F034F80120BDE86B
:10216000F08100002DE9F04105461448016821F492
:1021700040010160016841F480010160104E0027B8
:10218000C6F8A8723C464FF00108E809C6F8AC0250
:102190006806050E012004F079FBC6F8A88201202C
:1021A00004F074FBC6F8A872012004F06FFB641CF5
:1021B000E4B2082CE9D3BDE8F0810000000402403D
:1021C0000080404270B515460E460446FFF732FFC8
:1021D0002046FFF7C7FFFFF775FF3046FFF7C2FF46
:1021E000FFF770FF2846FFF7BDFFFFF76BFFFFF714
:1021F00049FF012070BD0000174830EEC00A1749A2
:10220000D0ED060A174A91ED001A70EE600A1449E3
:1022100060EE810A91ED001A41EE000A90ED051A78
:1022200070EE810A10EE901AC0ED050A914203DDAE
:10223000DFED0D0AC0ED050A10EE901A0B4A91422F
:1022400003D9DFED0B0AC0ED050A80ED060ABDEEED
:10225000E00A10EE100A7047EC010020580100203F
:102260005C0100200078824600788246007882C6B1
:10227000007882C6174830EEC00A1749D0ED090A27
:10228000174A91ED001A70EE600A144960EE810A57
:1022900091ED001A41EE000A90ED081A70EE810AE5
:1022A00010EE901AC0ED080A914203DDDFED0D0A31
:1022B000C0ED080A10EE901A0B4A914203D9DFEDE7
:1022C0000B0AC0ED080A80ED090ABDEEE00A10EE27
:1022D000100A7047EC010020580100205C0100202A
:1022E0000078824600788246007882C6007882C6EE
:1022F000174830EEC00A1749D0ED0C0A174A91ED85
:10230000001A70EE600A144960EE810A91ED001A1D
:1023100041EE000A90ED0B1A70EE810A10EE901A51
:10232000C0ED0B0A914203DDDFED0D0AC0ED0B0A93
:1023300010EE901A0B4A914203D9DFED0B0AC0ED63
:102340000B0A80ED0C0ABDEEE00A10EE100A704791
:10235000EC010020580100205C010020007882463A
:1023600000788246007882C6007882C6174830EE30
:10237000C00A1749D0ED0F0A174A91ED001A70EE06
:10238000600A144960EE810A91ED001A41EE000ADC
:1023900090ED0E1A70EE810A10EE901AC0ED0E0A42
:1023A000914203DDDFED0D0AC0ED0E0A10EE901A2A
:1023B0000B4A914203D9DFED0B0AC0ED0E0A80ED06
:1023C0000F0ABDEEE00A10EE100A7047EC01002083
:1023D000580100205C010020007882460078824687
:1023E000007882C6007882C61CB50121102000F05A
:1023F00059FF00218DF80410032101208DF80510EC
:1024000000908DF8070069460148FFF71DFB1CBDD1
:10241000001002402DE9F05F322004F04FF83D4DEE
:102420000446DFF8F4B028683C4E3D4F4FF00008FA
:102430004FF496794FF4FA7A01282ED1012C30D13D
:102440009BF80000401CC0B28BF8000015285FD13B
:10245000344AC5F800804046C2F8A082324A8BF860
:1024600000801E21C2F80090304AC2F800A0C6F8D1
:1024700014A0C6F810A0C6F80CA0C6F808A0C6F8AC
:1024800004A0C6F800A0C7E90408F860B860786046
:1024900038600122264801F083FD286850B30128E6
:1024A00036D1022C34D11F49C5F800804046C1F80E
:1024B000A0821D4A8BF80080C2F800901B4AC2F827
:1024C00000A0C6F814A0C6F810A0C6F80CA0C6F864
:1024D00008A0C6F804A0C6F800A0C7E90408F86080
:1024E000B86078603860BDE8F05F01221E211048B6
:1024F00001F056BD022C0BD10F490E480A6802604C
:10250000898881800E490D480A6802608988818027
:10251000BDE8F09F680100207401002080010020C8
:10252000205B002000004042780100207C01002058
:1025300000040140580200205E02002064020020D6
:102540006A0200207CB50121084600F0ABFE0120A4
:102550008DF8040000228DF8062003218DF8051067
:10256000074D4FF480548DF80700009469462846C3
:10257000FFF76AFA21462846FFF7B2FA7CBD000051
:102580000000024000EE900A41421E4AB8EEE01AF6
:1025900000EE901A00B592ED010AF8EEE00A06F09E
:1025A000F1F900EE900A82ED010A174AB8EEE01A3E
:1025B00000EE901A92ED010AF8EEE00A06F0E2F958
:1025C00000EE900A82ED010A104AB8EEE01A00EE21
:1025D000901A92ED010AF8EEE00A06F0D3F900EE47
:1025E000900A82ED010A0A4AB8EEE01A00EE901A4B
:1025F00092ED010AF8EEE00A06F0C4F982ED010A54
:1026000000BD0000385B00204C5B0020605B0020B8
:10261000745B0020BC2801D3012210E0622801D3A2
:1026200002220CE02A2801D3032208E0142801D357
:10263000042204E00A2801D3052200E006221A2120
:10264000D020FFF7BFBD10B504464FF47A70844226
:1026500001D9044602E0042C00D20424B0FBF4F0BB
:10266000401EC2B21921D020FFF7ACFD6008BDE8C2
:102670001040FFF7CFBF10B580226B21D020FFF7AD
:10268000A1FDC82004F0E6F800226B21D020FFF75E
:1026900099FD012000F03AF8002000F02EF83220D9
:1026A000FFF7D1FF00223821D020FFF78BFD002259
:1026B0006A21D020FFF786FD00222321D020FFF7DA
:1026C00081FD80223721D020FFF77CFD7521D020AD
:1026D000FFF790FC682801D0012010BD01226B217A
:1026E000D020FFF76FFD00226C21D020FFF76AFD9C
:1026F0003220FFF7A8FF002010BD08B5022300908C
:1027000004221C21D020FFF707FD08BD08B50223D5
:10271000009004221B21D020FFF7FEFC08BD000022
:1027200008B504F0EDF80D4C4FF47A7500900A21CD
:10273000684606F089FC2068A8420ADA401C20603E
:10274000606820612089A082D4F80A00E061E089F5
:10275000208400F049F800F003F8E8E74802002080
:1027600070B53C21D020FFF745FC04463B21D0202A
:10277000FFF740FC04EB00201A4C3E212080D020C3
:10278000FFF738FC05463D21D020FFF733FC05EB71
:10279000002060804021D020FFF72CFC05463F211F
:1027A000D020FFF727FC05EB002000B2A4F10A01BE
:1027B000A0800968B1F57A7F12DB04F11803218843
:1027C000198062885A8098809B1F1D88491B218030
:1027D0005988511A61809988401A00F58040A0807C
:1027E00070BD00005202002070B54421D020FFF7D8
:1027F00001FC04464321D020FFF7FCFB04EB002042
:102800001F4C46212080D020FFF7F4FB05464521D0
:10281000D020FFF7EFFB05EB002060804821D0209F
:10282000FFF7E8FB05464721D020FFF7E3FB05EB68
:10283000002000B2211FA08009684FF47A75114A68
:10284000114BA94203DA01201860107070BDA94233
:1028500001D1002111704FF496711960084B218845
:102860001233198062885A8098809B1F1D88491BEB
:1028700021805988511A61809988401AA08070BDC2
:102880004C0200205001002034000020FEE7704779
:1028900030B50F23C27801780125FAB1144A1268C5
:1028A00001F1E02102F4E062C2F5E062C2F3072226
:1028B000C2F10404D3404278A24084781C401443FF
:1028C000220181F80024007800F01F018D404009AA
:1028D000800000F1E020C0F8005130BD01F01F0081
:1028E00085404809800000F1E020C0F8805130BDEB
:1028F0000CED00E0024908430249086070470000FF
:102900000000FA050CED00E010B40021084B0A4667
:10291000002003EBC004401CC0B262548028F8D3EE
:10292000491CC9B20829F3D310BC00F0D1B800008B
:102930007002002010B57F2816D83F2914D807232D
:10294000A3EBD10301F00701C1F107040121A1406C
:10295000064CDBB204EBC000002AC25CC9B201D055
:102960000A4300E08A43C25410BD000070020020F8
:10297000F0B516460D4607460024FFF7DBFF32464A
:1029800029463846FFF7D6FF2819C1B232463846E5
:10299000FFF7D0FF641CE4B2082CF5D3F0BD0000B3
:1029A0007CB50121082000F07DFC01268DF8046033
:1029B00000244FF4F0408DF8064000908DF805405B
:1029C0008DF8074069464048FFF73EF801210807A7
:1029D00000F074FC012000F05FFC002000F0DAFC45
:1029E000002000F059FC394DC5F8B042642005F5CF
:1029F0002C7503F02FFF2E600021AE2000F012FA9C
:102A00000021D52000F00EFA0021502000F00AFA33
:102A10000021A82000F006FA00213F2000F002FA71
:102A20000021D32000F0FEF90021084600F0FAF959
:102A30000021402000F0F6F900218D2000F0F2F98D
:102A40000021142000F0EEF90021202000F0EAF926
:102A50000021022000F0E6F90021A12000F0E2F9B7
:102A60000021C02000F0DEF90021DA2000F0DAF9C0
:102A70000021122000F0D6F90021812000F0D2F9C7
:102A80000021EF2000F0CEF90021D92000F0CAF992
:102A90000021F12000F0C6F90021DB2000F0C2F98E
:102AA0000021302000F0BEF90021A42000F0BAF986
:102AB0000021A62000F0B6F90021AF2000F0B2F905
:102AC000FFF722FF7CBD0000000C02400080414265
:102AD00070B5104E002505F1B000C0B2002100F025
:102AE000A1F90021084600F09DF90021102000F016
:102AF00099F9002406EBC4000121405D00F092F931
:102B0000641CE4B2802CF5D36D1CEDB2082DE2D329
:102B100070BD00007002002070B515460E460446D8
:102B20000CE02A463146204600F0A8F81034E4B202
:102B3000702C02D900241036F6B2AD1C287800287B
:102B4000EFD170BD70B515460E4604460CE02A461E
:102B50003146204600F04EF80C34E4B2742C02D911
:102B600000240C36F6B2AD1C28780028EFD170BDD9
:102B70002DE9F04F203A98460D468346894602F0EB
:102B8000FF0A00262EE0B8F10C0F08D0174901EB20
:102B90000A100027845D200607D5099A08E0144929
:102BA0000AEB4A0001EB8000F3E7099890B100229C
:102BB00029465846FFF7BEFE6D1C6006EDB2040EB6
:102BC000A5EB0901414507D10BF101004D4600F08D
:102BD000FF0B05E00122EBE77F1CFFB2082FDAD3E1
:102BE000761CF6B24645CED3BDE8F08F62B200083F
:102BF000EEAD00082DE9F74F172514781E4B8B46D4
:102C0000002000EB800101EBC00113F81160A64227
:102C10002DD103EB4109567899F80110B14226D124
:102C200000254FF0800A09EB0500009990F802801A
:102C300005F0010000240BEB550701EBC0062AFA52
:102C400004F010EA080F06EB0400F9B2C0B201D09C
:102C5000012200E00022FFF76DFE641CE4B2082CA4
:102C6000EDD36D1CEDB2182DDDD3BDE8FE8F401CF9
:102C7000C0B2A842C5D3F8E7BCC500082DE9F74F9C
:102C8000652514781D4B8B46002000EB001113F8CE
:102C90001160A6422DD103EB4109567899F8011035
:102CA000B14226D100254FF0800A09EB05000099BA
:102CB00090F8028005F0010000240BEB550701EBB2
:102CC000C0062AFA04F010EA080F06EB0400F9B275
:102CD000C0B201D0012200E00022FFF72BFE641CED
:102CE000E4B2082CEDD36D1CEDB2202DDDD3BDE890
:102CF000FE8F401CC0B2A842C7D3F8E752B8000804
:102D00002DE9FF4F81B00027DDF838B01D4692460F
:102D100080463C464FF001094FEA5B0627E0281B3E
:102D2000401EC1B20A2003F025FEBAFBF0F00A21D2
:102D3000B0FBF1F201FB120027B9691E8C4201DAE7
:102D400048B101273030C2B206FB0480C0B25B46F6
:102D5000CDF8009006E006FB0480C0B25B4620225E
:102D6000CDF800900299FFF703FF641CE4B2AC4277
:102D7000D5D305B0BDE8F08FF8B516460D4604462C
:102D8000012714E07A2C02D900241035EDB23A2D37
:102D900003D900242546FFF7B7FD009732780C23AE
:102DA00029462046FFF7E4FE0834E4B2761C30786A
:102DB0000028E7D1F8BDF8B516460D4604460127B0
:102DC00014E07A2C02D900241035EDB23A2D03D943
:102DD00000242546FFF798FD0097327810232946F6
:102DE0002046FFF7C5FE0834E4B2761C3078002890
:102DF000E7D1F8BD30B50A4D00242868C11700EBB3
:102E00001170B4EB201F01DA012200E00022002142
:102E10002046FFF7ADFD641CE4B2802CEDD330BD3D
:102E2000E401002030B500230E4A012411B1C2F89C
:102E3000AC4201E0C2F8AC320021C2F8B83205065B
:102E400002D5C2F8B44201E0C2F8B432C2F8B842C6
:102E50004006491C000EC9B20829EED3C2F8AC42A4
:102E600030BD0000008041420020044A0146115458
:102E7000401CC0B20928FAD3704700007006002039
:102E80002DE9F84301250746ADF800501B48002600
:102E90004670ADF800501A4C80464FF6FF7924E09A
:102EA000BDF80000384202D0C4F8B05201E0C4F8C6
:102EB000B062C4F8A052052003F0E8FCC4F8A06298
:102EC000052003F0E3FCC4F8A052D4F83C0230B172
:102ED00098F80110BDF80020114388F80110BDF8E2
:102EE000001009EA4100ADF80000BDF80000FF281D
:102EF000D6D9BDE8F843102003F0C8BC7006002006
:102F00000000424270B5FFF7AFFF00F013F90B4825
:102F10000B4AB0F803400A480832448000200125DB
:102F200012F8103000F101005B1E05FA03F1214296
:102F3000C0B202D01028F3D3002070BD700600206C
:102F40003C00002010B5154C0020C4F8A802102049
:102F500004F52A7403F09AFC0120FFF791FF432047
:102F6000FFF78EFF0020FFF78BFF0120FFF788FFA0
:102F70000020FFF785FF0020FFF782FF0020FFF70A
:102F80007FFF0020FFF77CFF0020FFF779FF012083
:102F90002060BDE81040102003F078BC00004242E1
:102FA00010B5154C0020C4F8A802102004F52A74AE
:102FB00003F06CFC0120FFF763FF4320FFF760FF85
:102FC0000020FFF75DFF0020FFF75AFF5A20FFF7B0
:102FD00057FF5A20FFF754FF5A20FFF751FF5A209E
:102FE000FFF74EFF5A20FFF74BFF01202060BDE89E
:102FF0001040102003F04ABC000042427CB5012181
:10300000102000F04FF94FF40040002400908DF89C
:10301000044003208DF805000C4E02258DF8075062
:1030200069463046FEF710FD01218DF804108DF839
:1030300006404FF4A8508DF8055000908DF8071009
:1030400069463046FEF700FD7CBD000000100240DE
:1030500010B5FFF757FF00EE100A27482C4BB8EECB
:10306000400A012280ED000A2448C17900EE901A3E
:103070002349F8EE600AC1ED000A017A00EE901AC9
:103080002049F8EE600AC1ED000A417901EE101AFC
:103090001D49B8EE411A81ED001A807910EE101A20
:1030A00001EE100A1948B1F1814FB8EE411A80EDD6
:1030B000001A184801D10178E1B15968002918D0E7
:1030C00010EE901A144B994213DA0178002910D1AE
:1030D00012490968B1F57A7F0BDB114902700020B3
:1030E000087010490870104908701049087010499C
:1030F000087010BD5A60E3E7E00100207006002070
:10310000D0010020D4010020D8010020DC010020E3
:103110003C000020600100200000EC42480200203A
:10312000620100206101002063010020C80100202D
:10313000C90100202DE9FC4100268DF80060012521
:10314000ADF80450224CC4F8A862224F3878FFF73B
:1031500097FE7878FFF794FE02208DF800001E4F4E
:103160004FF6FF782CE0ADF804501DE0C4F8A052F3
:10317000052003F08BFBC4F8A062052003F086FB5A
:10318000C4F8A052D4F83C0240B19DF80000BDF84C
:103190000410385C08439DF800107854BDF8041002
:1031A00008EA4100ADF80400BDF80400FF28DDD9AD
:1031B000102003F06BFB9DF80000401C8DF8000010
:1031C0009DF800000928CED3C4F8A852BDE8FC81C0
:1031D000000042423C0000207006002010B500F0C4
:1031E0000DF800F00BF800F009F8FFF7ABFE00F067
:1031F00027F8BDE81040FFF7D3BE000010B50F4C14
:103200000020C4F8A802102004F52A7403F03EFB45
:103210000120FFF735FE4220FFF732FE0020FFF7C6
:103220002FFE0020FFF72CFE0020FFF729FE0120D3
:103230002060BDE81040102003F028BB000042428F
:1032400010B5144C0020C4F8A802012004F52A741B
:10325000FFF716FE4420FFF713FE0020FFF710FED5
:103260000120FFF70DFE0320FFF70AFE0020FFF705
:1032700007FE0020FFF704FE0020FFF701FE0020FC
:10328000FFF7FEFD01202060BDE81040102003F094
:10329000FDBA000000004242014908627047000088
:1032A00000000E42044A0029116801D0014300E0E9
:1032B000814311607047000030380240044A002901
:1032C000116801D0014300E08143116070470000A4
:1032D00040380240044A0029116801D0014300E04F
:1032E000814311607047000044380240044A0029BD
:1032F000116801D0014300E0814311607047000074
:103300002438024070B5204B1968204C11F00C0194
:1033100004D06610042903D0082903D004601BE000
:10332000066019E0184A121F1168C1F38055116830
:1033300001F03F0115B1B6FBF1F101E0B4FBF1F191
:1033400014681268C4F388146143C2F30142521C2A
:103350005200B1FBF2F1016019680F2202EA11116B
:103360000B4A545C0168E14041601C68072505EA8E
:103370009424145D21FA04F484601B6805EA533335
:10338000D25CD140C16070BD083802400024F40016
:10339000CC000020054900220A700A70012802D0E2
:1033A000042801D1052008707047000070380240E1
:1033B0000021022803D0032807D0002070474FF0D7
:1033C0008042506A516200B27047024A1068116030
:1033D00000B270472404004010B551EC100B2DEDE5
:1033E000068BB0EE439AF0EE629AB0EE42AAF0EE8F
:1033F000618AB0EE418A06F035FEBDEECA0A154973
:1034000010EE102ABDEEE90A086081ED018A10EE87
:10341000103AC1ED058AC1E9022381ED049A9900B1
:10342000514300EE101A0C49B8EEC00A81ED000AB3
:103430009FED0A0A0A4929EE000A81ED000A0949AE
:103440000860094880ED008A0848C0ED008ABDEC9C
:10345000068B10BDCC5B0020B4010020DB0F49407F
:10346000B8010020BC010020C0010020C4010020E0
:1034700070B51B4C4FF4AD700A2120600920FEF797
:10348000D1FC2168174D90FBF1F004242C709FEDC6
:10349000163AF2EE0A2AB3EE0E2ADFED141A9FED69
:1034A000141A9FED140BFFF797FF2D78082313488C
:1034B00013490722062D0ED2DFE805F003060E0E93
:1034C0000A0E03600E2005E0062202600A2001E0D9
:1034D00003600B20086070BD04600A6070BD0000CE
:1034E000A001002051010020B81E853D0000000011
:1034F000E926313E000000C09DEFC73F6C0100206F
:10350000700100200CB50022274900920192086842
:1035100040F4803008604FF4A043086800F40030A5
:1035200001900098401C0090019810B900989842B2
:10353000F3D10868800334D5012001901A48403047
:10354000026842F0805202601848026842F4404229
:1035500002601548083002680260026842F40042C6
:103560000260026842F4A0520260031F104A1A600F
:103570000A6842F080720A600A689201FCD50D491F
:1035800040F205720A60016821F0030101600168E0
:1035900041F0020101600168C1F381010229FAD101
:1035A0000CBD01920CBD00000038024000700040CC
:1035B00008544007003C02404FF0E021042808690D
:1035C00003D020F004000861704740F00400FAE7DF
:1035D00010B506F0DFFA012803D0BDE8104005F071
:1035E000CDBF10BD124810B5016841F470010160F3
:1035F0001048016841F0010101600E4A00210832C3
:10360000116002680C4B1A400260031D0B4A1A60DD
:10361000026822F48022026006480C300160FFF745
:1036200071FF03494FF000608039086010BD000051
:1036300088ED00E000380240FFFFF6FE1030002465
:1036400070B5048C24F001040484058B048C4FF6BF
:10365000FF7606EA0313134325F0F3052B4324F00A
:103660000A020A4342F001010383018470BDF0B5F0
:10367000048C24F010040484078B068C4FF6FF742E
:1036800004EA011527F4734704EA0331394304EAD5
:1036900002220A4326F0A001294341F010010283CF
:1036A0000184F0BD2DE9F041884607468AB001212A
:1036B0000220FFF7F7FD01214804FFF70BFE1F4E24
:1036C000032208213046FEF7FBF902208DF80400A2
:1036D0000024C0018DF80640012500908DF80750A8
:1036E00003208DF8050069463046FEF7ADF9144E0B
:1036F000ADF808800397ADF81040ADF80A4002A974
:10370000304600F0A1FD6020ADF81400ADF8165071
:10371000ADF8204005A9304600F04AFC08213046AB
:1037200000F07CFC0121304600F08AFB012130468C
:1037300000F096FB0AB0BDE8F081000000040240F2
:10374000004401402DE9F041884607468AB0012136
:103750000220FFF7A7FD01218804FFF7BBFD214EE2
:10376000032209213046FEF7ABF902208DF8040050
:10377000002400028DF80640012500908DF80750C6
:1037800003208DF8050069463046FEF75DF9164EB8
:10379000ADF808800397ADF81040ADF80A4002A9D3
:1037A000304600F051FD6020ADF81400ADF8165021
:1037B000ADF8204005A9304600F0FAFB082130465C
:1037C00000F02CFC0121304600F054FB0121304672
:1037D00000F036FB0121304600F042FB0AB0BDE8A4
:1037E000F081000000040240004801402DE9F04152
:1037F000884606468AB001214020FFF75FFD01217F
:103800000220FFF74FFD02208DF818004FF44040D2
:10381000059003208DF819000024264F8DF81A40DA
:1038200001258DF81B5005A93846FEF70DF9092230
:103830000E213846FEF744F909220F213846FEF7DB
:103840003FF908961C4EADF81C80ADF82440ADF849
:103850001E4007A9304600F0F7FC6020ADF80000DC
:10386000ADF802500294ADF80C40ADF81040694636
:10387000304600F09DFB6946304600F0D5FB08213C
:10388000304600F0CBFB0821304600F017FC012148
:10389000304600F0EFFA0121304600F0E1FA064927
:1038A00040F2DC5038310860091F08600AB0BDE8FA
:1038B000F081000000040240001800402DE9F041B2
:1038C0008846074601218AB00846FFF703FD01211B
:1038D0001020FFF7E7FC354E012209213046FEF7A4
:1038E000EFF801220B213046FEF7EAF801220D2104
:1038F0003046FEF7E5F801220E213046FEF7E0F8EB
:103900004FF4D440059002208DF8180003208DF864
:10391000190000248DF81A4001258DF81B5005A9C7
:103920003046FEF791F8224EADF81C800897ADF8AE
:103930002450ADF81E4007A9304600F085FC6020F9
:10394000ADF80000ADF80250ADF80C4069463046C5
:1039500000F02EFB6946304600F066FB69463046B3
:1039600000F0B6FB6946304600F000FC012130460D
:1039700000F080FA0821304600F050FB0821304664
:1039800000F09CFB0821304600F0EAFB082130469D
:1039900000F026FC0121304600F052FA01213046A9
:1039A00000F05EFA0AB0BDE8F081000000100240AD
:1039B000000001404FF08040018A018A21F001019E
:1039C0000182704703480188018821F001010180CC
:1039D00070470000100400402DE9F0478E48002495
:1039E0008169B1F5C86F13DD8C490A7882B98C4AB8
:1039F0001268B2F57A7F0BDB01220A7089490C70DC
:103A000089490C7089490C7089490C7089490C707E
:103A100080460078884D000642F20F764FF4FA7720
:103A20002DD40221284600F051FA40B30221284645
:103A300000F013FA98F80000400628463DD500F043
:103A40003DFA80B2A8F80600B8F804104246884251
:103A500001D2566300E05463401A516B0844506130
:103A6000516A401A00D54042B84200DD51615069A8
:103A7000506288F800400021284600F0C9FA98F802
:103A8000010000063AD40421284600F01FFAA8B32A
:103A90000421284600F0E1F998F801004006284684
:103AA0004AD500F00DFA80B2A8F80A00B8F808105C
:103AB000424688420ED296630DE000F0FFF90146BF
:103AC000A8F8041098F8001041F0400188F80010A0
:103AD0000221D1E79463401A916B08449061916A86
:103AE000401A00D54042B84200DD91619069906271
:103AF00088F801400021284600F0D6FA98F8020024
:103B000000063AD40821284600F0E0F9A8B30821BD
:103B1000284600F0A2F998F80200400628464BD546
:103B200000F0D0F980B2A8F80E00B8F80C104246A8
:103B300088420ED2D6630DE000F0C2F90146A8F823
:103B4000081098F8011041F0400188F80110022196
:103B5000D1E7D463401AD16B0844D061D16A401ACE
:103B600000D54042B84200DDD161D069D06288F80A
:103B700002400021284600F0E9FA98F80300C14607
:103B8000000647D41021284600F0A0F9002841D0B3
:103B90001021A846284600F060F999F803004D4628
:103BA00040062BD5404600F08FF980B26882298A02
:103BB00088420ED22E640DE000F084F90146A8F888
:103BC0000C1098F8021041F0400188F80210022110
:103BD000D0E72C64401A296C08442862296B401AEB
:103BE00000D54042B84200DD2962286A2863EC70A3
:103BF00000214046BDE8F04700F0E8BA44464046A0
:103C000000F062F92882E878022140F04000E87074
:103C10002046EFE7BDE8F087640000206201002045
:103C200048020020610100206001002063010020A3
:103C3000C8010020C9010020000401402DE9F04125
:103C4000884605468AB001210220FFF743FB012187
:103C50000420FFF727FB4FF47070022603908DF8C5
:103C6000106003208DF811000024414F8DF81240A0
:103C70008DF8136003A93846FDF7E6FE03220621FE
:103C80003846FDF71DFF032207213846FDF718FFD0
:103C9000032208213846FDF713FF03220921384685
:103CA000FDF70EFF334FADF814800695ADF81C40BC
:103CB000ADF8164005A9384600F0C6FA01250F20D8
:103CC000ADF80040ADF80450ADF80800ADF8024082
:103CD000ADF806406946384600F004F90420ADF816
:103CE0000000ADF80450ADF80240ADF80640ADF864
:103CF00008406946384600F0F5F80820ADF80000A5
:103D0000ADF80450ADF80240ADF80640ADF80840FB
:103D10006946384600F0E6F80C20ADF80000ADF832
:103D20000450ADF80240ADF80640ADF808406946D1
:103D3000384600F0D7F82E208DF820008DF821604D
:103D40008DF822608DF8235008A8FEF7A1FD01220E
:103D50001E21384600F024F90121384600F08AF887
:103D60000121384600F07CF80AB0BDE8F08100007F
:103D700000080240000401400248018821F00101CE
:103D800001807047100401402DE9F04389468046C8
:103D900001218BB00804FFF79DFA01211020FFF7E5
:103DA00081FA254F032205213846FDF789FE0322BB
:103DB00006213846FDF784FE02208DF81800032006
:103DC0008DF81900002460268DF81A40012505960B
:103DD0008DF81B5005A93846FDF736FE174FADF894
:103DE0001C90CDF82080ADF82440ADF81E4007A906
:103DF000384600F029FAADF80060ADF80250ADF891
:103E00000C406946384600F0D3F86946384600F061
:103E10000BF90821384600F001F90821384600F076
:103E20004DF90121384600F00BF80121384600F029
:103E300017F80BB0BDE8F0830010024000400140CD
:103E40000029018802D041F0800101E021F08001C9
:103E500001807047C94301827047C943018270479E
:103E60000029018802D041F0010101E021F00101A7
:103E700001807047002930F8441F02D041F400410E
:103E800001E0C1F30E010180704770B50589048B14
:103E9000068C25F007050D434FF6FC410C4040F21F
:103EA00001110C434FF6FF7101EA031126F02206BF
:103EB0001143314305810483018470BD406B704719
:103EC000806B7047C06B7047006C704702460020E3
:103ED000138A92890B4202EA010202D0002A00D022
:103EE000012070472DE9F0410C460E884988A288D0
:103EF0002389054616B3042E28D0082E2E8C4FF6A3
:103F0000FF702BD026F480562E84AF8B2E8C00EAC7
:103F1000022200EA013127F473473A4300EA0330F2
:103F2000104326F420420A4342F48051A883298496
:103F3000E1882846BDE8F04100F07AB9FFF780FB40
:103F4000E1882846BDE8F04100F056B9FFF78FFB45
:103F5000E1882846BDE8F04100F056B926F48076A5
:103F60002E84AF8B2E8C00EA012100EA031010434F
:103F700027F0F307384326F420620A4342F48071A5
:103F8000A8832984E1882846BDE8F04100F048B9BB
:103F900000210180418001228280C180018170471F
:103FA000002A828901D00A4300E08A438281704757
:103FB00030B5028C22F001020284028C8388048BCB
:103FC00022F0020224F073050C882C438D891543DE
:103FD0004A882A430C4DA84202D00C4DA8420DD16C
:103FE00022F00805CA8923F440732A4322F004050D
:103FF0008A882A430D8A1D434B8A2B43838004837E
:1040000089684163028430BD000001400004014022
:10401000028C22F002020A4302847047028B22F0D3
:1040200008020A430283704770B5028C22F0100226
:104030000284028C8388048B0D8824F4E6464FF6B4
:10404000FF7404EA052535438E8922F0200204EA34
:10405000061616434A8804EA02123243104EB04252
:1040600002D0104EB04215D122F08006CA8923F446
:10407000406304EA0212324322F040068A8804EACE
:10408000021232430E8A04EA86061E434B8A04EA71
:10409000830333438380058389688163028470BD11
:1040A0000000014000040140028C4FF6FF7322F033
:1040B000200203EA0111114301847047028B4FF67D
:1040C000FF7322F4006203EA012111430183704768
:1040D00070B5028C22F480720284028C8388848BF7
:1040E0000D8824F0730425438E894FF6FF7422F463
:1040F000007204EA062616434A8804EA0222324382
:10410000104EB04202D0104EB04215D122F40066DB
:10411000CA8923F4405304EA0222324322F480661F
:104120008A8804EA022232430E8A04EA06161E43F3
:104130004B8A04EA03133343838085838968C16310
:10414000028470BD0000014000040140028C4FF663
:10415000FF7322F4007203EA0121114301847047C6
:10416000828B22F008020A438283704770B5028C6A
:1041700022F480520284058C8288838B0C8823F47D
:10418000E6464FF6FF7303EA0424344325F4005651
:104190008D8903EA053535434E8803EA06362E43FA
:1041A000084DA84202D0084DA84205D122F480450E
:1041B0000A8A03EA82122A4382808483896801641E
:1041C000068470BD0000014000040140028C4FF6DF
:1041D000FF7322F4005203EA013111430184704756
:1041E000828B4FF6FF7322F4006203EA0121114330
:1041F0008183704741627047028B22F00C02028378
:10420000028B0A4302837047028B22F440620283CE
:10421000028B4FF6FF7303EA01210A4302837047C2
:10422000828B22F00C028283828B0A438283704746
:10423000828B22F440628283828B4FF6FF7303EA03
:1042400001210A438283704730B50288164C174D0E
:10425000A0420DD0A8420BD0B0F1804F08D0144B33
:10426000984205D0134B984202D0134B984203D189
:1042700022F070034A881A43104B984206D0104B24
:10428000984203D022F440730A891A4302804A6894
:10429000C2620A880285A04201D0A84201D1897A6F
:1042A00001860121818230BD0000014000040140EF
:1042B0000004004000080040000C004000100040D6
:1042C000001400404FF0FF31416000210180018166
:1042D00041808172704700001CB54FF4E13004F05A
:1042E0006BFC06A0D0E90010CDE900106846FCF791
:1042F000E7F881B2684600F0E7FA1CBD24302C30A4
:104300002C31230008B502F0FBFA00900521684625
:1043100004F09AFEFDF716F9F8E700000A2809DB19
:104320000C48D0F80C0228B10B480078012801D0C5
:1043300000207047094A012000211160084A1160DD
:10434000084A51639163084A916391631164D16390
:104350007047000000804142500100203444014079
:1043600034480140004001400000014070B50C4D50
:1043700040F225542146284600F0C3FA70B109489E
:104380000068B0F57A7F09DB284600F047FBC0B231
:10439000FDF7A8F82146284600F0A3FA002070BDDA
:1043A00000500040F001002070B5334D40F225511F
:1043B000284600F0A6FA002856D0002401262846F8
:1043C00000F02CFBC1B22D480068B0F57A7F4BDBC2
:1043D0002C4B2B4D002218787B29295400D028B172
:1043E000401CC0B218700B2802D03DE01A703BE0B0
:1043F0001A70A87A7D2837D10020295C401C4C40D7
:104400000928FADB687AA04200D06EBB1E4801780A
:1044100049B9012101701D4802701D4802701D48F4
:1044200002701D4802701D4802702979E87800F07A
:1044300051FB1B4C84ED000AA979687900F04AFB16
:10444000184880ED000A297AE87900F043FB164805
:10445000164EF0EE400A0078022807D0297AE87953
:1044600000F038FB86ED000A002070BD94ED000AD4
:1044700000F0DAFAF6E7000000100140F001002039
:104480007C060020A8000020C80100206101002057
:104490006001002062010020630100202C02002046
:1044A000A8010020AC01002051010020B001002033
:1044B00000B5054B0022985C04F0ECFB521CD2B214
:1044C000182AF8D300BD0000BA0600202DE9F041FB
:1044D00040F225512DED048B834800F012FA00289C
:1044E0000FD08148001D008880490968B1F57A7FA6
:1044F00007DB7F494FF002080A68012112B1012A47
:1045000070D0EBE000247B4D412810D12A79412A5C
:104510000DD1794A137853B9784B1C70784B1C70C5
:104520001170784A1470784A1470784A1470C3B2C3
:10453000774A784FDFF8E0C1784E2B714B2808D0CE
:10454000492808D04A2806D036782EB1012E0BD043
:104550001EE031700CE03470A0F14106072E26D920
:10456000082814DC137013E0432809D047280BD027
:104570003C708CF80040412819D0452817D006E03F
:104580003C708CF8001002E039708CF80040147018
:104590009FED630A634A9FED649A644E58280AD0DF
:1045A00059280DD07B2817D07D281CD00EE0A0F113
:1045B00040061670ECE7D6ED000A30EE800A03E004
:1045C000D6ED000A30EEC00A86ED000A68780128B0
:1045D00003D0022809D060E06970A8781354401C09
:1045E000A8705AE063E085F80180D078502806D0A2
:1045F0005078232848D0A878E87090462AE04C48A4
:10460000017041E0A978081A05F0A1FF41EC110BF7
:104610009FED480B00F00CFCEF78B0EE408A08EB01
:104620000700F0EE608A10F8010C303805F08FFFBB
:1046300053EC182B05F0F2FF41EC180BA86806F0BC
:10464000E3FA53EC182B05F03FFD05F00BFD7F1E40
:10465000A860EF70E8780428D4D298F801003038C8
:10466000032811D2DFE800F002070B0095ED020AE3
:1046700086ED000A08E095ED020A304802E095ED6B
:10468000020A2F4880ED000A6C70AC70EC7085ED6A
:10469000029A32212348FBF77FFF96ED000AB5EE20
:1046A000C00AF1EE10FA19D286ED009A16E0254AFA
:1046B000412808D0432808D0452809D0472809D0E8
:1046C0005A2809D00AE0117008E082F8008005E05D
:1046D000032002E0042000E0052010700020BDEC63
:1046E000048BBDE8F0810000004400404802002037
:1046F00068010020A8000020610100206001002066
:104700006201002063010020C8010020C9010020CF
:1047100064010020CA010020CB010020CC01002050
:104720000000C8428706002000000000540100205D
:10473000CD010020000000000000244058010020AE
:104740005C0100209901002070B5394C40F22551E0
:10475000204600F0D6F8002868D0204600F05EF928
:104760003449C0B20968B1F57A7F5FDB3249002471
:10477000096811B101294DD058E0314A2F4D7B28ED
:104780005179685400D029B1491CC8B250710B2826
:1047900002D04BE0547149E05471A87A7D2845D18C
:1047A00000210920FCF782FE697A88423ED1254823
:1047B0000470254804702548047025480470254875
:1047C000047025480470254804702979E87800F0C1
:1047D00081F9234C84ED000AA979687900F07AF90F
:1047E000204880ED000A297AE87900F073F91E4824
:1047F0001E4EF0EE400A0078022806D0297AE879A9
:1048000000F068F986ED000A10E094ED000A00F06F
:104810000BF9F7E7174A164B23281178585403D1A0
:104820005C54154B01201870491C1170002070BD9C
:1048300000480040F001002068010020EC06002044
:10484000A80000206001002062010020610100201A
:1048500063010020C8010020C90100202C020020B3
:10486000A8010020AC01002051010020B00100206F
:10487000885B002098010020E801002010B500228C
:10488000084B094C03E0985C04F00CFA521C2078A9
:104890008242F8DB0D2004F005FABDE810400A2042
:1048A00004F000BA885B00209801002000B5054B99
:1048B0000022985C04F0F6F9521CD2B2182AF8D300
:1048C00000BD0000BA06002010B50C4603460022C9
:1048D00004E0985C04F0F0F9521C92B2A242F8D3C2
:1048E00010BD0A0A01219140C94301807047002987
:1048F000818902D041F4005101E021F4005181810D
:10490000704770B501F01F0501260024C1F3421362
:1049100006FA05F2012B0FD0022B0FD0838A4FEA43
:1049200011210088134206FA01F600EA060001D0C0
:1049300000B10124204670BD8389F0E7038AEEE7C9
:1049400010B5C1F3421301F01F040121A140012B56
:1049500007D0022B07D01430002A026805D00A4382
:1049600004E00C30F8E71030F6E78A43026010BD2F
:104970007FB50446008A0D46C98820F440500143A3
:104980002182A08941F20C618843A9882A891143B8
:104990006A8902431143A181A08A20F44071A88949
:1049A0000843A0826846FEF7ADFC1A48844202D054
:1049B0001948844201D1039800E00298A1890904B2
:1049C00000EBC00101EB0010296801D5490000E0AF
:1049D0008900B0FBF1F06422B0FBF2F109010B0990
:1049E0006FF018056B4300EB8300A3891D044FF0A3
:1049F000320306D503EBC000B0FBF2F000F0070075
:104A000005E003EB0010B0FBF2F000F00F000843EC
:104A100020817FBD00100140001401408088C0F358
:104A200008007047FEE7000010B52DED048BB0EED6
:104A3000608AB0EE409ADFED238AB5EEC08AF1EECF
:104A400010FA3CD0B5EEC09AF1EE10FA37D089EEEC
:104A5000080A01F041FFB4EEE80AF1EE10FA0FD8AF
:104A6000B5EEC08AF1EE10FAB0EE490A02DD01F0AF
:104A700033FF03E001F030FFB1EE400A80EE288AF8
:104A80001148B6EE001A90ED000A1048C9EE080A67
:104A900040EE010A90ED001A81EE200A10EE100A95
:104AA00006F0B2F841EC100B00F056F851EC100B88
:104AB00005F0D8FA00EE100ABDEC048B10BD9FED96
:104AC000040AF9E73333B33EBC010020C0010020E3
:104AD0000000000070B501EB002004B24FF47A75BD
:104AE00094FBF5F005FB10402DED028B05F02FFD3A
:104AF0009FED0B1B53EC112B05F090FD41EC180BB7
:104B000094FBF5F005F023FD53EC182B05F0DCFACF
:104B100005F0A8FABDEC028B00EE100A70BD000093
:104B2000FCA9F1D24D62503F03B4019841000098B6
:104B300050EAC12018BF04204A0D18BF40F0010000
:104B400040F2FF72B2EB515F08BF40F00200012853
:104B500008BF052002B0704770B59B482DED020BD1
:104B60002DED068B079D25F00044A04218DC9748E8
:104B7000844202DC0AD1069840B19DED060BBDECE3
:104B8000068B02B0BDE8704001F052BC002DCCBFD6
:104B90009FED8F0B9FED900BBDEC068B02B070BDAF
:104BA0008F48A04215DD8F48A042D8BF4FF0FF3498
:104BB00058DD9DED060B51EC100BFFF7B5FF0428F7
:104BC00008BF01F069FC9DED060BBDEC068B02B041
:104BD00070BD9DED060B51EC100B01F071FECDE99F
:104BE000060181489FED828BA0423CDD8248A042B5
:104BF0001FDD00249FED82AB9DED060B53EC1A2BBD
:104C000051EC100B05F060FA9DED060B41EC190B11
:104C100053EC1A2B51EC100B05F000FD53EC182B44
:104C200005F008FF53EC192B05F00AFBCDE906014E
:104C300049E09DED060B012453EC182B51EC100BB1
:104C400005F042FA9DED060B41EC190B53EC182BC5
:104C500051EC100B05F0EEFE53EC192B05F0F0FAB9
:104C6000CDE906012FE06848A0421FDD02249FED38
:104C7000689B9DED060B53EC192B51EC100B05F0C6
:104C8000CDFC53EC182B05F01FFA9DED060B41EC03
:104C9000180B53EC192B51EC100B05F0CBFE53EC19
:104CA000182B05F0CDFACDE906010CE09DED060BC1
:104CB000032453EC102B9FED580B51EC100B05F017
:104CC000BFFACDE906019DED060B53EC102B51EC1C
:104CD000100B05F0A3FC41EC180B53EC182B05F05E
:104CE0009DFC41EC190B4E480621B0EE490AF0EE4E
:104CF000690A784401F060F953EC182B51EC100B61
:104D000005F08CFC41EC180B4648B0EE490AF0EE79
:104D1000690A0521784401F04FF953EC192B51EC45
:104D2000100B05F07BFC41EC100B51EC180B53EC15
:104D3000102B002C0EDA05F0C7F99DED061B53EC85
:104D4000112B05F06BFC9DED061B53EC112B05F0B0
:104D500099FD35E005F0B8F99DED061B53EC112BDC
:104D600005F05CFC41EC100B2F48784400EBC400CC
:104D700090ED001B51EC100B53EC112B05F05AFE7B
:104D80009DED061B53EC112B05F054FE41EC100B6E
:104D90002648784400EBC40090ED001B51EC100B4A
:104DA00053EC112B05F06EFD41EC100B002DA2BF52
:104DB000BDEC068B02B070BD51EC100B05F046F94E
:104DC00041EC100B01E70000000010440000F07FF0
:104DD000182D4454FB21F93F182D4454FB21F9BFF1
:104DE0000000DC3F0000203E0000F33F0000000018
:104DF000000000000000F03F0000E63F000000005F
:104E0000000000000000004000800340000000009F
:104E1000000000000000F83F000000000000F0BFAC
:104E20008A7B0000407B0000CA7A0000827A000082
:104E30002DE9F04D2DED040B2DED0E8B96B0DDE937
:104E40002550279CDDF890A025F0004624F000486E
:104E5000BAF1000F14BF0121002101EB4502FC490A
:104E600053184A1093422AD3002814BF0123002369
:104E700003EB44030B44F7498B4220D358EA00016B
:104E80009FEDF59B76D0DFF8D8B35D4503D1BAF13D
:104E9000000F05D188E0BAF1000F08BF002100D053
:104EA000012101EB450111F5001F08D8002814BFAE
:104EB0000121002101EB440111F5001F0BD99DEDEB
:104EC000261B9DED240B16B0BDEC0E8B04B0BDE887
:104ED000F04D01F0B7BA0027002DBCBFE14988456D
:104EE00021DAE1498845A8BF02271CDAC3451ADC4C
:104EF000DE4901EB2851142908DDC1F1340220FA02
:104F000002F101FA02F282420DD108E058B9C1F172
:104F1000140228FA02F101FA02F2424503D101F02B
:104F20000101C1F1020756EA0A0124D1002C22DA5C
:104F3000002D18BF022F01D0012F0AD00220FBF74D
:104F400056FB16B0BDEC0E8B04B0BDE8F04D01F081
:104F500057BA0220FBF74BFB01F052FA51EC100B51
:104F600005F074F841EC100B16B0BDEC0E8B04B0DC
:104F7000BDE8F08D18E09FEDBEAB9FEDBF8B002824
:104F800071D1B848804522D105F1804010F58010DC
:104F900008BFBAF1000F07D0B3450ADC002CA8BF48
:104FA0009DED260BE0DA0DE0B0EE490AF0EE690A5D
:104FB000DAE7002C06DA9DED260B51EC100B05F01C
:104FC00045F86FE0AE48784490ED000BCCE7D8454B
:104FD0004DD1002C48DA2EB186423AD1BAF1000FF9
:104FE00042D126E0BAF1000F13D00220FBF7FFFAFE
:104FF00001F042FA8DED020B9DED240B8DED000BBF
:1050000010EE900A039961F31E0003909DED020BD0
:10501000AAE78DED02AB9DED240B1AEE901A10EE6F
:10502000900A8DED000B61F31E0003909DED020BC5
:105030009AE78DED028B9DED240B18EE901A10EE81
:10504000900A8DED000B61F31E0003909DED020BA5
:105050008AE709DA9DED240B51EC190B53EC102B68
:1050600005F0EEF81EE020E09DED240B7CE7864283
:105070001BDAB4F1804F0DD0A4F10050B0F1FF5015
:1050800013D1002D11DB9DED240B51EC100B03F01F
:105090004DFB07E09DED240B53EC102B51EC100B56
:1050A00000F0C2BC41EC100B5EE79DED240B51EC0F
:1050B000100B01F005FCBAF1000FCDE90E0142D151
:1050C0009FED710B46B3A6F1E040B0F17F600CD0CC
:1050D0005E4538D1002D00DAA7B3022F0CBF0120A6
:1050E0004FF0FF3005F033FADCE7002D01DD002C36
:1050F0000DDA002D01DD002C1FDB002D16DA002C4F
:1051000014DB012F08BF9FED620B3FF42DAFB0EE13
:105110004A0AF0EE6A0A27E7022F18BF002D0CD0CA
:10512000012F0AD1002DFFF61FAF06E0002DB8BFFA
:10513000002C08DA012F3FF417AFB0EE480AF0EE6A
:10514000680A11E71BE0012000EBE57050EA070157
:1051500015D0791EB0EE498AF0EE698A084308BF7F
:105160009FED4D8B4E480025804570DD4D494E48E2
:10517000884514DDB0420DDB002C19DB2FE0012047
:10518000FBF735FA16B0BDEC0E8B04B0BDE8F04D60
:1051900001F062B9B34502DC002C09DC1FE0864255
:1051A00002DA002C1BDA03E05E452BDD002C16DD55
:1051B0000220FBF71CFA01F05FF98DED020B53ECB6
:1051C0001A2B51EC180B05F029FACDE900010399CF
:1051D000019861F31E0003909DED020BC4E60220CE
:1051E000FBF705FA01F058F910EE901A18EE900A44
:1051F0008DED020B8DED008B61F31E0003909DED94
:10520000020BB1E69DED0E0B53EC192B51EC100B7C
:1052100005F010FC9FED260BCDE9080153EC102B97
:105220009DED080B51EC100B05F0F8F99FED221BDA
:1052300053EC112B05F026FB9DED081B53EC112BB5
:1052400005F0ECF99FED1E1B53EC112B3CE08CE0BC
:10525000FFFF1F00FFFF0F00000000000000F03FF5
:105260000000F03F0000F07F0000404301FCFFFF22
:10527000000000000000F07F0000000000000000BF
:105280006E790000000000000000000000000080B7
:10529000000000000000F0FF000000000000F0BF70
:1052A0000000E0410000F043FFFFEF3F000000007E
:1052B000000000000000D03F555555555555D53FCD
:1052C000000000000000E03F05F0DCFA9DED080B57
:1052D00041EC1A0B53EC102B51EC100B05F09EF91E
:1052E00053EC1A2B05F09AF941EC1A0B9FEDFE0BCB
:1052F00053EC102B9DED080B51EC100B05F08EF9C3
:1053000041EC1B0B9FEDFA0B51EC1A0B53EC102BDD
:1053100005F084F941EC1A0B9FEDF70B53EC102BC1
:105320009DED080B51EC100B05F078F953EC1A2B9E
:1053300005F080FB41EC1A0B51EC1B0B53EC1A2BC4
:1053400004F0C2FE0690CDE906519DED060B53EC2C
:105350001B2B51EC100B05F06DFB53EC1A2B05F0D9
:1053600091FA41EC100B00F0A1B90020B6F5801FB6
:105370000EDA9FEDE30B53EC102B9DED0E0B51EC71
:10538000100B05F04BF9CDE90E016FF034000E461D
:1053900000EB2650A0F2FF37C6F31300DA4940F0C5
:1053A0007F6646F040568842D8BF002408DDD749C2
:1053B0008142C8BF012403DC0024A6F580167F1CAF
:1053C000D348784400EBC4000F9690ED00CB9DEDE0
:1053D0000E0B53EC1C2B51EC100B05F02BFB9DED31
:1053E0000E0B41EC1B0B53EC1C2B51EC100B04F07F
:1053F0006BFE41EC100B51EC190B53EC102B04F02D
:105400001FFF41EC1D0B51EC1B0B53EC1D2B05F04A
:1054100005F941EC1A0BBF488DED10AB784410959F
:1054200090ED000B4FF0005040EA660000EB844026
:105430008DED080B00F5002009909DED080B53EC55
:105440001C2B51EC100B05F0F5FA9DED0E1B53ECE7
:10545000112B05F017FA41EC100B53EC102B9DEDBE
:10546000100B51EC100B05F0D9F89DED080B41EC39
:105470001C0B53EC102B9DED100B51EC100B05F099
:10548000CDF853EC1B2B05F0FDF953EC1C2B05F06C
:10549000D1FA53EC1D2B05F0C1F841EC1C0B53EC79
:1054A0001A2B51EC1A0B05F0B9F841EC1B0B9A487A
:1054B0000621B0EE4B0AF0EE6B0A784400F07CFD5A
:1054C000B0EE401AF0EE601AB0EE41DAF0EE61DABA
:1054D00053EC1B2B51EC1B0B05F0A0F853EC1D2BD0
:1054E00005F09CF89DED100B41EC1B0B53EC1A2BB7
:1054F00051EC100B04F0E8FD53EC1C2B05F08EF87A
:1055000053EC1B2B04F0E0FD9DED100B41EC1B0B4D
:1055100053EC102B51EC100B05F080F841EC1D0BF7
:105520009FED7FEB53EC1E2B04F0CEFD53EC1B2BB9
:1055300004F0CAFD0890CDE908519DED080B53EC2D
:105540001E2B51EC100B05F075FA53EC1D2B05F0DA
:1055500071FA53EC1B2B05F095F99DED080B41EC0E
:105560001D0B53EC102B9DED100B51EC100B05F0A7
:1055700055F841EC1B0B53EC1A2B51EC1D0B05F0AD
:105580004DF89DED080B41EC1A0B53EC102B51EC30
:105590001C0B05F043F853EC1A2B04F095FD41EC7D
:1055A0001A0B51EC1B0B53EC1A2B04F08DFD0C90D5
:1055B000CDE90C519DED0C0B53EC1B2B51EC100B5A
:1055C00005F038FA53EC1A2B05F05CF941EC1B0B93
:1055D0009FED550B53EC102B9DED0C0B51EC100B6C
:1055E00005F01CF841EC1A0B9FED510B51EC1B0B15
:1055F00053EC102B05F012F841EC1B0B9FED4E0BFA
:1056000053EC102B9DED0C0B51EC100B05F006F834
:1056100053EC1B2B04F058FD41EC100B4848784428
:1056200000EBC40090ED001B51EC100B53EC112B60
:1056300004F04AFD41EC1B0B384604F088FFCDE92D
:10564000080153EC1B2B51EC1A0B04F03DFD41EC0F
:10565000100B3C48784400EBC40090ED00CB51ECBB
:10566000100B53EC1C2B04F02FFD9DED081B53EC8D
:10567000112B04F029FD0690CDE906519DED080B94
:1056800053EC102B9DED060B51EC100B05F0D2F9ED
:1056900053EC1C2B05F0CEF953EC1A2B05F0CAF98C
:1056A00053EC1B2B05F0EEF841EC100B9DED261B87
:1056B00053EC102B8DED001B00959DED260B51EC4E
:1056C000100B04F0ABFF9DED000B41EC1A0B53ECFB
:1056D000102B9DED260B51EC100B05F0ABF99DED59
:1056E000061B53EC112B2FE0000000604715F73F1D
:1056F000FE822B654715F73F44DF5DF80BAE543E45
:1057000000000000000040438E9803007AB60B00B2
:10571000EA74000018750000227400000000000008
:105720000000000000000840000000E009C7EE3F54
:10573000FD033ADC09C7EE3FF5015B14E02F3EBEE6
:10574000AE7200006872000004F068FF53EC1A2B80
:1057500004F0BAFC9DED060B41EC1A0B53EC102B38
:105760009DED000B51EC100B04F058FFCDE90C013E
:105770009DED0C0B51EC1A0B53EC102B04F0A4FC18
:10578000CDE902010C46AA498C422FDB611A08437D
:1057900018D19DED0C0B53EC102B9DED020B51EC31
:1057A000100B05F047F941EC1B0B9FEDA30B51ECDF
:1057B0001A0B53EC102B04F087FC53EC1B2B05F059
:1057C0002BF82DD20220FAF712FF00F055FE10EE52
:1057D000901A18EE900A8DED020B8DED008B61F39F
:1057E0001E0003909DED020BFFF7BEBB944A24F010
:1057F0000041914214D39349214408437FF4EFAC14
:105800009DED0C0B53EC102B9DED020B51EC100B8E
:1058100005F010F953EC1A2B04F0FEFF7FF6DFAC15
:1058200024F000408849894A002601EB2051824239
:105830002BDA481C4FF4801121FA00F02044844AEE
:10584000C0F30A517A44A1F2FF3192ED000B814A74
:105850008DED080BCA4020EA0202C0F3130040F4A9
:105860008010C1F1140120FA01F60992002CB8BF92
:1058700076429DED080B53EC102B9DED0C0B51EC7B
:10588000100B05F0D7F8CDE90C019DED0C0B51EC98
:105890001A0B53EC102B04F017FC9FED6F0B0890C4
:1058A000CDE9085153EC102B9DED080B51EC100B7A
:1058B00004F0B4FE41EC1B0B9FED690B53EC102B75
:1058C0009DED080B51EC100B04F0A8FE9DED0C0BA8
:1058D00041EC1C0B53EC102B9DED080B51EC100B05
:1058E00005F0A8F853EC1A2B04F0CCFF9FED5E1BDB
:1058F00053EC112B04F092FE53EC1C2B04F0E4FB50
:1059000041EC1A0B51EC1B0B53EC1A2B04F0DCFB93
:10591000CDE902019DED020B53EC1B2B51EC100B5A
:1059200005F088F853EC1A2B04F0ACFF9DED020B48
:1059300041EC1A0B53EC102B51EC100B04F06EFEE3
:10594000CDE908014A489DED080B0521784400F097
:1059500033FB9DED081B51EC100B53EC112B04F0A5
:105960005DFE9DED021B53EC112B04F08BFFCDE986
:1059700006019DED020B53EC1A2B51EC100B04F0B9
:105980004DFE53EC1A2B04F09FFB9FED3B0B41ECBB
:105990001A0B53EC102B9DED060B51EC100B05F080
:1059A00049F89DED060B41EC1B0B53EC102B9DEDC4
:1059B000020B51EC100B04F031FE53EC1B2B04F0E6
:1059C0003FFC53EC1A2B05F035F89DED021B53EC10
:1059D000112B05F02FF853EC192B04F053FFCDE9F0
:1059E000020101EB065001150029C8BF039015DC28
:1059F0009DED020B324651EC100B05F0B2F9FFF7AA
:105A000093F8042808BF00F047FD32469DED020BD5
:105A100051EC100B05F0A5F9CDE902019DED020B4B
:105A200051EC180B53EC102B04F0F8FDFFF73ABBC8
:105A30000000904000000000FE822B654715973C57
:105A400000CC904000346F3F01FCFFFF0000E03FBE
:105A5000F0700000FFFF0F0000000000432EE63F43
:105A6000396CA80C615C20BEEF39FAFE422EE63F8D
:105A7000C06F0000000000000000000000000040B7
:105A800000B52DED048BB0EE409AF0EE609A83B035
:105A900051EC190B04F002FF41EC180B18EE100A40
:105AA00018EE901A8DED008B002818BF01200843D6
:105AB00020F00040C0F17F6000F1E040C00F14D042
:105AC00019EE101A19EE900A8DED009B002918BFEF
:105AD0000121084320F00040C0F17F6000F1E04068
