:020000040800F2
:10000000206600205902000811290008351E00084A
:100010000D290008AD0E0008675000080000000020
:10002000000000000000000000000000A101000826
:100030009516000800000000F5010008D5370008FB
:1000400073020008730200087302000873020008BC
:1000500073020008730200085117000873020008B9
:100060007117000873020008730200087302000889
:10007000730200087302000873020008730200088C
:10008000730200087302000873020008730200087C
:10009000DD100008730200087302000873020008F4
:1000A000730200087302000873020008730200085C
:1000B0003D3A0008553A0008730200087302000830
:1000C000730200087302000873020008730200083C
:1000D0007302000845480008B9490008FD4C0008B3
:1000E000730200087302000873020008730200081C
:1000F0009541000873020008513B00087302000894
:1001000073020008730200087302000873020008FB
:100110007302000805480008730200087302000813
:1001200073020008730200087302000873020008DB
:1001300073020008730200087302000873020008CB
:1001400073020008730200087302000873020008BB
:1001500073020008730200087302000873020008AB
:10016000730200087302000873020008730200089B
:10017000730200087302000873020008730200088B
:100180007302000873020008DFF810D000F0C2FB11
:10019000004800472D6C0008AFF300802066002067
:1001A0002A4B19680868B0E8F04F80F30988BFF35C
:1001B0006F8F4FF0000080F311887047000000003F
:1001C00006480068006880F3088862B661B6BFF32D
:1001D0004F8FBFF36F8F00DF00BF00BF08ED00E05F
:1001E000DFF80C00016841F470010160704700BF46
:1001F00088ED00E0EFF30980BFF36F8F134B1A68AF
:100200001EF0100F08BF20ED108A20E9F04F10609B
:1002100008B44FF0500080F31188BFF34F8FBFF345
:100220006F8F08F019FE4FF0000080F3118808BCB2
:1002300019680868B0E8F04F1EF0100F08BFB0EC66
:10024000108A80F30988BFF36F8F7047F000002099
:10025000EFF30580704700000648804706480047D6
:10026000FEE7FEE7FEE7FEE7FEE7FEE7FEE7FEE766
:10027000FEE7FEE7E53700088901000840EA0103D0
:100280009B0703D009E008C9121F08C0042AFAD24C
:1002900003E011F8013B00F8013B521EF9D2704710
:1002A000D2B201E000F8012B491EFBD270470022B8
:1002B000F6E710B513460A4604461946FFF7F0FF65
:1002C000204610BD421C10F8011B0029FBD1801AEA
:1002D00070472DE9FE4F804681EA0300C00F0C46AF
:1002E000009021F0004123F00045B8EB0200A94145
:1002F00005D24046214690461C460B46024623F056
:100300000040104347D0270DC7F30A00C3F30A513A
:100310000290401A019040286BDAC3F3130040F4B6
:10032000801B0098924620B10023D2EB030A63EBB6
:100330000B0B01985946C0F14002504600F0B4F949
:1003400006460D4650465946019A00F0BCF910EB9E
:1003500008006141002487EA115284EAE7731A43D6
:1003600040D0009A62B3019A012A4FEA075215DC85
:10037000001B61EB02014FF0004202EA0752CDE997
:100380000042001C41F5801132462B4600F0F3F983
:1003900003B0BDE8F08F40462146F9E7001B61EB52
:1003A0000201001C41F5801300185B412018A2F5E2
:1003B000001747EB030140EAD570B6196D4111E013
:1003C0006D084FEA360645EAC0754FEA0752001B32
:1003D00061EB0201001C41F5801149084FEA300031
:1003E0000019514132462B4603B0BDE8F04F00F0F2
:1003F000B3B90098012240000023D0EB020263EB66
:10040000E073009821464FEAE074B8EB000061EB1E
:100410000401E9E783F000435BE781F0004158E71E
:100420002DE9FE4F81EA030404F0004421F000416D
:1004300000944FF0000B23F0004350EA01045ED01B
:1004400052EA03045BD0C3F30A54C1F30A552C44A7
:10045000A4F2F3340194A0FB0254C1F3130141F45C
:100460008011C3F3130343F4801301FB024400FB28
:10047000034E840A970A44EA815447EA8357A4FB4F
:10048000076802958D0A05FB07854FEA932C04FB4C
:100490000C542705029D4FEA065847EA1637B5EB7C
:1004A00008056EEB070C870E920E47EA811742EAA9
:1004B0008312A7FB0201B6EB0B0164EB00042B0DCA
:1004C00043EA0C335E1844EB1C50DA465146E7FB16
:1004D0000201C5F313044FEA0B3343EA14534FEA06
:1004E0000432019C43EA0603A4F10C040294009C2C
:1004F000CDE900B400F03FF903B0BDE8F08F002073
:100500000146F9E72DE9F04D81EA030404F0004BC0
:1005100021F0004514464FF0000A23F0004150EA54
:10052000050220D054EA01021DD0C5F30A57024645
:10053000C5F31303C1F31300C1F30A5640F4801549
:1005400043F48013A7EB0608101BD64608F2FD38CB
:1005500073EB050002D308F1010801E092185B413A
:10056000B8F1000F03DA00200146BDE8F08D00204D
:100570004FF48011064684460EE0171B73EB050707
:1005800005D3121B63EB050306434CEA010C490833
:100590004FEA300092185B4150EA0107EDD152EA70
:1005A000030012D082EA040083EA0501084305D063
:1005B000101BAB4106D20122002306E000224FF0BF
:1005C000004302E06FF0010253101AEB06004CEBFF
:1005D000085110EB0A0041EB0B01BDE8F04D00F0B3
:1005E000BBB80EB5C10F80EAE0700844CA0700210D
:1005F00040F233438DE80E000A460B4600F0BBF88C
:1006000003B000BD0EB540F2334102910021CDE9A7
:1006100000110A460B4600F0AEF803B000BD00F032
:10062000004230F000400AD0C10D01F56071C0F306
:10063000160042EA0151C2084007114370470020EA
:100640000146704701F0004330B421F0004150EA08
:10065000010206D00A0DA2F56072C1F31301002A4F
:1006600002DC30BC00207047440F44EAC104C100E2
:10067000E01830BC00EBC25000F037B830B50B4684
:10068000014600202022012409E021FA02F59D42C2
:1006900005D303FA02F5491B04FA02F52844151E96
:1006A000A2F10102F1DC30BD202A04DB203A00FA7D
:1006B00002F1002070479140C2F1200320FA03F3B9
:1006C000194390407047202A06DBCB17203A41FAA5
:1006D00002F043EAE07306E041FA02F3D040C2F1CF
:1006E000200291400843194670470029A8BF70476F
:1006F000401C490008BF20F00100704710B4B0FA58
:1007000080FC00FA0CF050EA010404BF10BC7047F2
:1007100049B1CCF1200421FA04F411FA0CF118BF0C
:10072000012121430843A3EB0C01CB1D4FEA0061DB
:100730004FEA102042BF002010BC704700EBC350AE
:1007400010440029A4BF10BC7047401C490008BFDA
:1007500020F0010010BC704710B5141E73F10004A6
:1007600008DA401C41F1000192185B411A4301D1A3
:1007700020F0010010BD2DE9F04D92469B4611B1CD
:10078000B1FA81F202E0B0FA80F220329046FFF72F
:100790008BFF04460F4640EA0A0041EA0B0153462C
:1007A0005A46084313D0114653EA010019D0C8F144
:1007B0004002504600F0C0F805460E4650465946E5
:1007C0004246FFF771FF084305D0012004E02046B0
:1007D0003946BDE8F08D0020054346EAE0762C431B
:1007E00037430A986305E40AA0EB08000022FD0ADB
:1007F00044EA47540A3002D500200146E9E70105E2
:1008000010196941DDE9084500196941BDE8F04D5D
:10081000A2E770B521F0004303430CD0C1F30A55A1
:100820000024D5EB040564EB0403D617AD1AB341DD
:1008300002DB0020014670BD201841EB025170BD63
:100840002DE9F04D00231A461B1A8A4103DB0020D4
:100850000146BDE8F08DC1F30A52C1F3130141F422
:1008600080154FF0000BD10702D100186D41521EC8
:100870000027044640F2FF11384601EB620A3E466B
:100880008046024600204FF4801100F055F8C2194E
:100890007141BB1846EB0100B4EB030C75EB000C87
:1008A00004D3E41A65EB000517460E46241908F137
:1008B00001006D4180463428E3DDF91946EB06005E
:1008C000091BA84103D24FF0FF32134601E000227A
:1008D00013461BEB070046EB0A51BDE8F04DFFF74E
:1008E0003BBF000030B5041E71F1000404DB4FF083
:1008F0000044404264EB0101141E73F1000405DB67
:100900001C464FF00043524263EB0403994208BF78
:10091000904230BD064C074D06E0E06840F0010310
:1009200094E8070098471034AC42F6D3FFF730FC48
:1009300070C2000890C20008202A04DB203A21FA85
:1009400002F00021704721FA02F3D040C2F12002E8
:10095000914008431946704770B58C1810F8015B38
:1009600015F0070301D110F8013B2A1106D110F848
:10097000012B03E010F8016B01F8016B5B1EF9D14C
:100980002B0705D40023521E0DD401F8013BFAE7D2
:1009900010F8013BCB1A921C03E013F8015B01F83D
:1009A000015B521EF9D5A142D8D3002070BD21B100
:1009B000826842F00102826003E0826822F0010254
:1009C000826070470021084A1168084A1140D0E946
:1009D00000231A4383681A43C3681A431143044A25
:1009E000C2F804137047000004230140E030FCFF0C
:1009F000002001400146C86C80B2704702460020CA
:100A000013680B400BB1012000E00020704700008C
:100A100030B50246002000235068104C20400D796C
:100A20000C6844EA05242043506090680C4C204038
:100A3000D1E903542C438D682C434D7944EA450495
:100A400020439060D06A20F470000C7D641EE4B2F4
:100A5000234340EA0350D06230BD0000FFFEFFFC9C
:100A6000FDF7FFC0F0B504460D4600200021092D1A
:100A700011DDE068A5F10A0606EB4607072606FA2F
:100A800007F18843A5F10A0606EB460603FA06F1CC
:100A90000843E0600CE0206905EB4507072606FAED
:100AA00007F1884305EB450603FA06F10843206188
:100AB000072A0FDA606B561E06EB86071F2606FA1A
:100AC00007F18843561E06EB860605FA06F1084331
:100AD000606322E00D2A0FDA206BD61F06EB860733
:100AE0001F2606FA07F18843D61F06EB860605FA8D
:100AF00006F10843206310E0E06AA2F10D0606EB60
:100B000086071F2606FA07F18843A2F10D0606EBB9
:100B1000860605FA06F10843E062F0BD816841F0FF
:100B20008041816070470000F8B53848D0ED000A78
:100B30009FED371A9FED370A10EE810AF3EE0B0A8C
:100B400080EE201ABDEEC10A10EE106A642E00DDA0
:100B50006426314890ED080ADFED300A20EE200AC5
:100B6000BDEEC00A10EE104A002C00DA64422C4898
:100B700090ED080ADFED290A20EE200ABDEEC00A3A
:100B800010EE105A002D00DA6D422648007808B9A0
:100B9000012000E000202349087023480078012844
:100BA0001BD1224890ED000ABDEEC00A10EE103AAB
:100BB0001F4890ED000ABDEEC00A10EE102A1D4835
:100BC00090ED000ABDEEC00A10EE101A1AA004F053
:100BD000F5FA00201449087017E01248007850B95F
:100BE0001948B0F90400EAB2E1B23346009017A008
:100BF00004F0E4FA09E01448B0F90430B0F9022036
:100C0000B0F9001015A004F0D9FAF8BD18000020C2
:100C100000007A4400401C467C5B00200000C84273
:100C2000AC5B002074020020AA0100208801002093
:100C300084010020740100207B4325643A25643A36
:100C400025647D2400000000780200207B4125649B
:100C50003A25643A25643A25647D24007B42256464
:100C60003A25643A25647D240000000000B58DB06B
:100C70000121022002F0D6FA0121080202F0F2FA64
:100C800002200B9003208DF8300000208DF83300F7
:100C90000BA9154800F07CFF0121080202F0F2FACE
:100CA00000214FF4807002F0EDFA002007900A90C6
:100CB00009904FF40030089007A8FFF783FE00204A
:100CC00001908DF808008DF809000390059001202F
:100CD0008DF8180001A90548FFF79AFE0121034885
:100CE000FFF765FE0DB000BD00040240002001408A
:100CF00000B58DB00121022002F094FA01214802D2
:100D000002F0B0FA01200B9003208DF83000002093
:100D10008DF833000BA9154800F03AFF0121480275
:100D200002F0B0FA00214FF4007002F0ABFA00209C
:100D300007900A9009904FF40030089007A8FFF739
:100D400041FE002001908DF808008DF80900039005
:100D5000059001208DF8180001A90548FFF758FEFD
:100D600001210348FFF723FE0DB000BD000402403F
:100D7000002101401FB505F039FF009000BF7DE064
:100D80000A21684607F03AFE3D48006840F6B8314F
:100D9000884204DA3A480068401C394908603948FA
:100DA0000068401C3749086000F090FF01F0D6FA57
:100DB00035480068E0B900231A4601A933480068A5
:100DC00008F0A0F9012809D19DED020A304880ED14
:100DD000000A9DED030A2F4880ED000A2D4890ED92
:100DE000001ADFED2D0A2A4890ED000A00F054FCAD
:100DF0002A4890ED000ABDEEC00A10EE100A03F07A
:100E0000E3FCD8BB264890ED091AF0EE410A90EDBC
:100E1000081AB0EE410A01F0D9F900EE100AB8EE56
:100E2000C00A1F4880ED060A1E4890ED091AF0EE30
:100E3000410A90ED081AB0EE410A01F01FFA00EEE7
:100E4000100AB8EEC00A174880ED060A44F23C10BA
:100E500001F02EFB1448007804280ED11048D0ED84
:100E6000060AB0EE600A00F0D5FD0E48D0ED060A85
:100E7000B0EE600A00F0CEFD00BF00BF80E70000CA
:100E80001002002014020020C0010020C000002039
:100E900078010020800100200000000018000020E0
:100EA0007C5B0020AC5B00206C01002000BFFEE7F3
:100EB0001CB50121084602F0B5F94FF4807000908E
:100EC00001208DF8040000208DF8060003208DF825
:100ED000050001208DF807006946024800F058FE21
:100EE0001CBD0000000002402DE9FE4304460D46F3
:100EF00016461F46DDF828904FF0000814B10DB1DA
:100F000006B117B90120BDE8FE83601EC4B2681E99
:100F1000C5B2701EC6B2781E87B20121082002F049
:100F200081F90121480602F08DF903200190022089
:100F30008DF8080000208DF80A0003208DF80900C4
:100F400001208DF80B0001A9614800F021FE092263
:100F500000215F4800F064FE092201215C4800F096
:100F60005FFE00205B4908600846006840F0010011
:100F7000086008E008F101001FFA80F8B8F1640F7A
:100F800001DD0220BFE75348001D006800F00100AA
:100F90000028EFD04F4800684E49086008460068B6
:100FA00008600846006808600846006840F01000C5
:100FB000086008460068086008460068086000206D
:100FC00044491C3108600846006840EA897008609E
:100FD0000846006840EA046008600846006840EA85
:100FE000055008600846006840EA06400860084668
:100FF0000068384308603748006820F00100354930
:10100000086009E008F101001FFA80F84FF6F0705F
:10101000804501DD032076E72E48001D006800F0C2
:1010200001000028EED12C48006840F001002A4958
:10103000086029481C30006820F0010026491C3156
:10104000086025480C30006840F0010022490C314E
:1010500008602148001D00681F49091D08601E48DE
:10106000143000681C491431086000201A494031CE
:101070000860002118484430016017481C3000689F
:1010800040F0010014491C3108601348006800203A
:10109000114908600F481430006840F002000D4903
:1010A0001431086014208DF8000001208DF8010033
:1010B00003208DF8020001208DF80300684601F03E
:1010C00029FC01220221034800F0F2F900201AE76E
:1010D000000C0240006400400066004000B52DEDA9
:1010E000028B89B003A805A906AB07AACDE90010B9
:1010F00008A9002000F088F840F281110898884281
:1011000066D1012034490870002034490870344900
:1011100008703449087034490870344908703449FB
:1011200008709DF80D009DF80C1000EB012000B236
:1011300000EE100AB8EEC00ADFED2E0A80EE201A8B
:101140002D4880ED001A9DF80F009DF80E1000EB61
:10115000012000B200EE100AB8EEC00ADFED250A49
:1011600080EE201A254880ED001A9DF811009DF8A8
:10117000101000EB012000B200EE100AB8EEC00A19
:10118000DFED1C0A80EE201AB0EE418A1C48007880
:1011900002280AD1F0EE480A174890ED000A03F041
:1011A00065FF184880ED000A11E09DF811009DF8D8
:1011B000101000EB012000B200EE100AB8EEC00AD9
:1011C000DFED0C0A80EE201A0E4880ED001A00BFF9
:1011D00009B0BDEC028B00BDA3010020A0010020DE
:1011E000A2010020A1010020A4010020A5010020EF
:1011F0001E02002000007A44780100207C010020BB
:101200006C01002080010020F0B5DDE90554324E6C
:1012100006EB0016366806F004061670167836B926
:101220002D4E06EB00163668760D0E6005E02A4E50
:1012300006EB00163668F6080E60274E06EB001621
:10124000366806F002061E70234E06EB001676681E
:1012500006F00F062E70204E06EB0016B6682670BC
:101260001D4E06EB0016B668360A66701A4E06EB7F
:101270000016B668360CA670174E06EB0016B66858
:10128000360EE670144E06EB0016F6682671124E06
:1012900006EB0016F668360A66710F4E06EB00166E
:1012A000F668360CA6710C4E06EB0016F668360E84
:1012B000E67130B9094E366846F02006074F3E60A9
:1012C00009E0012807D1054E361D366846F0200694
:1012D000024F3F1D3E60F0BDB06500400C64004011
:1012E000F8B506460D460024082300221146304674
:1012F000009500F015F8074601E0601C84B23846FE
:1013000000F094F8072803D040F6FF708442F4DB25
:1013100040F6FF70844201DB0120F8BD0020FCE7AD
:10132000F0B505460E46059C3E48006800F080601A
:1013300008B100210FE03B48006800F0006008B1F0
:10134000012108E03748006800F0805008B1022110
:1013500001E0FF20F0BD0027334800EB01100760DB
:101360001EB9C5F30A056D0502E025F06045ED00E4
:101370002D4800EB0110006828432B4F07EB0117A5
:101380003860294800EB0110006840EA86072648CB
:1013900000EB01100760244800EB0110006840EAF0
:1013A0004207214800EB0110076003F00F031E48BD
:1013B00000EB0110406820F00F071B4800EB011004
:1013C0004760194800EB011040681843164F07EBBF
:1013D00001177860E0790006A77940EA074067794D
:1013E00040EA0727207907430F4800EB0110C76048
:1013F000E0780006A77840EA0740677840EA0720CF
:1014000027783843084F07EB0117B860064800EB10
:101410000110006840F00107034800EB011007606D
:10142000084697E7086400408065004001460020B8
:1014300021B1012913D0022933D121E01B4A1268BE
:1014400002F001021043194A126802F0020210432E
:10145000164A126802F0806240EA126023E0134AE2
:10146000126802F001021043104A126802F00202F0
:1014700010430E4A126802F0006240EA526012E025
:101480000A4A126802F001021043084A126802F088
:1014900002021043054A126802F0805240EA92604C
:1014A00001E0052000BF00BF704700000864004055
:1014B0001AB143690B43436102E043698B434361C3
:1014C000704700001CB5002405E01848005D0DF8C9
:1014D0000400601CC4B2082CF7DB694640F201101E
:1014E000FFF7FEFE002407E0104904F10800085C45
:1014F0000DF80400601CC4B2082CF5DB69464FF4FB
:101500008170FFF7EDFE002407E0084904F11000A8
:10151000085C0DF80400601CC4B2082CF5DB6946B9
:1015200040F20310FFF7DCFE1CBD0000CC060020DB
:101530009FED120AF0EE400A002000210FE0104A51
:10154000525C012A0AD10F4A02EB810292ED000A95
:1015500030EE200AF0EE400A421CD0B2491C0829A5
:10156000EDDB002806DD00EE100AB8EE401A80EE32
:10157000810A7047B2EE040AFBE700000000000099
:10158000C500002004C1000810B502460B4600202B
:10159000012B08D1002104E0084C645C60404C1C25
:1015A000E1B29142F8DB43B9002104E0044C645CF1
:1015B00060404C1CE1B29142F8DB10BDCC0600202B
:1015C000FC06002010B50446242C0CD101201D4936
:1015D00008701D481D49097844541C480078401C77
:1015E0001A4908702CE01748007800B910BD164859
:1015F00016490978445415480078401C134908706E
:10160000232C10D100200F49087010490870642263
:101610000D490F48FEF732FE01200E490870642183
:101620000948FEF744FE09480078642808DB0020DA
:10163000044908700549087064210348FEF737FE25
:1016400000BFD3E7CD00002059070020CE000020C6
:10165000BD070020C400002010B5002009E000EB09
:101660008001891D084A515C3039084A1154411CD7
:10167000C8B20828F3DB002005490870642102483D
:10168000FEF715FE10BD0000BD070020C5000020BC
:10169000C40000207047000000B5B0EE402AF0EE14
:1016A000603AF0EE412AB0EE0C0AB0EE403A234820
:1016B0000078042841D1224890ED000A2148D0ED5D
:1016C000000A30EE200A60EE220AB0EE001A80EE28
:1016D000810A32EE400A1C4880ED090A184890ED54
:1016E000000A1848D0ED000A30EE200A60EE220A07
:1016F000B0EE001A80EE810A30EE020A134880ED47
:10170000090A1148D0ED090AB0EE600AB0EE431A9A
:10171000F1EE430A06F0C6FD0B4880ED090A0B48BE
:10172000D0ED090AB0EE600AB0EE431AF1EE430ABA
:1017300006F0B8FD054880ED090A00BD6C010020E7
:1017400094010020980100207C5B0020AC5B00200D
:1017500010B5012000F020F8012806D1002103482F
:1017600002F076FF012000F011F810BD00040040E7
:1017700010B5042000F010F8012806D100218007E0
:1017800002F066FF042000F001F810BD0149086076
:1017900070470000143C014001460020034A1268D3
:1017A0000A400AB1012000E000207047143C0140CB
:1017B0001CB50121082001F035FD08200090002013
:1017C0008DF8040003208DF8050001208DF8070036
:1017D0006946024800F0DCF91CBD0000000C024024
:1017E00000B589B00121084601F02CFD012103203C
:1017F00001F018FD4FF40040019003208DF809001E
:1018000002208DF8080001208DF80A008DF80B00E9
:1018100001A92B4800F0BCF90820019003208DF8A5
:10182000090002208DF8080001208DF80A008DF8CB
:101830000B0001A9234800F0ABF901220F21204839
:1018400000F0EEF9012203211E4800F0E9F906A894
:1018500002F06EFF0020ADF818004FF6FF70079001
:101860000020ADF82000ADF81A0006A94FF0804026
:1018700002F01CFF00231A4603214FF0804002F0C3
:10188000D9FC03A802F04BFD0020ADF8140003A919
:101890004FF0804002F00CFD0121880702F0A9FC06
:1018A00001221146900702F043FD00214FF08040D5
:1018B00002F0CEFE0121880702F0A1FC09B000BDB4
:1018C000000002400004024000B589B0012102205E
:1018D00001F0B8FC0121022001F0A4FC30200190AD
:1018E00003208DF8090002208DF8080001208DF8F2
:1018F0000A008DF80B0001A9204800F049F90222E6
:1019000004211E4800F08CF9022205211B4800F03A
:1019100087F906A802F00CFF0020ADF818004FF67A
:10192000FF7007900020ADF82000ADF81A0006A95E
:10193000134802F0BBFE00231A460321104802F0B0
:1019400079FC03A802F0EBFC0020ADF8140003A919
:101950000B4802F0ADFC0121094802F04AFC0122CB
:101960001146074802F0E4FC0021054802F070FE31
:101970000121034802F043FC09B000BD000402400D
:101980000004004008B505F031F9009013E0012192
:10199000684607F033F80848D0ED060AB0EE600A52
:1019A00000F038F80548D0ED060AB0EE600A00F005
:1019B00031F801F0D3FEEAE77C5B0020AC5B00204D
:1019C00010B52DED028B002417E000EE104AB8EEA2
:1019D000C00ADFED0D0A20EE200ADFED0C0A80EED2
:1019E000201AB0EE418AB0EE480A04F0B9FB08486C
:1019F00000EB840080ED000A641CB4F5B47FE4DBE6
:101A0000BDEC028B10BD0000DA0F494000003443EA
:101A1000585C0020F0B5544E36684FF0E026B569AA
:101A2000B5EEC00AF1EE10FA01DA012600E0002658
:101A30000677F0EEC02A4D4EB04201D14C4E00E088
:101A40004C4E314691ED003ADFED4B3A03EE803AD1
:101A500081ED003A91ED003ADFED483AB4EEE33A19
:101A6000F1EE10FA07DB91ED003ADFED443A33EE88
:101A7000633A81ED003A3C4E3560067F16B991ED30
:101A8000003A03E091ED003AB1EE433AF0EE430A3A
:101A9000BDEEE03A13EE106A4FF4B47796FBF7FC14
:101AA00007FB1C66364F07EB860696ED001A9FED86
:101AB000353A30EE833ABDEEC33A13EE106A4FF476
:101AC000B47796FBF7FC07FB1C662D4F07EB8606E9
:101AD000D6ED001A9FED2C3A30EE833ABDEEC33AB4
:101AE00013EE106A4FF4B47796FBF7FC07FB1C6605
:101AF000234F07EB860696ED002AB7EE003A31EE4B
:101B0000033ADFED223A23EE233AF0EE003A83EE79
:101B1000234ABCEEC43A13EE106AB2B2B7EE003AF2
:101B200031EE833ADFED193A23EE233AF0EE003A34
:101B300083EE234ABCEEC43A13EE106AB3B2B7EE9A
:101B4000003A32EE033ADFED113A23EE233AF0EE9B
:101B5000003A83EE234ABCEEC43A13EE106AB4B2E4
:101B6000028243828482F0BD280200207C5B002038
:101B70002002002024020020FAED6B3B0000B44359
:101B8000585C00200000F042000070430040034613
:101B9000F0B50A4600210023002400BF3DE00125E6
:101BA00005FA01F3156805EA03049C4234D105687F
:101BB0004F000326BE40B543056015794E00B54081
:101BC0000668354305601579012D02D01579022D7F
:101BD00016D185684F000326BE40B5438560557910
:101BE0004E00B540866835438560456801268E40C5
:101BF000B5434560456896798E40B6B23543456039
:101C0000C5684F000326BE40B543C560D5794E0078
:101C1000B540C6683543C560491C1029BFD3F0BD27
:101C2000F0B5002300244D07ED0E02FA05F3CE10A7
:101C300000F1200555F826504E07F70E0F26BE403E
:101C4000B543CF1000F1200646F82750CE1000F122
:101C5000200555F8265045EA0304CE1000F1200572
:101C600045F82640F0BD01837047000010B50446DA
:101C70000723012221460848FEF7F4FE0648FEF736
:101C80004DFF00BF02210448FEF7B8FE0028F9D03E
:101C90000148FEF7AFFE10BD0020014010B504461C
:101CA0000723012221460848FEF7DCFE0648FEF71E
:101CB00035FF00BF02210448FEF7A0FE0028F9D03E
:101CC0000148FEF797FE10BD0021014010B52DED33
:101CD000028B022001F070FB1C490860032001F018
:101CE0006BFB1A494860084690ED000AB8EEC00A3E
:101CF000B0EE408A90ED010AB8EEC00AF0EE408ADC
:101D00009FED130A28EE000A1248D0ED000A20EEDB
:101D1000200A1148D0ED000A80EE201A0F4880ED0D
:101D2000081A9FED0B0A28EE800A0A48D0ED000A37
:101D300020EE200A0848D0ED000A80EE201A08485C
:101D400080ED081ABDEC028B10BD0000F861002088
:101D50000000C842900100208C0100207C5B002024
:101D6000AC5B00202DE9F04107460C46002500261B
:101D700008E03846FFF77AFF0544052004F0CAFE64
:101D8000701CC6B2A642F4DBB5FBF4F080B2BDE82D
:101D9000F081000010B52DED0E8B0820FFF77EFFBF
:101DA0000446FEF72FFC41EC1E0B9FED180B53EC85
:101DB000102BFEF735FB41EC1D0B9FED160B53EC82
:101DC000102BFEF72DFB41EC1C0B9FED140B53EC7D
:101DD000102BFEF725FB41EC1B0B9FED120B53EC78
:101DE000102BFEF78FFB41EC1A0B9FED100B53EC01
:101DF000102BFEF787FB41EC190BFEF723FC08EED6
:101E0000100AB0EE480ABDEC0E8B10BD6666666621
:101E100066660A40000000000000264000000080C6
:101E200014AEEF3F000000000000F03F0000000093
:101E30000000B04000BFFEE710B500200E4908606A
:101E40000E48006820F440000C490860084600680D
:101E500040F48000086000200949C1F8AC0201206C
:101E600004F078FE01200449086004F073FE0020AD
:101E70000349C1F8A80210BDA882404200040240F4
:101E8000008040421CB50121022001F0CBF94FF443
:101E90004060009001208DF8040000208DF80600BD
:101EA00003208DF8050001208DF8070069460548DC
:101EB000FFF76EFE0120044908600449C1F8AC0236
:101EC0001CBD000000040240A88240420080404245
:101ED00010B500200E4908600E48006820F440004C
:101EE0000C4908600846006840F480000860012042
:101EF0000949C1F8AC0204F02DFE01200449086034
:101F000004F028FE00200449C1F8A80210BD00001A
:101F1000A8824042000402400080404270B505465D
:101F200000241748006820F440001549086008465E
:101F300000680860002619E00020124908600120AE
:101F400004F008FE01201049C1F8A8026006040E42
:101F50000C487C38006810B144F0010401E024F022
:101F60000104012004F0F6FD701CC6B2082EE3DB6C
:101F700015B9FFF761FF01E0FFF7AAFF204670BD2A
:101F800000040240A88240420080404270B50446EE
:101F90000D46002600F01AF8204600F0CBF800F0BD
:101FA0006BF8284600F0C6F800F066F800F00EF86E
:101FB00044F0010000F0BEF800F05EF80120FFF7E9
:101FC000ADFF064600F034F8304670BD10B5154838
:101FD000006820F44000134908600846006840F497
:101FE000800008600120104908601048D0F82C02D9
:101FF00000B910BD01200C49091F086004F0AAFDBA
:1020000000200A49C1F8AC0207488038006800B1D6
:10201000EFE7012004F09EFD00200349091F08603E
:1020200000BFE6E700040240AC824042008040422C
:1020300010B50E48006820F440000C4908600846BE
:10204000006840F4800008600020094908600949E0
:10205000C1F8AC02012004F07DFD012004490860B4
:102060000449C1F8AC0204F075FD10BD0004024043
:10207000A88240420080404210B500241448006805
:1020800020F44000124908600846006808600120FA
:102090001049086004F05EFD01200F49C1F8A80254
:1020A00004F058FD0AE0601CC4B2322C03DDFFF7D7
:1020B000BFFF002010BD012004F04CFD0548803812
:1020C00000680028EFD10349091F08600120F1E7EB
:1020D00000040240AC824042008040422DE9F047BB
:1020E0008046894614461D46089E49464046FFF7ED
:1020F0004DFF0746601CFF2101FA00F0C4F1080102
:102100002944491EFF220A41104300F0FF0AC5F18D
:10211000080006FA00F0C6B2C4F10700064107EA5B
:102120000A0737433A464946404600F035F8012051
:10213000BDE8F08770B504461448006820F44000FC
:10214000124908600846006840F4800008600020DA
:102150000F490860002516E0E0090D49091D0860D7
:102160006006040E012004F0F5FC01200949C1F8C5
:10217000A80204F0EFFC002005490860012004F0EB
:10218000E9FC681CC5B2082DE6DB70BD0004024006
:10219000A88240420080404270B504460D46164673
:1021A000FFF714FF2046FFF7C5FFFFF765FF28463E
:1021B000FFF7C0FFFFF760FF3046FFF7BBFFFFF7F9
:1021C0005BFFFFF735FF012070BD000030EEC01A45
:1021D000234880ED001A90ED001A2248D0ED001A35
:1021E00031EE611A2048D0ED001A21EE211A1F4865
:1021F000D0ED001A1A4890ED002A01EE821A1C4810
:10220000D0ED001A31EE211A80ED001A90ED001A7F
:10221000DFED181AB4EEE11AF1EE10FA03DD9FEDCE
:10222000151A80ED001A124890ED001ADFED121A0F
:10223000B4EEE11AF1EE10FA03D29FED0F1A80ED21
:10224000001A074890ED001A064880ED001A084869
:1022500090ED001ABDEEC11A11EE100A7047000091
:102260002C0200203402002084010020880100207C
:102270003002002000788246007882C630EEC01A14
:10228000234880ED001A90ED001A2248D0ED001A84
:1022900031EE611A2048D0ED001A21EE211A1F48B4
:1022A000D0ED001A1A4890ED002A01EE821A1C485F
:1022B000D0ED001A31EE211A80ED001A90ED001ACF
:1022C000DFED181AB4EEE11AF1EE10FA03DD9FED1E
:1022D000151A80ED001A124890ED001ADFED121A5F
:1022E000B4EEE11AF1EE10FA03D29FED0F1A80ED71
:1022F000001A074890ED001A064880ED001A0848B9
:1023000090ED001ABDEEC11A11EE100A70470000E0
:1023100038020020400200208401002088010020B3
:102320003C02002000788246007882C61CB501215C
:10233000102000F077FF0120009000208DF80400AD
:1023400003208DF8050001208DF80700694602483A
:10235000FFF71EFC1CBD00000010024010B532202B
:1023600004F04EFA04463648006801282DD1012CAD
:102370002BD134480078401C324908700846007858
:10238000152822D100202E4908602F4908602D49C8
:1023900008704FF496702D4908604FF4FA702C497C
:1023A00008602C4948610861C8608860486008601E
:1023B0000020294948610861C86088604860086059
:1023C00001221E21254801F0B3FF1D48006868B9AD
:1023D000022C0BD1224823490A6802608988818037
:1023E000214822490A68026089888180144800686F
:1023F000012824D1022C22D1002011490860124961
:102400000860104908704FF49670104908604FF446
:10241000FA700F4908600F4948610861C860886018
:102420004860086000200C4948610861C860886005
:102430004860086001221E21084801F079FF10BDA4
:10244000C0010020DC010020A0024042E401002085
:10245000E8010020F0010020DC5B002000040140C6
:102460008C02002092020020980200209E02002090
:102470001CB50121084600F0D5FE4FF480500090B5
:1024800001208DF8040000208DF8060003208DF84F
:10249000050001208DF8070069460448FFF778FB26
:1024A0004FF480510148FFF7DEFB1CBD00000240E5
:1024B00000B54B49098A00EE901AF8EE600AB0EEBA
:1024C000600A00EE900AB8EEE01A414200EE901A5F
:1024D000F8EEE00A05F0E6FEBCEEC00A10EE101AB7
:1024E0003F4A11821146498A00EE901AF8EE600ABE
:1024F000B0EE600A00EE900AB8EEE01A414200EE3B
:10250000901AF8EEE00A05F0CDFEBCEEC00A10EE1F
:10251000101A334A51821146898A00EE901AF8EE59
:10252000600AB0EE600A00EE900AB8EEE01A41428E
:1025300000EE901AF8EEE00A05F0B4FEBCEEC00A18
:1025400010EE101A264A91821146098A00EE901A5E
:10255000F8EE600AB0EE600A00EE900AB8EEE01AFB
:10256000414200EE901AF8EEE00A05F09BFEBCEE48
:10257000C00A10EE101A1B4A11821949498A00EE4E
:10258000901AF8EE600AB0EE600A00EE900AB8EE1B
:10259000E01A414200EE901AF8EEE00A05F082FEE1
:1025A000BCEEC00A10EE101A0E4A51820C49898AFC
:1025B00000EE901AF8EE600AB0EE600A00EE900AA3
:1025C000B8EEE01A414200EE901AF8EEE00A05F08B
:1025D00069FEBCEEC00A10EE101A024A918200BDDC
:1025E0007C5B0020AC5B002070B504460025BC2C51
:1025F00001DB012510E0622C01DB02250CE02A2C16
:1026000001DB032508E0142C01DB042504E00A2C7F
:1026100001DB052500E006252A461A21D020FFF718
:10262000BBFD70BD70B50446B4F57A7F01DD4FF493
:102630007A74042C00DA04244FF47A7090FBF4F0DE
:10264000401EC5B22A461921D020FFF7A5FD054638
:10265000264604EBD671C1F34F00FFF7C5FF70BDEE
:1026600010B580226B21D020FFF796FDC82004F022
:1026700051FA00226B21D020FFF78EFD012000F0DF
:102680003DF8002000F030F83220FFF7CBFF0022A9
:102690003821D020FFF780FD00226A21D020FFF7EB
:1026A0007BFD00222321D020FFF776FD80223721F9
:1026B000D020FFF771FD7521D020FFF767FC04469D
:1026C000682C0DD101226B21D020FFF765FD00227F
:1026D0006C21D020FFF760FD3220FFF7A3FF01E05F
:1026E000012010BD0020FCE738B504460223042277
:1026F0001C21D0200094FFF7F1FC38BD38B504460A
:10270000022304221B21D0200094FFF7E7FC38BDF0
:1027100008B504F06BFA00901DE00A21684606F047
:102720006DF90D480068B0F57A7F10DA0A48006844
:10273000401C09490860094809490A6802608988FB
:102740008180084808490A6802608988818000F011
:102750006BF800F00BF8E0E7880200208C02002004
:1027600078020020980200207E02002010B53C2153
:10277000D020FFF70BFC04463B21D020FFF706FCDE
:1027800004EB002000B2244908803E21D020FFF74E
:10279000FDFB04463D21D020FFF7F8FB04EB0020B1
:1027A00000B21D4948804021D020FFF7EFFB0446CE
:1027B0003F21D020FFF7EAFB04EB002000B21649CE
:1027C000888016480068B0F57A7F23DB08460088C9
:1027D000134908801048408848800F4880888880C6
:1027E000084600880F490988401A00B20A49088043
:1027F0000B4840880B494988401A00B20649488076
:102800000748808807498988401A00F5804000B24F
:102810000149888010BD00007E020020880200204F
:102820009E0200209802002010B54421D020FFF71E
:10283000ADFB04464321D020FFF7A8FB04EB0020AA
:1028400000B22C4908804621D020FFF79FFB0446A8
:102850004521D020FFF79AFB04EB002000B2254968
:1028600048804821D020FFF791FB04464721D02023
:10287000FFF78CFB04EB002000B21E4988801E4845
:102880000068B0F57A7F05DA01201C4908601C4910
:1028900008702DE018480068B0F57A7F02D100205A
:1028A000174908704FF49670144908601148008861
:1028B000144908800F48408848800E4880888880E6
:1028C0000846008810490988401A00B20949088062
:1028D0000C4840880C494988401A00B20549488094
:1028E0000848808808498988401A00B201498880D0
:1028F00010BD00007802002088020020380000206F
:1029000064010020920200208C02002000BFFEE73C
:102910007047000070B5002100230F22C4781CB35B
:10292000174C246804F4E064C4F5E064C4F30721A0
:10293000C1F10404E3B20A4144789C40E1B28478D6
:10294000144021430C07210E0E4C05786155047884
:1029500004F01F050124AC4005786D11AD0005F1B0
:10296000E025C5F8004109E0047804F01F050124C2
:10297000AC40054D0678761145F8264070BD000044
:102980000CED00E000E400E080E100E002490143DA
:10299000024A1160704700000000FA050CED00E0EB
:1029A00030B500240CE0002506E00020074901EBCB
:1029B000C5010855681CC5B2802DF6DB601CC4B289
:1029C000082CF0DB00F0D2F830BD0000C00200207F
:1029D000F0B5144600267F2801DC3F2900DDF0BD5C
:1029E0000B46CF1701EB5777FF10C7F10707FAB275
:1029F000CF1701EB5777FF10A1EBC707FDB2C5F169
:102A000007070123BB40DEB24CB10A4B03EBC00306
:102A10009B5C3343074F07EBC007BB5408E0054BF3
:102A200003EBC0039B5CB343024F07EBC007BB54EF
:102A300000BFD4E7C00200201CB50121082000F02F
:102A4000F1FB4FF4F040009001208DF804000020CD
:102A50008DF806008DF805008DF80700694640489E
:102A6000FFF796F80121080700F0ECFB012000F0C9
:102A7000D3FB002000F08AFC002000F0CDFB0020FA
:102A800038490860642004F045F801203649C1F84F
:102A9000B0020021AE2000F04FF90021D52000F057
:102AA0004BF90021502000F047F90021A82000F048
:102AB00043F900213F2000F03FF90021D32000F02E
:102AC0003BF90021084600F037F90021402000F0D2
:102AD00033F900218D2000F02FF90021142000F09F
:102AE0002BF90021202000F027F90021022000F01E
:102AF00023F90021A12000F01FF90021C02000F0DF
:102B00001BF90021DA2000F017F90021122000F053
:102B100013F90021812000F00FF90021EF2000F0CF
:102B20000BF90021D92000F007F90021F12000F075
:102B300003F90021DB2000F0FFF80021302000F035
:102B4000FBF80021A42000F0F7F80021A62000F0F7
:102B5000F3F80021AF2000F0EFF8FFF721FF1CBDD4
:102B6000000C0240B08241420080414230B5002456
:102B70001CE004F1B001C8B2002100F0DDF8002132
:102B8000084600F0D9F80021102000F0D5F8002503
:102B900008E0084901EBC501085D012100F0CCF80F
:102BA000681CC5B2802DF4DB601CC4B2082CE0DBCD
:102BB00030BD0000C00200202DE9F04F80460C46D9
:102BC00015461E46A346A5F12000C5B200273EE0EB
:102BD0000C2E07D105EB45001F4901EB800010F8D2
:102BE000079004E01D4800EB051010F807904FF027
:102BF000000A26E009F0800028B121464046099AE3
:102C0000FFF7E6FE09E0099808B9012000E000207E
:102C1000024621464046FFF7DBFE4FEA49604FEA95
:102C20001069601CC4B2A4EB0B00B04205D15C4635
:102C300008F1010000F0FF0806E00AF1010000F0D1
:102C4000FF0ABAF1080FD5DB00BF781CC7B2B74244
:102C5000BEDBBDE8F08F0000A09C000814A10008B6
:102C60002DE9FF4F81B0074691461E460E9D4FF05D
:102C7000000A002439E0301B401EC1B20A2003F0D4
:102C8000F1FFB9FBF0F00A21B0FBF1F201FB1208F1
:102C9000BAF1000F16D1701EA04213DDB8F1000F7B
:102CA0000ED10120AB4605EBDB71491001FB04712D
:102CB0000090C8B22B4620220299FFF77DFF12E058
:102CC0004FF0010A0120AB4605EBDB71491001FB17
:102CD00004710090C8B208F13001CAB22B460299C3
:102CE000FFF76AFF00BF601CC4B2B442C3DB05B08B
:102CF000BDE8F08F78B505460E46144618E07A2DEB
:102D000003DD002506F11000C6B23A2E04DD0020D6
:102D100005460646FFF744FE0120009022780C236A
:102D200031462846FFF748FF05F10800C5B2641C8C
:102D300020780028E3D178BD10B50A461AB10123E6
:102D4000124C236002E00023104C2360002116E0A7
:102D500000230E4C0C34236000F080031BB10123D0
:102D6000241F236003E00023084C08342360012360
:102D7000064C0C3423604306180E4B1CD9B20829AC
:102D8000E6DB0123014C236010BD0000AC82414210
:102D900001460148405C7047C0060020002004E066
:102DA0000021034A1154411CC8B20928F8DB7047BE
:102DB000C006002038B504460120009000201E49BE
:102DC0004870012000902EE0BDF80000204018B1AE
:102DD00001201A49086002E000201849086001201B
:102DE000164910390860052003F0B4FE002014498C
:102DF000C1F8A002052003F0ADFE01201049C1F882
:102E0000A0020846D0F83C0230B10B484078BDF82B
:102E10000010084308494870BDF800004FF6FF71E4
:102E200001EA40000090BDF80000FF28CCDD102032
:102E300003F090FE38BD0000C0060020B002424200
:102E40000000424210B5FFF7A9FF00F02FF90F482C
:102E5000C0780E49097940EA01200D490880002414
:102E60000FE00C4810F81400401E012101FA00F098
:102E700007490988084010B9601CC0B210BD601C29
:102E8000C4B2102CEDDB0020F8E70000C0060020E3
:102E9000400000204400002010B5002013490860C5
:102EA000102003F057FE0120FFF784FF4320FFF7B7
:102EB00081FF0020FFF77EFF0120FFF77BFF00204E
:102EC000FFF778FF0020FFF775FF0020FFF772FF84
:102ED0000020FFF76FFF0020FFF76CFF012004497F
:102EE000C1F8A802102003F035FE10BDA80242422E
:102EF0000000424210B5002013490860102003F082
:102F000029FE0120FFF756FF4320FFF753FF002063
:102F1000FFF750FF0020FFF74DFF5A20FFF74AFF51
:102F20005A20FFF747FF5A20FFF744FF5A20FFF7C8
:102F300041FF5A20FFF73EFF01200449C1F8A802D3
:102F4000102003F007FE10BDA802424200004242DA
:102F50001CB50121102000F065F94FF400400090ED
:102F600000208DF8040003208DF8050002208DF864
:102F7000070069460B48FEF70BFE4FF4A85000907F
:102F800001208DF8040000208DF8060002208DF845
:102F9000050001208DF8070069460248FEF7F8FD9C
:102FA0001CBD00000010024010B5FFF74BFF00EE03
:102FB000100AB8EE400A2F4880ED000A0720FFF7FC
:102FC000E7FE00EE100AB8EE400A2B4880ED000A3A
:102FD0000820FFF7DDFE00EE100AB8EE400A274891
:102FE00080ED000A0520FFF7D3FE00EE100AB8EED0
:102FF000400A234880ED000A0620FFF7C9FE00EED4
:10300000100AB8EE400A1F4880ED000A194890EDFA
:10301000000AF1EE000AB4EE600AF1EE10FA05D1F2
:103020001948007810B9012018490860174800684D
:10303000F8B1124890ED000ADFED150AB4EEE00A8F
:10304000F1EE10FA15D21048007890B911480068D6
:10305000B0F57A7F0DDB01200B49087000200E4986
:1030600008700E4908700E4908700E4908700E4924
:10307000087010BDBC010020AC010020B001002090
:10308000B4010020B8010020A0010020640000204D
:103090000000EC4288020020A2010020A1010020D3
:1030A000A3010020A4010020A50100201CB50020E0
:1030B00001900120009000202549086025490878EA
:1030C000FFF778FE23494878FFF774FE022001904D
:1030D00036E00120009027E001201D4908390860F2
:1030E000052003F037FD00201B49C1F8A002052090
:1030F00003F030FD01201849C1F8A0020846D0F8BD
:103100003C0250B115489DF80410405CBDF8001019
:10311000084312499DF804208854BDF800004FF67A
:10312000FF7101EA40000090BDF80000FF28D3DDE8
:10313000102003F00FFD9DF80400401CC0B2019068
:103140009DF804000928C4DB0120014908601CBD6A
:10315000A80242424200002000004242C006002075
:1031600010B500F00BF800F009F800F007F8FFF7D1
:1031700093FE00F025F8FFF7BDFE10BD10B500204E
:103180000D490860102003F0E5FC0120FFF712FE56
:103190004220FFF70FFE0020FFF70CFE0020FFF794
:1031A00009FE0020FFF706FE01200449C1F8A8022D
:1031B000102003F0CFFC10BDA802424200004242A2
:1031C00010B50020124908600120FFF7F3FD4420EC
:1031D000FFF7F0FD0020FFF7EDFD0120FFF7EAFD0E
:1031E0000320FFF7E7FD0020FFF7E4FD0020FFF7D5
:1031F000E1FD0020FFF7DEFD0020FFF7DBFD0120F1
:103200000449C1F8A802102003F0A4FC10BD00007E
:10321000A802424200004242014908627047000091
:1032200000000E4229B1064A12680243044B1A609C
:1032300004E0034A12688243014B1A6070470000A1
:103240003038024029B1064A12680243044B1A6022
:1032500004E0034A12688243014B1A607047000081
:103260004038024029B1064A12680243044B1A60F2
:1032700004E0034A12688243014B1A607047000061
:103280004438024029B1064A12680243044B1A60CE
:1032900004E0034A12688243014B1A607047000041
:1032A00024380240F0B50021002200240225002627
:1032B0000223324F3F6807F00C0121B1042905D0E9
:1032C000082937D105E02E4F076036E02D4F076003
:1032D00033E02A4F3F1F3F68C7F38056274F3F1FF9
:1032E0003F6807F03F036EB1264FB7FBF3F7DFF8F7
:1032F0008CC0ACF1040CDCF800C0CCF3881C07FBDC
:103300000CF40CE01E4FB7FBF3F7DFF870C0ACF124
:10331000040CDCF800C0CCF3881C07FB0CF4174F3E
:103320003F1F3F68C7F301477F1C7D00B4FBF5F7E3
:10333000076002E0124F076000BF00BF0F4F3F68F9
:1033400007F0F0010909104F7A5C0768D740476021
:103350000A4F3F6807F4E051890A0B4F7A5C4768CF
:10336000D7408760054F3F6807F46041490B064F1F
:103370007A5C4768D740C760F0BD0000083802405B
:103380000024F40000127A00DE0000200021094A27
:1033900011701170012802D0042808D103E0012126
:1033A000044A117004E00521024A117000E000BFD8
:1033B00000BF7047703802400146022902D003293D
:1033C00010D108E04FF08042526A10B200224FF054
:1033D00080435A6208E0054A126810B20022034B8B
:1033E0001A6001E0002000BF00BF704724040040C5
:1033F00010B52DED088BB0EE40BAF0EE60BAB0EE2D
:10340000418AF0EE618AB0EE429AF0EE629AB0EE36
:1034100043AA51EC1B0BFDF715F91D49086008463E
:1034200080ED018AC0ED058ABDEEC90A80ED020A71
:10343000BDEEE90A80ED030A80ED04AAC0688000B1
:103440008968484300EE100AB8EEC00A114880EDC2
:10345000000A0F4890ED040ADFED0F0A20EE200A63
:103460000E4880ED000A0A4890ED000A0C4880EDF5
:10347000000A074890ED010A0A4880ED000A044856
:1034800090ED050A084880ED000ABDEC088B10BDE0
:10349000086200208C010020DB0F494090010020D1
:1034A00094010020980100209C01002010B54FF4E9
:1034B000AD70564908600A210920FEF753FC5349B4
:1034C000096890FBF1F05249087004200870084622
:1034D0000078052801DD052008704D480078062891
:1034E0005ED2DFE800F0031221303F4E9FED493AF3
:1034F000DFED492AB7EE002ADFED481A9FED481AA2
:103500009FED480BFFF774FF4AE09FED483ADFED6F
:10351000422AB7EE002ADFED461A9FED401A9FEDD2
:10352000450BFFF765FF3BE09FED403ADFED3A2AA0
:10353000B7EE002ADFED391A9FED401A9FED400BE0
:10354000FFF756FF2CE09FED393ADFED332AB7EE57
:10355000002ADFED321A9FED311A9FED3B0BFFF78A
:1035600047FF1DE09FED313ADFED2B2AB7EE002A31
:10357000DFED2A1A9FED361A9FED360BFFF738FF65
:103580000EE09FED363ADFED242AB7EE002ADFED9C
:10359000231A9FED221A9FED320BFFF729FF00BF80
:1035A00000BF1B48007806282ED2DFE800F0030A8F
:1035B00011181F2608202C4908600E202B4908608E
:1035C00022E00620284908600A20284908601BE0FC
:1035D00004202549086007202449086014E00420DD
:1035E000214908600720214908600DE008201E4994
:1035F00008600B201D49086006E004201A49086095
:1036000007201A49086000BF00BF10BD68010020F4
:103610006C0100209A99993D000080440000000050
:103620007B14AE3D022B8716D9CEB73F8FC2753DB6
:10363000643BDF3D0000000000000000BC74133E4E
:10364000000000806ABCC43F000000A0EFA7C63F96
:10365000E7FB293E000000C07268C13FC520303D35
:10366000000000E07A14CE3FD0010020D4010020F9
:103670000CB50020019000903448006840F4803080
:103680003249086000BF3148006800F40030009003
:103690000198401C0190009818B90198B0F5A04F0E
:1036A000F1D12A48006800F4003010B101200090E8
:1036B00001E0002000900098012846D123484030C6
:1036C000006840F08050214940310860204800687F
:1036D00040F440401E4908601C48083000681B49FF
:1036E000083108600846006840F400400860084659
:1036F000006840F4A05008601648091F0860081FC1
:10370000006840F08070091F086000BF0F48006823
:1037100000F000700028F9D040F205700E490860F2
:103720000A480830006820F00300084908310860A2
:103730000846006840F00200086000BF03480830F7
:10374000006800F00C000828F8D10CBD00380240D9
:103750000070004008544007003C024010B50F487C
:10376000018A0F4800F06CFF0C48418A0C4800F0B9
:1037700069FF0A48818A0B4800F068FF0A48018AFD
:10378000084800F05DFF0848418A064800F05AFFEB
:103790000548818A034800F057FF10BD7C5B00207C
:1037A0000008004000040140AC5B0020042808D160
:1037B0004FF0E021096941F004014FF0E02211616E
:1037C00007E04FF0E021096921F004014FF0E02209
:1037D0001161704710B505F0BBFF012801D005F05D
:1037E0003DFC10BD10B51548006840F47000134949
:1037F00008601348006840F001001149086000208B
:103800000F49083108600E4800680E4908400C490D
:1038100008600D48091D0860081F006820F480201A
:10382000091F0860002006490C310860FFF720FFDF
:103830004FF0006001498039086010BD88ED00E05C
:1038400000380240FFFFF6FE10300024F0B50C46B1
:10385000154600210022068C4FF6FE773E40068476
:10386000018B028C4FF60C7631407E1C06EA031663
:103870002E4331434FF6F576324044F00106324391
:1038800001830284F0BDF0B50C46154600210022EC
:103890000026078C4FF6EF7C07EA0C070784018BA4
:1038A000028C4FF6FF7707EA041640F6FF473940CF
:1038B0004FF6FF7707EA033739434FF6FF7707EAFA
:1038C000052739434FF65F773A4046F010073A43F1
:1038D00001830284F0BDF0B50C461546002100229C
:1038E0000026078C4FF6FF6C07EA0C070784818BD4
:1038F000028C4FF6FF7707EA04264FF60C77394023
:103900004FF6FF7707EA03172F4339434FF2FF576C
:103910003A4046F480773A4381830284F0BDF0B5A3
:103920000C461546002100220026078C4EF6FF7C2F
:1039300007EA0C070784818B028C4FF6FF7707EAB2
:10394000043640F6FF4739404FF6FF7707EA052770
:1039500039434FF6FF7707EA0337394345F6FF77D8
:103960003A4046F480573A4381830284F0BD000018
:1039700030B58BB005460C4601214020FFF762FCB4
:1039800001210220FFF74EFC02208DF828004FF4A1
:103990004040099003208DF8290000208DF82A006E
:1039A00001208DF82B0009A92248FEF7F1F8092221
:1039B0000E212048FEF734F909220F211D48FEF799
:1039C0002FF90795ADF818400020ADF82000ADF8AC
:1039D0001A0006A9184800F069FE6020ADF804003E
:1039E0000120ADF8060000200390ADF81000ADF8FE
:1039F000140001A9104800F0ABFC01A90E4800F02A
:103A0000F7FC08210C4800F0EAFC08210A4800F005
:103A10004EFD0121084800F0FEFB0121064800F0A0
:103A2000EEFB40F2DC50044938310860091F0860A1
:103A30000BB030BD00040240001800404FF0804041
:103A4000008A4FF08040008A20F001004FF0804152
:103A500008827047044800880348008820F001006D
:103A600001490880704700001004004000B58BB089
:103A700001210420FFF7E6FB01210220FFF7D2FB22
:103A8000C020019002208DF8080003208DF8090065
:103A900000208DF80A008DF80B0001A92A48FEF7D6
:103AA00077F8022206212848FEF7BAF802220721F9
:103AB0002548FEF7B5F8254800F043FC0020ADF896
:103AC00020002020ADF8220042F2CF000990002013
:103AD000ADF828008DF82A0008A91C4800F0E6FD82
:103AE0006020ADF80C000120ADF80E000420ADF808
:103AF000100000200590ADF81800ADF81A004FF442
:103B00008070ADF81C000020ADF81E0003A90F481E
:103B100000F01EFC03A90D4800F06AFC08210B48C8
:103B200000F05DFC0821094800F0C1FC01210748B4
:103B300000F03AFB0121054800F06DFB012103482C
:103B400000F05DFB0BB000BD000402400008004027
:103B500010B5CA480068B0F5C86F15DDC8480078D0
:103B600090B9C8480068B0F57A7F0DDB0120C449E0
:103B700008700020C4490870C4490870C44908701E
:103B8000C4490870C4490870C448007800F0800037
:103B9000002857D10221C24800F079FB002851D0FB
:103BA0000221BF4800F028FBBC48007800F040002C
:103BB000C0B3BB4800F05FFBBA49088008460088E4
:103BC000B9490988884204DA42F20F70B74908609F
:103BD00002E00020B5490860B2480088B24909886F
:103BE000401AB24909680844B14908600968B14AF5
:103BF0001268881A002801DB014600E04142B1F555
:103C0000FA7F03DDAB480068A9490860A84800684E
:103C1000A84908600020A14908700021A04800F0D0
:103C2000D5FB0FE0FFE79E4800F025FB9E4908808A
:103C30009A48007840F0400098490870022198485E
:103C400000F0C4FB9C48007800F08000002857D1A9
:103C50000421934800F01BFB002851D00421904818
:103C600000F0CAFA9448007800F04000C0B38C48D5
:103C700000F004FB914908800846008890490988B3
:103C8000884204DA42F20F708E49086002E0002098
:103C90008C4908608948008889490988401A8949FF
:103CA00009680844754908600968874A1268881AD3
:103CB000002801DB014600E04142B1F5FA7F03DD57
:103CC000814800686D4908606C4800687E4908605A
:103CD0000020794908700021714800F0DBFB0FE0FB
:103CE000FFE76F4800F0CAFA75490880724800780B
:103CF00040F04000704908700221694800F0CAFB9A
:103D00007248007800F08000002857D108216448EC
:103D100000F0BDFA002851D00821614800F06CFA8B
:103D20006A48007800F04000C0B35D4800F0A9FA8E
:103D3000674908800846008866490988884204DA8D
:103D400042F20F706449086002E000206249086096
:103D50005F4800885F490988401A5F49096808443C
:103D60005E49086009685E4A1268881A002801DB0B
:103D7000014600E04142B1F5FA7F03DD5848006892
:103D800056490860554800685549086000204F4969
:103D900008700021424800F0E7FB0FE0FFE74048D1
:103DA00000F06FFA4B4908804848007840F0400026
:103DB0004649087002213A4800F0D6FB494800788D
:103DC00000F08000002857D11021354800F05FFA3C
:103DD000002851D01021324800F00EFA41480078F6
:103DE00000F04000C0B32E4800F04EFA3E49088073
:103DF000084600883D490988884204DA42F20F707B
:103E00003B49086002E000203949086036480088D4
:103E100036490988401A3649096808443549086016
:103E20000968354A1268881A002801DB014600E05B
:103E30004142B1F5FA7F03DD2F4800682D49086043
:103E40002C4800682C490860002026490870002191
:103E5000134800F0DBFB0FE0FFE7114800F014FA15
:103E6000224908801F48007840F040001D49087032
:103E700002210B4800F0CAFB10BD00009400002096
:103E8000A201002088020020A1010020A001002042
:103E9000A3010020A4010020A5010020680000204B
:103EA000000401406C0000206A0000208000002017
:103EB00090000020A00000206E0000207200002072
:103EC0007000002084000020A40000207400002066
:103ED0007800002076000020880000209800002054
:103EE000A80000207A0000207E0000207C00002036
:103EF0008C0000209C000020AC00002030B589B070
:103F000005460C4601210220FFF7ACF901210420EF
:103F1000FFF788F94FF47070079002208DF82000A9
:103F200003208DF8210000208DF8220002208DF85A
:103F3000230007A94348FDF72BFE03220621414831
:103F4000FDF76EFE032207213E48FDF769FE0322BE
:103F500008213C48FDF764FE032209213948FDF79A
:103F60005FFE0595ADF810400020ADF81800ADF8E3
:103F7000120004A9344800F099FB0020ADF80000BD
:103F8000ADF802000120ADF804000020ADF80600F5
:103F90000F20ADF8080069462B4800F089F904208D
:103FA000ADF800000020ADF802000120ADF80400DB
:103FB0000020ADF80600ADF808006946224800F080
:103FC00077F90820ADF800000020ADF802000120CC
:103FD000ADF804000020ADF80600ADF80800694611
:103FE000194800F065F90C20ADF800000020ADF88C
:103FF00002000120ADF804000020ADF80600ADF885
:1040000008006946104800F053F92E208DF80C0086
:1040100002208DF80D008DF80E0001208DF80F00A4
:1040200003A8FEF777FC01221E21074800F080F963
:104030000121054800F0EFF80121034800F0DFF806
:1040400009B030BD000802400004014000B58FB047
:1040500001210220FFF706F901210420FFF7E2F811
:104060004FF47070059002208DF8180003208DF831
:10407000190000208DF81A008DF81B0005A943488F
:10408000FDF786FD032206214048FDF7C9FD032206
:1040900007213E48FDF7C4FD032208213B48FDF7F8
:1040A000BFFD032209213948FDF7BAFD384800F069
:1040B00048F90020ADF830002020ADF8320042F27F
:1040C000CF000D900020ADF838008DF83A000CA913
:1040D0002F4800F0EBFA6020ADF81C000120ADF88D
:1040E0001E000420ADF8200000200990ADF8280043
:1040F000ADF82A004FF48070ADF82C000020ADF828
:104100002E0001A800F06CF81F20ADF80A004FF453
:104110000060ADF804004010ADF806008010ADF866
:1041200008000020ADF80C0001A9194800F048F87B
:1041300007A9174800F00CF907A9154800F058F92D
:1041400007A9134800F0C0F907A9114800F022FAA6
:1041500008210F4800F043F908210D4800F0A7F9A5
:1041600008210B4800F00DFA0821094800F05BFA1D
:104170000121074800F018F80121054800F04BF82C
:104180000121034800F03BF80FB000BD00080240D9
:10419000000401400348008820F001000149088024
:1041A000704700001004014021B1028842F08002F3
:1041B000028004E002884FF67F731A400280704745
:1041C0000A884B881A438B881A43CB881A430B8979
:1041D0001A434B891A438B891A43A0F8442070472D
:1041E0000021018041808180C180018141818181E4
:1041F0007047CA4302827047CA430282704721B1A6
:10420000028842F00102028004E002884FF6FE7349
:104210001A400280704731B1B0F8442042F40042A5
:10422000A0F8442005E0B0F84420C2F30E02A0F844
:1042300044207047F0B50C4615461E46002100226A
:1042400000230189028B038C4FF6F8773940214314
:104250004FF6FC473A4040F201173A434FF6DD77FC
:104260003B404FF6FF7707EA06172F433B43018198
:1042700002830384F0BD0146486B70470146886B9A
:1042800070470146C86B70470146086C704730B5EF
:104290000246002000230024158A05EA01039589BF
:1042A00005EA010413B10CB1012000E0002030BD8B
:1042B00070B505460C46208850B92389A2886188CC
:1042C0002846FFF7C3FAE188284600F0C3F925E045
:1042D000208804280AD12389A28861882846FFF70C
:1042E000D2FAE188284600F0BEF917E020880828B5
:1042F0000AD12389A28861882846FFF7ECFAE18871
:10430000284600F0BDF909E02389A2886188284683
:10431000FFF705FBE188284600F0BBF970BD0021DE
:1043200001804180012181800021C180018170478D
:104330001AB183890B43838102E083898B43838194
:10434000704701894FF6F8721140018170470000F3
:1043500070B5002400220023058C4FF6FE76354010
:104360000584028C8388048B4FF68F752C40B51E14
:104370002C400D882C43751E2A408D892A434D8878
:104380002A43104DA84202D00F4DA84213D14FF638
:10439000F7752A40CD892A434FF6FB752A408D8850
:1043A0002A434FF6FF652B404FF6FF552B400D8AF1
:1043B0002B434D8A2B43838004838D68456302849D
:1043C00070BD000000000140000401400A460021C9
:1043D000018C4FF6FD7319401143018470470A4662
:1043E0000021018B4FF6F773194011430183704789
:1043F00070B5002400220023058C4FF6EF7635407F
:104400000584028C8388048B48F6FF752C404FF698
:10441000FF452C400D884FF6FF7606EA05252C4314
:104420004FF6DF752A408D8906EA05152A434D8827
:1044300006EA05152A43154DA84202D0144DA8429C
:104440001DD14FF67F752A40CD894FF6FF7606EADB
:1044500005152A434FF6BF752A408D8806EA0515D3
:104460002A434FF6FF352B404FF2FF752B400D8A44
:1044700006EA85052B434D8A06EA85052B43838092
:1044800004838D688563028470BD000000000140D4
:10449000000401400A460021018C4FF6DF731940E9
:1044A0004FF6FF7303EA02131943018470470A466B
:1044B0000021018B4FF2FF7319404FF6FF7303EA9F
:1044C000022319430183704770B5002400220023A2
:1044D000058C4FF6FF6635400584028C8388848BFB
:1044E0004FF68F752C404FF6FC752C400D882C43F1
:1044F0004FF6FF552A408D894FF6FF7606EA0525CF
:104500002A434D8806EA05252A43154DA84202D0C4
:10451000144DA8421DD14FF2FF752A40CD894FF6A8
:10452000FF7606EA05252A434FF6FF352A408D8897
:1045300006EA05252A434EF6FF752B404DF6FF751A
:104540002B400D8A06EA05152B434D8A06EA051510
:104550002B43838084838D68C563028470BD000013
:1045600000000140000401400A460021018C4FF682
:10457000FF5319404FF6FF7303EA022319430184E6
:1045800070470A460021818B4FF6F773194011439B
:104590008183704770B5002200230024058C4EF6FD
:1045A000FF7635400584038C8488828B48F6FF753E
:1045B0002A404FF6FF452A400D884FF6FF7606EA5F
:1045C00005252A434DF6FF752B408D8906EA0535F2
:1045D0002B434D8806EA05352B430A4DA84202D0ED
:1045E000094DA84208D14BF6FF752C400D8A4FF6B5
:1045F000FF7606EA85152C43848082838D680564E6
:10460000038470BD00000140000401400A460021FF
:10461000018C4DF6FF7319404FF6FF7303EA023326
:104620001943018470470A460021818B4FF2FF73C2
:1046300019404FF6FF7303EA022319438183704741
:104640004163704781637047C1637047016470477D
:1046500041627047028B4FF6F3731A400283028B5C
:104660000A4302837047028B4FF2FF331A400283E2
:10467000028B4FF6FF7303EA01231A43028370474C
:10468000828B4FF6F3731A408283828B0A438283B4
:104690007047828B4FF2FF331A408283828B4FF632
:1046A000FF7303EA01231A438283704700220288C2
:1046B000184B98420ED0184B98420BD0B0F1804F57
:1046C00008D0164B984205D0154B984202D0154B96
:1046D000984204D14FF68F731A404B881A43124BFD
:1046E000984207D0114B984204D04FF6FF431A402E
:1046F0000B891A4302804B68C3620B880385054B04
:10470000984202D0044B984201D18B7A0386012350
:104710008382704700000140000401400004004013
:1047200000080040000C0040001000400014004051
:104730004FF0FF3141600021018001814180817291
:10474000704700001CB54FF4E13003F0C9FE06A12C
:1047500003C9CDE900016846FBF7B4FD84B22146E8
:10476000684600F099FB1CBD24302C302C3123000E
:104770002DED028B84B002F039FA039020E0052180
:1047800003A804F03BF9FCF767FFFCF7D1FEB0EE9D
:10479000408A8DED008AB6EE000A8DED010AB3EE77
:1047A000040A28EE000A8DED020A0223002269465F
:1047B0000448006804F0E2FD052004F0E5F800BFBD
:1047C000DDE70000C000002001460A2903DB0A4A99
:1047D0001278012A0ED101200022084B1A601B1DFD
:1047E0001A60074B1A601B1D1A601B1D1A601B1DE7
:1047F0001A6000E000207047640100203408004087
:104800003404014010B540F225510C4800F06DFB16
:1048100090B10B480068B0F57A7F01DA002010BD36
:10482000064800F01BFCC4B22046FCF7CBFE40F269
:104830002551024800F03EFB0020F0E70050004008
:10484000100200202DE9F0412DED028B40F22551A0
:10485000434800F04AFB00287FD00026012740484B
:1048600000F0FCFBC5B23F480068B0F57A7F04DA7F
:104870000020BDEC028BBDE8F0813B483B49097844
:1048800045547B2D03D039480078002805DD374892
:104890000078401C3549087002E000203349087058
:1048A000324800780B2857D10020304908702E4834
:1048B000807A7D2850D1002403E02B48005D4640DB
:1048C000641C092CF9DB2848407AB04200D100274B
:1048D000002F41D12648007858B90120244908709A
:1048E000002024490870244908702449087024498C
:1048F00008700020234908701B4A1179D07800F015
:1049000025FC214880ED000A174A9179507900F082
:104910001DFC1E4880ED000A134A117AD07900F080
:1049200015FCB0EE408A1A48007802280BD1F0EE50
:10493000480A154890ED000A00F098FB154880EDF4
:10494000000A08E009E0084A117AD07900F0FEFB7D
:10495000104880ED000A00BF00BF002089E700007A
:1049600000100140100200201C070020B0000020B1
:10497000A4010020A1010020A0010020A20100202C
:10498000A30100201E020020780100207C010020ED
:104990006C0100208001002000B5002200BF05E06E
:1049A0000449885C03F00CFE501CC2B2182AF7DBE5
:1049B00000BD0000CC06002010B52DED0C8B40F2A0
:1049C0002551B24800F091FA00286FD0AF48001D81
:1049D0000488AF480068B0F57A7F03DA0020BDECA8
:1049E0000C8B10BDAB48006800287DD1412C15D13F
:1049F000A9480078412811D1A848007870B9002052
:104A0000A7490870A74908700120A4490870002030
:104A1000A5490870A5490870A54908709E490C7001
:104A20004B2C03D10120A349087006E0492C01D08A
:104A30004A2C02D100209F4908709E48007888B90E
:104A4000412C06DB482C04DCA4F140009A49087094
:104A500030E0082C02DC98490C702BE000209649CD
:104A6000087027E093480078012823D1432C06D111
:104A70000020924908700120914908700DE0472CF0
:104A800006D101208D49087000208D49087004E08E
:104A900000208A4908708A490870412C01D0452CB1
:104AA00005D1A4F140008449087003E0CAE0002069
:104AB00081490870582C08D1824890ED000ADFED3A
:104AC000820A30EE200A80ED000A592C08D17D4878
:104AD00090ED000ADFED7C0A30EE600A80ED000AFE
:104AE0007B2C04D1012000E0ADE0784908707D2CDA
:104AF00002D102207549087074480078012808D155
:104B00007349744A12788C5472480078401C714979
:104B100008706E480078022870D16D48C07850281F
:104B200003D101206C49087070E06948407823285F
:104B30006CD068480078694908703AE0654909789E
:104B4000664A1278881AFBF74CFD41EC1D0BB0EE5B
:104B50004D1AF0EE6D1A9FED620B00F0D9FCB0EE2D
:104B600040BAF0EE60BA5D490978491E584A515C76
:104B7000A1F13000FBF735FD41EC1C0B53EC1B2B76
:104B8000FBF74EFC41EC190B57480068FBF747FD5B
:104B900041EC1A0B53EC192BFBF79BFB41EC180B68
:104BA000FBF750FD504908604C480078401E4B49C7
:104BB00008704A4800780428C0DA45484078303800
:104BC000092822D2DFE800F0050C131B1C1D1E1F54
:104BD0002000454890ED000A3A4880ED000A14E0B4
:104BE000414890ED000A414880ED000A0DE03E4842
:104BF00090ED000A3E4880ED000A06E016E004E071
:104C000003E002E001E000E000BF00BF00202F4908
:104C1000087030490870314908709FED360A3248F3
:104C200080ED000A32212A48FBF741FB254890ED30
:104C3000000AB5EEC00AF1EE10FA24D29FED2D0A5B
:104C400080ED000A1FE01348006801281BD1412CA9
:104C500002D12949087016E0432C03D102202649CD
:104C6000087010E0452C03D10320234908700AE0A6
:104C7000472C03D104202049087004E05A2C02D1AB
:104C800005201D4908700020A9E6000000440040EE
:104C900088020020C0010020B4000020A1010020F3
:104CA000A0010020A2010020A3010020A4010020F7
:104CB000A5010020A9010020A8010020A6010020D4
:104CC000A7010020740100200000C842B1000020AC
:104CD00027070020B2000020AA010020B300002016
:104CE0000000000000002440B800002084010020E3
:104CF00088010020000000000A02002010B52DED00
:104D0000028B40F22551494800F0EFF8002873D09B
:104D1000464800F0A3F9C4B245480068B0F57A7F70
:104D200003DA0020BDEC028B10BD42480068002869
:104D300063D141484149097844547B2C03D03F4812
:104D40000078002805DD3D480078401C3B4908708C
:104D500002E0002039490870384800780B2863D1F8
:104D60000020364908703448807A7D285CD10021C3
:104D70000920FCF709FC3049497A884254D10020C7
:104D80002F4908702F4908702F4908702F49087063
:104D90002F4908702F4908702F490870264A117949
:104DA000D07800F0D3F92D4880ED000A224A91799D
:104DB000507900F0CBF92A4880ED000A1E4A117A9A
:104DC000D07900F0C3F9B0EE408A26480078022876
:104DD0000AD1F0EE480A214890ED000A00F046F9A9
:104DE000214880ED000A07E0134A117AD07900F0DB
:104DF000ADF91D4880ED000A16E00E480068012854
:104E000012D11A481A4909784454232C07D100209A
:104E10001649174A12788854012016490870144818
:104E20000078401C1249087000207BE700480040D1
:104E300010020020C0010020FC060020BC00002061
:104E4000A0010020A2010020A1010020A301002058
:104E5000A4010020A50100201E02002078010020EE
:104E60007C0100206C01002080010020F45B002008
:104E7000090200200802002000B5002200BF05E062
:104E80000449885C03F0A8FB501CC2B2182AF7DB67
:104E900000BD0000CC06002010B503460C460022E1
:104EA00000BF04E0985C03F0A5FB501C82B2A24254
:104EB000F8DB10BD10B50022002340F66A14A142B1
:104EC00000D100BF0A1201249440A3B2DC43048045
:104ED00010BD21B1828942F40052828104E08289AE
:104EE0004DF6FF731A408281704770B50246002468
:104EF00000230025002040F66A16B14200D100BF11
:104F0000C1F3421501F01F03012606FA03F3012D38
:104F100002D19689334006E0022D02D1168A334031
:104F200001E0968A33400C12012606FA04F4168832
:104F3000344013B10CB1012000E0002070BDF0B589
:104F40000346002400260025002040F66A17B942D7
:104F500000D100BF1846C1F3421401F01F0601271B
:104F600007FA06F5012C01D10C3004E0022C01D126
:104F7000103000E014301AB107682F43076002E0D8
:104F80000768AF430760F0BD2DE9FF4705460E46B1
:104F90000024A14600BFA046B08900B100BF2C8A02
:104FA00024F44054F08804432C82AC8941F20C6014
:104FB0008443B08831890843718908430443AC8134
:104FC000AC8A24F44074B0890443AC826846FEF78E
:104FD00069F92048854202D01F48854202D1DDF898
:104FE0000C9001E0DDF80890A88900F4004040B181
:104FF00009EBC90000EB091031684900B0FBF1F77B
:1050000007E009EBC90000EB091031688900B0FB2B
:10501000F1F76420B7FBF0F004012009642101FBE3
:105020001078A88900F4004040B1322000EBC8009D
:10503000B0FBF1F000F00700044308E0322000EB81
:1050400008106421B0FBF1F000F00F0004432C8144
:10505000BDE8FF8700100140001401400146888828
:10506000C0F30800704700BFFEE7000010B52DED4B
:105070000A8BF0EE408AB0EE608A9FED300AF0EEC7
:10508000409AB5EEC08AF1EE10FA4FD0F5EEC08A24
:10509000F1EE10FA4AD088EE880AF0EE40AA01F04C
:1050A00089FDB4EEE90AF1EE10FA17D8B5EEC08A20
:1050B000F1EE10FA08DDB0EE680A01F07BFDC0EEFB
:1050C000290AB0EE608A09E0B0EE680A01F072FDCC
:1050D000B1EE400AC0EE290AB0EE608A88EE88AAD6
:1050E0001748D0ED000AB6EE001AB0EE4A0A01EEFB
:1050F000200A1448D0ED000A80EE801A11EE104A02
:105100002046FBF78CFA41EC1C0BB0EE4C0AF0EE9B
:105110006C0A00F091F8B0EE40BAF0EE60BA51ECD3
:105120001B0BFBF78FFA09EE100A01E09FED069AC0
:10513000B0EE490ABDEC0A8B10BD00003333B33E1C
:105140009401002098010020000000002DE9F041AA
:105150002DED088B04460D4605EB042006B24FF4F6
:105160007A7096FBF0F100FB11673846FBF739FACD
:1051700041EC1B0B9FED0F0B53EC102BFBF750F981
:1051800041EC190B4FF47A7096FBF0F73846FBF7B9
:1051900028FA41EC1A0B53EC192BFBF79AF841EC67
:1051A000180BFBF74FFA00EE100ABDEC088BBDE8B8
:1051B000F0810000FCA9F1D24D62503F0FB4054BC5
:1051C00010B503A9044A029801F03EFA10BC5DF83C
:1051D00014FB0000D16B0008D800002003B4019834
:1051E0004100009850EAC12018BF04204A0D18BFA2
:1051F00040F0010040F2FF72B2EB515F08BF40F097
:105200000200012808BF052002B0704741000802D3
:1052100018BF04200A0E18BF40F001004FF07F4273
:1052200032EA010108BF40F00200012808BF052052
:10523000704700000000000070B59B482DED020B88
:105240002DED068B079D25F00044A04218DC974801
:10525000844202DC0AD1069840B19DED060BBDECFC
:10526000068B02B0BDE8704001F0D6B8002DCCBF6F
:105270009FED8F0B9FED900BBDEC068B02B070BDC8
:105280008F48A04215DD8F48A042D8BF4FF0FF34B1
:1052900058DD9DED060B51EC100BFFF79FFF042826
:1052A00008BF01F0EDF89DED060BBDEC068B02B0DA
:1052B00070BD9DED060B51EC100B01F06FFCCDE9BC
:1052C000060181489FED828BA0423CDD8248A042CE
:1052D0001FDD00249FED82AB9DED060B53EC1A2BD6
:1052E00051EC100BFAF7F5FF9DED060B41EC190B95
:1052F00053EC1A2B51EC100BFBF792F853EC182BD4
:10530000FBF788F853EC192BFBF7FCF8CDE9060105
:1053100049E09DED060B012453EC182B51EC100BCA
:10532000FAF7D7FF9DED060B41EC190B53EC182B48
:1053300051EC100BFBF76EF853EC192BFBF7E2F86E
:10534000CDE906012FE06848A0421FDD02249FED51
:10535000689B9DED060B53EC192B51EC100BFBF7E2
:105360005FF853EC182BFAF7B4FF9DED060B41ECF8
:10537000180B53EC192B51EC100BFBF74BF853ECBB
:10538000182BFBF7BFF8CDE906010CE09DED060BED
:10539000032453EC102B9FED580B51EC100BFBF733
:1053A000B1F8CDE906019DED060B53EC102B51EC45
:1053B000100BFBF735F841EC180B53EC182BFBF7EF
:1053C0002FF841EC190B4E480621B0EE490AF0EED9
:1053D000690A784400F08CFF53EC182B51EC100B49
:1053E000FBF71EF841EC180B4648B0EE490AF0EE08
:1053F000690A0521784400F07BFF53EC192B51EC2E
:10540000100BFBF70DF841EC100B51EC180B53ECA3
:10541000102B002C0EDAFAF75CFF9DED061B53EC07
:10542000112BFAF7FDFF9DED061B53EC112BFAF73C
:10543000F4FF35E0FAF74DFF9DED061B53EC112B01
:10544000FAF7EEFF41EC100B2F48784400EBC40054
:1054500090ED001B51EC100B53EC112BFAF7DAFF17
:105460009DED061B53EC112BFAF7D4FF41EC100B0A
:105470002648784400EBC40090ED001B51EC100B63
:1054800053EC112BFAF7C9FF41EC100B002DA2BF12
:10549000BDEC068B02B070BD51EC100B81F00041E9
:1054A00041EC100B01E70000000010440000F07F09
:1054B000182D4454FB21F93F182D4454FB21F9BF0A
:1054C0000000DC3F0000203E0000F33F0000000031
:1054D000000000000000F03F0000E63F0000000078
:1054E00000000000000000400080034000000000B9
:1054F000000000000000F83F000000000000F0BFC6
:10550000BA6D0000706D0000FA6C0000B26C000013
:105510002DE9F04D2DED040B2DED0E8B96B0DDE950
:105520002550279CDDF890A025F0004624F0004887
:10553000BAF1000F14BF0121002101EB4502FC4923
:1055400053184A1093422AD3002814BF0123002382
:1055500003EB44030B44F7498B4220D358EA000184
:105560009FEDF59B76D0DFF8D8B35D4503D1BAF156
:10557000000F05D188E0BAF1000F08BF002100D06C
:10558000012101EB450111F5001F08D8002814BFC7
:105590000121002101EB440111F5001F0BD99DED04
:1055A000261B9DED240B16B0BDEC0E8B04B0BDE8A0
:1055B000F04D00F03BBF0027002DBCBFE1498845FE
:1055C00021DAE1498845A8BF02271CDAC3451ADC65
:1055D000DE4901EB2851142908DDC1F1340220FA1B
:1055E00002F101FA02F282420DD108E058B9C1F18C
:1055F000140228FA02F101FA02F2424503D101F045
:105600000101C1F1020756EA0A0124D1002C22DA75
:10561000002D18BF022F01D0012F0AD0022001F067
:105620000DF816B0BDEC0E8B04B0BDE8F04D00F0E7
:10563000DBBE022001F002F800F0D6FE51EC100BA8
:1056400081F0004141EC100B16B0BDEC0E8B04B0A4
:10565000BDE8F08D18E09FEDBEAB9FEDBF8B00283D
:1056600071D1B848804522D105F1804010F58010F5
:1056700008BFBAF1000F07D0B3450ADC002CA8BF61
:105680009DED260BE0DA0DE0B0EE490AF0EE690A76
:10569000DAE7002C06DA9DED260B51EC100B81F0B9
:1056A00000416FE0AE48784490ED000BCCE7D84560
:1056B0004DD1002C48DA2EB186423AD1BAF1000F12
:1056C00042D126E0BAF1000F13D0022000F0B6FF5D
:1056D00000F0C6FE8DED020B9DED240B8DED000B51
:1056E00010EE900A039961F31E0003909DED020BEA
:1056F000AAE78DED02AB9DED240B1AEE901A10EE89
:10570000900A8DED000B61F31E0003909DED020BDE
:105710009AE78DED028B9DED240B18EE901A10EE9A
:10572000900A8DED000B61F31E0003909DED020BBE
:105730008AE709DA9DED240B51EC190B53EC102B81
:10574000FAF7E0FE1EE020E09DED240B7CE78642A8
:105750001BDAB4F1804F0DD0A4F10050B0F1FF502E
:1057600013D1002D11DB9DED240B51EC100B02F039
:105770005BFC07E09DED240B53EC102B51EC100B60
:1057800000F0C2BC41EC100B5EE79DED240B51EC28
:10579000100B01F003FABAF1000FCDE90E0142D16E
:1057A0009FED710B46B3A6F1E040B0F17F600CD0E5
:1057B0005E4538D1002D00DAA7B3022F0CBF0120BF
:1057C0004FF0FF30FAF70DFFDCE7002D01DD002C74
:1057D0000DDA002D01DD002C1FDB002D16DA002C68
:1057E00014DB012F08BF9FED620B3FF42DAFB0EE2D
:1057F0004A0AF0EE6A0A27E7022F18BF002D0CD0E4
:10580000012F0AD1002DFFF61FAF06E0002DB8BF13
:10581000002C08DA012F3FF417AFB0EE480AF0EE83
:10582000680A11E71BE0012000EBE57050EA070170
:1058300015D0791EB0EE498AF0EE698A084308BF98
:105840009FED4D8B4E480025804570DD4D494E48FB
:10585000884514DDB0420DDB002C19DB2FE0012060
:1058600000F0ECFE16B0BDEC0E8B04B0BDE8F04DC0
:1058700000F0E6BDB34502DC002C09DC1FE08642E7
:1058800002DA002C1BDA03E05E452BDD002C16DD6E
:10589000022000F0D3FE00F0E3FD8DED020B53EC8F
:1058A0001A2B51EC180BFAF7BBFDCDE90001039957
:1058B000019861F31E0003909DED020BC4E60220E7
:1058C00000F0BCFE00F0DCFD10EE901A18EE900A1D
:1058D0008DED020B8DED008B61F31E0003909DEDAD
:1058E000020BB1E69DED0E0B53EC192B51EC100B96
:1058F000FAF790FD9FED260BCDE9080153EC102B34
:105900009DED080B51EC100BFAF78AFD9FED221B61
:1059100053EC112BFAF781FD9DED081B53EC112B75
:10592000FAF77EFD9FED1E1B53EC112B3CE08CE043
:10593000FFFF1F00FFFF0F00000000000000F03F0E
:105940000000F03F0000F07F0000404301FCFFFF3B
:10595000000000000000F07F0000000000000000D8
:105960009E6B0000000000000000000000000080AE
:10597000000000000000F0FF000000000000F0BF89
:105980000000E0410000F043FFFFEF3F0000000097
:10599000000000000000D03F555555555555D53FE6
:1059A000000000000000E03FFAF737FD9DED080B16
:1059B00041EC1A0B53EC102B51EC100BFAF730FDA5
:1059C00053EC1A2BFAF72CFD41EC1A0B9FEDFE0B52
:1059D00053EC102B9DED080B51EC100BFAF720FD4A
:1059E00041EC1B0B9FEDFA0B51EC1A0B53EC102BF7
:1059F000FAF716FD41EC1A0B9FEDF70B53EC102B49
:105A00009DED080B51EC100BFAF70AFD53EC1A2B25
:105A1000FAF700FD41EC1A0B51EC1B0B53EC1A2B5F
:105A2000FAF757FC0690CDE906519DED060B53ECB5
:105A30001B2B51EC100BFAF7EDFC53EC1A2BFAF779
:105A4000ECFC41EC100B00F0A1B90020B6F5801F72
:105A50000EDA9FEDE30B53EC102B9DED0E0B51EC8A
:105A6000100BFAF7DDFCCDE90E016FF034000E46A5
:105A700000EB2650A0F2FF37C6F31300DA4940F0DE
:105A80007F6646F040568842D8BF002408DDD749DB
:105A90008142C8BF012403DC0024A6F580167F1CC8
:105AA000D348784400EBC4000F9690ED00CB9DEDF9
:105AB0000E0B53EC1C2B51EC100BFAF7ABFC9DEDCD
:105AC0000E0B41EC1B0B53EC1C2B51EC100BFAF79B
:105AD00000FC41EC100B51EC190B53EC102BFAF7B6
